{
  "_format": "hh-sol-artifact-1",
  "contractName": "EnergyToken",
  "sourceName": "contracts/EnergyToken.sol",
  "abi": [
    {
      "inputs": [],
      "stateMutability": "nonpayable",
      "type": "constructor"
    },
    {
      "anonymous": false,
      "inputs": [
        {
          "indexed": true,
          "internalType": "address",
          "name": "owner",
          "type": "address"
        },
        {
          "indexed": true,
          "internalType": "address",
          "name": "spender",
          "type": "address"
        },
        {
          "indexed": false,
          "internalType": "uint256",
          "name": "value",
          "type": "uint256"
        }
      ],
      "name": "Approval",
      "type": "event"
    },
    {
      "anonymous": false,
      "inputs": [
        {
          "indexed": true,
          "internalType": "bytes32",
          "name": "role",
          "type": "bytes32"
        },
        {
          "indexed": true,
          "internalType": "bytes32",
          "name": "previousAdminRole",
          "type": "bytes32"
        },
        {
          "indexed": true,
          "internalType": "bytes32",
          "name": "newAdminRole",
          "type": "bytes32"
        }
      ],
      "name": "RoleAdminChanged",
      "type": "event"
    },
    {
      "anonymous": false,
      "inputs": [
        {
          "indexed": true,
          "internalType": "bytes32",
          "name": "role",
          "type": "bytes32"
        },
        {
          "indexed": true,
          "internalType": "address",
          "name": "account",
          "type": "address"
        },
        {
          "indexed": true,
          "internalType": "address",
          "name": "sender",
          "type": "address"
        }
      ],
      "name": "RoleGranted",
      "type": "event"
    },
    {
      "anonymous": false,
      "inputs": [
        {
          "indexed": true,
          "internalType": "bytes32",
          "name": "role",
          "type": "bytes32"
        },
        {
          "indexed": true,
          "internalType": "address",
          "name": "account",
          "type": "address"
        },
        {
          "indexed": true,
          "internalType": "address",
          "name": "sender",
          "type": "address"
        }
      ],
      "name": "RoleRevoked",
      "type": "event"
    },
    {
      "anonymous": false,
      "inputs": [
        {
          "indexed": true,
          "internalType": "address",
          "name": "from",
          "type": "address"
        },
        {
          "indexed": true,
          "internalType": "address",
          "name": "to",
          "type": "address"
        },
        {
          "indexed": false,
          "internalType": "uint256",
          "name": "value",
          "type": "uint256"
        }
      ],
      "name": "Transfer",
      "type": "event"
    },
    {
      "inputs": [],
      "name": "DEFAULT_ADMIN_ROLE",
      "outputs": [
        {
          "internalType": "bytes32",
          "name": "",
          "type": "bytes32"
        }
      ],
      "stateMutability": "view",
      "type": "function"
    },
    {
      "inputs": [],
      "name": "MINTER_ROLE",
      "outputs": [
        {
          "internalType": "bytes32",
          "name": "",
          "type": "bytes32"
        }
      ],
      "stateMutability": "view",
      "type": "function"
    },
    {
      "inputs": [
        {
          "internalType": "address",
          "name": "owner",
          "type": "address"
        },
        {
          "internalType": "address",
          "name": "spender",
          "type": "address"
        }
      ],
      "name": "allowance",
      "outputs": [
        {
          "internalType": "uint256",
          "name": "",
          "type": "uint256"
        }
      ],
      "stateMutability": "view",
      "type": "function"
    },
    {
      "inputs": [
        {
          "internalType": "address",
          "name": "spender",
          "type": "address"
        },
        {
          "internalType": "uint256",
          "name": "amount",
          "type": "uint256"
        }
      ],
      "name": "approve",
      "outputs": [
        {
          "internalType": "bool",
          "name": "",
          "type": "bool"
        }
      ],
      "stateMutability": "nonpayable",
      "type": "function"
    },
    {
      "inputs": [
        {
          "internalType": "address",
          "name": "account",
          "type": "address"
        }
      ],
      "name": "balanceOf",
      "outputs": [
        {
          "internalType": "uint256",
          "name": "",
          "type": "uint256"
        }
      ],
      "stateMutability": "view",
      "type": "function"
    },
    {
      "inputs": [
        {
          "internalType": "uint256",
          "name": "amount",
          "type": "uint256"
        }
      ],
      "name": "burn",
      "outputs": [],
      "stateMutability": "nonpayable",
      "type": "function"
    },
    {
      "inputs": [
        {
          "internalType": "address",
          "name": "account",
          "type": "address"
        },
        {
          "internalType": "uint256",
          "name": "amount",
          "type": "uint256"
        }
      ],
      "name": "burnFrom",
      "outputs": [],
      "stateMutability": "nonpayable",
      "type": "function"
    },
    {
      "inputs": [],
      "name": "decimals",
      "outputs": [
        {
          "internalType": "uint8",
          "name": "",
          "type": "uint8"
        }
      ],
      "stateMutability": "view",
      "type": "function"
    },
    {
      "inputs": [
        {
          "internalType": "address",
          "name": "spender",
          "type": "address"
        },
        {
          "internalType": "uint256",
          "name": "subtractedValue",
          "type": "uint256"
        }
      ],
      "name": "decreaseAllowance",
      "outputs": [
        {
          "internalType": "bool",
          "name": "",
          "type": "bool"
        }
      ],
      "stateMutability": "nonpayable",
      "type": "function"
    },
    {
      "inputs": [
        {
          "internalType": "bytes32",
          "name": "role",
          "type": "bytes32"
        }
      ],
      "name": "getRoleAdmin",
      "outputs": [
        {
          "internalType": "bytes32",
          "name": "",
          "type": "bytes32"
        }
      ],
      "stateMutability": "view",
      "type": "function"
    },
    {
      "inputs": [
        {
          "internalType": "bytes32",
          "name": "role",
          "type": "bytes32"
        },
        {
          "internalType": "address",
          "name": "account",
          "type": "address"
        }
      ],
      "name": "grantRole",
      "outputs": [],
      "stateMutability": "nonpayable",
      "type": "function"
    },
    {
      "inputs": [
        {
          "internalType": "bytes32",
          "name": "role",
          "type": "bytes32"
        },
        {
          "internalType": "address",
          "name": "account",
          "type": "address"
        }
      ],
      "name": "hasRole",
      "outputs": [
        {
          "internalType": "bool",
          "name": "",
          "type": "bool"
        }
      ],
      "stateMutability": "view",
      "type": "function"
    },
    {
      "inputs": [
        {
          "internalType": "address",
          "name": "spender",
          "type": "address"
        },
        {
          "internalType": "uint256",
          "name": "addedValue",
          "type": "uint256"
        }
      ],
      "name": "increaseAllowance",
      "outputs": [
        {
          "internalType": "bool",
          "name": "",
          "type": "bool"
        }
      ],
      "stateMutability": "nonpayable",
      "type": "function"
    },
    {
      "inputs": [
        {
          "internalType": "address",
          "name": "to",
          "type": "address"
        },
        {
          "internalType": "uint256",
          "name": "amount",
          "type": "uint256"
        }
      ],
      "name": "mint",
      "outputs": [],
      "stateMutability": "nonpayable",
      "type": "function"
    },
    {
      "inputs": [],
      "name": "name",
      "outputs": [
        {
          "internalType": "string",
          "name": "",
          "type": "string"
        }
      ],
      "stateMutability": "view",
      "type": "function"
    },
    {
      "inputs": [],
      "name": "owner",
      "outputs": [
        {
          "internalType": "address",
          "name": "",
          "type": "address"
        }
      ],
      "stateMutability": "view",
      "type": "function"
    },
    {
      "inputs": [
        {
          "internalType": "bytes32",
          "name": "role",
          "type": "bytes32"
        },
        {
          "internalType": "address",
          "name": "account",
          "type": "address"
        }
      ],
      "name": "renounceRole",
      "outputs": [],
      "stateMutability": "nonpayable",
      "type": "function"
    },
    {
      "inputs": [
        {
          "internalType": "bytes32",
          "name": "role",
          "type": "bytes32"
        },
        {
          "internalType": "address",
          "name": "account",
          "type": "address"
        }
      ],
      "name": "revokeRole",
      "outputs": [],
      "stateMutability": "nonpayable",
      "type": "function"
    },
    {
      "inputs": [
        {
          "internalType": "bytes4",
          "name": "interfaceId",
          "type": "bytes4"
        }
      ],
      "name": "supportsInterface",
      "outputs": [
        {
          "internalType": "bool",
          "name": "",
          "type": "bool"
        }
      ],
      "stateMutability": "view",
      "type": "function"
    },
    {
      "inputs": [],
      "name": "symbol",
      "outputs": [
        {
          "internalType": "string",
          "name": "",
          "type": "string"
        }
      ],
      "stateMutability": "view",
      "type": "function"
    },
    {
      "inputs": [],
      "name": "totalSupply",
      "outputs": [
        {
          "internalType": "uint256",
          "name": "",
          "type": "uint256"
        }
      ],
      "stateMutability": "view",
      "type": "function"
    },
    {
      "inputs": [
        {
          "internalType": "address",
          "name": "to",
          "type": "address"
        },
        {
          "internalType": "uint256",
          "name": "amount",
          "type": "uint256"
        }
      ],
      "name": "transfer",
      "outputs": [
        {
          "internalType": "bool",
          "name": "",
          "type": "bool"
        }
      ],
      "stateMutability": "nonpayable",
      "type": "function"
    },
    {
      "inputs": [
        {
          "internalType": "address",
          "name": "from",
          "type": "address"
        },
        {
          "internalType": "address",
          "name": "to",
          "type": "address"
        },
        {
          "internalType": "uint256",
          "name": "amount",
          "type": "uint256"
        }
      ],
      "name": "transferFrom",
      "outputs": [
        {
          "internalType": "bool",
          "name": "",
          "type": "bool"
        }
      ],
      "stateMutability": "nonpayable",
      "type": "function"
    }
  ],
  "bytecode": "0x60806040523480156200001157600080fd5b506040518060400160405280600b81526020017f456e65726779546f6b656e0000000000000000000000000000000000000000008152506040518060400160405280600381526020017f45544b0000000000000000000000000000000000000000000000000000000000815250816003908051906020019062000096929190620002a5565b508060049080519060200190620000af929190620002a5565b505050620000c76000801b336200014060201b60201c565b620000f97f9f2df0fed2c77648de5860a4cc508cd0818c85b8b8a1ab4ceeef8d981c8956a6336200014060201b60201c565b33600660006101000a81548173ffffffffffffffffffffffffffffffffffffffff021916908373ffffffffffffffffffffffffffffffffffffffff160217905550620003ba565b6200015282826200023260201b60201c565b6200022e5760016005600084815260200190815260200160002060000160008373ffffffffffffffffffffffffffffffffffffffff1673ffffffffffffffffffffffffffffffffffffffff16815260200190815260200160002060006101000a81548160ff021916908315150217905550620001d36200029d60201b60201c565b73ffffffffffffffffffffffffffffffffffffffff168173ffffffffffffffffffffffffffffffffffffffff16837f2f8788117e7eff1d82e926ec794901d17c78024a50270940304540a733656f0d60405160405180910390a45b5050565b60006005600084815260200190815260200160002060000160008373ffffffffffffffffffffffffffffffffffffffff1673ffffffffffffffffffffffffffffffffffffffff16815260200190815260200160002060009054906101000a900460ff16905092915050565b600033905090565b828054620002b39062000355565b90600052602060002090601f016020900481019282620002d7576000855562000323565b82601f10620002f257805160ff191683800117855562000323565b8280016001018555821562000323579182015b828111156200032257825182559160200191906001019062000305565b5b50905062000332919062000336565b5090565b5b808211156200035157600081600090555060010162000337565b5090565b600060028204905060018216806200036e57607f821691505b602082108114156200038557620003846200038b565b5b50919050565b7f4e487b7100000000000000000000000000000000000000000000000000000000600052602260045260246000fd5b61260d80620003ca6000396000f3fe608060405234801561001057600080fd5b506004361061014d5760003560e01c806342966c68116100c3578063a217fddf1161007c578063a217fddf146103c4578063a457c2d7146103e2578063a9059cbb14610412578063d539139314610442578063d547741f14610460578063dd62ed3e1461047c5761014d565b806342966c68146102f057806370a082311461030c57806379cc67901461033c5780638da5cb5b1461035857806391d148541461037657806395d89b41146103a65761014d565b8063248a9ca311610115578063248a9ca31461021e5780632f2ff15d1461024e578063313ce5671461026a57806336568abe1461028857806339509351146102a457806340c10f19146102d45761014d565b806301ffc9a71461015257806306fdde0314610182578063095ea7b3146101a057806318160ddd146101d057806323b872dd146101ee575b600080fd5b61016c600480360381019061016791906119ff565b6104ac565b6040516101799190611d45565b60405180910390f35b61018a610526565b6040516101979190611d7b565b60405180910390f35b6101ba60048036038101906101b5919061195e565b6105b8565b6040516101c79190611d45565b60405180910390f35b6101d86105db565b6040516101e59190611f1d565b60405180910390f35b6102086004803603810190610203919061190f565b6105e5565b6040516102159190611d45565b60405180910390f35b6102386004803603810190610233919061199a565b610614565b6040516102459190611d60565b60405180910390f35b610268600480360381019061026391906119c3565b610634565b005b610272610655565b60405161027f9190611f38565b60405180910390f35b6102a2600480360381019061029d91906119c3565b61065e565b005b6102be60048036038101906102b9919061195e565b6106e1565b6040516102cb9190611d45565b60405180910390f35b6102ee60048036038101906102e9919061195e565b610718565b005b61030a60048036038101906103059190611a28565b610751565b005b610326600480360381019061032191906118aa565b610765565b6040516103339190611f1d565b60405180910390f35b6103566004803603810190610351919061195e565b6107ad565b005b6103606107cd565b60405161036d9190611d2a565b60405180910390f35b610390600480360381019061038b91906119c3565b6107f3565b60405161039d9190611d45565b60405180910390f35b6103ae61085e565b6040516103bb9190611d7b565b60405180910390f35b6103cc6108f0565b6040516103d99190611d60565b60405180910390f35b6103fc60048036038101906103f7919061195e565b6108f7565b6040516104099190611d45565b60405180910390f35b61042c6004803603810190610427919061195e565b61096e565b6040516104399190611d45565b60405180910390f35b61044a610991565b6040516104579190611d60565b60405180910390f35b61047a600480360381019061047591906119c3565b6109b5565b005b610496600480360381019061049191906118d3565b6109d6565b6040516104a39190611f1d565b60405180910390f35b60007f7965db0b000000000000000000000000000000000000000000000000000000007bffffffffffffffffffffffffffffffffffffffffffffffffffffffff1916827bffffffffffffffffffffffffffffffffffffffffffffffffffffffff1916148061051f575061051e82610a5d565b5b9050919050565b60606003805461053590612146565b80601f016020809104026020016040519081016040528092919081815260200182805461056190612146565b80156105ae5780601f10610583576101008083540402835291602001916105ae565b820191906000526020600020905b81548152906001019060200180831161059157829003601f168201915b5050505050905090565b6000806105c3610ac7565b90506105d0818585610acf565b600191505092915050565b6000600254905090565b6000806105f0610ac7565b90506105fd858285610c9a565b610608858585610d26565b60019150509392505050565b600060056000838152602001908152602001600020600101549050919050565b61063d82610614565b61064681610fa7565b6106508383610fbb565b505050565b60006012905090565b610666610ac7565b73ffffffffffffffffffffffffffffffffffffffff168173ffffffffffffffffffffffffffffffffffffffff16146106d3576040517f08c379a00000000000000000000000000000000000000000000000000000000081526004016106ca90611edd565b60405180910390fd5b6106dd828261109c565b5050565b6000806106ec610ac7565b905061070d8185856106fe85896109d6565b6107089190611f7a565b610acf565b600191505092915050565b7f9f2df0fed2c77648de5860a4cc508cd0818c85b8b8a1ab4ceeef8d981c8956a661074281610fa7565b61074c838361117e565b505050565b61076261075c610ac7565b826112de565b50565b60008060008373ffffffffffffffffffffffffffffffffffffffff1673ffffffffffffffffffffffffffffffffffffffff168152602001908152602001600020549050919050565b6107bf826107b9610ac7565b83610c9a565b6107c982826112de565b5050565b600660009054906101000a900473ffffffffffffffffffffffffffffffffffffffff1681565b60006005600084815260200190815260200160002060000160008373ffffffffffffffffffffffffffffffffffffffff1673ffffffffffffffffffffffffffffffffffffffff16815260200190815260200160002060009054906101000a900460ff16905092915050565b60606004805461086d90612146565b80601f016020809104026020016040519081016040528092919081815260200182805461089990612146565b80156108e65780601f106108bb576101008083540402835291602001916108e6565b820191906000526020600020905b8154815290600101906020018083116108c957829003601f168201915b5050505050905090565b6000801b81565b600080610902610ac7565b9050600061091082866109d6565b905083811015610955576040517f08c379a000000000000000000000000000000000000000000000000000000000815260040161094c90611ebd565b60405180910390fd5b6109628286868403610acf565b60019250505092915050565b600080610979610ac7565b9050610986818585610d26565b600191505092915050565b7f9f2df0fed2c77648de5860a4cc508cd0818c85b8b8a1ab4ceeef8d981c8956a681565b6109be82610614565b6109c781610fa7565b6109d1838361109c565b505050565b6000600160008473ffffffffffffffffffffffffffffffffffffffff1673ffffffffffffffffffffffffffffffffffffffff16815260200190815260200160002060008373ffffffffffffffffffffffffffffffffffffffff1673ffffffffffffffffffffffffffffffffffffffff16815260200190815260200160002054905092915050565b60007f01ffc9a7000000000000000000000000000000000000000000000000000000007bffffffffffffffffffffffffffffffffffffffffffffffffffffffff1916827bffffffffffffffffffffffffffffffffffffffffffffffffffffffff1916149050919050565b600033905090565b600073ffffffffffffffffffffffffffffffffffffffff168373ffffffffffffffffffffffffffffffffffffffff161415610b3f576040517f08c379a0000000000000000000000000000000000000000000000000000000008152600401610b3690611e9d565b60405180910390fd5b600073ffffffffffffffffffffffffffffffffffffffff168273ffffffffffffffffffffffffffffffffffffffff161415610baf576040517f08c379a0000000000000000000000000000000000000000000000000000000008152600401610ba690611dfd565b60405180910390fd5b80600160008573ffffffffffffffffffffffffffffffffffffffff1673ffffffffffffffffffffffffffffffffffffffff16815260200190815260200160002060008473ffffffffffffffffffffffffffffffffffffffff1673ffffffffffffffffffffffffffffffffffffffff168152602001908152602001600020819055508173ffffffffffffffffffffffffffffffffffffffff168373ffffffffffffffffffffffffffffffffffffffff167f8c5be1e5ebec7d5bd14f71427d1e84f3dd0314c0f7b2291e5b200ac8c7c3b92583604051610c8d9190611f1d565b60405180910390a3505050565b6000610ca684846109d6565b90507fffffffffffffffffffffffffffffffffffffffffffffffffffffffffffffffff8114610d205781811015610d12576040517f08c379a0000000000000000000000000000000000000000000000000000000008152600401610d0990611e1d565b60405180910390fd5b610d1f8484848403610acf565b5b50505050565b600073ffffffffffffffffffffffffffffffffffffffff168373ffffffffffffffffffffffffffffffffffffffff161415610d96576040517f08c379a0000000000000000000000000000000000000000000000000000000008152600401610d8d90611e7d565b60405180910390fd5b600073ffffffffffffffffffffffffffffffffffffffff168273ffffffffffffffffffffffffffffffffffffffff161415610e06576040517f08c379a0000000000000000000000000000000000000000000000000000000008152600401610dfd90611dbd565b60405180910390fd5b610e118383836114b5565b60008060008573ffffffffffffffffffffffffffffffffffffffff1673ffffffffffffffffffffffffffffffffffffffff16815260200190815260200160002054905081811015610e97576040517f08c379a0000000000000000000000000000000000000000000000000000000008152600401610e8e90611e3d565b60405180910390fd5b8181036000808673ffffffffffffffffffffffffffffffffffffffff1673ffffffffffffffffffffffffffffffffffffffff16815260200190815260200160002081905550816000808573ffffffffffffffffffffffffffffffffffffffff1673ffffffffffffffffffffffffffffffffffffffff1681526020019081526020016000206000828254610f2a9190611f7a565b925050819055508273ffffffffffffffffffffffffffffffffffffffff168473ffffffffffffffffffffffffffffffffffffffff167fddf252ad1be2c89b69c2b068fc378daa952ba7f163c4a11628f55a4df523b3ef84604051610f8e9190611f1d565b60405180910390a3610fa18484846114ba565b50505050565b610fb881610fb3610ac7565b6114bf565b50565b610fc582826107f3565b6110985760016005600084815260200190815260200160002060000160008373ffffffffffffffffffffffffffffffffffffffff1673ffffffffffffffffffffffffffffffffffffffff16815260200190815260200160002060006101000a81548160ff02191690831515021790555061103d610ac7565b73ffffffffffffffffffffffffffffffffffffffff168173ffffffffffffffffffffffffffffffffffffffff16837f2f8788117e7eff1d82e926ec794901d17c78024a50270940304540a733656f0d60405160405180910390a45b5050565b6110a682826107f3565b1561117a5760006005600084815260200190815260200160002060000160008373ffffffffffffffffffffffffffffffffffffffff1673ffffffffffffffffffffffffffffffffffffffff16815260200190815260200160002060006101000a81548160ff02191690831515021790555061111f610ac7565b73ffffffffffffffffffffffffffffffffffffffff168173ffffffffffffffffffffffffffffffffffffffff16837ff6391f5c32d9c69d2a47ea670b442974b53935d1edc7fd64eb21e047a839171b60405160405180910390a45b5050565b600073ffffffffffffffffffffffffffffffffffffffff168273ffffffffffffffffffffffffffffffffffffffff1614156111ee576040517f08c379a00000000000000000000000000000000000000000000000000000000081526004016111e590611efd565b60405180910390fd5b6111fa600083836114b5565b806002600082825461120c9190611f7a565b92505081905550806000808473ffffffffffffffffffffffffffffffffffffffff1673ffffffffffffffffffffffffffffffffffffffff16815260200190815260200160002060008282546112619190611f7a565b925050819055508173ffffffffffffffffffffffffffffffffffffffff16600073ffffffffffffffffffffffffffffffffffffffff167fddf252ad1be2c89b69c2b068fc378daa952ba7f163c4a11628f55a4df523b3ef836040516112c69190611f1d565b60405180910390a36112da600083836114ba565b5050565b600073ffffffffffffffffffffffffffffffffffffffff168273ffffffffffffffffffffffffffffffffffffffff16141561134e576040517f08c379a000000000000000000000000000000000000000000000000000000000815260040161134590611e5d565b60405180910390fd5b61135a826000836114b5565b60008060008473ffffffffffffffffffffffffffffffffffffffff1673ffffffffffffffffffffffffffffffffffffffff168152602001908152602001600020549050818110156113e0576040517f08c379a00000000000000000000000000000000000000000000000000000000081526004016113d790611ddd565b60405180910390fd5b8181036000808573ffffffffffffffffffffffffffffffffffffffff1673ffffffffffffffffffffffffffffffffffffffff168152602001908152602001600020819055508160026000828254611437919061202a565b92505081905550600073ffffffffffffffffffffffffffffffffffffffff168373ffffffffffffffffffffffffffffffffffffffff167fddf252ad1be2c89b69c2b068fc378daa952ba7f163c4a11628f55a4df523b3ef8460405161149c9190611f1d565b60405180910390a36114b0836000846114ba565b505050565b505050565b505050565b6114c982826107f3565b611558576114ee8173ffffffffffffffffffffffffffffffffffffffff16601461155c565b6114fc8360001c602061155c565b60405160200161150d929190611cf0565b6040516020818303038152906040526040517f08c379a000000000000000000000000000000000000000000000000000000000815260040161154f9190611d7b565b60405180910390fd5b5050565b60606000600283600261156f9190611fd0565b6115799190611f7a565b67ffffffffffffffff8111156115b8577f4e487b7100000000000000000000000000000000000000000000000000000000600052604160045260246000fd5b6040519080825280601f01601f1916602001820160405280156115ea5781602001600182028036833780820191505090505b5090507f300000000000000000000000000000000000000000000000000000000000000081600081518110611648577f4e487b7100000000000000000000000000000000000000000000000000000000600052603260045260246000fd5b60200101907effffffffffffffffffffffffffffffffffffffffffffffffffffffffffffff1916908160001a9053507f7800000000000000000000000000000000000000000000000000000000000000816001815181106116d2577f4e487b7100000000000000000000000000000000000000000000000000000000600052603260045260246000fd5b60200101907effffffffffffffffffffffffffffffffffffffffffffffffffffffffffffff1916908160001a905350600060018460026117129190611fd0565b61171c9190611f7a565b90505b6001811115611808577f3031323334353637383961626364656600000000000000000000000000000000600f861660108110611784577f4e487b7100000000000000000000000000000000000000000000000000000000600052603260045260246000fd5b1a60f81b8282815181106117c1577f4e487b7100000000000000000000000000000000000000000000000000000000600052603260045260246000fd5b60200101907effffffffffffffffffffffffffffffffffffffffffffffffffffffffffffff1916908160001a905350600485901c9450806118019061211c565b905061171f565b506000841461184c576040517f08c379a000000000000000000000000000000000000000000000000000000000815260040161184390611d9d565b60405180910390fd5b8091505092915050565b6000813590506118658161257b565b92915050565b60008135905061187a81612592565b92915050565b60008135905061188f816125a9565b92915050565b6000813590506118a4816125c0565b92915050565b6000602082840312156118bc57600080fd5b60006118ca84828501611856565b91505092915050565b600080604083850312156118e657600080fd5b60006118f485828601611856565b925050602061190585828601611856565b9150509250929050565b60008060006060848603121561192457600080fd5b600061193286828701611856565b935050602061194386828701611856565b925050604061195486828701611895565b9150509250925092565b6000806040838503121561197157600080fd5b600061197f85828601611856565b925050602061199085828601611895565b9150509250929050565b6000602082840312156119ac57600080fd5b60006119ba8482850161186b565b91505092915050565b600080604083850312156119d657600080fd5b60006119e48582860161186b565b92505060206119f585828601611856565b9150509250929050565b600060208284031215611a1157600080fd5b6000611a1f84828501611880565b91505092915050565b600060208284031215611a3a57600080fd5b6000611a4884828501611895565b91505092915050565b611a5a8161205e565b82525050565b611a6981612070565b82525050565b611a788161207c565b82525050565b6000611a8982611f53565b611a938185611f5e565b9350611aa38185602086016120e9565b611aac816121d6565b840191505092915050565b6000611ac282611f53565b611acc8185611f6f565b9350611adc8185602086016120e9565b80840191505092915050565b6000611af5602083611f5e565b9150611b00826121e7565b602082019050919050565b6000611b18602383611f5e565b9150611b2382612210565b604082019050919050565b6000611b3b602283611f5e565b9150611b468261225f565b604082019050919050565b6000611b5e602283611f5e565b9150611b69826122ae565b604082019050919050565b6000611b81601d83611f5e565b9150611b8c826122fd565b602082019050919050565b6000611ba4602683611f5e565b9150611baf82612326565b604082019050919050565b6000611bc7602183611f5e565b9150611bd282612375565b604082019050919050565b6000611bea602583611f5e565b9150611bf5826123c4565b604082019050919050565b6000611c0d602483611f5e565b9150611c1882612413565b604082019050919050565b6000611c30601783611f6f565b9150611c3b82612462565b601782019050919050565b6000611c53602583611f5e565b9150611c5e8261248b565b604082019050919050565b6000611c76601183611f6f565b9150611c81826124da565b601182019050919050565b6000611c99602f83611f5e565b9150611ca482612503565b604082019050919050565b6000611cbc601f83611f5e565b9150611cc782612552565b602082019050919050565b611cdb816120d2565b82525050565b611cea816120dc565b82525050565b6000611cfb82611c23565b9150611d078285611ab7565b9150611d1282611c69565b9150611d1e8284611ab7565b91508190509392505050565b6000602082019050611d3f6000830184611a51565b92915050565b6000602082019050611d5a6000830184611a60565b92915050565b6000602082019050611d756000830184611a6f565b92915050565b60006020820190508181036000830152611d958184611a7e565b905092915050565b60006020820190508181036000830152611db681611ae8565b9050919050565b60006020820190508181036000830152611dd681611b0b565b9050919050565b60006020820190508181036000830152611df681611b2e565b9050919050565b60006020820190508181036000830152611e1681611b51565b9050919050565b60006020820190508181036000830152611e3681611b74565b9050919050565b60006020820190508181036000830152611e5681611b97565b9050919050565b60006020820190508181036000830152611e7681611bba565b9050919050565b60006020820190508181036000830152611e9681611bdd565b9050919050565b60006020820190508181036000830152611eb681611c00565b9050919050565b60006020820190508181036000830152611ed681611c46565b9050919050565b60006020820190508181036000830152611ef681611c8c565b9050919050565b60006020820190508181036000830152611f1681611caf565b9050919050565b6000602082019050611f326000830184611cd2565b92915050565b6000602082019050611f4d6000830184611ce1565b92915050565b600081519050919050565b600082825260208201905092915050565b600081905092915050565b6000611f85826120d2565b9150611f90836120d2565b9250827fffffffffffffffffffffffffffffffffffffffffffffffffffffffffffffffff03821115611fc557611fc4612178565b5b828201905092915050565b6000611fdb826120d2565b9150611fe6836120d2565b9250817fffffffffffffffffffffffffffffffffffffffffffffffffffffffffffffffff048311821515161561201f5761201e612178565b5b828202905092915050565b6000612035826120d2565b9150612040836120d2565b92508282101561205357612052612178565b5b828203905092915050565b6000612069826120b2565b9050919050565b60008115159050919050565b6000819050919050565b60007fffffffff0000000000000000000000000000000000000000000000000000000082169050919050565b600073ffffffffffffffffffffffffffffffffffffffff82169050919050565b6000819050919050565b600060ff82169050919050565b60005b838110156121075780820151818401526020810190506120ec565b83811115612116576000848401525b50505050565b6000612127826120d2565b9150600082141561213b5761213a612178565b5b600182039050919050565b6000600282049050600182168061215e57607f821691505b60208210811415612172576121716121a7565b5b50919050565b7f4e487b7100000000000000000000000000000000000000000000000000000000600052601160045260246000fd5b7f4e487b7100000000000000000000000000000000000000000000000000000000600052602260045260246000fd5b6000601f19601f8301169050919050565b7f537472696e67733a20686578206c656e67746820696e73756666696369656e74600082015250565b7f45524332303a207472616e7366657220746f20746865207a65726f206164647260008201527f6573730000000000000000000000000000000000000000000000000000000000602082015250565b7f45524332303a206275726e20616d6f756e7420657863656564732062616c616e60008201527f6365000000000000000000000000000000000000000000000000000000000000602082015250565b7f45524332303a20617070726f766520746f20746865207a65726f20616464726560008201527f7373000000000000000000000000000000000000000000000000000000000000602082015250565b7f45524332303a20696e73756666696369656e7420616c6c6f77616e6365000000600082015250565b7f45524332303a207472616e7366657220616d6f756e742065786365656473206260008201527f616c616e63650000000000000000000000000000000000000000000000000000602082015250565b7f45524332303a206275726e2066726f6d20746865207a65726f2061646472657360008201527f7300000000000000000000000000000000000000000000000000000000000000602082015250565b7f45524332303a207472616e736665722066726f6d20746865207a65726f20616460008201527f6472657373000000000000000000000000000000000000000000000000000000602082015250565b7f45524332303a20617070726f76652066726f6d20746865207a65726f2061646460008201527f7265737300000000000000000000000000000000000000000000000000000000602082015250565b7f416363657373436f6e74726f6c3a206163636f756e7420000000000000000000600082015250565b7f45524332303a2064656372656173656420616c6c6f77616e63652062656c6f7760008201527f207a65726f000000000000000000000000000000000000000000000000000000602082015250565b7f206973206d697373696e6720726f6c6520000000000000000000000000000000600082015250565b7f416363657373436f6e74726f6c3a2063616e206f6e6c792072656e6f756e636560008201527f20726f6c657320666f722073656c660000000000000000000000000000000000602082015250565b7f45524332303a206d696e7420746f20746865207a65726f206164647265737300600082015250565b6125848161205e565b811461258f57600080fd5b50565b61259b8161207c565b81146125a657600080fd5b50565b6125b281612086565b81146125bd57600080fd5b50565b6125c9816120d2565b81146125d457600080fd5b5056fea26469706673582212200397ff1cc00a292587cc74c3dd700fd9eba6e486b3b5862f3d3593b201f3a5fe64736f6c63430008040033",
  "linkReferences": {},
  "deployedLinkReferences": {}
}