{
    "_format": "hh-sol-artifact-1",
    "contractName": "EnergyToken",
    "sourceName": "contracts/EnergyToken.sol",
    "abi": [
        {
            "inputs": [],
            "stateMutability": "nonpayable",
            "type": "constructor"
        },
        {
            "anonymous": false,
            "inputs": [
                {
                    "indexed": true,
                    "internalType": "address",
                    "name": "owner",
                    "type": "address"
                },
                {
                    "indexed": true,
                    "internalType": "address",
                    "name": "spender",
                    "type": "address"
                },
                {
                    "indexed": false,
                    "internalType": "uint256",
                    "name": "value",
                    "type": "uint256"
                }
            ],
            "name": "Approval",
            "type": "event"
        },
        {
            "anonymous": false,
            "inputs": [
                {
                    "indexed": true,
                    "internalType": "bytes32",
                    "name": "role",
                    "type": "bytes32"
                },
                {
                    "indexed": true,
                    "internalType": "bytes32",
                    "name": "previousAdminRole",
                    "type": "bytes32"
                },
                {
                    "indexed": true,
                    "internalType": "bytes32",
                    "name": "newAdminRole",
                    "type": "bytes32"
                }
            ],
            "name": "RoleAdminChanged",
            "type": "event"
        },
        {
            "anonymous": false,
            "inputs": [
                {
                    "indexed": true,
                    "internalType": "bytes32",
                    "name": "role",
                    "type": "bytes32"
                },
                {
                    "indexed": true,
                    "internalType": "address",
                    "name": "account",
                    "type": "address"
                },
                {
                    "indexed": true,
                    "internalType": "address",
                    "name": "sender",
                    "type": "address"
                }
            ],
            "name": "RoleGranted",
            "type": "event"
        },
        {
            "anonymous": false,
            "inputs": [
                {
                    "indexed": true,
                    "internalType": "bytes32",
                    "name": "role",
                    "type": "bytes32"
                },
                {
                    "indexed": true,
                    "internalType": "address",
                    "name": "account",
                    "type": "address"
                },
                {
                    "indexed": true,
                    "internalType": "address",
                    "name": "sender",
                    "type": "address"
                }
            ],
            "name": "RoleRevoked",
            "type": "event"
        },
        {
            "anonymous": false,
            "inputs": [
                {
                    "indexed": true,
                    "internalType": "address",
                    "name": "from",
                    "type": "address"
                },
                {
                    "indexed": true,
                    "internalType": "address",
                    "name": "to",
                    "type": "address"
                },
                {
                    "indexed": false,
                    "internalType": "uint256",
                    "name": "value",
                    "type": "uint256"
                }
            ],
            "name": "Transfer",
            "type": "event"
        },
        {
            "inputs": [],
            "name": "DEFAULT_ADMIN_ROLE",
            "outputs": [
                {
                    "internalType": "bytes32",
                    "name": "",
                    "type": "bytes32"
                }
            ],
            "stateMutability": "view",
            "type": "function"
        },
        {
            "inputs": [],
            "name": "MINTER_ROLE",
            "outputs": [
                {
                    "internalType": "bytes32",
                    "name": "",
                    "type": "bytes32"
                }
            ],
            "stateMutability": "view",
            "type": "function"
        },
        {
            "inputs": [
                {
                    "internalType": "address",
                    "name": "owner",
                    "type": "address"
                },
                {
                    "internalType": "address",
                    "name": "spender",
                    "type": "address"
                }
            ],
            "name": "allowance",
            "outputs": [
                {
                    "internalType": "uint256",
                    "name": "",
                    "type": "uint256"
                }
            ],
            "stateMutability": "view",
            "type": "function"
        },
        {
            "inputs": [
                {
                    "internalType": "address",
                    "name": "spender",
                    "type": "address"
                },
                {
                    "internalType": "uint256",
                    "name": "amount",
                    "type": "uint256"
                }
            ],
            "name": "approve",
            "outputs": [
                {
                    "internalType": "bool",
                    "name": "",
                    "type": "bool"
                }
            ],
            "stateMutability": "nonpayable",
            "type": "function"
        },
        {
            "inputs": [
                {
                    "internalType": "address",
                    "name": "account",
                    "type": "address"
                }
            ],
            "name": "balanceOf",
            "outputs": [
                {
                    "internalType": "uint256",
                    "name": "",
                    "type": "uint256"
                }
            ],
            "stateMutability": "view",
            "type": "function"
        },
        {
            "inputs": [
                {
                    "internalType": "uint256",
                    "name": "amount",
                    "type": "uint256"
                }
            ],
            "name": "burn",
            "outputs": [],
            "stateMutability": "nonpayable",
            "type": "function"
        },
        {
            "inputs": [
                {
                    "internalType": "address",
                    "name": "account",
                    "type": "address"
                },
                {
                    "internalType": "uint256",
                    "name": "amount",
                    "type": "uint256"
                }
            ],
            "name": "burnFrom",
            "outputs": [],
            "stateMutability": "nonpayable",
            "type": "function"
        },
        {
            "inputs": [],
            "name": "decimals",
            "outputs": [
                {
                    "internalType": "uint8",
                    "name": "",
                    "type": "uint8"
                }
            ],
            "stateMutability": "view",
            "type": "function"
        },
        {
            "inputs": [
                {
                    "internalType": "address",
                    "name": "spender",
                    "type": "address"
                },
                {
                    "internalType": "uint256",
                    "name": "subtractedValue",
                    "type": "uint256"
                }
            ],
            "name": "decreaseAllowance",
            "outputs": [
                {
                    "internalType": "bool",
                    "name": "",
                    "type": "bool"
                }
            ],
            "stateMutability": "nonpayable",
            "type": "function"
        },
        {
            "inputs": [
                {
                    "internalType": "bytes32",
                    "name": "role",
                    "type": "bytes32"
                }
            ],
            "name": "getRoleAdmin",
            "outputs": [
                {
                    "internalType": "bytes32",
                    "name": "",
                    "type": "bytes32"
                }
            ],
            "stateMutability": "view",
            "type": "function"
        },
        {
            "inputs": [
                {
                    "internalType": "bytes32",
                    "name": "role",
                    "type": "bytes32"
                },
                {
                    "internalType": "address",
                    "name": "account",
                    "type": "address"
                }
            ],
            "name": "grantRole",
            "outputs": [],
            "stateMutability": "nonpayable",
            "type": "function"
        },
        {
            "inputs": [
                {
                    "internalType": "bytes32",
                    "name": "role",
                    "type": "bytes32"
                },
                {
                    "internalType": "address",
                    "name": "account",
                    "type": "address"
                }
            ],
            "name": "hasRole",
            "outputs": [
                {
                    "internalType": "bool",
                    "name": "",
                    "type": "bool"
                }
            ],
            "stateMutability": "view",
            "type": "function"
        },
        {
            "inputs": [
                {
                    "internalType": "address",
                    "name": "spender",
                    "type": "address"
                },
                {
                    "internalType": "uint256",
                    "name": "addedValue",
                    "type": "uint256"
                }
            ],
            "name": "increaseAllowance",
            "outputs": [
                {
                    "internalType": "bool",
                    "name": "",
                    "type": "bool"
                }
            ],
            "stateMutability": "nonpayable",
            "type": "function"
        },
        {
            "inputs": [
                {
                    "internalType": "address",
                    "name": "to",
                    "type": "address"
                },
                {
                    "internalType": "uint256",
                    "name": "amount",
                    "type": "uint256"
                }
            ],
            "name": "mint",
            "outputs": [],
            "stateMutability": "nonpayable",
            "type": "function"
        },
        {
            "inputs": [],
            "name": "name",
            "outputs": [
                {
                    "internalType": "string",
                    "name": "",
                    "type": "string"
                }
            ],
            "stateMutability": "view",
            "type": "function"
        },
        {
            "inputs": [],
            "name": "owner",
            "outputs": [
                {
                    "internalType": "address",
                    "name": "",
                    "type": "address"
                }
            ],
            "stateMutability": "view",
            "type": "function"
        },
        {
            "inputs": [
                {
                    "internalType": "bytes32",
                    "name": "role",
                    "type": "bytes32"
                },
                {
                    "internalType": "address",
                    "name": "account",
                    "type": "address"
                }
            ],
            "name": "renounceRole",
            "outputs": [],
            "stateMutability": "nonpayable",
            "type": "function"
        },
        {
            "inputs": [
                {
                    "internalType": "bytes32",
                    "name": "role",
                    "type": "bytes32"
                },
                {
                    "internalType": "address",
                    "name": "account",
                    "type": "address"
                }
            ],
            "name": "revokeRole",
            "outputs": [],
            "stateMutability": "nonpayable",
            "type": "function"
        },
        {
            "inputs": [
                {
                    "internalType": "bytes4",
                    "name": "interfaceId",
                    "type": "bytes4"
                }
            ],
            "name": "supportsInterface",
            "outputs": [
                {
                    "internalType": "bool",
                    "name": "",
                    "type": "bool"
                }
            ],
            "stateMutability": "view",
            "type": "function"
        },
        {
            "inputs": [],
            "name": "symbol",
            "outputs": [
                {
                    "internalType": "string",
                    "name": "",
                    "type": "string"
                }
            ],
            "stateMutability": "view",
            "type": "function"
        },
        {
            "inputs": [],
            "name": "totalSupply",
            "outputs": [
                {
                    "internalType": "uint256",
                    "name": "",
                    "type": "uint256"
                }
            ],
            "stateMutability": "view",
            "type": "function"
        },
        {
            "inputs": [
                {
                    "internalType": "address",
                    "name": "to",
                    "type": "address"
                },
                {
                    "internalType": "uint256",
                    "name": "amount",
                    "type": "uint256"
                }
            ],
            "name": "transfer",
            "outputs": [
                {
                    "internalType": "bool",
                    "name": "",
                    "type": "bool"
                }
            ],
            "stateMutability": "nonpayable",
            "type": "function"
        },
        {
            "inputs": [
                {
                    "internalType": "address",
                    "name": "from",
                    "type": "address"
                },
                {
                    "internalType": "address",
                    "name": "to",
                    "type": "address"
                },
                {
                    "internalType": "uint256",
                    "name": "amount",
                    "type": "uint256"
                }
            ],
            "name": "transferFrom",
            "outputs": [
                {
                    "internalType": "bool",
                    "name": "",
                    "type": "bool"
                }
            ],
            "stateMutability": "nonpayable",
            "type": "function"
        }
    ],
    "bytecode": "0x60803462000405576001600160401b03906040908082018381118282101762000305578252600b81526020906a22b732b933bcaa37b5b2b760a91b8282015282519383850185811082821117620003055784526003908186526245544b60e81b8487015282519181831162000305578054926001948585811c95168015620003fa575b87861014620003e4578190601f958681116200038e575b50879086831160011462000327576000926200031b575b505060001982841b1c191690851b1781555b8651918211620003055760049283548581811c91168015620002fa575b87821014620002e5578181116200029a575b50859083116001146200022e5782939495969760009362000222575b505082851b92600019911b1c19161790555b60008052600582528260002033600052825260ff83600020541615620001e5575b7f9f2df0fed2c77648de5860a4cc508cd0818c85b8b8a1ab4ceeef8d981c8956a69182600052600581528360002033600052815260ff84600020541615620001a4575b600680546001600160a01b03191633179055835161135c90816200040b8239f35b826000526005815283600020903360005252826000209060ff198254161790553390339060008051602062001767833981519152600080a438808062000183565b600080526005825282600020336000528252826000208160ff1982541617905533336000600080516020620017678339815191528180a462000140565b0151915038806200010d565b90601f1983169184600052866000209260005b81811062000284575098848798999a9796971062000269575b50505050811b0190556200011f565b01519060f884600019921b161c19169055388080806200025a565b8a83015185559387019391880191880162000241565b84600052866000208280860160051c820192898710620002db575b0160051c019086905b828110620002ce575050620000f1565b60008155018690620002be565b92508192620002b5565b602285634e487b7160e01b6000525260246000fd5b90607f1690620000df565b634e487b7160e01b600052604160045260246000fd5b015190503880620000b0565b90879350601f1983169185600052896000209260005b8b8282106200037757505084116200035e575b505050811b018155620000c2565b015160001983861b60f8161c1916905538808062000350565b8385015186558b979095019493840193016200033d565b90915083600052876000208680850160051c8201928a8610620003da575b918991869594930160051c01915b828110620003ca57505062000099565b60008155859450899101620003ba565b92508192620003ac565b634e487b7160e01b600052602260045260246000fd5b94607f169462000082565b600080fdfe608060408181526004918236101561001657600080fd5b600092833560e01c91826301ffc9a714610a6d5750816306fdde0314610996578163095ea7b31461096c57816318160ddd1461094d57816323b872dd14610910578163248a9ca3146108e55781632f2ff15d14610838578163313ce5671461081c57816336568abe1461078a578163395093511461073a57816340c10f19146104a857816342966c681461048a57816370a082311461045357816379cc6790146104235781638da5cb5b146103fa57816391d14854146103b357816395d89b41146102cd578163a217fddf146102b2578163a457c2d71461020a578163a9059cbb146101d9578163d5391393146101b0578163d547741f1461016d575063dd62ed3e1461012257600080fd5b346101695780600319360112610169578060209261013e610b0f565b610146610b2a565b6001600160a01b0391821683526001865283832091168252845220549051908152f35b5080fd5b919050346101ac57806003193601126101ac576101a991356101a46001610192610b2a565b93838752600560205286200154610b40565b610d2f565b80f35b8280fd5b5050346101695781600319360112610169576020905160008051602061131c8339815191528152f35b5050346101695780600319360112610169576020906102036101f9610b0f565b6024359033610dc8565b5160018152f35b905082346102af57826003193601126102af57610225610b0f565b918360243592338152600160205281812060018060a01b038616825260205220549082821061025e576020856102038585038733610f2b565b608490602086519162461bcd60e51b8352820152602560248201527f45524332303a2064656372656173656420616c6c6f77616e63652062656c6f77604482015264207a65726f60d81b6064820152fd5b80fd5b50503461016957816003193601126101695751908152602090f35b838334610169578160031936011261016957805191809380549160019083821c928285169485156103a9575b6020958686108114610396578589529081156103725750600114610337575b6103338787610329828c0383610d0c565b5191829182610ae3565b0390f35b9080949750528583205b82841061035f57505050826103339461032992820101948680610318565b8054868501880152928601928101610341565b60ff19168887015250505050151560051b8301019250610329826103338680610318565b634e487b7160e01b845260228352602484fd5b93607f16936102f9565b9050346101ac57816003193601126101ac578160209360ff926103d4610b2a565b90358252600586528282206001600160a01b039091168252855220549151911615158152f35b50503461016957816003193601126101695760065490516001600160a01b039091168152602090f35b505034610169573660031901126102af576101a961043f610b0f565b6024359061044e82338361102d565b6110c5565b5050346101695760203660031901126101695760209181906001600160a01b0361047b610b0f565b16815280845220549051908152f35b839034610169576020366003190112610169576101a99035336110c5565b9050346101ac57816003193601126101ac576104c2610b0f565b9060249283359160008051602061131c8339815191529384875260209460058652838820338952865260ff84892054161561058a57506001600160a01b031694851561054a5750509181859361052960008051602061133c83398151915294600254610da5565b600255858552848352808520610540838254610da5565b905551908152a380f35b601f9085606494519362461bcd60e51b85528401528201527f45524332303a206d696e7420746f20746865207a65726f2061646472657373006044820152fd5b859150868891610599336111ff565b90918651926105a784610cdb565b6042845285840194606036873784511561072857603086538451906001918210156107165790607860218701536041915b8183116106ad5750505061067e575061067a9386936106669361065760489461062e9a519a8576020b1b1b2b9b9a1b7b73a3937b61d1030b1b1b7bab73a1604d1b8d978801528251928391603789019101610ac0565b8401917001034b99036b4b9b9b4b733903937b6329607d1b603784015251809386840190610ac0565b01036028810187520185610d0c565b5162461bcd60e51b81529283928301610ae3565b0390fd5b9250505081606494519362461bcd60e51b85528401528201526000805160206112fc8339815191526044820152fd5b909192600f81166010811015610704576f181899199a1a9b1b9c1cb0b131b232b360811b901a6106dd85896111d8565b53891c9280156106f2576000190191906105d8565b634e487b7160e01b825260118a528482fd5b634e487b7160e01b835260328b528583fd5b634e487b7160e01b8152603289528390fd5b634e487b7160e01b8152603288529050fd5b50503461016957806003193601126101695761020360209261078361075d610b0f565b338352600186528483206001600160a01b03821684528652918490205460243590610da5565b9033610f2b565b839150346101695782600319360112610169576107a5610b2a565b90336001600160a01b038316036107c157906101a99135610d2f565b608490602085519162461bcd60e51b8352820152602f60248201527f416363657373436f6e74726f6c3a2063616e206f6e6c792072656e6f756e636560448201526e103937b632b9903337b91039b2b63360891b6064820152fd5b5050346101695781600319360112610169576020905160128152f35b9050346101ac57816003193601126101ac573590610854610b2a565b90828452600560205261086c60018286200154610b40565b828452600560209081528185206001600160a01b039093168086529290528084205460ff161561089a578380f35b82845260056020528084208285526020528320600160ff1982541617905533917f2f8788117e7eff1d82e926ec794901d17c78024a50270940304540a733656f0d8480a43880808380f35b9050346101ac5760203660031901126101ac5781602093600192358152600585522001549051908152f35b50503461016957606036600319011261016957602090610203610931610b0f565b610939610b2a565b6044359161094883338361102d565b610dc8565b5050346101695781600319360112610169576020906002549051908152f35b50503461016957806003193601126101695760209061020361098c610b0f565b6024359033610f2b565b919050346101ac57826003193601126101ac57805191836003549060019082821c928281168015610a63575b6020958686108214610a505750848852908115610a2e57506001146109f3575b6103338686610329828b0383610d0c565b929550600383528583205b828410610a1b5750505082610333946103299282010194386109e2565b80548685018801529286019281016109fe565b60ff191687860152505050151560051b830101925061032982610333386109e2565b634e487b7160e01b845260229052602483fd5b93607f16936109c2565b8491346101ac5760203660031901126101ac573563ffffffff60e01b81168091036101ac5760209250637965db0b60e01b8114908115610aaf575b5015158152f35b6301ffc9a760e01b14905083610aa8565b60005b838110610ad35750506000910152565b8181015183820152602001610ac3565b60409160208252610b038151809281602086015260208686019101610ac0565b601f01601f1916010190565b600435906001600160a01b0382168203610b2557565b600080fd5b602435906001600160a01b0382168203610b2557565b600081815260209060058252604092838220338352835260ff848320541615610b695750505050565b610b72336111ff565b845191610b7e83610cdb565b60428352848301936060368637835115610cc75760308553835190600191821015610cc75790607860218601536041915b818311610c5957505050610c295761062e938593610c1393610c0460489461067a9951988576020b1b1b2b9b9a1b7b73a3937b61d1030b1b1b7bab73a1604d1b8b978801528251928391603789019101610ac0565b01036028810185520183610d0c565b5162461bcd60e51b815291829160048301610ae3565b60648486519062461bcd60e51b825280600483015260248201526000805160206112fc8339815191526044820152fd5b909192600f81166010811015610cb3576f181899199a1a9b1b9c1cb0b131b232b360811b901a610c8985886111d8565b5360041c928015610c9f57600019019190610baf565b634e487b7160e01b82526011600452602482fd5b634e487b7160e01b83526032600452602483fd5b634e487b7160e01b81526032600452602490fd5b608081019081106001600160401b03821117610cf657604052565b634e487b7160e01b600052604160045260246000fd5b601f909101601f19168101906001600160401b03821190821017610cf657604052565b906000918083526005602052604083209160018060a01b03169182845260205260ff604084205416610d6057505050565b8083526005602052604083208284526020526040832060ff1981541690557ff6391f5c32d9c69d2a47ea670b442974b53935d1edc7fd64eb21e047a839171b339380a4565b91908201809211610db257565b634e487b7160e01b600052601160045260246000fd5b6001600160a01b03908116918215610ed85716918215610e8757600082815280602052604081205491808310610e33576040828260008051602061133c833981519152958760209652828652038282205586815220610e28828254610da5565b9055604051908152a3565b60405162461bcd60e51b815260206004820152602660248201527f45524332303a207472616e7366657220616d6f756e7420657863656564732062604482015265616c616e636560d01b6064820152608490fd5b60405162461bcd60e51b815260206004820152602360248201527f45524332303a207472616e7366657220746f20746865207a65726f206164647260448201526265737360e81b6064820152608490fd5b60405162461bcd60e51b815260206004820152602560248201527f45524332303a207472616e736665722066726f6d20746865207a65726f206164604482015264647265737360d81b6064820152608490fd5b6001600160a01b03908116918215610fdc5716918215610f8c5760207f8c5be1e5ebec7d5bd14f71427d1e84f3dd0314c0f7b2291e5b200ac8c7c3b925918360005260018252604060002085600052825280604060002055604051908152a3565b60405162461bcd60e51b815260206004820152602260248201527f45524332303a20617070726f766520746f20746865207a65726f206164647265604482015261737360f01b6064820152608490fd5b60405162461bcd60e51b8152602060048201526024808201527f45524332303a20617070726f76652066726f6d20746865207a65726f206164646044820152637265737360e01b6064820152608490fd5b9060018060a01b0380831660005260016020526040600020908216600052602052604060002054926000198403611065575b50505050565b80841061108057611077930391610f2b565b3880808061105f565b60405162461bcd60e51b815260206004820152601d60248201527f45524332303a20696e73756666696369656e7420616c6c6f77616e63650000006044820152606490fd5b6001600160a01b0316801561118957600091818352826020526040832054818110611139578190838552846020520360408420556002548181039081116111255760008051602061133c83398151915291602091600255604051908152a3565b634e487b7160e01b84526011600452602484fd5b60405162461bcd60e51b815260206004820152602260248201527f45524332303a206275726e20616d6f756e7420657863656564732062616c616e604482015261636560f01b6064820152608490fd5b60405162461bcd60e51b815260206004820152602160248201527f45524332303a206275726e2066726f6d20746865207a65726f206164647265736044820152607360f81b6064820152608490fd5b9081518110156111e9570160200190565b634e487b7160e01b600052603260045260246000fd5b60405190606082016001600160401b03811183821017610cf657604052602a82526020820160403682378251156111e9576030905381516001908110156111e957607860218401536029905b80821161128d57505061125b5790565b606460405162461bcd60e51b815260206004820152602060248201526000805160206112fc8339815191526044820152fd5b9091600f811660108110156112e6576f181899199a1a9b1b9c1cb0b131b232b360811b901a6112bc84866111d8565b5360041c9180156112d157600019019061124b565b60246000634e487b7160e01b81526011600452fd5b60246000634e487b7160e01b81526032600452fdfe537472696e67733a20686578206c656e67746820696e73756666696369656e749f2df0fed2c77648de5860a4cc508cd0818c85b8b8a1ab4ceeef8d981c8956a6ddf252ad1be2c89b69c2b068fc378daa952ba7f163c4a11628f55a4df523b3ef2f8788117e7eff1d82e926ec794901d17c78024a50270940304540a733656f0d",
    "linkReferences": {},
    "deployedLinkReferences": {},
    "default": {
        "_format": "hh-sol-artifact-1",
        "contractName": "EnergyToken",
        "sourceName": "contracts/EnergyToken.sol",
        "abi": [
            {
                "inputs": [],
                "stateMutability": "nonpayable",
                "type": "constructor"
            },
            {
                "anonymous": false,
                "inputs": [
                    {
                        "indexed": true,
                        "internalType": "address",
                        "name": "owner",
                        "type": "address"
                    },
                    {
                        "indexed": true,
                        "internalType": "address",
                        "name": "spender",
                        "type": "address"
                    },
                    {
                        "indexed": false,
                        "internalType": "uint256",
                        "name": "value",
                        "type": "uint256"
                    }
                ],
                "name": "Approval",
                "type": "event"
            },
            {
                "anonymous": false,
                "inputs": [
                    {
                        "indexed": true,
                        "internalType": "bytes32",
                        "name": "role",
                        "type": "bytes32"
                    },
                    {
                        "indexed": true,
                        "internalType": "bytes32",
                        "name": "previousAdminRole",
                        "type": "bytes32"
                    },
                    {
                        "indexed": true,
                        "internalType": "bytes32",
                        "name": "newAdminRole",
                        "type": "bytes32"
                    }
                ],
                "name": "RoleAdminChanged",
                "type": "event"
            },
            {
                "anonymous": false,
                "inputs": [
                    {
                        "indexed": true,
                        "internalType": "bytes32",
                        "name": "role",
                        "type": "bytes32"
                    },
                    {
                        "indexed": true,
                        "internalType": "address",
                        "name": "account",
                        "type": "address"
                    },
                    {
                        "indexed": true,
                        "internalType": "address",
                        "name": "sender",
                        "type": "address"
                    }
                ],
                "name": "RoleGranted",
                "type": "event"
            },
            {
                "anonymous": false,
                "inputs": [
                    {
                        "indexed": true,
                        "internalType": "bytes32",
                        "name": "role",
                        "type": "bytes32"
                    },
                    {
                        "indexed": true,
                        "internalType": "address",
                        "name": "account",
                        "type": "address"
                    },
                    {
                        "indexed": true,
                        "internalType": "address",
                        "name": "sender",
                        "type": "address"
                    }
                ],
                "name": "RoleRevoked",
                "type": "event"
            },
            {
                "anonymous": false,
                "inputs": [
                    {
                        "indexed": true,
                        "internalType": "address",
                        "name": "from",
                        "type": "address"
                    },
                    {
                        "indexed": true,
                        "internalType": "address",
                        "name": "to",
                        "type": "address"
                    },
                    {
                        "indexed": false,
                        "internalType": "uint256",
                        "name": "value",
                        "type": "uint256"
                    }
                ],
                "name": "Transfer",
                "type": "event"
            },
            {
                "inputs": [],
                "name": "DEFAULT_ADMIN_ROLE",
                "outputs": [
                    {
                        "internalType": "bytes32",
                        "name": "",
                        "type": "bytes32"
                    }
                ],
                "stateMutability": "view",
                "type": "function"
            },
            {
                "inputs": [],
                "name": "MINTER_ROLE",
                "outputs": [
                    {
                        "internalType": "bytes32",
                        "name": "",
                        "type": "bytes32"
                    }
                ],
                "stateMutability": "view",
                "type": "function"
            },
            {
                "inputs": [
                    {
                        "internalType": "address",
                        "name": "owner",
                        "type": "address"
                    },
                    {
                        "internalType": "address",
                        "name": "spender",
                        "type": "address"
                    }
                ],
                "name": "allowance",
                "outputs": [
                    {
                        "internalType": "uint256",
                        "name": "",
                        "type": "uint256"
                    }
                ],
                "stateMutability": "view",
                "type": "function"
            },
            {
                "inputs": [
                    {
                        "internalType": "address",
                        "name": "spender",
                        "type": "address"
                    },
                    {
                        "internalType": "uint256",
                        "name": "amount",
                        "type": "uint256"
                    }
                ],
                "name": "approve",
                "outputs": [
                    {
                        "internalType": "bool",
                        "name": "",
                        "type": "bool"
                    }
                ],
                "stateMutability": "nonpayable",
                "type": "function"
            },
            {
                "inputs": [
                    {
                        "internalType": "address",
                        "name": "account",
                        "type": "address"
                    }
                ],
                "name": "balanceOf",
                "outputs": [
                    {
                        "internalType": "uint256",
                        "name": "",
                        "type": "uint256"
                    }
                ],
                "stateMutability": "view",
                "type": "function"
            },
            {
                "inputs": [
                    {
                        "internalType": "uint256",
                        "name": "amount",
                        "type": "uint256"
                    }
                ],
                "name": "burn",
                "outputs": [],
                "stateMutability": "nonpayable",
                "type": "function"
            },
            {
                "inputs": [
                    {
                        "internalType": "address",
                        "name": "account",
                        "type": "address"
                    },
                    {
                        "internalType": "uint256",
                        "name": "amount",
                        "type": "uint256"
                    }
                ],
                "name": "burnFrom",
                "outputs": [],
                "stateMutability": "nonpayable",
                "type": "function"
            },
            {
                "inputs": [],
                "name": "decimals",
                "outputs": [
                    {
                        "internalType": "uint8",
                        "name": "",
                        "type": "uint8"
                    }
                ],
                "stateMutability": "view",
                "type": "function"
            },
            {
                "inputs": [
                    {
                        "internalType": "address",
                        "name": "spender",
                        "type": "address"
                    },
                    {
                        "internalType": "uint256",
                        "name": "subtractedValue",
                        "type": "uint256"
                    }
                ],
                "name": "decreaseAllowance",
                "outputs": [
                    {
                        "internalType": "bool",
                        "name": "",
                        "type": "bool"
                    }
                ],
                "stateMutability": "nonpayable",
                "type": "function"
            },
            {
                "inputs": [
                    {
                        "internalType": "bytes32",
                        "name": "role",
                        "type": "bytes32"
                    }
                ],
                "name": "getRoleAdmin",
                "outputs": [
                    {
                        "internalType": "bytes32",
                        "name": "",
                        "type": "bytes32"
                    }
                ],
                "stateMutability": "view",
                "type": "function"
            },
            {
                "inputs": [
                    {
                        "internalType": "bytes32",
                        "name": "role",
                        "type": "bytes32"
                    },
                    {
                        "internalType": "address",
                        "name": "account",
                        "type": "address"
                    }
                ],
                "name": "grantRole",
                "outputs": [],
                "stateMutability": "nonpayable",
                "type": "function"
            },
            {
                "inputs": [
                    {
                        "internalType": "bytes32",
                        "name": "role",
                        "type": "bytes32"
                    },
                    {
                        "internalType": "address",
                        "name": "account",
                        "type": "address"
                    }
                ],
                "name": "hasRole",
                "outputs": [
                    {
                        "internalType": "bool",
                        "name": "",
                        "type": "bool"
                    }
                ],
                "stateMutability": "view",
                "type": "function"
            },
            {
                "inputs": [
                    {
                        "internalType": "address",
                        "name": "spender",
                        "type": "address"
                    },
                    {
                        "internalType": "uint256",
                        "name": "addedValue",
                        "type": "uint256"
                    }
                ],
                "name": "increaseAllowance",
                "outputs": [
                    {
                        "internalType": "bool",
                        "name": "",
                        "type": "bool"
                    }
                ],
                "stateMutability": "nonpayable",
                "type": "function"
            },
            {
                "inputs": [
                    {
                        "internalType": "address",
                        "name": "to",
                        "type": "address"
                    },
                    {
                        "internalType": "uint256",
                        "name": "amount",
                        "type": "uint256"
                    }
                ],
                "name": "mint",
                "outputs": [],
                "stateMutability": "nonpayable",
                "type": "function"
            },
            {
                "inputs": [],
                "name": "name",
                "outputs": [
                    {
                        "internalType": "string",
                        "name": "",
                        "type": "string"
                    }
                ],
                "stateMutability": "view",
                "type": "function"
            },
            {
                "inputs": [],
                "name": "owner",
                "outputs": [
                    {
                        "internalType": "address",
                        "name": "",
                        "type": "address"
                    }
                ],
                "stateMutability": "view",
                "type": "function"
            },
            {
                "inputs": [
                    {
                        "internalType": "bytes32",
                        "name": "role",
                        "type": "bytes32"
                    },
                    {
                        "internalType": "address",
                        "name": "account",
                        "type": "address"
                    }
                ],
                "name": "renounceRole",
                "outputs": [],
                "stateMutability": "nonpayable",
                "type": "function"
            },
            {
                "inputs": [
                    {
                        "internalType": "bytes32",
                        "name": "role",
                        "type": "bytes32"
                    },
                    {
                        "internalType": "address",
                        "name": "account",
                        "type": "address"
                    }
                ],
                "name": "revokeRole",
                "outputs": [],
                "stateMutability": "nonpayable",
                "type": "function"
            },
            {
                "inputs": [
                    {
                        "internalType": "bytes4",
                        "name": "interfaceId",
                        "type": "bytes4"
                    }
                ],
                "name": "supportsInterface",
                "outputs": [
                    {
                        "internalType": "bool",
                        "name": "",
                        "type": "bool"
                    }
                ],
                "stateMutability": "view",
                "type": "function"
            },
            {
                "inputs": [],
                "name": "symbol",
                "outputs": [
                    {
                        "internalType": "string",
                        "name": "",
                        "type": "string"
                    }
                ],
                "stateMutability": "view",
                "type": "function"
            },
            {
                "inputs": [],
                "name": "totalSupply",
                "outputs": [
                    {
                        "internalType": "uint256",
                        "name": "",
                        "type": "uint256"
                    }
                ],
                "stateMutability": "view",
                "type": "function"
            },
            {
                "inputs": [
                    {
                        "internalType": "address",
                        "name": "to",
                        "type": "address"
                    },
                    {
                        "internalType": "uint256",
                        "name": "amount",
                        "type": "uint256"
                    }
                ],
                "name": "transfer",
                "outputs": [
                    {
                        "internalType": "bool",
                        "name": "",
                        "type": "bool"
                    }
                ],
                "stateMutability": "nonpayable",
                "type": "function"
            },
            {
                "inputs": [
                    {
                        "internalType": "address",
                        "name": "from",
                        "type": "address"
                    },
                    {
                        "internalType": "address",
                        "name": "to",
                        "type": "address"
                    },
                    {
                        "internalType": "uint256",
                        "name": "amount",
                        "type": "uint256"
                    }
                ],
                "name": "transferFrom",
                "outputs": [
                    {
                        "internalType": "bool",
                        "name": "",
                        "type": "bool"
                    }
                ],
                "stateMutability": "nonpayable",
                "type": "function"
            }
        ],
        "bytecode": "0x60803462000405576001600160401b03906040908082018381118282101762000305578252600b81526020906a22b732b933bcaa37b5b2b760a91b8282015282519383850185811082821117620003055784526003908186526245544b60e81b8487015282519181831162000305578054926001948585811c95168015620003fa575b87861014620003e4578190601f958681116200038e575b50879086831160011462000327576000926200031b575b505060001982841b1c191690851b1781555b8651918211620003055760049283548581811c91168015620002fa575b87821014620002e5578181116200029a575b50859083116001146200022e5782939495969760009362000222575b505082851b92600019911b1c19161790555b60008052600582528260002033600052825260ff83600020541615620001e5575b7f9f2df0fed2c77648de5860a4cc508cd0818c85b8b8a1ab4ceeef8d981c8956a69182600052600581528360002033600052815260ff84600020541615620001a4575b600680546001600160a01b03191633179055835161135c90816200040b8239f35b826000526005815283600020903360005252826000209060ff198254161790553390339060008051602062001767833981519152600080a438808062000183565b600080526005825282600020336000528252826000208160ff1982541617905533336000600080516020620017678339815191528180a462000140565b0151915038806200010d565b90601f1983169184600052866000209260005b81811062000284575098848798999a9796971062000269575b50505050811b0190556200011f565b01519060f884600019921b161c19169055388080806200025a565b8a83015185559387019391880191880162000241565b84600052866000208280860160051c820192898710620002db575b0160051c019086905b828110620002ce575050620000f1565b60008155018690620002be565b92508192620002b5565b602285634e487b7160e01b6000525260246000fd5b90607f1690620000df565b634e487b7160e01b600052604160045260246000fd5b015190503880620000b0565b90879350601f1983169185600052896000209260005b8b8282106200037757505084116200035e575b505050811b018155620000c2565b015160001983861b60f8161c1916905538808062000350565b8385015186558b979095019493840193016200033d565b90915083600052876000208680850160051c8201928a8610620003da575b918991869594930160051c01915b828110620003ca57505062000099565b60008155859450899101620003ba565b92508192620003ac565b634e487b7160e01b600052602260045260246000fd5b94607f169462000082565b600080fdfe608060408181526004918236101561001657600080fd5b600092833560e01c91826301ffc9a714610a6d5750816306fdde0314610996578163095ea7b31461096c57816318160ddd1461094d57816323b872dd14610910578163248a9ca3146108e55781632f2ff15d14610838578163313ce5671461081c57816336568abe1461078a578163395093511461073a57816340c10f19146104a857816342966c681461048a57816370a082311461045357816379cc6790146104235781638da5cb5b146103fa57816391d14854146103b357816395d89b41146102cd578163a217fddf146102b2578163a457c2d71461020a578163a9059cbb146101d9578163d5391393146101b0578163d547741f1461016d575063dd62ed3e1461012257600080fd5b346101695780600319360112610169578060209261013e610b0f565b610146610b2a565b6001600160a01b0391821683526001865283832091168252845220549051908152f35b5080fd5b919050346101ac57806003193601126101ac576101a991356101a46001610192610b2a565b93838752600560205286200154610b40565b610d2f565b80f35b8280fd5b5050346101695781600319360112610169576020905160008051602061131c8339815191528152f35b5050346101695780600319360112610169576020906102036101f9610b0f565b6024359033610dc8565b5160018152f35b905082346102af57826003193601126102af57610225610b0f565b918360243592338152600160205281812060018060a01b038616825260205220549082821061025e576020856102038585038733610f2b565b608490602086519162461bcd60e51b8352820152602560248201527f45524332303a2064656372656173656420616c6c6f77616e63652062656c6f77604482015264207a65726f60d81b6064820152fd5b80fd5b50503461016957816003193601126101695751908152602090f35b838334610169578160031936011261016957805191809380549160019083821c928285169485156103a9575b6020958686108114610396578589529081156103725750600114610337575b6103338787610329828c0383610d0c565b5191829182610ae3565b0390f35b9080949750528583205b82841061035f57505050826103339461032992820101948680610318565b8054868501880152928601928101610341565b60ff19168887015250505050151560051b8301019250610329826103338680610318565b634e487b7160e01b845260228352602484fd5b93607f16936102f9565b9050346101ac57816003193601126101ac578160209360ff926103d4610b2a565b90358252600586528282206001600160a01b039091168252855220549151911615158152f35b50503461016957816003193601126101695760065490516001600160a01b039091168152602090f35b505034610169573660031901126102af576101a961043f610b0f565b6024359061044e82338361102d565b6110c5565b5050346101695760203660031901126101695760209181906001600160a01b0361047b610b0f565b16815280845220549051908152f35b839034610169576020366003190112610169576101a99035336110c5565b9050346101ac57816003193601126101ac576104c2610b0f565b9060249283359160008051602061131c8339815191529384875260209460058652838820338952865260ff84892054161561058a57506001600160a01b031694851561054a5750509181859361052960008051602061133c83398151915294600254610da5565b600255858552848352808520610540838254610da5565b905551908152a380f35b601f9085606494519362461bcd60e51b85528401528201527f45524332303a206d696e7420746f20746865207a65726f2061646472657373006044820152fd5b859150868891610599336111ff565b90918651926105a784610cdb565b6042845285840194606036873784511561072857603086538451906001918210156107165790607860218701536041915b8183116106ad5750505061067e575061067a9386936106669361065760489461062e9a519a8576020b1b1b2b9b9a1b7b73a3937b61d1030b1b1b7bab73a1604d1b8d978801528251928391603789019101610ac0565b8401917001034b99036b4b9b9b4b733903937b6329607d1b603784015251809386840190610ac0565b01036028810187520185610d0c565b5162461bcd60e51b81529283928301610ae3565b0390fd5b9250505081606494519362461bcd60e51b85528401528201526000805160206112fc8339815191526044820152fd5b909192600f81166010811015610704576f181899199a1a9b1b9c1cb0b131b232b360811b901a6106dd85896111d8565b53891c9280156106f2576000190191906105d8565b634e487b7160e01b825260118a528482fd5b634e487b7160e01b835260328b528583fd5b634e487b7160e01b8152603289528390fd5b634e487b7160e01b8152603288529050fd5b50503461016957806003193601126101695761020360209261078361075d610b0f565b338352600186528483206001600160a01b03821684528652918490205460243590610da5565b9033610f2b565b839150346101695782600319360112610169576107a5610b2a565b90336001600160a01b038316036107c157906101a99135610d2f565b608490602085519162461bcd60e51b8352820152602f60248201527f416363657373436f6e74726f6c3a2063616e206f6e6c792072656e6f756e636560448201526e103937b632b9903337b91039b2b63360891b6064820152fd5b5050346101695781600319360112610169576020905160128152f35b9050346101ac57816003193601126101ac573590610854610b2a565b90828452600560205261086c60018286200154610b40565b828452600560209081528185206001600160a01b039093168086529290528084205460ff161561089a578380f35b82845260056020528084208285526020528320600160ff1982541617905533917f2f8788117e7eff1d82e926ec794901d17c78024a50270940304540a733656f0d8480a43880808380f35b9050346101ac5760203660031901126101ac5781602093600192358152600585522001549051908152f35b50503461016957606036600319011261016957602090610203610931610b0f565b610939610b2a565b6044359161094883338361102d565b610dc8565b5050346101695781600319360112610169576020906002549051908152f35b50503461016957806003193601126101695760209061020361098c610b0f565b6024359033610f2b565b919050346101ac57826003193601126101ac57805191836003549060019082821c928281168015610a63575b6020958686108214610a505750848852908115610a2e57506001146109f3575b6103338686610329828b0383610d0c565b929550600383528583205b828410610a1b5750505082610333946103299282010194386109e2565b80548685018801529286019281016109fe565b60ff191687860152505050151560051b830101925061032982610333386109e2565b634e487b7160e01b845260229052602483fd5b93607f16936109c2565b8491346101ac5760203660031901126101ac573563ffffffff60e01b81168091036101ac5760209250637965db0b60e01b8114908115610aaf575b5015158152f35b6301ffc9a760e01b14905083610aa8565b60005b838110610ad35750506000910152565b8181015183820152602001610ac3565b60409160208252610b038151809281602086015260208686019101610ac0565b601f01601f1916010190565b600435906001600160a01b0382168203610b2557565b600080fd5b602435906001600160a01b0382168203610b2557565b600081815260209060058252604092838220338352835260ff848320541615610b695750505050565b610b72336111ff565b845191610b7e83610cdb565b60428352848301936060368637835115610cc75760308553835190600191821015610cc75790607860218601536041915b818311610c5957505050610c295761062e938593610c1393610c0460489461067a9951988576020b1b1b2b9b9a1b7b73a3937b61d1030b1b1b7bab73a1604d1b8b978801528251928391603789019101610ac0565b01036028810185520183610d0c565b5162461bcd60e51b815291829160048301610ae3565b60648486519062461bcd60e51b825280600483015260248201526000805160206112fc8339815191526044820152fd5b909192600f81166010811015610cb3576f181899199a1a9b1b9c1cb0b131b232b360811b901a610c8985886111d8565b5360041c928015610c9f57600019019190610baf565b634e487b7160e01b82526011600452602482fd5b634e487b7160e01b83526032600452602483fd5b634e487b7160e01b81526032600452602490fd5b608081019081106001600160401b03821117610cf657604052565b634e487b7160e01b600052604160045260246000fd5b601f909101601f19168101906001600160401b03821190821017610cf657604052565b906000918083526005602052604083209160018060a01b03169182845260205260ff604084205416610d6057505050565b8083526005602052604083208284526020526040832060ff1981541690557ff6391f5c32d9c69d2a47ea670b442974b53935d1edc7fd64eb21e047a839171b339380a4565b91908201809211610db257565b634e487b7160e01b600052601160045260246000fd5b6001600160a01b03908116918215610ed85716918215610e8757600082815280602052604081205491808310610e33576040828260008051602061133c833981519152958760209652828652038282205586815220610e28828254610da5565b9055604051908152a3565b60405162461bcd60e51b815260206004820152602660248201527f45524332303a207472616e7366657220616d6f756e7420657863656564732062604482015265616c616e636560d01b6064820152608490fd5b60405162461bcd60e51b815260206004820152602360248201527f45524332303a207472616e7366657220746f20746865207a65726f206164647260448201526265737360e81b6064820152608490fd5b60405162461bcd60e51b815260206004820152602560248201527f45524332303a207472616e736665722066726f6d20746865207a65726f206164604482015264647265737360d81b6064820152608490fd5b6001600160a01b03908116918215610fdc5716918215610f8c5760207f8c5be1e5ebec7d5bd14f71427d1e84f3dd0314c0f7b2291e5b200ac8c7c3b925918360005260018252604060002085600052825280604060002055604051908152a3565b60405162461bcd60e51b815260206004820152602260248201527f45524332303a20617070726f766520746f20746865207a65726f206164647265604482015261737360f01b6064820152608490fd5b60405162461bcd60e51b8152602060048201526024808201527f45524332303a20617070726f76652066726f6d20746865207a65726f206164646044820152637265737360e01b6064820152608490fd5b9060018060a01b0380831660005260016020526040600020908216600052602052604060002054926000198403611065575b50505050565b80841061108057611077930391610f2b565b3880808061105f565b60405162461bcd60e51b815260206004820152601d60248201527f45524332303a20696e73756666696369656e7420616c6c6f77616e63650000006044820152606490fd5b6001600160a01b0316801561118957600091818352826020526040832054818110611139578190838552846020520360408420556002548181039081116111255760008051602061133c83398151915291602091600255604051908152a3565b634e487b7160e01b84526011600452602484fd5b60405162461bcd60e51b815260206004820152602260248201527f45524332303a206275726e20616d6f756e7420657863656564732062616c616e604482015261636560f01b6064820152608490fd5b60405162461bcd60e51b815260206004820152602160248201527f45524332303a206275726e2066726f6d20746865207a65726f206164647265736044820152607360f81b6064820152608490fd5b9081518110156111e9570160200190565b634e487b7160e01b600052603260045260246000fd5b60405190606082016001600160401b03811183821017610cf657604052602a82526020820160403682378251156111e9576030905381516001908110156111e957607860218401536029905b80821161128d57505061125b5790565b606460405162461bcd60e51b815260206004820152602060248201526000805160206112fc8339815191526044820152fd5b9091600f811660108110156112e6576f181899199a1a9b1b9c1cb0b131b232b360811b901a6112bc84866111d8565b5360041c9180156112d157600019019061124b565b60246000634e487b7160e01b81526011600452fd5b60246000634e487b7160e01b81526032600452fdfe537472696e67733a20686578206c656e67746820696e73756666696369656e749f2df0fed2c77648de5860a4cc508cd0818c85b8b8a1ab4ceeef8d981c8956a6ddf252ad1be2c89b69c2b068fc378daa952ba7f163c4a11628f55a4df523b3ef2f8788117e7eff1d82e926ec794901d17c78024a50270940304540a733656f0d",
        "deployedBytecode": "0x608060408181526004918236101561001657600080fd5b600092833560e01c91826301ffc9a714610a6d5750816306fdde0314610996578163095ea7b31461096c57816318160ddd1461094d57816323b872dd14610910578163248a9ca3146108e55781632f2ff15d14610838578163313ce5671461081c57816336568abe1461078a578163395093511461073a57816340c10f19146104a857816342966c681461048a57816370a082311461045357816379cc6790146104235781638da5cb5b146103fa57816391d14854146103b357816395d89b41146102cd578163a217fddf146102b2578163a457c2d71461020a578163a9059cbb146101d9578163d5391393146101b0578163d547741f1461016d575063dd62ed3e1461012257600080fd5b346101695780600319360112610169578060209261013e610b0f565b610146610b2a565b6001600160a01b0391821683526001865283832091168252845220549051908152f35b5080fd5b919050346101ac57806003193601126101ac576101a991356101a46001610192610b2a565b93838752600560205286200154610b40565b610d2f565b80f35b8280fd5b5050346101695781600319360112610169576020905160008051602061131c8339815191528152f35b5050346101695780600319360112610169576020906102036101f9610b0f565b6024359033610dc8565b5160018152f35b905082346102af57826003193601126102af57610225610b0f565b918360243592338152600160205281812060018060a01b038616825260205220549082821061025e576020856102038585038733610f2b565b608490602086519162461bcd60e51b8352820152602560248201527f45524332303a2064656372656173656420616c6c6f77616e63652062656c6f77604482015264207a65726f60d81b6064820152fd5b80fd5b50503461016957816003193601126101695751908152602090f35b838334610169578160031936011261016957805191809380549160019083821c928285169485156103a9575b6020958686108114610396578589529081156103725750600114610337575b6103338787610329828c0383610d0c565b5191829182610ae3565b0390f35b9080949750528583205b82841061035f57505050826103339461032992820101948680610318565b8054868501880152928601928101610341565b60ff19168887015250505050151560051b8301019250610329826103338680610318565b634e487b7160e01b845260228352602484fd5b93607f16936102f9565b9050346101ac57816003193601126101ac578160209360ff926103d4610b2a565b90358252600586528282206001600160a01b039091168252855220549151911615158152f35b50503461016957816003193601126101695760065490516001600160a01b039091168152602090f35b505034610169573660031901126102af576101a961043f610b0f565b6024359061044e82338361102d565b6110c5565b5050346101695760203660031901126101695760209181906001600160a01b0361047b610b0f565b16815280845220549051908152f35b839034610169576020366003190112610169576101a99035336110c5565b9050346101ac57816003193601126101ac576104c2610b0f565b9060249283359160008051602061131c8339815191529384875260209460058652838820338952865260ff84892054161561058a57506001600160a01b031694851561054a5750509181859361052960008051602061133c83398151915294600254610da5565b600255858552848352808520610540838254610da5565b905551908152a380f35b601f9085606494519362461bcd60e51b85528401528201527f45524332303a206d696e7420746f20746865207a65726f2061646472657373006044820152fd5b859150868891610599336111ff565b90918651926105a784610cdb565b6042845285840194606036873784511561072857603086538451906001918210156107165790607860218701536041915b8183116106ad5750505061067e575061067a9386936106669361065760489461062e9a519a8576020b1b1b2b9b9a1b7b73a3937b61d1030b1b1b7bab73a1604d1b8d978801528251928391603789019101610ac0565b8401917001034b99036b4b9b9b4b733903937b6329607d1b603784015251809386840190610ac0565b01036028810187520185610d0c565b5162461bcd60e51b81529283928301610ae3565b0390fd5b9250505081606494519362461bcd60e51b85528401528201526000805160206112fc8339815191526044820152fd5b909192600f81166010811015610704576f181899199a1a9b1b9c1cb0b131b232b360811b901a6106dd85896111d8565b53891c9280156106f2576000190191906105d8565b634e487b7160e01b825260118a528482fd5b634e487b7160e01b835260328b528583fd5b634e487b7160e01b8152603289528390fd5b634e487b7160e01b8152603288529050fd5b50503461016957806003193601126101695761020360209261078361075d610b0f565b338352600186528483206001600160a01b03821684528652918490205460243590610da5565b9033610f2b565b839150346101695782600319360112610169576107a5610b2a565b90336001600160a01b038316036107c157906101a99135610d2f565b608490602085519162461bcd60e51b8352820152602f60248201527f416363657373436f6e74726f6c3a2063616e206f6e6c792072656e6f756e636560448201526e103937b632b9903337b91039b2b63360891b6064820152fd5b5050346101695781600319360112610169576020905160128152f35b9050346101ac57816003193601126101ac573590610854610b2a565b90828452600560205261086c60018286200154610b40565b828452600560209081528185206001600160a01b039093168086529290528084205460ff161561089a578380f35b82845260056020528084208285526020528320600160ff1982541617905533917f2f8788117e7eff1d82e926ec794901d17c78024a50270940304540a733656f0d8480a43880808380f35b9050346101ac5760203660031901126101ac5781602093600192358152600585522001549051908152f35b50503461016957606036600319011261016957602090610203610931610b0f565b610939610b2a565b6044359161094883338361102d565b610dc8565b5050346101695781600319360112610169576020906002549051908152f35b50503461016957806003193601126101695760209061020361098c610b0f565b6024359033610f2b565b919050346101ac57826003193601126101ac57805191836003549060019082821c928281168015610a63575b6020958686108214610a505750848852908115610a2e57506001146109f3575b6103338686610329828b0383610d0c565b929550600383528583205b828410610a1b5750505082610333946103299282010194386109e2565b80548685018801529286019281016109fe565b60ff191687860152505050151560051b830101925061032982610333386109e2565b634e487b7160e01b845260229052602483fd5b93607f16936109c2565b8491346101ac5760203660031901126101ac573563ffffffff60e01b81168091036101ac5760209250637965db0b60e01b8114908115610aaf575b5015158152f35b6301ffc9a760e01b14905083610aa8565b60005b838110610ad35750506000910152565b8181015183820152602001610ac3565b60409160208252610b038151809281602086015260208686019101610ac0565b601f01601f1916010190565b600435906001600160a01b0382168203610b2557565b600080fd5b602435906001600160a01b0382168203610b2557565b600081815260209060058252604092838220338352835260ff848320541615610b695750505050565b610b72336111ff565b845191610b7e83610cdb565b60428352848301936060368637835115610cc75760308553835190600191821015610cc75790607860218601536041915b818311610c5957505050610c295761062e938593610c1393610c0460489461067a9951988576020b1b1b2b9b9a1b7b73a3937b61d1030b1b1b7bab73a1604d1b8b978801528251928391603789019101610ac0565b01036028810185520183610d0c565b5162461bcd60e51b815291829160048301610ae3565b60648486519062461bcd60e51b825280600483015260248201526000805160206112fc8339815191526044820152fd5b909192600f81166010811015610cb3576f181899199a1a9b1b9c1cb0b131b232b360811b901a610c8985886111d8565b5360041c928015610c9f57600019019190610baf565b634e487b7160e01b82526011600452602482fd5b634e487b7160e01b83526032600452602483fd5b634e487b7160e01b81526032600452602490fd5b608081019081106001600160401b03821117610cf657604052565b634e487b7160e01b600052604160045260246000fd5b601f909101601f19168101906001600160401b03821190821017610cf657604052565b906000918083526005602052604083209160018060a01b03169182845260205260ff604084205416610d6057505050565b8083526005602052604083208284526020526040832060ff1981541690557ff6391f5c32d9c69d2a47ea670b442974b53935d1edc7fd64eb21e047a839171b339380a4565b91908201809211610db257565b634e487b7160e01b600052601160045260246000fd5b6001600160a01b03908116918215610ed85716918215610e8757600082815280602052604081205491808310610e33576040828260008051602061133c833981519152958760209652828652038282205586815220610e28828254610da5565b9055604051908152a3565b60405162461bcd60e51b815260206004820152602660248201527f45524332303a207472616e7366657220616d6f756e7420657863656564732062604482015265616c616e636560d01b6064820152608490fd5b60405162461bcd60e51b815260206004820152602360248201527f45524332303a207472616e7366657220746f20746865207a65726f206164647260448201526265737360e81b6064820152608490fd5b60405162461bcd60e51b815260206004820152602560248201527f45524332303a207472616e736665722066726f6d20746865207a65726f206164604482015264647265737360d81b6064820152608490fd5b6001600160a01b03908116918215610fdc5716918215610f8c5760207f8c5be1e5ebec7d5bd14f71427d1e84f3dd0314c0f7b2291e5b200ac8c7c3b925918360005260018252604060002085600052825280604060002055604051908152a3565b60405162461bcd60e51b815260206004820152602260248201527f45524332303a20617070726f766520746f20746865207a65726f206164647265604482015261737360f01b6064820152608490fd5b60405162461bcd60e51b8152602060048201526024808201527f45524332303a20617070726f76652066726f6d20746865207a65726f206164646044820152637265737360e01b6064820152608490fd5b9060018060a01b0380831660005260016020526040600020908216600052602052604060002054926000198403611065575b50505050565b80841061108057611077930391610f2b565b3880808061105f565b60405162461bcd60e51b815260206004820152601d60248201527f45524332303a20696e73756666696369656e7420616c6c6f77616e63650000006044820152606490fd5b6001600160a01b0316801561118957600091818352826020526040832054818110611139578190838552846020520360408420556002548181039081116111255760008051602061133c83398151915291602091600255604051908152a3565b634e487b7160e01b84526011600452602484fd5b60405162461bcd60e51b815260206004820152602260248201527f45524332303a206275726e20616d6f756e7420657863656564732062616c616e604482015261636560f01b6064820152608490fd5b60405162461bcd60e51b815260206004820152602160248201527f45524332303a206275726e2066726f6d20746865207a65726f206164647265736044820152607360f81b6064820152608490fd5b9081518110156111e9570160200190565b634e487b7160e01b600052603260045260246000fd5b60405190606082016001600160401b03811183821017610cf657604052602a82526020820160403682378251156111e9576030905381516001908110156111e957607860218401536029905b80821161128d57505061125b5790565b606460405162461bcd60e51b815260206004820152602060248201526000805160206112fc8339815191526044820152fd5b9091600f811660108110156112e6576f181899199a1a9b1b9c1cb0b131b232b360811b901a6112bc84866111d8565b5360041c9180156112d157600019019061124b565b60246000634e487b7160e01b81526011600452fd5b60246000634e487b7160e01b81526032600452fdfe537472696e67733a20686578206c656e67746820696e73756666696369656e749f2df0fed2c77648de5860a4cc508cd0818c85b8b8a1ab4ceeef8d981c8956a6ddf252ad1be2c89b69c2b068fc378daa952ba7f163c4a11628f55a4df523b3ef",
        "linkReferences": {},
        "deployedLinkReferences": {}
    }
}