{
    "_format": "hh-sol-artifact-1",
    "contractName": "PoolMarket",
    "sourceName": "contracts/PoolMarket.sol",
    "abi": [
        {
            "inputs": [
                {
                    "internalType": "address",
                    "name": "_registryContractAddress",
                    "type": "address"
                },
                {
                    "internalType": "uint256",
                    "name": "_minAllowedPrice",
                    "type": "uint256"
                },
                {
                    "internalType": "uint256",
                    "name": "_maxAllowedPrice",
                    "type": "uint256"
                }
            ],
            "stateMutability": "nonpayable",
            "type": "constructor"
        },
        {
            "anonymous": false,
            "inputs": [
                {
                    "indexed": true,
                    "internalType": "uint256",
                    "name": "amount",
                    "type": "uint256"
                },
                {
                    "indexed": true,
                    "internalType": "uint256",
                    "name": "price",
                    "type": "uint256"
                },
                {
                    "indexed": false,
                    "internalType": "address",
                    "name": "sender",
                    "type": "address"
                }
            ],
            "name": "BidSubmitted",
            "type": "event"
        },
        {
            "anonymous": false,
            "inputs": [
                {
                    "indexed": true,
                    "internalType": "uint256",
                    "name": "amount",
                    "type": "uint256"
                },
                {
                    "indexed": true,
                    "internalType": "uint256",
                    "name": "price",
                    "type": "uint256"
                },
                {
                    "indexed": false,
                    "internalType": "address",
                    "name": "sender",
                    "type": "address"
                }
            ],
            "name": "OfferSubmitted",
            "type": "event"
        },
        {
            "anonymous": false,
            "inputs": [
                {
                    "indexed": true,
                    "internalType": "address",
                    "name": "previousOwner",
                    "type": "address"
                },
                {
                    "indexed": true,
                    "internalType": "address",
                    "name": "newOwner",
                    "type": "address"
                }
            ],
            "name": "OwnershipTransferred",
            "type": "event"
        },
        {
            "inputs": [
                {
                    "internalType": "uint256",
                    "name": "hour",
                    "type": "uint256"
                }
            ],
            "name": "calculatePoolPrice",
            "outputs": [],
            "stateMutability": "nonpayable",
            "type": "function"
        },
        {
            "inputs": [],
            "name": "calculateSMP",
            "outputs": [],
            "stateMutability": "nonpayable",
            "type": "function"
        },
        {
            "inputs": [
                {
                    "internalType": "bytes32",
                    "name": "",
                    "type": "bytes32"
                }
            ],
            "name": "energyBids",
            "outputs": [
                {
                    "internalType": "uint256",
                    "name": "amount",
                    "type": "uint256"
                },
                {
                    "internalType": "uint256",
                    "name": "price",
                    "type": "uint256"
                },
                {
                    "internalType": "uint256",
                    "name": "submitMinute",
                    "type": "uint256"
                },
                {
                    "internalType": "address",
                    "name": "consumerAccount",
                    "type": "address"
                }
            ],
            "stateMutability": "view",
            "type": "function"
        },
        {
            "inputs": [
                {
                    "internalType": "bytes32",
                    "name": "",
                    "type": "bytes32"
                }
            ],
            "name": "energyOffers",
            "outputs": [
                {
                    "internalType": "uint256",
                    "name": "amount",
                    "type": "uint256"
                },
                {
                    "internalType": "uint256",
                    "name": "price",
                    "type": "uint256"
                },
                {
                    "internalType": "uint256",
                    "name": "submitMinute",
                    "type": "uint256"
                },
                {
                    "internalType": "address",
                    "name": "supplierAccount",
                    "type": "address"
                }
            ],
            "stateMutability": "view",
            "type": "function"
        },
        {
            "inputs": [
                {
                    "internalType": "uint256",
                    "name": "hour",
                    "type": "uint256"
                }
            ],
            "name": "getDispatchedOffers",
            "outputs": [
                {
                    "components": [
                        {
                            "internalType": "address",
                            "name": "supplierAccount",
                            "type": "address"
                        },
                        {
                            "internalType": "uint256",
                            "name": "dispatchedAmount",
                            "type": "uint256"
                        },
                        {
                            "internalType": "uint256",
                            "name": "dispatchedAt",
                            "type": "uint256"
                        }
                    ],
                    "internalType": "struct IMarket.DispatchedOffer[]",
                    "name": "",
                    "type": "tuple[]"
                }
            ],
            "stateMutability": "view",
            "type": "function"
        },
        {
            "inputs": [],
            "name": "getLatestTotalDemand",
            "outputs": [
                {
                    "internalType": "uint256",
                    "name": "",
                    "type": "uint256"
                }
            ],
            "stateMutability": "view",
            "type": "function"
        },
        {
            "inputs": [
                {
                    "internalType": "uint256",
                    "name": "minute",
                    "type": "uint256"
                }
            ],
            "name": "getMarginalOffer",
            "outputs": [
                {
                    "components": [
                        {
                            "internalType": "uint256",
                            "name": "amount",
                            "type": "uint256"
                        },
                        {
                            "internalType": "uint256",
                            "name": "price",
                            "type": "uint256"
                        },
                        {
                            "internalType": "uint256",
                            "name": "submitMinute",
                            "type": "uint256"
                        },
                        {
                            "internalType": "address",
                            "name": "supplierAccount",
                            "type": "address"
                        }
                    ],
                    "internalType": "struct PoolMarket.Offer",
                    "name": "",
                    "type": "tuple"
                }
            ],
            "stateMutability": "view",
            "type": "function"
        },
        {
            "inputs": [
                {
                    "internalType": "uint256",
                    "name": "hour",
                    "type": "uint256"
                }
            ],
            "name": "getPoolPrice",
            "outputs": [
                {
                    "internalType": "uint256",
                    "name": "",
                    "type": "uint256"
                }
            ],
            "stateMutability": "view",
            "type": "function"
        },
        {
            "inputs": [],
            "name": "getPoolpriceHours",
            "outputs": [
                {
                    "internalType": "uint256[]",
                    "name": "",
                    "type": "uint256[]"
                }
            ],
            "stateMutability": "view",
            "type": "function"
        },
        {
            "inputs": [
                {
                    "internalType": "uint256",
                    "name": "minute",
                    "type": "uint256"
                }
            ],
            "name": "getSMP",
            "outputs": [
                {
                    "internalType": "uint256",
                    "name": "",
                    "type": "uint256"
                }
            ],
            "stateMutability": "view",
            "type": "function"
        },
        {
            "inputs": [],
            "name": "getSystemMarginalMinutes",
            "outputs": [
                {
                    "internalType": "uint256[]",
                    "name": "",
                    "type": "uint256[]"
                }
            ],
            "stateMutability": "view",
            "type": "function"
        },
        {
            "inputs": [],
            "name": "getTotalDemandMinutes",
            "outputs": [
                {
                    "internalType": "uint256[]",
                    "name": "",
                    "type": "uint256[]"
                }
            ],
            "stateMutability": "view",
            "type": "function"
        },
        {
            "inputs": [],
            "name": "getValidBidIDs",
            "outputs": [
                {
                    "internalType": "bytes32[]",
                    "name": "",
                    "type": "bytes32[]"
                }
            ],
            "stateMutability": "view",
            "type": "function"
        },
        {
            "inputs": [],
            "name": "getValidOfferIDs",
            "outputs": [
                {
                    "internalType": "bytes32[]",
                    "name": "",
                    "type": "bytes32[]"
                }
            ],
            "stateMutability": "view",
            "type": "function"
        },
        {
            "inputs": [],
            "name": "maxAllowedPrice",
            "outputs": [
                {
                    "internalType": "uint256",
                    "name": "",
                    "type": "uint256"
                }
            ],
            "stateMutability": "view",
            "type": "function"
        },
        {
            "inputs": [],
            "name": "minAllowedPrice",
            "outputs": [
                {
                    "internalType": "uint256",
                    "name": "",
                    "type": "uint256"
                }
            ],
            "stateMutability": "view",
            "type": "function"
        },
        {
            "inputs": [],
            "name": "owner",
            "outputs": [
                {
                    "internalType": "address",
                    "name": "",
                    "type": "address"
                }
            ],
            "stateMutability": "view",
            "type": "function"
        },
        {
            "inputs": [],
            "name": "renounceOwnership",
            "outputs": [],
            "stateMutability": "nonpayable",
            "type": "function"
        },
        {
            "inputs": [
                {
                    "internalType": "uint256",
                    "name": "_amount",
                    "type": "uint256"
                },
                {
                    "internalType": "uint256",
                    "name": "_price",
                    "type": "uint256"
                }
            ],
            "name": "submitBid",
            "outputs": [],
            "stateMutability": "nonpayable",
            "type": "function"
        },
        {
            "inputs": [
                {
                    "internalType": "uint8",
                    "name": "blockNumber",
                    "type": "uint8"
                },
                {
                    "internalType": "uint256",
                    "name": "amount",
                    "type": "uint256"
                },
                {
                    "internalType": "uint256",
                    "name": "price",
                    "type": "uint256"
                }
            ],
            "name": "submitOffer",
            "outputs": [],
            "stateMutability": "nonpayable",
            "type": "function"
        },
        {
            "inputs": [
                {
                    "internalType": "uint256",
                    "name": "",
                    "type": "uint256"
                }
            ],
            "name": "systemMarginalOfferIDs",
            "outputs": [
                {
                    "internalType": "bytes32",
                    "name": "",
                    "type": "bytes32"
                }
            ],
            "stateMutability": "view",
            "type": "function"
        },
        {
            "inputs": [
                {
                    "internalType": "uint256",
                    "name": "",
                    "type": "uint256"
                }
            ],
            "name": "totalDemands",
            "outputs": [
                {
                    "internalType": "uint256",
                    "name": "",
                    "type": "uint256"
                }
            ],
            "stateMutability": "view",
            "type": "function"
        },
        {
            "inputs": [
                {
                    "internalType": "address",
                    "name": "newOwner",
                    "type": "address"
                }
            ],
            "name": "transferOwnership",
            "outputs": [],
            "stateMutability": "nonpayable",
            "type": "function"
        }
    ],
    "bytecode": "0x6080346100b957601f61185738819003918201601f19168301916001600160401b038311848410176100be578084926060946040528339810103126100b95780516001600160a01b0391828216918290036100b957604060208201519101519160005460018060a01b0319903382821617600055604051953391167f8be0079c531659141344cd1fd0a4f28419497f9722a3daafe3b4186f6b6457e0600080a3600654161760065560075560085561178290816100d58239f35b600080fd5b634e487b7160e01b600052604160045260246000fdfe60406080815260048036101561001457600080fd5b600090813560e01c806314bacef71461139d57806321dfca17146110c3578063238a1cc314610e6157806325f8a08d14610de85780634c5140a514610dbf57806363660a2714610d74578063696e2c0f14610d3f5780636d96b3d314610cc6578063715018a614610c7e57806383f1444d14610c175780638da5cb5b14610bef5780639af94f3014610bc6578063a133245b14610ba7578063b2f1223814610b7e578063b5b66e1214610af8578063b821da1b1461078e578063cab0fb731461076f578063d71a60c01461074b578063ec6eaf62146106fc578063ef2d09f91461065a578063f17e6a70146102e9578063f2fde38b146102315763f790825d1461011d57600080fd5b3461022d5760208060031936011261022957813583526003808252848420805490939192916001600160401b03821161021657508551919492610166600583901b8701846114e5565b8183528583018095855286852085915b8483106101d3575050505050845193808501918186525180925285850193925b8281106101a35785850386f35b835180516001600160a01b0316865280830151868401528701518786015260609094019392810192600101610196565b83896001928c9b98999b516101e78161147e565b848060a01b03865416815284860154838201528d60028701549082015281520192019201919097959497610176565b634e487b7160e01b865260419052602485fd5b8280fd5b5080fd5b508234610229576020366003190112610229576001600160a01b038235818116939192908490036102e557610264611426565b831561029357505082546001600160a01b0319811683178455166000805160206117628339815191528380a380f35b906020608492519162461bcd60e51b8352820152602660248201527f4f776e61626c653a206e6577206f776e657220697320746865207a65726f206160448201526564647265737360d01b6064820152fd5b8480fd5b5082903461022957606091826003193601126106565781359060ff821682036102e55760065481516373b6f1d360e01b815233818601526044359560248035966020969094919390916001600160a01b03919082169088818781855afa90811561064c578c9161061f575b50156105e5578a85916008548c1115806105d9575b61037290611525565b8851637f3804f960e11b8152338982015292839182905afa9081156105cf579084918c916104f2575b5061ffff925001511687116104bf5784518681019133841b835260ff60f81b9060f81b166034820152601581526103d1816114ca565b51902091828952600186526002858a20015415610470575b603c420493603c850294808604603c149015171561045f575050916104579184937f60e344e47525731fddb78da0406d35494f63a1e7ebb282981fa22ca34f00168c96955192610438846114af565b8884528987850152858401523390830152885260018452828820611611565b51338152a380f35b634e487b7160e01b8a526011905288fd5b8354600160401b8110156104ad576001810180865581101561049b578390858b52878b2001556103e9565b50634e487b7160e01b89526032845288fd5b50634e487b7160e01b89526041845288fd5b845162461bcd60e51b8152808501879052600e818501526d125b9d985b1a5908185b5bdd5b9d60921b6044820152606490fd5b9150503d808c833e61050481836114e5565b81019188828403126105cb5781516001600160401b03928382116105b5570160a0818503126105b15788519160a08301838110858211176105b9578a52815190811681036105b5578252898101518381116105b55784610565918301611561565b8a8301528881015160ff811681036105b557898301526105868682016115d1565b8683015260808101519283116105b15761ffff9386936105a69201611561565b60808201528c61039b565b8c80fd5b8d80fd5b634e487b7160e01b8f5260418a52888ffd5b8b80fd5b87513d8d823e3d90fd5b506007548c1015610369565b865162461bcd60e51b8152808701899052601581870152742ab73932b3b4b9ba32b932b21039bab8383634b2b960591b6044820152606490fd5b61063f9150893d8b11610645575b61063781836114e5565b810190611508565b8c610354565b503d61062d565b88513d8e823e3d90fd5b8380fd5b50823461022957602091826003193601126106565790808460039360809660608451610685816114af565b828152828982015282868201520152358152600985528181205481526001855220908051916106b3836114af565b8054948584526001820154818501908152606060028401549385870194855260018060a01b03978891015416950194855283519687525190860152519084015251166060820152f35b508290346102295760203660031901126102295791819235815260016020522090610747825491600184015493600281015490600360018060a01b03910154169151948594856113fd565b0390f35b82843461022d578160031936011261022d576020906107686116fa565b9051908152f35b82843461022d578160031936011261022d576020906008549051908152f35b50829034610229578160031936011261022957600654825163b2a89e1560e01b815233818401528235936020926024928335916001600160a01b03169085818681855afa908115610aee578991610ad1575b5015610a97579087929160085482111580610a8b575b6107ff90611525565b868661083e8a6108396108106116fa565b885185810190338252868152610825816114ca565b5190208a528860029a8b8752205490611655565b611678565b9285519283809263442c18f360e01b82525afa8015610a81578a90610a47575b61ffff91501610610a075781518581019033825286815261087e816114ca565b5190209687895283865283838a200154156109b5575b603c420497603c890298808a04603c14901517156109a35783516108db916108bb826114af565b83825284898301528a868301523360608301528b52858852848b20611611565b7f2eef226398f000ec33af3b3be58878356d5c7b195bff89de5067bbfe7d2ee4a3868451338152a360058054889384925b878b848610610972578b90525050600d8752505050862055600e5492600160401b841015610961576001840180600e55841015610950575050600e84528320015580f35b634e487b7160e01b86526032905284fd5b634e487b7160e01b86526041905284fd5b968561099592898561099b969798999b522001548d52848a52868d205490611678565b95611685565b92919061090c565b634e487b7160e01b8a5260118852858afd5b600554600160401b8110156109f55760018101806005558110156109e357889060058b52878b200155610894565b634e487b7160e01b8a5260328852858afd5b634e487b7160e01b8a5260418852858afd5b815162461bcd60e51b8152808701869052601b818601527a44656d616e64206578636565647320746f74616c20737570706c7960281b6044820152606490fd5b508681813d8311610a7a575b610a5d81836114e5565b81010312610a7657610a7161ffff916115d1565b61085e565b8980fd5b503d610a53565b84513d8c823e3d90fd5b506007548210156107f6565b825162461bcd60e51b8152808701869052601581860152742ab73932b3b4b9ba32b932b21031b7b739bab6b2b960591b6044820152606490fd5b610ae89150863d88116106455761063781836114e5565b896107e0565b84513d8b823e3d90fd5b505034610b7b5780600319360112610b7b578151600c805480835290835260208083019492937fdf6966c971051c3d54ec59162606531493a51404a002842f56009d7e5cf4a8c792915b828210610b64576107478686610b5a828b03836114e5565b51918291826113c2565b835487529586019560019384019390910190610b42565b80fd5b50829034610229576020366003190112610229576020928291358152600d845220549051908152f35b82843461022d578160031936011261022d576020906007549051908152f35b50829034610229576020366003190112610229576020928291358152600a845220549051908152f35b82843461022d578160031936011261022d57905490516001600160a01b039091168152602090f35b505034610b7b5780600319360112610b7b578151600e8054808352908352602080830194929360008051602061174283398151915292915b828210610c67576107478686610b5a828b03836114e5565b835487529586019560019384019390910190610c4f565b8234610b7b5780600319360112610b7b57610c97611426565b80546001600160a01b03198116825581906001600160a01b03166000805160206117628339815191528280a380f35b505034610b7b5780600319360112610b7b5781516005805480835290835260208083019492937f036b6384b5eca791c62761152d0c79bb0604c104a5fb6f4eb0703f3154bb3db092915b828210610d28576107478686610b5a828b03836114e5565b835487529586019560019384019390910190610d10565b508290346102295760203660031901126102295781602093600192358152600985528181205481528285522001549051908152f35b508290346102295760203660031901126102295791819235815260026020522090610747825491600184015493600281015490600360018060a01b03910154169151948594856113fd565b508290346102295760203660031901126102295760209282913581526009845220549051908152f35b505034610b7b5780600319360112610b7b578151600b805480835290835260208083019492937f0175b7a638427703f0dbe7bb9bbf987a2551717b34e79f33b5b1008d1fa01db992915b828210610e4a576107478686610b5a828b03836114e5565b835487529586019560019384019390910190610e32565b508290346102295760208060031936011261065657813592610e81611426565b4284101561108e578485600b54905b818110610ef9575050603c90858752600a84520490852055600c5491600160401b831015610ee6576001830180600c55831015610ed35750600c84528320015580f35b634e487b7160e01b855260329052602484fd5b634e487b7160e01b855260419052602484fd5b610f02816115e0565b9054600391821b1c888110158061107a575b610f29575b5050610f2490611685565b610e90565b8952600986528489205489526001808752858a20810154929491906000198501858111611067578a90871080611024575b15610fe157508501808611610fce57603c91610f78610f93926115e0565b905490821b1c90610f88886115e0565b9054911b1c90611655565b04915b828102928184041490151715610fbb57610f2491610fb391611678565b929089610f19565b634e487b7160e01b895260118752602489fd5b634e487b7160e01b8b526011895260248bfd5b919050611001610ff0876115e0565b939092603c94859454911b1c611655565b0481039081116110115791610f96565b634e487b7160e01b8a526011885260248afd5b505080860180871161106757611039906115e0565b9054610e108c0191841b1c818c1161105457908b9110610f5a565b634e487b7160e01b8d5260118b5260248dfd5b634e487b7160e01b8c5260118a5260248cfd5b50610e108901808a11610fce578110610f14565b5162461bcd60e51b8152918201526011602482015270121bdd5c881a5cc81b9bdd081d985b1a59607a1b604482015260649150fd5b5082346102295782600319360112610229576110dd611426565b600554151580611393575b6110f0578280f35b909180916110fc6116fa565b926111056116a8565b908151845b8181106112ea575050610e10928342048481029481860414901517156112d757845b83518110156112ca5761113f8185611694565b518652600160208181528388206003908101546001600160a01b03969193919290871661116c868a611694565b518b52828252611180878c20548095611678565b978a8c52858352878c20948851926111978461147e565b8352838301908152888301914283528654600160401b97888210156112b45787820180825582101561129e578f52858f20945190890290940180546001600160a01b031916919094161783555184830155516002909101558a871015611209575050505061120490611685565b61112c565b9493929899509450949550603c9586420487810297818904149015171561128b5760099161123691611694565b519286895252862055600b908154928310156112785761125d9394959650820190556115e0565b81939154911b91821b91600019901b19161790555b81808280f35b634e487b7160e01b865260418752602486fd5b634e487b7160e01b895260118a52602489fd5b50508f8e6032602492634e487b7160e01b835252fd5b50508f8e6041602492634e487b7160e01b835252fd5b5050505050915050611272565b634e487b7160e01b855260118752602485fd5b6001808201808311611380575b83811061130e57505061130990611685565b61110a565b61134a9061131c8488611694565b518952602083815283808a8c20015491611336848b611694565b518c525283898b2001541061134f57611685565b6112f7565b6113598488611694565b516113648289611694565b5161136f868a611694565b5261137a8289611694565b52611685565b634e487b7160e01b885260118a52602488fd5b50815415156110e8565b82843461022d578160031936011261022d57610747906113bb6116a8565b9051918291825b6020908160408183019282815285518094520193019160005b8281106113e9575050505090565b8351855293810193928101926001016113db565b908152602081019190915260408101919091526001600160a01b03909116606082015260800190565b6000546001600160a01b0316330361143a57565b606460405162461bcd60e51b815260206004820152602060248201527f4f776e61626c653a2063616c6c6572206973206e6f7420746865206f776e65726044820152fd5b606081019081106001600160401b0382111761149957604052565b634e487b7160e01b600052604160045260246000fd5b608081019081106001600160401b0382111761149957604052565b604081019081106001600160401b0382111761149957604052565b601f909101601f19168101906001600160401b0382119082101761149957604052565b90816020910312611520575180151581036115205790565b600080fd5b1561152c57565b60405162461bcd60e51b815260206004820152600d60248201526c496e76616c696420707269636560981b6044820152606490fd5b919080601f84011215611520578251906001600160401b0382116114995760405191602091611599601f8301601f19168401856114e5565b8184528282870101116115205760005b8181106115be57508260009394955001015290565b85810183015184820184015282016115a9565b519061ffff8216820361152057565b600b548110156115fb57600b60005260206000200190600090565b634e487b7160e01b600052603260045260246000fd5b81518155602082015160018201556040820151600282015560609091015160039190910180546001600160a01b0319166001600160a01b0392909216919091179055565b9190820391821161166257565b634e487b7160e01b600052601160045260246000fd5b9190820180921161166257565b60001981146116625760010190565b80518210156115fb5760209160051b010190565b604051906004548083528260209182820190600460005283600020936000905b8282106116e0575050506116de925003836114e5565b565b8554845260019586019588955093810193909101906116c8565b600e54806117085750600090565b60001990808201818111611662578111156115fb570160008051602061174283398151915201546000908152600d60205260409020549056febb7b4a454dc3493923482f07822329ed19e8244eff582cc204f8554c3620c3fd8be0079c531659141344cd1fd0a4f28419497f9722a3daafe3b4186f6b6457e0",
    "linkReferences": {},
    "deployedLinkReferences": {},
    "default": {
        "_format": "hh-sol-artifact-1",
        "contractName": "PoolMarket",
        "sourceName": "contracts/PoolMarket.sol",
        "abi": [
            {
                "inputs": [
                    {
                        "internalType": "address",
                        "name": "_registryContractAddress",
                        "type": "address"
                    },
                    {
                        "internalType": "uint256",
                        "name": "_minAllowedPrice",
                        "type": "uint256"
                    },
                    {
                        "internalType": "uint256",
                        "name": "_maxAllowedPrice",
                        "type": "uint256"
                    }
                ],
                "stateMutability": "nonpayable",
                "type": "constructor"
            },
            {
                "anonymous": false,
                "inputs": [
                    {
                        "indexed": true,
                        "internalType": "uint256",
                        "name": "amount",
                        "type": "uint256"
                    },
                    {
                        "indexed": true,
                        "internalType": "uint256",
                        "name": "price",
                        "type": "uint256"
                    },
                    {
                        "indexed": false,
                        "internalType": "address",
                        "name": "sender",
                        "type": "address"
                    }
                ],
                "name": "BidSubmitted",
                "type": "event"
            },
            {
                "anonymous": false,
                "inputs": [
                    {
                        "indexed": true,
                        "internalType": "uint256",
                        "name": "amount",
                        "type": "uint256"
                    },
                    {
                        "indexed": true,
                        "internalType": "uint256",
                        "name": "price",
                        "type": "uint256"
                    },
                    {
                        "indexed": false,
                        "internalType": "address",
                        "name": "sender",
                        "type": "address"
                    }
                ],
                "name": "OfferSubmitted",
                "type": "event"
            },
            {
                "anonymous": false,
                "inputs": [
                    {
                        "indexed": true,
                        "internalType": "address",
                        "name": "previousOwner",
                        "type": "address"
                    },
                    {
                        "indexed": true,
                        "internalType": "address",
                        "name": "newOwner",
                        "type": "address"
                    }
                ],
                "name": "OwnershipTransferred",
                "type": "event"
            },
            {
                "inputs": [
                    {
                        "internalType": "uint256",
                        "name": "hour",
                        "type": "uint256"
                    }
                ],
                "name": "calculatePoolPrice",
                "outputs": [],
                "stateMutability": "nonpayable",
                "type": "function"
            },
            {
                "inputs": [],
                "name": "calculateSMP",
                "outputs": [],
                "stateMutability": "nonpayable",
                "type": "function"
            },
            {
                "inputs": [
                    {
                        "internalType": "bytes32",
                        "name": "",
                        "type": "bytes32"
                    }
                ],
                "name": "energyBids",
                "outputs": [
                    {
                        "internalType": "uint256",
                        "name": "amount",
                        "type": "uint256"
                    },
                    {
                        "internalType": "uint256",
                        "name": "price",
                        "type": "uint256"
                    },
                    {
                        "internalType": "uint256",
                        "name": "submitMinute",
                        "type": "uint256"
                    },
                    {
                        "internalType": "address",
                        "name": "consumerAccount",
                        "type": "address"
                    }
                ],
                "stateMutability": "view",
                "type": "function"
            },
            {
                "inputs": [
                    {
                        "internalType": "bytes32",
                        "name": "",
                        "type": "bytes32"
                    }
                ],
                "name": "energyOffers",
                "outputs": [
                    {
                        "internalType": "uint256",
                        "name": "amount",
                        "type": "uint256"
                    },
                    {
                        "internalType": "uint256",
                        "name": "price",
                        "type": "uint256"
                    },
                    {
                        "internalType": "uint256",
                        "name": "submitMinute",
                        "type": "uint256"
                    },
                    {
                        "internalType": "address",
                        "name": "supplierAccount",
                        "type": "address"
                    }
                ],
                "stateMutability": "view",
                "type": "function"
            },
            {
                "inputs": [
                    {
                        "internalType": "uint256",
                        "name": "hour",
                        "type": "uint256"
                    }
                ],
                "name": "getDispatchedOffers",
                "outputs": [
                    {
                        "components": [
                            {
                                "internalType": "address",
                                "name": "supplierAccount",
                                "type": "address"
                            },
                            {
                                "internalType": "uint256",
                                "name": "dispatchedAmount",
                                "type": "uint256"
                            },
                            {
                                "internalType": "uint256",
                                "name": "dispatchedAt",
                                "type": "uint256"
                            }
                        ],
                        "internalType": "struct IMarket.DispatchedOffer[]",
                        "name": "",
                        "type": "tuple[]"
                    }
                ],
                "stateMutability": "view",
                "type": "function"
            },
            {
                "inputs": [],
                "name": "getLatestTotalDemand",
                "outputs": [
                    {
                        "internalType": "uint256",
                        "name": "",
                        "type": "uint256"
                    }
                ],
                "stateMutability": "view",
                "type": "function"
            },
            {
                "inputs": [
                    {
                        "internalType": "uint256",
                        "name": "minute",
                        "type": "uint256"
                    }
                ],
                "name": "getMarginalOffer",
                "outputs": [
                    {
                        "components": [
                            {
                                "internalType": "uint256",
                                "name": "amount",
                                "type": "uint256"
                            },
                            {
                                "internalType": "uint256",
                                "name": "price",
                                "type": "uint256"
                            },
                            {
                                "internalType": "uint256",
                                "name": "submitMinute",
                                "type": "uint256"
                            },
                            {
                                "internalType": "address",
                                "name": "supplierAccount",
                                "type": "address"
                            }
                        ],
                        "internalType": "struct PoolMarket.Offer",
                        "name": "",
                        "type": "tuple"
                    }
                ],
                "stateMutability": "view",
                "type": "function"
            },
            {
                "inputs": [
                    {
                        "internalType": "uint256",
                        "name": "hour",
                        "type": "uint256"
                    }
                ],
                "name": "getPoolPrice",
                "outputs": [
                    {
                        "internalType": "uint256",
                        "name": "",
                        "type": "uint256"
                    }
                ],
                "stateMutability": "view",
                "type": "function"
            },
            {
                "inputs": [],
                "name": "getPoolpriceHours",
                "outputs": [
                    {
                        "internalType": "uint256[]",
                        "name": "",
                        "type": "uint256[]"
                    }
                ],
                "stateMutability": "view",
                "type": "function"
            },
            {
                "inputs": [
                    {
                        "internalType": "uint256",
                        "name": "minute",
                        "type": "uint256"
                    }
                ],
                "name": "getSMP",
                "outputs": [
                    {
                        "internalType": "uint256",
                        "name": "",
                        "type": "uint256"
                    }
                ],
                "stateMutability": "view",
                "type": "function"
            },
            {
                "inputs": [],
                "name": "getSystemMarginalMinutes",
                "outputs": [
                    {
                        "internalType": "uint256[]",
                        "name": "",
                        "type": "uint256[]"
                    }
                ],
                "stateMutability": "view",
                "type": "function"
            },
            {
                "inputs": [],
                "name": "getTotalDemandMinutes",
                "outputs": [
                    {
                        "internalType": "uint256[]",
                        "name": "",
                        "type": "uint256[]"
                    }
                ],
                "stateMutability": "view",
                "type": "function"
            },
            {
                "inputs": [],
                "name": "getValidBidIDs",
                "outputs": [
                    {
                        "internalType": "bytes32[]",
                        "name": "",
                        "type": "bytes32[]"
                    }
                ],
                "stateMutability": "view",
                "type": "function"
            },
            {
                "inputs": [],
                "name": "getValidOfferIDs",
                "outputs": [
                    {
                        "internalType": "bytes32[]",
                        "name": "",
                        "type": "bytes32[]"
                    }
                ],
                "stateMutability": "view",
                "type": "function"
            },
            {
                "inputs": [],
                "name": "maxAllowedPrice",
                "outputs": [
                    {
                        "internalType": "uint256",
                        "name": "",
                        "type": "uint256"
                    }
                ],
                "stateMutability": "view",
                "type": "function"
            },
            {
                "inputs": [],
                "name": "minAllowedPrice",
                "outputs": [
                    {
                        "internalType": "uint256",
                        "name": "",
                        "type": "uint256"
                    }
                ],
                "stateMutability": "view",
                "type": "function"
            },
            {
                "inputs": [],
                "name": "owner",
                "outputs": [
                    {
                        "internalType": "address",
                        "name": "",
                        "type": "address"
                    }
                ],
                "stateMutability": "view",
                "type": "function"
            },
            {
                "inputs": [],
                "name": "renounceOwnership",
                "outputs": [],
                "stateMutability": "nonpayable",
                "type": "function"
            },
            {
                "inputs": [
                    {
                        "internalType": "uint256",
                        "name": "_amount",
                        "type": "uint256"
                    },
                    {
                        "internalType": "uint256",
                        "name": "_price",
                        "type": "uint256"
                    }
                ],
                "name": "submitBid",
                "outputs": [],
                "stateMutability": "nonpayable",
                "type": "function"
            },
            {
                "inputs": [
                    {
                        "internalType": "uint8",
                        "name": "blockNumber",
                        "type": "uint8"
                    },
                    {
                        "internalType": "uint256",
                        "name": "amount",
                        "type": "uint256"
                    },
                    {
                        "internalType": "uint256",
                        "name": "price",
                        "type": "uint256"
                    }
                ],
                "name": "submitOffer",
                "outputs": [],
                "stateMutability": "nonpayable",
                "type": "function"
            },
            {
                "inputs": [
                    {
                        "internalType": "uint256",
                        "name": "",
                        "type": "uint256"
                    }
                ],
                "name": "systemMarginalOfferIDs",
                "outputs": [
                    {
                        "internalType": "bytes32",
                        "name": "",
                        "type": "bytes32"
                    }
                ],
                "stateMutability": "view",
                "type": "function"
            },
            {
                "inputs": [
                    {
                        "internalType": "uint256",
                        "name": "",
                        "type": "uint256"
                    }
                ],
                "name": "totalDemands",
                "outputs": [
                    {
                        "internalType": "uint256",
                        "name": "",
                        "type": "uint256"
                    }
                ],
                "stateMutability": "view",
                "type": "function"
            },
            {
                "inputs": [
                    {
                        "internalType": "address",
                        "name": "newOwner",
                        "type": "address"
                    }
                ],
                "name": "transferOwnership",
                "outputs": [],
                "stateMutability": "nonpayable",
                "type": "function"
            }
        ],
        "bytecode": "0x6080346100b957601f61185738819003918201601f19168301916001600160401b038311848410176100be578084926060946040528339810103126100b95780516001600160a01b0391828216918290036100b957604060208201519101519160005460018060a01b0319903382821617600055604051953391167f8be0079c531659141344cd1fd0a4f28419497f9722a3daafe3b4186f6b6457e0600080a3600654161760065560075560085561178290816100d58239f35b600080fd5b634e487b7160e01b600052604160045260246000fdfe60406080815260048036101561001457600080fd5b600090813560e01c806314bacef71461139d57806321dfca17146110c3578063238a1cc314610e6157806325f8a08d14610de85780634c5140a514610dbf57806363660a2714610d74578063696e2c0f14610d3f5780636d96b3d314610cc6578063715018a614610c7e57806383f1444d14610c175780638da5cb5b14610bef5780639af94f3014610bc6578063a133245b14610ba7578063b2f1223814610b7e578063b5b66e1214610af8578063b821da1b1461078e578063cab0fb731461076f578063d71a60c01461074b578063ec6eaf62146106fc578063ef2d09f91461065a578063f17e6a70146102e9578063f2fde38b146102315763f790825d1461011d57600080fd5b3461022d5760208060031936011261022957813583526003808252848420805490939192916001600160401b03821161021657508551919492610166600583901b8701846114e5565b8183528583018095855286852085915b8483106101d3575050505050845193808501918186525180925285850193925b8281106101a35785850386f35b835180516001600160a01b0316865280830151868401528701518786015260609094019392810192600101610196565b83896001928c9b98999b516101e78161147e565b848060a01b03865416815284860154838201528d60028701549082015281520192019201919097959497610176565b634e487b7160e01b865260419052602485fd5b8280fd5b5080fd5b508234610229576020366003190112610229576001600160a01b038235818116939192908490036102e557610264611426565b831561029357505082546001600160a01b0319811683178455166000805160206117628339815191528380a380f35b906020608492519162461bcd60e51b8352820152602660248201527f4f776e61626c653a206e6577206f776e657220697320746865207a65726f206160448201526564647265737360d01b6064820152fd5b8480fd5b5082903461022957606091826003193601126106565781359060ff821682036102e55760065481516373b6f1d360e01b815233818601526044359560248035966020969094919390916001600160a01b03919082169088818781855afa90811561064c578c9161061f575b50156105e5578a85916008548c1115806105d9575b61037290611525565b8851637f3804f960e11b8152338982015292839182905afa9081156105cf579084918c916104f2575b5061ffff925001511687116104bf5784518681019133841b835260ff60f81b9060f81b166034820152601581526103d1816114ca565b51902091828952600186526002858a20015415610470575b603c420493603c850294808604603c149015171561045f575050916104579184937f60e344e47525731fddb78da0406d35494f63a1e7ebb282981fa22ca34f00168c96955192610438846114af565b8884528987850152858401523390830152885260018452828820611611565b51338152a380f35b634e487b7160e01b8a526011905288fd5b8354600160401b8110156104ad576001810180865581101561049b578390858b52878b2001556103e9565b50634e487b7160e01b89526032845288fd5b50634e487b7160e01b89526041845288fd5b845162461bcd60e51b8152808501879052600e818501526d125b9d985b1a5908185b5bdd5b9d60921b6044820152606490fd5b9150503d808c833e61050481836114e5565b81019188828403126105cb5781516001600160401b03928382116105b5570160a0818503126105b15788519160a08301838110858211176105b9578a52815190811681036105b5578252898101518381116105b55784610565918301611561565b8a8301528881015160ff811681036105b557898301526105868682016115d1565b8683015260808101519283116105b15761ffff9386936105a69201611561565b60808201528c61039b565b8c80fd5b8d80fd5b634e487b7160e01b8f5260418a52888ffd5b8b80fd5b87513d8d823e3d90fd5b506007548c1015610369565b865162461bcd60e51b8152808701899052601581870152742ab73932b3b4b9ba32b932b21039bab8383634b2b960591b6044820152606490fd5b61063f9150893d8b11610645575b61063781836114e5565b810190611508565b8c610354565b503d61062d565b88513d8e823e3d90fd5b8380fd5b50823461022957602091826003193601126106565790808460039360809660608451610685816114af565b828152828982015282868201520152358152600985528181205481526001855220908051916106b3836114af565b8054948584526001820154818501908152606060028401549385870194855260018060a01b03978891015416950194855283519687525190860152519084015251166060820152f35b508290346102295760203660031901126102295791819235815260016020522090610747825491600184015493600281015490600360018060a01b03910154169151948594856113fd565b0390f35b82843461022d578160031936011261022d576020906107686116fa565b9051908152f35b82843461022d578160031936011261022d576020906008549051908152f35b50829034610229578160031936011261022957600654825163b2a89e1560e01b815233818401528235936020926024928335916001600160a01b03169085818681855afa908115610aee578991610ad1575b5015610a97579087929160085482111580610a8b575b6107ff90611525565b868661083e8a6108396108106116fa565b885185810190338252868152610825816114ca565b5190208a528860029a8b8752205490611655565b611678565b9285519283809263442c18f360e01b82525afa8015610a81578a90610a47575b61ffff91501610610a075781518581019033825286815261087e816114ca565b5190209687895283865283838a200154156109b5575b603c420497603c890298808a04603c14901517156109a35783516108db916108bb826114af565b83825284898301528a868301523360608301528b52858852848b20611611565b7f2eef226398f000ec33af3b3be58878356d5c7b195bff89de5067bbfe7d2ee4a3868451338152a360058054889384925b878b848610610972578b90525050600d8752505050862055600e5492600160401b841015610961576001840180600e55841015610950575050600e84528320015580f35b634e487b7160e01b86526032905284fd5b634e487b7160e01b86526041905284fd5b968561099592898561099b969798999b522001548d52848a52868d205490611678565b95611685565b92919061090c565b634e487b7160e01b8a5260118852858afd5b600554600160401b8110156109f55760018101806005558110156109e357889060058b52878b200155610894565b634e487b7160e01b8a5260328852858afd5b634e487b7160e01b8a5260418852858afd5b815162461bcd60e51b8152808701869052601b818601527a44656d616e64206578636565647320746f74616c20737570706c7960281b6044820152606490fd5b508681813d8311610a7a575b610a5d81836114e5565b81010312610a7657610a7161ffff916115d1565b61085e565b8980fd5b503d610a53565b84513d8c823e3d90fd5b506007548210156107f6565b825162461bcd60e51b8152808701869052601581860152742ab73932b3b4b9ba32b932b21031b7b739bab6b2b960591b6044820152606490fd5b610ae89150863d88116106455761063781836114e5565b896107e0565b84513d8b823e3d90fd5b505034610b7b5780600319360112610b7b578151600c805480835290835260208083019492937fdf6966c971051c3d54ec59162606531493a51404a002842f56009d7e5cf4a8c792915b828210610b64576107478686610b5a828b03836114e5565b51918291826113c2565b835487529586019560019384019390910190610b42565b80fd5b50829034610229576020366003190112610229576020928291358152600d845220549051908152f35b82843461022d578160031936011261022d576020906007549051908152f35b50829034610229576020366003190112610229576020928291358152600a845220549051908152f35b82843461022d578160031936011261022d57905490516001600160a01b039091168152602090f35b505034610b7b5780600319360112610b7b578151600e8054808352908352602080830194929360008051602061174283398151915292915b828210610c67576107478686610b5a828b03836114e5565b835487529586019560019384019390910190610c4f565b8234610b7b5780600319360112610b7b57610c97611426565b80546001600160a01b03198116825581906001600160a01b03166000805160206117628339815191528280a380f35b505034610b7b5780600319360112610b7b5781516005805480835290835260208083019492937f036b6384b5eca791c62761152d0c79bb0604c104a5fb6f4eb0703f3154bb3db092915b828210610d28576107478686610b5a828b03836114e5565b835487529586019560019384019390910190610d10565b508290346102295760203660031901126102295781602093600192358152600985528181205481528285522001549051908152f35b508290346102295760203660031901126102295791819235815260026020522090610747825491600184015493600281015490600360018060a01b03910154169151948594856113fd565b508290346102295760203660031901126102295760209282913581526009845220549051908152f35b505034610b7b5780600319360112610b7b578151600b805480835290835260208083019492937f0175b7a638427703f0dbe7bb9bbf987a2551717b34e79f33b5b1008d1fa01db992915b828210610e4a576107478686610b5a828b03836114e5565b835487529586019560019384019390910190610e32565b508290346102295760208060031936011261065657813592610e81611426565b4284101561108e578485600b54905b818110610ef9575050603c90858752600a84520490852055600c5491600160401b831015610ee6576001830180600c55831015610ed35750600c84528320015580f35b634e487b7160e01b855260329052602484fd5b634e487b7160e01b855260419052602484fd5b610f02816115e0565b9054600391821b1c888110158061107a575b610f29575b5050610f2490611685565b610e90565b8952600986528489205489526001808752858a20810154929491906000198501858111611067578a90871080611024575b15610fe157508501808611610fce57603c91610f78610f93926115e0565b905490821b1c90610f88886115e0565b9054911b1c90611655565b04915b828102928184041490151715610fbb57610f2491610fb391611678565b929089610f19565b634e487b7160e01b895260118752602489fd5b634e487b7160e01b8b526011895260248bfd5b919050611001610ff0876115e0565b939092603c94859454911b1c611655565b0481039081116110115791610f96565b634e487b7160e01b8a526011885260248afd5b505080860180871161106757611039906115e0565b9054610e108c0191841b1c818c1161105457908b9110610f5a565b634e487b7160e01b8d5260118b5260248dfd5b634e487b7160e01b8c5260118a5260248cfd5b50610e108901808a11610fce578110610f14565b5162461bcd60e51b8152918201526011602482015270121bdd5c881a5cc81b9bdd081d985b1a59607a1b604482015260649150fd5b5082346102295782600319360112610229576110dd611426565b600554151580611393575b6110f0578280f35b909180916110fc6116fa565b926111056116a8565b908151845b8181106112ea575050610e10928342048481029481860414901517156112d757845b83518110156112ca5761113f8185611694565b518652600160208181528388206003908101546001600160a01b03969193919290871661116c868a611694565b518b52828252611180878c20548095611678565b978a8c52858352878c20948851926111978461147e565b8352838301908152888301914283528654600160401b97888210156112b45787820180825582101561129e578f52858f20945190890290940180546001600160a01b031916919094161783555184830155516002909101558a871015611209575050505061120490611685565b61112c565b9493929899509450949550603c9586420487810297818904149015171561128b5760099161123691611694565b519286895252862055600b908154928310156112785761125d9394959650820190556115e0565b81939154911b91821b91600019901b19161790555b81808280f35b634e487b7160e01b865260418752602486fd5b634e487b7160e01b895260118a52602489fd5b50508f8e6032602492634e487b7160e01b835252fd5b50508f8e6041602492634e487b7160e01b835252fd5b5050505050915050611272565b634e487b7160e01b855260118752602485fd5b6001808201808311611380575b83811061130e57505061130990611685565b61110a565b61134a9061131c8488611694565b518952602083815283808a8c20015491611336848b611694565b518c525283898b2001541061134f57611685565b6112f7565b6113598488611694565b516113648289611694565b5161136f868a611694565b5261137a8289611694565b52611685565b634e487b7160e01b885260118a52602488fd5b50815415156110e8565b82843461022d578160031936011261022d57610747906113bb6116a8565b9051918291825b6020908160408183019282815285518094520193019160005b8281106113e9575050505090565b8351855293810193928101926001016113db565b908152602081019190915260408101919091526001600160a01b03909116606082015260800190565b6000546001600160a01b0316330361143a57565b606460405162461bcd60e51b815260206004820152602060248201527f4f776e61626c653a2063616c6c6572206973206e6f7420746865206f776e65726044820152fd5b606081019081106001600160401b0382111761149957604052565b634e487b7160e01b600052604160045260246000fd5b608081019081106001600160401b0382111761149957604052565b604081019081106001600160401b0382111761149957604052565b601f909101601f19168101906001600160401b0382119082101761149957604052565b90816020910312611520575180151581036115205790565b600080fd5b1561152c57565b60405162461bcd60e51b815260206004820152600d60248201526c496e76616c696420707269636560981b6044820152606490fd5b919080601f84011215611520578251906001600160401b0382116114995760405191602091611599601f8301601f19168401856114e5565b8184528282870101116115205760005b8181106115be57508260009394955001015290565b85810183015184820184015282016115a9565b519061ffff8216820361152057565b600b548110156115fb57600b60005260206000200190600090565b634e487b7160e01b600052603260045260246000fd5b81518155602082015160018201556040820151600282015560609091015160039190910180546001600160a01b0319166001600160a01b0392909216919091179055565b9190820391821161166257565b634e487b7160e01b600052601160045260246000fd5b9190820180921161166257565b60001981146116625760010190565b80518210156115fb5760209160051b010190565b604051906004548083528260209182820190600460005283600020936000905b8282106116e0575050506116de925003836114e5565b565b8554845260019586019588955093810193909101906116c8565b600e54806117085750600090565b60001990808201818111611662578111156115fb570160008051602061174283398151915201546000908152600d60205260409020549056febb7b4a454dc3493923482f07822329ed19e8244eff582cc204f8554c3620c3fd8be0079c531659141344cd1fd0a4f28419497f9722a3daafe3b4186f6b6457e0",
        "deployedBytecode": "0x60406080815260048036101561001457600080fd5b600090813560e01c806314bacef71461139d57806321dfca17146110c3578063238a1cc314610e6157806325f8a08d14610de85780634c5140a514610dbf57806363660a2714610d74578063696e2c0f14610d3f5780636d96b3d314610cc6578063715018a614610c7e57806383f1444d14610c175780638da5cb5b14610bef5780639af94f3014610bc6578063a133245b14610ba7578063b2f1223814610b7e578063b5b66e1214610af8578063b821da1b1461078e578063cab0fb731461076f578063d71a60c01461074b578063ec6eaf62146106fc578063ef2d09f91461065a578063f17e6a70146102e9578063f2fde38b146102315763f790825d1461011d57600080fd5b3461022d5760208060031936011261022957813583526003808252848420805490939192916001600160401b03821161021657508551919492610166600583901b8701846114e5565b8183528583018095855286852085915b8483106101d3575050505050845193808501918186525180925285850193925b8281106101a35785850386f35b835180516001600160a01b0316865280830151868401528701518786015260609094019392810192600101610196565b83896001928c9b98999b516101e78161147e565b848060a01b03865416815284860154838201528d60028701549082015281520192019201919097959497610176565b634e487b7160e01b865260419052602485fd5b8280fd5b5080fd5b508234610229576020366003190112610229576001600160a01b038235818116939192908490036102e557610264611426565b831561029357505082546001600160a01b0319811683178455166000805160206117628339815191528380a380f35b906020608492519162461bcd60e51b8352820152602660248201527f4f776e61626c653a206e6577206f776e657220697320746865207a65726f206160448201526564647265737360d01b6064820152fd5b8480fd5b5082903461022957606091826003193601126106565781359060ff821682036102e55760065481516373b6f1d360e01b815233818601526044359560248035966020969094919390916001600160a01b03919082169088818781855afa90811561064c578c9161061f575b50156105e5578a85916008548c1115806105d9575b61037290611525565b8851637f3804f960e11b8152338982015292839182905afa9081156105cf579084918c916104f2575b5061ffff925001511687116104bf5784518681019133841b835260ff60f81b9060f81b166034820152601581526103d1816114ca565b51902091828952600186526002858a20015415610470575b603c420493603c850294808604603c149015171561045f575050916104579184937f60e344e47525731fddb78da0406d35494f63a1e7ebb282981fa22ca34f00168c96955192610438846114af565b8884528987850152858401523390830152885260018452828820611611565b51338152a380f35b634e487b7160e01b8a526011905288fd5b8354600160401b8110156104ad576001810180865581101561049b578390858b52878b2001556103e9565b50634e487b7160e01b89526032845288fd5b50634e487b7160e01b89526041845288fd5b845162461bcd60e51b8152808501879052600e818501526d125b9d985b1a5908185b5bdd5b9d60921b6044820152606490fd5b9150503d808c833e61050481836114e5565b81019188828403126105cb5781516001600160401b03928382116105b5570160a0818503126105b15788519160a08301838110858211176105b9578a52815190811681036105b5578252898101518381116105b55784610565918301611561565b8a8301528881015160ff811681036105b557898301526105868682016115d1565b8683015260808101519283116105b15761ffff9386936105a69201611561565b60808201528c61039b565b8c80fd5b8d80fd5b634e487b7160e01b8f5260418a52888ffd5b8b80fd5b87513d8d823e3d90fd5b506007548c1015610369565b865162461bcd60e51b8152808701899052601581870152742ab73932b3b4b9ba32b932b21039bab8383634b2b960591b6044820152606490fd5b61063f9150893d8b11610645575b61063781836114e5565b810190611508565b8c610354565b503d61062d565b88513d8e823e3d90fd5b8380fd5b50823461022957602091826003193601126106565790808460039360809660608451610685816114af565b828152828982015282868201520152358152600985528181205481526001855220908051916106b3836114af565b8054948584526001820154818501908152606060028401549385870194855260018060a01b03978891015416950194855283519687525190860152519084015251166060820152f35b508290346102295760203660031901126102295791819235815260016020522090610747825491600184015493600281015490600360018060a01b03910154169151948594856113fd565b0390f35b82843461022d578160031936011261022d576020906107686116fa565b9051908152f35b82843461022d578160031936011261022d576020906008549051908152f35b50829034610229578160031936011261022957600654825163b2a89e1560e01b815233818401528235936020926024928335916001600160a01b03169085818681855afa908115610aee578991610ad1575b5015610a97579087929160085482111580610a8b575b6107ff90611525565b868661083e8a6108396108106116fa565b885185810190338252868152610825816114ca565b5190208a528860029a8b8752205490611655565b611678565b9285519283809263442c18f360e01b82525afa8015610a81578a90610a47575b61ffff91501610610a075781518581019033825286815261087e816114ca565b5190209687895283865283838a200154156109b5575b603c420497603c890298808a04603c14901517156109a35783516108db916108bb826114af565b83825284898301528a868301523360608301528b52858852848b20611611565b7f2eef226398f000ec33af3b3be58878356d5c7b195bff89de5067bbfe7d2ee4a3868451338152a360058054889384925b878b848610610972578b90525050600d8752505050862055600e5492600160401b841015610961576001840180600e55841015610950575050600e84528320015580f35b634e487b7160e01b86526032905284fd5b634e487b7160e01b86526041905284fd5b968561099592898561099b969798999b522001548d52848a52868d205490611678565b95611685565b92919061090c565b634e487b7160e01b8a5260118852858afd5b600554600160401b8110156109f55760018101806005558110156109e357889060058b52878b200155610894565b634e487b7160e01b8a5260328852858afd5b634e487b7160e01b8a5260418852858afd5b815162461bcd60e51b8152808701869052601b818601527a44656d616e64206578636565647320746f74616c20737570706c7960281b6044820152606490fd5b508681813d8311610a7a575b610a5d81836114e5565b81010312610a7657610a7161ffff916115d1565b61085e565b8980fd5b503d610a53565b84513d8c823e3d90fd5b506007548210156107f6565b825162461bcd60e51b8152808701869052601581860152742ab73932b3b4b9ba32b932b21031b7b739bab6b2b960591b6044820152606490fd5b610ae89150863d88116106455761063781836114e5565b896107e0565b84513d8b823e3d90fd5b505034610b7b5780600319360112610b7b578151600c805480835290835260208083019492937fdf6966c971051c3d54ec59162606531493a51404a002842f56009d7e5cf4a8c792915b828210610b64576107478686610b5a828b03836114e5565b51918291826113c2565b835487529586019560019384019390910190610b42565b80fd5b50829034610229576020366003190112610229576020928291358152600d845220549051908152f35b82843461022d578160031936011261022d576020906007549051908152f35b50829034610229576020366003190112610229576020928291358152600a845220549051908152f35b82843461022d578160031936011261022d57905490516001600160a01b039091168152602090f35b505034610b7b5780600319360112610b7b578151600e8054808352908352602080830194929360008051602061174283398151915292915b828210610c67576107478686610b5a828b03836114e5565b835487529586019560019384019390910190610c4f565b8234610b7b5780600319360112610b7b57610c97611426565b80546001600160a01b03198116825581906001600160a01b03166000805160206117628339815191528280a380f35b505034610b7b5780600319360112610b7b5781516005805480835290835260208083019492937f036b6384b5eca791c62761152d0c79bb0604c104a5fb6f4eb0703f3154bb3db092915b828210610d28576107478686610b5a828b03836114e5565b835487529586019560019384019390910190610d10565b508290346102295760203660031901126102295781602093600192358152600985528181205481528285522001549051908152f35b508290346102295760203660031901126102295791819235815260026020522090610747825491600184015493600281015490600360018060a01b03910154169151948594856113fd565b508290346102295760203660031901126102295760209282913581526009845220549051908152f35b505034610b7b5780600319360112610b7b578151600b805480835290835260208083019492937f0175b7a638427703f0dbe7bb9bbf987a2551717b34e79f33b5b1008d1fa01db992915b828210610e4a576107478686610b5a828b03836114e5565b835487529586019560019384019390910190610e32565b508290346102295760208060031936011261065657813592610e81611426565b4284101561108e578485600b54905b818110610ef9575050603c90858752600a84520490852055600c5491600160401b831015610ee6576001830180600c55831015610ed35750600c84528320015580f35b634e487b7160e01b855260329052602484fd5b634e487b7160e01b855260419052602484fd5b610f02816115e0565b9054600391821b1c888110158061107a575b610f29575b5050610f2490611685565b610e90565b8952600986528489205489526001808752858a20810154929491906000198501858111611067578a90871080611024575b15610fe157508501808611610fce57603c91610f78610f93926115e0565b905490821b1c90610f88886115e0565b9054911b1c90611655565b04915b828102928184041490151715610fbb57610f2491610fb391611678565b929089610f19565b634e487b7160e01b895260118752602489fd5b634e487b7160e01b8b526011895260248bfd5b919050611001610ff0876115e0565b939092603c94859454911b1c611655565b0481039081116110115791610f96565b634e487b7160e01b8a526011885260248afd5b505080860180871161106757611039906115e0565b9054610e108c0191841b1c818c1161105457908b9110610f5a565b634e487b7160e01b8d5260118b5260248dfd5b634e487b7160e01b8c5260118a5260248cfd5b50610e108901808a11610fce578110610f14565b5162461bcd60e51b8152918201526011602482015270121bdd5c881a5cc81b9bdd081d985b1a59607a1b604482015260649150fd5b5082346102295782600319360112610229576110dd611426565b600554151580611393575b6110f0578280f35b909180916110fc6116fa565b926111056116a8565b908151845b8181106112ea575050610e10928342048481029481860414901517156112d757845b83518110156112ca5761113f8185611694565b518652600160208181528388206003908101546001600160a01b03969193919290871661116c868a611694565b518b52828252611180878c20548095611678565b978a8c52858352878c20948851926111978461147e565b8352838301908152888301914283528654600160401b97888210156112b45787820180825582101561129e578f52858f20945190890290940180546001600160a01b031916919094161783555184830155516002909101558a871015611209575050505061120490611685565b61112c565b9493929899509450949550603c9586420487810297818904149015171561128b5760099161123691611694565b519286895252862055600b908154928310156112785761125d9394959650820190556115e0565b81939154911b91821b91600019901b19161790555b81808280f35b634e487b7160e01b865260418752602486fd5b634e487b7160e01b895260118a52602489fd5b50508f8e6032602492634e487b7160e01b835252fd5b50508f8e6041602492634e487b7160e01b835252fd5b5050505050915050611272565b634e487b7160e01b855260118752602485fd5b6001808201808311611380575b83811061130e57505061130990611685565b61110a565b61134a9061131c8488611694565b518952602083815283808a8c20015491611336848b611694565b518c525283898b2001541061134f57611685565b6112f7565b6113598488611694565b516113648289611694565b5161136f868a611694565b5261137a8289611694565b52611685565b634e487b7160e01b885260118a52602488fd5b50815415156110e8565b82843461022d578160031936011261022d57610747906113bb6116a8565b9051918291825b6020908160408183019282815285518094520193019160005b8281106113e9575050505090565b8351855293810193928101926001016113db565b908152602081019190915260408101919091526001600160a01b03909116606082015260800190565b6000546001600160a01b0316330361143a57565b606460405162461bcd60e51b815260206004820152602060248201527f4f776e61626c653a2063616c6c6572206973206e6f7420746865206f776e65726044820152fd5b606081019081106001600160401b0382111761149957604052565b634e487b7160e01b600052604160045260246000fd5b608081019081106001600160401b0382111761149957604052565b604081019081106001600160401b0382111761149957604052565b601f909101601f19168101906001600160401b0382119082101761149957604052565b90816020910312611520575180151581036115205790565b600080fd5b1561152c57565b60405162461bcd60e51b815260206004820152600d60248201526c496e76616c696420707269636560981b6044820152606490fd5b919080601f84011215611520578251906001600160401b0382116114995760405191602091611599601f8301601f19168401856114e5565b8184528282870101116115205760005b8181106115be57508260009394955001015290565b85810183015184820184015282016115a9565b519061ffff8216820361152057565b600b548110156115fb57600b60005260206000200190600090565b634e487b7160e01b600052603260045260246000fd5b81518155602082015160018201556040820151600282015560609091015160039190910180546001600160a01b0319166001600160a01b0392909216919091179055565b9190820391821161166257565b634e487b7160e01b600052601160045260246000fd5b9190820180921161166257565b60001981146116625760010190565b80518210156115fb5760209160051b010190565b604051906004548083528260209182820190600460005283600020936000905b8282106116e0575050506116de925003836114e5565b565b8554845260019586019588955093810193909101906116c8565b600e54806117085750600090565b60001990808201818111611662578111156115fb570160008051602061174283398151915201546000908152600d60205260409020549056febb7b4a454dc3493923482f07822329ed19e8244eff582cc204f8554c3620c3fd8be0079c531659141344cd1fd0a4f28419497f9722a3daafe3b4186f6b6457e0",
        "linkReferences": {},
        "deployedLinkReferences": {}
    }
}