{
  "_format": "hh-sol-artifact-1",
  "contractName": "PoolMarket",
  "sourceName": "contracts/PoolMarket.sol",
  "abi": [
    {
      "inputs": [
        {
          "internalType": "address",
          "name": "_registryContractAddress",
          "type": "address"
        },
        {
          "internalType": "uint256",
          "name": "_minAllowedPrice",
          "type": "uint256"
        },
        {
          "internalType": "uint256",
          "name": "_maxAllowedPrice",
          "type": "uint256"
        }
      ],
      "stateMutability": "nonpayable",
      "type": "constructor"
    },
    {
      "anonymous": false,
      "inputs": [
        {
          "indexed": false,
          "internalType": "bytes32",
          "name": "bidId",
          "type": "bytes32"
        },
        {
          "indexed": false,
          "internalType": "uint256",
          "name": "amount",
          "type": "uint256"
        },
        {
          "indexed": false,
          "internalType": "uint256",
          "name": "price",
          "type": "uint256"
        }
      ],
      "name": "BidSubmitted",
      "type": "event"
    },
    {
      "anonymous": false,
      "inputs": [
        {
          "indexed": false,
          "internalType": "uint256",
          "name": "ail",
          "type": "uint256"
        }
      ],
      "name": "DemandChanged",
      "type": "event"
    },
    {
      "anonymous": false,
      "inputs": [
        {
          "indexed": false,
          "internalType": "bytes32",
          "name": "offerId",
          "type": "bytes32"
        }
      ],
      "name": "OfferDeleted",
      "type": "event"
    },
    {
      "anonymous": false,
      "inputs": [
        {
          "indexed": false,
          "internalType": "bytes32",
          "name": "offerId",
          "type": "bytes32"
        },
        {
          "indexed": false,
          "internalType": "uint256",
          "name": "amount",
          "type": "uint256"
        },
        {
          "indexed": false,
          "internalType": "uint256",
          "name": "price",
          "type": "uint256"
        }
      ],
      "name": "OfferSubmitted",
      "type": "event"
    },
    {
      "anonymous": false,
      "inputs": [
        {
          "indexed": true,
          "internalType": "address",
          "name": "previousOwner",
          "type": "address"
        },
        {
          "indexed": true,
          "internalType": "address",
          "name": "newOwner",
          "type": "address"
        }
      ],
      "name": "OwnershipTransferred",
      "type": "event"
    },
    {
      "inputs": [
        {
          "internalType": "uint256",
          "name": "hour",
          "type": "uint256"
        }
      ],
      "name": "calculatePoolPrice",
      "outputs": [],
      "stateMutability": "nonpayable",
      "type": "function"
    },
    {
      "inputs": [
        {
          "internalType": "string",
          "name": "_assetId",
          "type": "string"
        },
        {
          "internalType": "uint8",
          "name": "_blockNumber",
          "type": "uint8"
        }
      ],
      "name": "deleteOffer",
      "outputs": [],
      "stateMutability": "nonpayable",
      "type": "function"
    },
    {
      "inputs": [
        {
          "internalType": "uint256",
          "name": "",
          "type": "uint256"
        },
        {
          "internalType": "uint256",
          "name": "",
          "type": "uint256"
        }
      ],
      "name": "dispatchedOffers",
      "outputs": [
        {
          "internalType": "address",
          "name": "supplierAccount",
          "type": "address"
        },
        {
          "internalType": "uint256",
          "name": "dispatchedAmount",
          "type": "uint256"
        },
        {
          "internalType": "uint256",
          "name": "dispatchedAt",
          "type": "uint256"
        }
      ],
      "stateMutability": "view",
      "type": "function"
    },
    {
      "inputs": [
        {
          "internalType": "bytes32",
          "name": "",
          "type": "bytes32"
        }
      ],
      "name": "energyBids",
      "outputs": [
        {
          "internalType": "uint256",
          "name": "amount",
          "type": "uint256"
        },
        {
          "internalType": "uint256",
          "name": "price",
          "type": "uint256"
        },
        {
          "internalType": "uint256",
          "name": "submitMinute",
          "type": "uint256"
        },
        {
          "internalType": "address",
          "name": "consumerAccount",
          "type": "address"
        }
      ],
      "stateMutability": "view",
      "type": "function"
    },
    {
      "inputs": [
        {
          "internalType": "bytes32",
          "name": "",
          "type": "bytes32"
        }
      ],
      "name": "energyOffers",
      "outputs": [
        {
          "internalType": "uint256",
          "name": "amount",
          "type": "uint256"
        },
        {
          "internalType": "uint256",
          "name": "price",
          "type": "uint256"
        },
        {
          "internalType": "uint256",
          "name": "submitMinute",
          "type": "uint256"
        },
        {
          "internalType": "address",
          "name": "supplierAccount",
          "type": "address"
        },
        {
          "internalType": "bool",
          "name": "isValid",
          "type": "bool"
        }
      ],
      "stateMutability": "view",
      "type": "function"
    },
    {
      "inputs": [
        {
          "internalType": "uint256",
          "name": "hour",
          "type": "uint256"
        }
      ],
      "name": "getDispatchedOffers",
      "outputs": [
        {
          "components": [
            {
              "internalType": "address",
              "name": "supplierAccount",
              "type": "address"
            },
            {
              "internalType": "uint256",
              "name": "dispatchedAmount",
              "type": "uint256"
            },
            {
              "internalType": "uint256",
              "name": "dispatchedAt",
              "type": "uint256"
            }
          ],
          "internalType": "struct IPoolMarket.DispatchedOffer[]",
          "name": "",
          "type": "tuple[]"
        }
      ],
      "stateMutability": "view",
      "type": "function"
    },
    {
      "inputs": [
        {
          "internalType": "bytes32",
          "name": "bidId",
          "type": "bytes32"
        }
      ],
      "name": "getEnergyBid",
      "outputs": [
        {
          "components": [
            {
              "internalType": "uint256",
              "name": "amount",
              "type": "uint256"
            },
            {
              "internalType": "uint256",
              "name": "price",
              "type": "uint256"
            },
            {
              "internalType": "uint256",
              "name": "submitMinute",
              "type": "uint256"
            },
            {
              "internalType": "address",
              "name": "consumerAccount",
              "type": "address"
            }
          ],
          "internalType": "struct PoolMarket.Bid",
          "name": "",
          "type": "tuple"
        }
      ],
      "stateMutability": "view",
      "type": "function"
    },
    {
      "inputs": [
        {
          "internalType": "bytes32",
          "name": "offerId",
          "type": "bytes32"
        }
      ],
      "name": "getEnergyOffer",
      "outputs": [
        {
          "components": [
            {
              "internalType": "uint256",
              "name": "amount",
              "type": "uint256"
            },
            {
              "internalType": "uint256",
              "name": "price",
              "type": "uint256"
            },
            {
              "internalType": "uint256",
              "name": "submitMinute",
              "type": "uint256"
            },
            {
              "internalType": "address",
              "name": "supplierAccount",
              "type": "address"
            },
            {
              "internalType": "bool",
              "name": "isValid",
              "type": "bool"
            }
          ],
          "internalType": "struct PoolMarket.Offer",
          "name": "",
          "type": "tuple"
        }
      ],
      "stateMutability": "view",
      "type": "function"
    },
    {
      "inputs": [],
      "name": "getLatestTotalDemand",
      "outputs": [
        {
          "internalType": "uint256",
          "name": "",
          "type": "uint256"
        }
      ],
      "stateMutability": "view",
      "type": "function"
    },
    {
      "inputs": [
        {
          "internalType": "uint256",
          "name": "minute",
          "type": "uint256"
        }
      ],
      "name": "getMarginalOffer",
      "outputs": [
        {
          "components": [
            {
              "internalType": "uint256",
              "name": "amount",
              "type": "uint256"
            },
            {
              "internalType": "uint256",
              "name": "price",
              "type": "uint256"
            },
            {
              "internalType": "uint256",
              "name": "submitMinute",
              "type": "uint256"
            },
            {
              "internalType": "address",
              "name": "supplierAccount",
              "type": "address"
            },
            {
              "internalType": "bool",
              "name": "isValid",
              "type": "bool"
            }
          ],
          "internalType": "struct PoolMarket.Offer",
          "name": "",
          "type": "tuple"
        }
      ],
      "stateMutability": "view",
      "type": "function"
    },
    {
      "inputs": [
        {
          "internalType": "uint256",
          "name": "hour",
          "type": "uint256"
        }
      ],
      "name": "getPoolPrice",
      "outputs": [
        {
          "internalType": "uint256",
          "name": "",
          "type": "uint256"
        }
      ],
      "stateMutability": "view",
      "type": "function"
    },
    {
      "inputs": [],
      "name": "getPoolpriceHours",
      "outputs": [
        {
          "internalType": "uint256[]",
          "name": "",
          "type": "uint256[]"
        }
      ],
      "stateMutability": "view",
      "type": "function"
    },
    {
      "inputs": [],
      "name": "getRegisteredSupplierAssetId",
      "outputs": [
        {
          "internalType": "string",
          "name": "",
          "type": "string"
        }
      ],
      "stateMutability": "view",
      "type": "function"
    },
    {
      "inputs": [
        {
          "internalType": "uint256",
          "name": "minute",
          "type": "uint256"
        }
      ],
      "name": "getSMP",
      "outputs": [
        {
          "internalType": "uint256",
          "name": "",
          "type": "uint256"
        }
      ],
      "stateMutability": "view",
      "type": "function"
    },
    {
      "inputs": [],
      "name": "getTotalDemandMinutes",
      "outputs": [
        {
          "internalType": "uint256[]",
          "name": "",
          "type": "uint256[]"
        }
      ],
      "stateMutability": "view",
      "type": "function"
    },
    {
      "inputs": [],
      "name": "getValidBidIDs",
      "outputs": [
        {
          "internalType": "bytes32[]",
          "name": "",
          "type": "bytes32[]"
        }
      ],
      "stateMutability": "view",
      "type": "function"
    },
    {
      "inputs": [],
      "name": "getValidOfferIDs",
      "outputs": [
        {
          "internalType": "bytes32[]",
          "name": "",
          "type": "bytes32[]"
        }
      ],
      "stateMutability": "view",
      "type": "function"
    },
    {
      "inputs": [],
      "name": "marketState",
      "outputs": [
        {
          "internalType": "enum PoolMarket.MarketState",
          "name": "",
          "type": "uint8"
        }
      ],
      "stateMutability": "view",
      "type": "function"
    },
    {
      "inputs": [],
      "name": "maxAllowedPrice",
      "outputs": [
        {
          "internalType": "uint256",
          "name": "",
          "type": "uint256"
        }
      ],
      "stateMutability": "view",
      "type": "function"
    },
    {
      "inputs": [],
      "name": "minAllowedPrice",
      "outputs": [
        {
          "internalType": "uint256",
          "name": "",
          "type": "uint256"
        }
      ],
      "stateMutability": "view",
      "type": "function"
    },
    {
      "inputs": [],
      "name": "owner",
      "outputs": [
        {
          "internalType": "address",
          "name": "",
          "type": "address"
        }
      ],
      "stateMutability": "view",
      "type": "function"
    },
    {
      "inputs": [
        {
          "internalType": "uint256",
          "name": "",
          "type": "uint256"
        }
      ],
      "name": "poolPriceHours",
      "outputs": [
        {
          "internalType": "uint256",
          "name": "",
          "type": "uint256"
        }
      ],
      "stateMutability": "view",
      "type": "function"
    },
    {
      "inputs": [
        {
          "internalType": "uint256",
          "name": "",
          "type": "uint256"
        }
      ],
      "name": "poolPrices",
      "outputs": [
        {
          "internalType": "uint256",
          "name": "",
          "type": "uint256"
        }
      ],
      "stateMutability": "view",
      "type": "function"
    },
    {
      "inputs": [],
      "name": "registryContract",
      "outputs": [
        {
          "internalType": "contract IRegistry",
          "name": "",
          "type": "address"
        }
      ],
      "stateMutability": "view",
      "type": "function"
    },
    {
      "inputs": [],
      "name": "renounceOwnership",
      "outputs": [],
      "stateMutability": "nonpayable",
      "type": "function"
    },
    {
      "inputs": [
        {
          "internalType": "uint256",
          "name": "_amount",
          "type": "uint256"
        },
        {
          "internalType": "uint256",
          "name": "_price",
          "type": "uint256"
        }
      ],
      "name": "submitBid",
      "outputs": [],
      "stateMutability": "nonpayable",
      "type": "function"
    },
    {
      "inputs": [
        {
          "internalType": "uint8",
          "name": "blockNumber",
          "type": "uint8"
        },
        {
          "internalType": "uint256",
          "name": "amount",
          "type": "uint256"
        },
        {
          "internalType": "uint256",
          "name": "price",
          "type": "uint256"
        }
      ],
      "name": "submitOffer",
      "outputs": [],
      "stateMutability": "nonpayable",
      "type": "function"
    },
    {
      "inputs": [
        {
          "internalType": "uint256",
          "name": "",
          "type": "uint256"
        }
      ],
      "name": "systemMarginalMinutes",
      "outputs": [
        {
          "internalType": "uint256",
          "name": "",
          "type": "uint256"
        }
      ],
      "stateMutability": "view",
      "type": "function"
    },
    {
      "inputs": [
        {
          "internalType": "uint256",
          "name": "",
          "type": "uint256"
        }
      ],
      "name": "systemMarginalOfferIDs",
      "outputs": [
        {
          "internalType": "bytes32",
          "name": "",
          "type": "bytes32"
        }
      ],
      "stateMutability": "view",
      "type": "function"
    },
    {
      "inputs": [
        {
          "internalType": "uint256",
          "name": "",
          "type": "uint256"
        }
      ],
      "name": "totalDemandMinutes",
      "outputs": [
        {
          "internalType": "uint256",
          "name": "",
          "type": "uint256"
        }
      ],
      "stateMutability": "view",
      "type": "function"
    },
    {
      "inputs": [
        {
          "internalType": "uint256",
          "name": "",
          "type": "uint256"
        }
      ],
      "name": "totalDemands",
      "outputs": [
        {
          "internalType": "uint256",
          "name": "",
          "type": "uint256"
        }
      ],
      "stateMutability": "view",
      "type": "function"
    },
    {
      "inputs": [
        {
          "internalType": "address",
          "name": "newOwner",
          "type": "address"
        }
      ],
      "name": "transferOwnership",
      "outputs": [],
      "stateMutability": "nonpayable",
      "type": "function"
    },
    {
      "inputs": [
        {
          "internalType": "uint256",
          "name": "",
          "type": "uint256"
        }
      ],
      "name": "validBidIDs",
      "outputs": [
        {
          "internalType": "bytes32",
          "name": "",
          "type": "bytes32"
        }
      ],
      "stateMutability": "view",
      "type": "function"
    },
    {
      "inputs": [
        {
          "internalType": "uint256",
          "name": "",
          "type": "uint256"
        }
      ],
      "name": "validOfferIDs",
      "outputs": [
        {
          "internalType": "bytes32",
          "name": "",
          "type": "bytes32"
        }
      ],
      "stateMutability": "view",
      "type": "function"
    }
  ],
  "bytecode": "0x60806040523480156200001157600080fd5b5060405162004960380380620049608339818101604052810190620000379190620001fb565b620000576200004b6200010160201b60201c565b6200010960201b60201c565b82600660006101000a81548173ffffffffffffffffffffffffffffffffffffffff021916908373ffffffffffffffffffffffffffffffffffffffff16021790555081600781905550806008819055506001600060146101000a81548160ff02191690836001811115620000f3577f4e487b7100000000000000000000000000000000000000000000000000000000600052602160045260246000fd5b0217905550505050620002c3565b600033905090565b60008060009054906101000a900473ffffffffffffffffffffffffffffffffffffffff169050816000806101000a81548173ffffffffffffffffffffffffffffffffffffffff021916908373ffffffffffffffffffffffffffffffffffffffff1602179055508173ffffffffffffffffffffffffffffffffffffffff168173ffffffffffffffffffffffffffffffffffffffff167f8be0079c531659141344cd1fd0a4f28419497f9722a3daafe3b4186f6b6457e060405160405180910390a35050565b600081519050620001de816200028f565b92915050565b600081519050620001f581620002a9565b92915050565b6000806000606084860312156200021157600080fd5b60006200022186828701620001cd565b93505060206200023486828701620001e4565b92505060406200024786828701620001e4565b9150509250925092565b60006200025e8262000265565b9050919050565b600073ffffffffffffffffffffffffffffffffffffffff82169050919050565b6000819050919050565b6200029a8162000251565b8114620002a657600080fd5b50565b620002b48162000285565b8114620002c057600080fd5b50565b61468d80620002d36000396000f3fe608060405234801561001057600080fd5b50600436106102065760003560e01c80637910d52e1161011a578063bff4b5bc116100ad578063ec6eaf621161007c578063ec6eaf6214610658578063ef2d09f91461068c578063f17e6a70146106bc578063f2fde38b146106d8578063f790825d146106f457610206565b8063bff4b5bc146105bc578063cab0fb73146105ec578063d71a60c01461060a578063ea05322a1461062857610206565b8063a133245b116100e9578063a133245b14610534578063b2f1223814610552578063b5b66e1214610582578063b821da1b146105a057610206565b80637910d52e1461049857806383f1444d146104c85780638da5cb5b146104e65780639af94f301461050457610206565b806352d6ee0d1161019d5780636d96b3d31161016c5780636d96b3d3146104045780636f34023e14610422578063715018a61461043e578063719af2cd146104485780637317266e1461046657610206565b806352d6ee0d1461034157806363660a271461037157806364a19f41146103a4578063696e2c0f146103d457610206565b806328c1f99b116101d957806328c1f99b146102935780634c5140a5146102b1578063512fe422146102e1578063516443941461031157610206565b806308fb1b771461020b57806314bacef71461022957806318d1c2ae14610247578063238a1cc314610277575b600080fd5b610213610724565b6040516102209190613c7e565b60405180910390f35b610231610737565b60405161023e9190613bab565b60405180910390f35b610261600480360381019061025c919061350f565b61078f565b60405161026e9190613e51565b60405180910390f35b610291600480360381019061028c919061350f565b6107b3565b005b61029b610acf565b6040516102a89190613c63565b60405180910390f35b6102cb60048036038101906102c6919061350f565b610af5565b6040516102d89190613c11565b60405180910390f35b6102fb60048036038101906102f6919061350f565b610b0d565b6040516103089190613e51565b60405180910390f35b61032b60048036038101906103269190613428565b610b31565b6040516103389190613e1b565b60405180910390f35b61035b6004803603810190610356919061350f565b610bd2565b6040516103689190613e51565b60405180910390f35b61038b60048036038101906103869190613428565b610bf6565b60405161039b9493929190613e6c565b60405180910390f35b6103be60048036038101906103b9919061350f565b610c46565b6040516103cb9190613c11565b60405180910390f35b6103ee60048036038101906103e9919061350f565b610c6a565b6040516103fb9190613e51565b60405180910390f35b61040c610c9d565b6040516104199190613bab565b60405180910390f35b61043c60048036038101906104379190613451565b610cf5565b005b610446611218565b005b6104506112a0565b60405161045d9190613c99565b60405180910390f35b610480600480360381019061047b9190613538565b61135b565b60405161048f93929190613b74565b60405180910390f35b6104b260048036038101906104ad919061350f565b6113c2565b6040516104bf9190613e51565b60405180910390f35b6104d06113da565b6040516104dd9190613bef565b60405180910390f35b6104ee611432565b6040516104fb9190613b59565b60405180910390f35b61051e6004803603810190610519919061350f565b61145b565b60405161052b9190613e51565b60405180910390f35b61053c611478565b6040516105499190613e51565b60405180910390f35b61056c6004803603810190610567919061350f565b61147e565b6040516105799190613e51565b60405180910390f35b61058a611496565b6040516105979190613bef565b60405180910390f35b6105ba60048036038101906105b59190613538565b6114ee565b005b6105d660048036038101906105d19190613428565b6118dc565b6040516105e39190613e36565b60405180910390f35b6105f4611998565b6040516106019190613e51565b60405180910390f35b61061261199e565b60405161061f9190613e51565b60405180910390f35b610642600480360381019061063d919061350f565b611a0e565b60405161064f9190613c11565b60405180910390f35b610672600480360381019061066d9190613428565b611a32565b604051610683959493929190613eb1565b60405180910390f35b6106a660048036038101906106a1919061350f565b611a95565b6040516106b39190613e36565b60405180910390f35b6106d660048036038101906106d19190613574565b611b64565b005b6106f260048036038101906106ed91906133d6565b612089565b005b61070e6004803603810190610709919061350f565b612181565b60405161071b9190613bcd565b60405180910390f35b600060149054906101000a900460ff1681565b6060600480548060200260200160405190810160405280929190818152602001828054801561078557602002820191906000526020600020905b815481526020019060010190808311610771575b5050505050905090565b600c818154811061079f57600080fd5b906000526020600020016000915090505481565b4281106107f5576040517f08c379a00000000000000000000000000000000000000000000000000000000081526004016107ec90613dbb565b60405180910390fd5b6107fd61225d565b60008060005b600c80549050811015610a79576000600c828154811061084c577f4e487b7100000000000000000000000000000000000000000000000000000000600052603260045260246000fd5b906000526020600020015490508481101580156108755750610e1085610872919061402c565b81105b15610a65576000600160006009600085815260200190815260200160002054815260200190815260200160002060010154905060006001600c805490506108bc919061410d565b841080156109265750610e10876108d3919061402c565b600c6001866108e2919061402c565b81548110610919577f4e487b7100000000000000000000000000000000000000000000000000000000600052603260045260246000fd5b9060005260206000200154105b156109de57603c600c8581548110610967577f4e487b7100000000000000000000000000000000000000000000000000000000600052603260045260246000fd5b9060005260206000200154600c600187610981919061402c565b815481106109b8577f4e487b7100000000000000000000000000000000000000000000000000000000600052603260045260246000fd5b90600052602060002001546109cd919061410d565b6109d79190614082565b9050610a49565b603c87600c8681548110610a1b577f4e487b7100000000000000000000000000000000000000000000000000000000600052603260045260246000fd5b9060005260206000200154610a30919061410d565b610a3a9190614082565b603c610a46919061410d565b90505b8082610a5591906140b3565b85610a60919061402c565b945050505b508080610a719061426a565b915050610803565b50603c81610a879190614082565b915081600a600085815260200190815260200160002081905550600d839080600181540180825580915050600190039060005260206000200160009091909190915055505050565b600660009054906101000a900473ffffffffffffffffffffffffffffffffffffffff1681565b60096020528060005260406000206000915090505481565b600e8181548110610b1d57600080fd5b906000526020600020016000915090505481565b610b39613121565b600260008381526020019081526020016000206040518060800160405290816000820154815260200160018201548152602001600282015481526020016003820160009054906101000a900473ffffffffffffffffffffffffffffffffffffffff1673ffffffffffffffffffffffffffffffffffffffff1673ffffffffffffffffffffffffffffffffffffffff16815250509050919050565b600d8181548110610be257600080fd5b906000526020600020016000915090505481565b60026020528060005260406000206000915090508060000154908060010154908060020154908060030160009054906101000a900473ffffffffffffffffffffffffffffffffffffffff16905084565b60058181548110610c5657600080fd5b906000526020600020016000915090505481565b60006001600060096000858152602001908152602001600020548152602001908152602001600020600101549050919050565b60606005805480602002602001604051908101604052809291908181526020018280548015610ceb57602002820191906000526020600020905b815481526020019060010190808311610cd7575b5050505050905090565b33600660009054906101000a900473ffffffffffffffffffffffffffffffffffffffff1673ffffffffffffffffffffffffffffffffffffffff166373b6f1d3826040518263ffffffff1660e01b8152600401610d519190613b59565b60206040518083038186803b158015610d6957600080fd5b505afa158015610d7d573d6000803e3d6000fd5b505050506040513d601f19601f82011682018060405250810190610da191906133ff565b610de0576040517f08c379a0000000000000000000000000000000000000000000000000000000008152600401610dd790613d3b565b60405180910390fd5b600180811115610e19577f4e487b7100000000000000000000000000000000000000000000000000000000600052602160045260246000fd5b600060149054906101000a900460ff166001811115610e61577f4e487b7100000000000000000000000000000000000000000000000000000000600052602160045260246000fd5b14610ea1576040517f08c379a0000000000000000000000000000000000000000000000000000000008152600401610e9890613cbb565b60405180910390fd5b600660009054906101000a900473ffffffffffffffffffffffffffffffffffffffff1673ffffffffffffffffffffffffffffffffffffffff1663fe7009f2336040518263ffffffff1660e01b8152600401610efc9190613b59565b60006040518083038186803b158015610f1457600080fd5b505afa158015610f28573d6000803e3d6000fd5b505050506040513d6000823e3d601f19601f82011682018060405250810190610f5191906134a5565b60200151604051602001610f659190613b1a565b6040516020818303038152906040528051906020012083604051602001610f8c9190613b1a565b6040516020818303038152906040528051906020012014610fe2576040517f08c379a0000000000000000000000000000000000000000000000000000000008152600401610fd990613d9b565b60405180910390fd5b60008383604051602001610ff7929190613b31565b6040516020818303038152906040528051906020012090506000603c804261101f9190614082565b61102991906140b3565b905080600160008481526020019081526020016000206002018190555060006001600084815260200190815260200160002060030160146101000a81548160ff02191690831515021790555060005b6004805490508110156111d157600481815481106110bf577f4e487b7100000000000000000000000000000000000000000000000000000000600052603260045260246000fd5b90600052602060002001548314156111be57600460016004805490506110e5919061410d565b8154811061111c577f4e487b7100000000000000000000000000000000000000000000000000000000600052603260045260246000fd5b906000526020600020015460048281548110611161577f4e487b7100000000000000000000000000000000000000000000000000000000600052603260045260246000fd5b906000526020600020018190555060048054806111a7577f4e487b7100000000000000000000000000000000000000000000000000000000600052603160045260246000fd5b600190038181906000526020600020016000905590555b80806111c99061426a565b915050611078565b506111da61225d565b7f233d1d5c74ac8791f0673668c3df846ed7254243dc50ce621d05653f5c64b587826040516112099190613c11565b60405180910390a15050505050565b611220612bca565b73ffffffffffffffffffffffffffffffffffffffff1661123e611432565b73ffffffffffffffffffffffffffffffffffffffff1614611294576040517f08c379a000000000000000000000000000000000000000000000000000000000815260040161128b90613d5b565b60405180910390fd5b61129e6000612bd2565b565b6060600660009054906101000a900473ffffffffffffffffffffffffffffffffffffffff1673ffffffffffffffffffffffffffffffffffffffff1663fe7009f2336040518263ffffffff1660e01b81526004016112fd9190613b59565b60006040518083038186803b15801561131557600080fd5b505afa158015611329573d6000803e3d6000fd5b505050506040513d6000823e3d601f19601f8201168201806040525081019061135291906134a5565b60200151905090565b6003602052816000526040600020818154811061137757600080fd5b9060005260206000209060030201600091509150508060000160009054906101000a900473ffffffffffffffffffffffffffffffffffffffff16908060010154908060020154905083565b600a6020528060005260406000206000915090505481565b6060600e80548060200260200160405190810160405280929190818152602001828054801561142857602002820191906000526020600020905b815481526020019060010190808311611414575b5050505050905090565b60008060009054906101000a900473ffffffffffffffffffffffffffffffffffffffff16905090565b6000600a6000838152602001908152602001600020549050919050565b60075481565b600b6020528060005260406000206000915090505481565b6060600d8054806020026020016040519081016040528092919081815260200182805480156114e457602002820191906000526020600020905b8154815260200190600101908083116114d0575b5050505050905090565b33600660009054906101000a900473ffffffffffffffffffffffffffffffffffffffff1673ffffffffffffffffffffffffffffffffffffffff1663b2a89e15826040518263ffffffff1660e01b815260040161154a9190613b59565b60206040518083038186803b15801561156257600080fd5b505afa158015611576573d6000803e3d6000fd5b505050506040513d601f19601f8201168201806040525081019061159a91906133ff565b6115d9576040517f08c379a00000000000000000000000000000000000000000000000000000000081526004016115d090613dfb565b60405180910390fd5b82823360085482111580156115f057506007548210155b61162f576040517f08c379a000000000000000000000000000000000000000000000000000000000815260040161162690613ddb565b60405180910390fd5b600180811115611668577f4e487b7100000000000000000000000000000000000000000000000000000000600052602160045260246000fd5b600060149054906101000a900460ff1660018111156116b0577f4e487b7100000000000000000000000000000000000000000000000000000000600052602160045260246000fd5b146116f0576040517f08c379a00000000000000000000000000000000000000000000000000000000081526004016116e790613cbb565b60405180910390fd5b6000336040516020016117039190613ad3565b6040516020818303038152906040528051906020012090506000603c804261172b9190614082565b61173591906140b3565b905060405180608001604052808981526020018881526020018281526020013373ffffffffffffffffffffffffffffffffffffffff168152506002600084815260200190815260200160002060008201518160000155602082015181600101556040820151816002015560608201518160030160006101000a81548173ffffffffffffffffffffffffffffffffffffffff021916908373ffffffffffffffffffffffffffffffffffffffff1602179055509050506000805b60058054905081101561185e5760058181548110611834577f4e487b7100000000000000000000000000000000000000000000000000000000600052603260045260246000fd5b906000526020600020015484141561184b57600191505b80806118569061426a565b9150506117ed565b508061188e5760058390806001815401808255809150506001900390600052602060002001600090919091909150555b611896612c96565b7f14cb36efda3ab1362ffe5e376121cd18a07fe985ee9fd3d53441fa979ded4f5a838a8a6040516118c993929190613c2c565b60405180910390a1505050505050505050565b6118e461315f565b600160008381526020019081526020016000206040518060a00160405290816000820154815260200160018201548152602001600282015481526020016003820160009054906101000a900473ffffffffffffffffffffffffffffffffffffffff1673ffffffffffffffffffffffffffffffffffffffff1673ffffffffffffffffffffffffffffffffffffffff1681526020016003820160149054906101000a900460ff1615151515815250509050919050565b60085481565b6000600b6000600e6001600e805490506119b8919061410d565b815481106119ef577f4e487b7100000000000000000000000000000000000000000000000000000000600052603260045260246000fd5b9060005260206000200154815260200190815260200160002054905090565b60048181548110611a1e57600080fd5b906000526020600020016000915090505481565b60016020528060005260406000206000915090508060000154908060010154908060020154908060030160009054906101000a900473ffffffffffffffffffffffffffffffffffffffff16908060030160149054906101000a900460ff16905085565b611a9d61315f565b60016000600960008581526020019081526020016000205481526020019081526020016000206040518060a00160405290816000820154815260200160018201548152602001600282015481526020016003820160009054906101000a900473ffffffffffffffffffffffffffffffffffffffff1673ffffffffffffffffffffffffffffffffffffffff1673ffffffffffffffffffffffffffffffffffffffff1681526020016003820160149054906101000a900460ff1615151515815250509050919050565b33600660009054906101000a900473ffffffffffffffffffffffffffffffffffffffff1673ffffffffffffffffffffffffffffffffffffffff166373b6f1d3826040518263ffffffff1660e01b8152600401611bc09190613b59565b60206040518083038186803b158015611bd857600080fd5b505afa158015611bec573d6000803e3d6000fd5b505050506040513d601f19601f82011682018060405250810190611c1091906133ff565b611c4f576040517f08c379a0000000000000000000000000000000000000000000000000000000008152600401611c4690613d3b565b60405180910390fd5b82826008548111158015611c6557506007548110155b611ca4576040517f08c379a0000000000000000000000000000000000000000000000000000000008152600401611c9b90613ddb565b60405180910390fd5b600180811115611cdd577f4e487b7100000000000000000000000000000000000000000000000000000000600052602160045260246000fd5b600060149054906101000a900460ff166001811115611d25577f4e487b7100000000000000000000000000000000000000000000000000000000600052602160045260246000fd5b14611d65576040517f08c379a0000000000000000000000000000000000000000000000000000000008152600401611d5c90613d7b565b60405180910390fd5b600660009054906101000a900473ffffffffffffffffffffffffffffffffffffffff1673ffffffffffffffffffffffffffffffffffffffff1663fe7009f2336040518263ffffffff1660e01b8152600401611dc09190613b59565b60006040518083038186803b158015611dd857600080fd5b505afa158015611dec573d6000803e3d6000fd5b505050506040513d6000823e3d601f19601f82011682018060405250810190611e1591906134a5565b6060015161ffff16851115611e5f576040517f08c379a0000000000000000000000000000000000000000000000000000000008152600401611e5690613d1b565b60405180910390fd5b60003387604051602001611e74929190613aee565b6040516020818303038152906040528051906020012090506000603c8042611e9c9190614082565b611ea691906140b3565b90506040518060a001604052808881526020018781526020018281526020013373ffffffffffffffffffffffffffffffffffffffff168152602001600115158152506001600084815260200190815260200160002060008201518160000155602082015181600101556040820151816002015560608201518160030160006101000a81548173ffffffffffffffffffffffffffffffffffffffff021916908373ffffffffffffffffffffffffffffffffffffffff16021790555060808201518160030160146101000a81548160ff0219169083151502179055509050506000805b600480549050811015611ffc5760048181548110611fce577f4e487b7100000000000000000000000000000000000000000000000000000000600052603260045260246000fd5b9060005260206000200154841415611fe95760019150611ffc565b8080611ff49061426a565b915050611f87565b508061202c5760048390806001815401808255809150506001900390600052602060002001600090919091909150555b6000600e8054905011156120435761204261225d565b5b7f1f01cfaf25fe9150ed9b76a5d36273dd42a17f49206e4dce7743304e7d1aa7cb83898960405161207693929190613c2c565b60405180910390a1505050505050505050565b612091612bca565b73ffffffffffffffffffffffffffffffffffffffff166120af611432565b73ffffffffffffffffffffffffffffffffffffffff1614612105576040517f08c379a00000000000000000000000000000000000000000000000000000000081526004016120fc90613d5b565b60405180910390fd5b600073ffffffffffffffffffffffffffffffffffffffff168173ffffffffffffffffffffffffffffffffffffffff161415612175576040517f08c379a000000000000000000000000000000000000000000000000000000000815260040161216c90613cfb565b60405180910390fd5b61217e81612bd2565b50565b606060036000838152602001908152602001600020805480602002602001604051908101604052809291908181526020016000905b8282101561225257838290600052602060002090600302016040518060600160405290816000820160009054906101000a900473ffffffffffffffffffffffffffffffffffffffff1673ffffffffffffffffffffffffffffffffffffffff1673ffffffffffffffffffffffffffffffffffffffff16815260200160018201548152602001600282015481525050815260200190600101906121b6565b505050509050919050565b60008060146101000a81548160ff021916908360018111156122a8577f4e487b7100000000000000000000000000000000000000000000000000000000600052602160045260246000fd5b0217905550600080600b6000600e6001600e805490506122c8919061410d565b815481106122ff577f4e487b7100000000000000000000000000000000000000000000000000000000600052603260045260246000fd5b906000526020600020015481526020019081526020016000205490506000612325612ea8565b90506000610e1080426123389190614082565b61234291906140b3565b905060005b82518110156125bf5760006001600085848151811061238f577f4e487b7100000000000000000000000000000000000000000000000000000000600052603260045260246000fd5b6020026020010151815260200190815260200160002060030160009054906101000a900473ffffffffffffffffffffffffffffffffffffffff16905060006001600086858151811061240a577f4e487b7100000000000000000000000000000000000000000000000000000000600052603260045260246000fd5b602002602001015181526020019081526020016000206000015490508087612432919061402c565b96506003600085815260200190815260200160002060405180606001604052808473ffffffffffffffffffffffffffffffffffffffff16815260200183815260200142815250908060018154018082558091505060019003906000526020600020906003020160009091909190915060008201518160000160006101000a81548173ffffffffffffffffffffffffffffffffffffffff021916908373ffffffffffffffffffffffffffffffffffffffff160217905550602082015181600101556040820151816002015550508587106125aa576000603c80426125159190614082565b61251f91906140b3565b905085848151811061255a577f4e487b7100000000000000000000000000000000000000000000000000000000600052603260045260246000fd5b60200260200101516009600083815260200190815260200160002081905550600c8190806001815401808255809150506001900390600052602060002001600090919091909150555050506125bf565b505080806125b79061426a565b915050612347565b5060005b6003600083815260200190815260200160002080549050811015612b7257600060036000848152602001908152602001600020828154811061262e577f4e487b7100000000000000000000000000000000000000000000000000000000600052603260045260246000fd5b906000526020600020906003020160000160009054906101000a900473ffffffffffffffffffffffffffffffffffffffff16905060006003600085815260200190815260200160002083815481106126af577f4e487b7100000000000000000000000000000000000000000000000000000000600052603260045260246000fd5b90600052602060002090600302016001015490506000600360008681526020019081526020016000208481548110612710577f4e487b7100000000000000000000000000000000000000000000000000000000600052603260045260246000fd5b90600052602060002090600302016002015490506000600185612733919061402c565b90505b6003600087815260200190815260200160002080549050811015612a73578373ffffffffffffffffffffffffffffffffffffffff166003600088815260200190815260200160002082815481106127b6577f4e487b7100000000000000000000000000000000000000000000000000000000600052603260045260246000fd5b906000526020600020906003020160000160009054906101000a900473ffffffffffffffffffffffffffffffffffffffff1673ffffffffffffffffffffffffffffffffffffffff161415612a605760006003600088815260200190815260200160002080549050905060036000888152602001908152602001600020828154811061286a577f4e487b7100000000000000000000000000000000000000000000000000000000600052603260045260246000fd5b90600052602060002090600302016001015484612887919061402c565b9350600360008881526020019081526020016000206001826128a9919061410d565b815481106128e0577f4e487b7100000000000000000000000000000000000000000000000000000000600052603260045260246000fd5b9060005260206000209060030201600360008981526020019081526020016000208381548110612939577f4e487b7100000000000000000000000000000000000000000000000000000000600052603260045260246000fd5b90600052602060002090600302016000820160009054906101000a900473ffffffffffffffffffffffffffffffffffffffff168160000160006101000a81548173ffffffffffffffffffffffffffffffffffffffff021916908373ffffffffffffffffffffffffffffffffffffffff160217905550600182015481600101556002820154816002015590505060036000888152602001908152602001600020805480612a0e577f4e487b7100000000000000000000000000000000000000000000000000000000600052603160045260246000fd5b6001900381819060005260206000209060030201600080820160006101000a81549073ffffffffffffffffffffffffffffffffffffffff02191690556001820160009055600282016000905550509055505b8080612a6b9061426a565b915050612736565b5060405180606001604052808473ffffffffffffffffffffffffffffffffffffffff16815260200183815260200182815250600360008781526020019081526020016000208581548110612af0577f4e487b7100000000000000000000000000000000000000000000000000000000600052603260045260246000fd5b906000526020600020906003020160008201518160000160006101000a81548173ffffffffffffffffffffffffffffffffffffffff021916908373ffffffffffffffffffffffffffffffffffffffff16021790555060208201518160010155604082015181600201559050505050508080612b6a9061426a565b9150506125c3565b506001600060146101000a81548160ff02191690836001811115612bbf577f4e487b7100000000000000000000000000000000000000000000000000000000600052602160045260246000fd5b021790555050505050565b600033905090565b60008060009054906101000a900473ffffffffffffffffffffffffffffffffffffffff169050816000806101000a81548173ffffffffffffffffffffffffffffffffffffffff021916908373ffffffffffffffffffffffffffffffffffffffff1602179055508173ffffffffffffffffffffffffffffffffffffffff168173ffffffffffffffffffffffffffffffffffffffff167f8be0079c531659141344cd1fd0a4f28419497f9722a3daafe3b4186f6b6457e060405160405180910390a35050565b6000805b600580549050811015612d22576002600060058381548110612ce5577f4e487b7100000000000000000000000000000000000000000000000000000000600052603260045260246000fd5b906000526020600020015481526020019081526020016000206000015482612d0d919061402c565b91508080612d1a9061426a565b915050612c9a565b50600660009054906101000a900473ffffffffffffffffffffffffffffffffffffffff1673ffffffffffffffffffffffffffffffffffffffff1663442c18f36040518163ffffffff1660e01b815260040160206040518083038186803b158015612d8b57600080fd5b505afa158015612d9f573d6000803e3d6000fd5b505050506040513d601f19601f82011682018060405250810190612dc391906134e6565b61ffff168110612e08576040517f08c379a0000000000000000000000000000000000000000000000000000000008152600401612dff90613cdb565b60405180910390fd5b6000603c8042612e189190614082565b612e2291906140b3565b905081600b600083815260200190815260200160002081905550600e819080600181540180825580915050600190039060005260206000200160009091909190915055612e6d61225d565b7f3e71a6b74896cfdcf52e3e3b9aee7d0a00042e804dde5df749762f98a8a28c5482604051612e9c9190613e51565b60405180910390a15050565b606060006004805480602002602001604051908101604052809291908181526020018280548015612ef857602002820191906000526020600020905b815481526020019060010190808311612ee4575b5050505050905060008151905060005b81811015613118576000600182612f1f919061402c565b90505b828110156131045760016000858381518110612f67577f4e487b7100000000000000000000000000000000000000000000000000000000600052603260045260246000fd5b602002602001015181526020019081526020016000206001015460016000868581518110612fbe577f4e487b7100000000000000000000000000000000000000000000000000000000600052603260045260246000fd5b602002602001015181526020019081526020016000206001015411156130f1576000848381518110613019577f4e487b7100000000000000000000000000000000000000000000000000000000600052603260045260246000fd5b6020026020010151905084828151811061305c577f4e487b7100000000000000000000000000000000000000000000000000000000600052603260045260246000fd5b602002602001015185848151811061309d577f4e487b7100000000000000000000000000000000000000000000000000000000600052603260045260246000fd5b602002602001018181525050808583815181106130e3577f4e487b7100000000000000000000000000000000000000000000000000000000600052603260045260246000fd5b602002602001018181525050505b80806130fc9061426a565b915050612f22565b5080806131109061426a565b915050612f08565b50819250505090565b6040518060800160405280600081526020016000815260200160008152602001600073ffffffffffffffffffffffffffffffffffffffff1681525090565b6040518060a00160405280600081526020016000815260200160008152602001600073ffffffffffffffffffffffffffffffffffffffff1681526020016000151581525090565b60006131b96131b484613f29565b613f04565b9050828152602081018484840111156131d157600080fd5b6131dc8482856141f7565b509392505050565b60006131f76131f284613f29565b613f04565b90508281526020810184848401111561320f57600080fd5b61321a848285614206565b509392505050565b600081359050613231816145cd565b92915050565b600081519050613246816145cd565b92915050565b60008151905061325b816145e4565b92915050565b600081359050613270816145fb565b92915050565b600082601f83011261328757600080fd5b81356132978482602086016131a6565b91505092915050565b600082601f8301126132b157600080fd5b81516132c18482602086016131e4565b91505092915050565b600060a082840312156132dc57600080fd5b6132e660a0613f04565b905060006132f684828501613237565b600083015250602082015167ffffffffffffffff81111561331657600080fd5b613322848285016132a0565b6020830152506040613336848285016133c1565b604083015250606061334a84828501613382565b606083015250608082015167ffffffffffffffff81111561336a57600080fd5b613376848285016132a0565b60808301525092915050565b60008151905061339181614612565b92915050565b6000813590506133a681614629565b92915050565b6000813590506133bb81614640565b92915050565b6000815190506133d081614640565b92915050565b6000602082840312156133e857600080fd5b60006133f684828501613222565b91505092915050565b60006020828403121561341157600080fd5b600061341f8482850161324c565b91505092915050565b60006020828403121561343a57600080fd5b600061344884828501613261565b91505092915050565b6000806040838503121561346457600080fd5b600083013567ffffffffffffffff81111561347e57600080fd5b61348a85828601613276565b925050602061349b858286016133ac565b9150509250929050565b6000602082840312156134b757600080fd5b600082015167ffffffffffffffff8111156134d157600080fd5b6134dd848285016132ca565b91505092915050565b6000602082840312156134f857600080fd5b600061350684828501613382565b91505092915050565b60006020828403121561352157600080fd5b600061352f84828501613397565b91505092915050565b6000806040838503121561354b57600080fd5b600061355985828601613397565b925050602061356a85828601613397565b9150509250929050565b60008060006060848603121561358957600080fd5b6000613597868287016133ac565b93505060206135a886828701613397565b92505060406135b986828701613397565b9150509250925092565b60006135cf8383613778565b60208301905092915050565b60006135e783836139f4565b60608301905092915050565b60006135ff8383613a9e565b60208301905092915050565b61361481614141565b82525050565b61362381614141565b82525050565b61363a61363582614141565b6142b3565b82525050565b600061364b82613f8a565b6136558185613fdd565b935061366083613f5a565b8060005b8381101561369157815161367888826135c3565b975061368383613fb6565b925050600181019050613664565b5085935050505092915050565b60006136a982613f95565b6136b38185613fee565b93506136be83613f6a565b8060005b838110156136ef5781516136d688826135db565b97506136e183613fc3565b9250506001810190506136c2565b5085935050505092915050565b600061370782613fa0565b6137118185613fff565b935061371c83613f7a565b8060005b8381101561374d57815161373488826135f3565b975061373f83613fd0565b925050600181019050613720565b5085935050505092915050565b61376381614153565b82525050565b61377281614153565b82525050565b6137818161415f565b82525050565b6137908161415f565b82525050565b61379f816141c1565b82525050565b6137ae816141e5565b82525050565b60006137bf82613fab565b6137c98185614010565b93506137d9818560208601614206565b6137e2816143a5565b840191505092915050565b60006137f882613fab565b6138028185614021565b9350613812818560208601614206565b80840191505092915050565b600061382b600e83614010565b9150613836826143d0565b602082019050919050565b600061384e601b83614010565b9150613859826143f9565b602082019050919050565b6000613871602683614010565b915061387c82614422565b604082019050919050565b6000613894601f83614010565b915061389f82614471565b602082019050919050565b60006138b7601583614010565b91506138c28261449a565b602082019050919050565b60006138da602083614010565b91506138e5826144c3565b602082019050919050565b60006138fd600d83614010565b9150613908826144ec565b602082019050919050565b6000613920601e83614010565b915061392b82614515565b602082019050919050565b6000613943601183614010565b915061394e8261453e565b602082019050919050565b6000613966600d83614010565b915061397182614567565b602082019050919050565b6000613989601583614010565b915061399482614590565b602082019050919050565b6080820160008201516139b56000850182613a9e565b5060208201516139c86020850182613a9e565b5060408201516139db6040850182613a9e565b5060608201516139ee606085018261360b565b50505050565b606082016000820151613a0a600085018261360b565b506020820151613a1d6020850182613a9e565b506040820151613a306040850182613a9e565b50505050565b60a082016000820151613a4c6000850182613a9e565b506020820151613a5f6020850182613a9e565b506040820151613a726040850182613a9e565b506060820151613a85606085018261360b565b506080820151613a98608085018261375a565b50505050565b613aa7816141aa565b82525050565b613ab6816141aa565b82525050565b613acd613ac8826141b4565b6142d7565b82525050565b6000613adf8284613629565b60148201915081905092915050565b6000613afa8285613629565b601482019150613b0a8284613abc565b6001820191508190509392505050565b6000613b2682846137ed565b915081905092915050565b6000613b3d82856137ed565b9150613b498284613abc565b6001820191508190509392505050565b6000602082019050613b6e600083018461361a565b92915050565b6000606082019050613b89600083018661361a565b613b966020830185613aad565b613ba36040830184613aad565b949350505050565b60006020820190508181036000830152613bc58184613640565b905092915050565b60006020820190508181036000830152613be7818461369e565b905092915050565b60006020820190508181036000830152613c0981846136fc565b905092915050565b6000602082019050613c266000830184613787565b92915050565b6000606082019050613c416000830186613787565b613c4e6020830185613aad565b613c5b6040830184613aad565b949350505050565b6000602082019050613c786000830184613796565b92915050565b6000602082019050613c9360008301846137a5565b92915050565b60006020820190508181036000830152613cb381846137b4565b905092915050565b60006020820190508181036000830152613cd48161381e565b9050919050565b60006020820190508181036000830152613cf481613841565b9050919050565b60006020820190508181036000830152613d1481613864565b9050919050565b60006020820190508181036000830152613d3481613887565b9050919050565b60006020820190508181036000830152613d54816138aa565b9050919050565b60006020820190508181036000830152613d74816138cd565b9050919050565b60006020820190508181036000830152613d94816138f0565b9050919050565b60006020820190508181036000830152613db481613913565b9050919050565b60006020820190508181036000830152613dd481613936565b9050919050565b60006020820190508181036000830152613df481613959565b9050919050565b60006020820190508181036000830152613e148161397c565b9050919050565b6000608082019050613e30600083018461399f565b92915050565b600060a082019050613e4b6000830184613a36565b92915050565b6000602082019050613e666000830184613aad565b92915050565b6000608082019050613e816000830187613aad565b613e8e6020830186613aad565b613e9b6040830185613aad565b613ea8606083018461361a565b95945050505050565b600060a082019050613ec66000830188613aad565b613ed36020830187613aad565b613ee06040830186613aad565b613eed606083018561361a565b613efa6080830184613769565b9695505050505050565b6000613f0e613f1f565b9050613f1a8282614239565b919050565b6000604051905090565b600067ffffffffffffffff821115613f4457613f43614376565b5b613f4d826143a5565b9050602081019050919050565b6000819050602082019050919050565b6000819050602082019050919050565b6000819050602082019050919050565b600081519050919050565b600081519050919050565b600081519050919050565b600081519050919050565b6000602082019050919050565b6000602082019050919050565b6000602082019050919050565b600082825260208201905092915050565b600082825260208201905092915050565b600082825260208201905092915050565b600082825260208201905092915050565b600081905092915050565b6000614037826141aa565b9150614042836141aa565b9250827fffffffffffffffffffffffffffffffffffffffffffffffffffffffffffffffff03821115614077576140766142e9565b5b828201905092915050565b600061408d826141aa565b9150614098836141aa565b9250826140a8576140a7614318565b5b828204905092915050565b60006140be826141aa565b91506140c9836141aa565b9250817fffffffffffffffffffffffffffffffffffffffffffffffffffffffffffffffff0483118215151615614102576141016142e9565b5b828202905092915050565b6000614118826141aa565b9150614123836141aa565b925082821015614136576141356142e9565b5b828203905092915050565b600061414c8261418a565b9050919050565b60008115159050919050565b6000819050919050565b6000819050614177826145b9565b919050565b600061ffff82169050919050565b600073ffffffffffffffffffffffffffffffffffffffff82169050919050565b6000819050919050565b600060ff82169050919050565b60006141cc826141d3565b9050919050565b60006141de8261418a565b9050919050565b60006141f082614169565b9050919050565b82818337600083830152505050565b60005b83811015614224578082015181840152602081019050614209565b83811115614233576000848401525b50505050565b614242826143a5565b810181811067ffffffffffffffff8211171561426157614260614376565b5b80604052505050565b6000614275826141aa565b91507fffffffffffffffffffffffffffffffffffffffffffffffffffffffffffffffff8214156142a8576142a76142e9565b5b600182019050919050565b60006142be826142c5565b9050919050565b60006142d0826143c3565b9050919050565b60006142e2826143b6565b9050919050565b7f4e487b7100000000000000000000000000000000000000000000000000000000600052601160045260246000fd5b7f4e487b7100000000000000000000000000000000000000000000000000000000600052601260045260246000fd5b7f4e487b7100000000000000000000000000000000000000000000000000000000600052602160045260246000fd5b7f4e487b7100000000000000000000000000000000000000000000000000000000600052604160045260246000fd5b6000601f19601f8301169050919050565b60008160f81b9050919050565b60008160601b9050919050565b7f42696464696e6720636c6f736564000000000000000000000000000000000000600082015250565b7f44656d616e64206578636565647320746f74616c20737570706c790000000000600082015250565b7f4f776e61626c653a206e6577206f776e657220697320746865207a65726f206160008201527f6464726573730000000000000000000000000000000000000000000000000000602082015250565b7f4f66666572656420616d6f756e74206578636565647320636170616369747900600082015250565b7f556e7265676973746572656420737570706c6965720000000000000000000000600082015250565b7f4f776e61626c653a2063616c6c6572206973206e6f7420746865206f776e6572600082015250565b7f4d61726b657420636c6f73656400000000000000000000000000000000000000600082015250565b7f43616e6e6f74207375626d6974206f6666657220666f72206f74686572730000600082015250565b7f486f7572206973206e6f742076616c6964000000000000000000000000000000600082015250565b7f496e76616c696420707269636500000000000000000000000000000000000000600082015250565b7f556e7265676973746572656420636f6e73756d65720000000000000000000000600082015250565b600281106145ca576145c9614347565b5b50565b6145d681614141565b81146145e157600080fd5b50565b6145ed81614153565b81146145f857600080fd5b50565b6146048161415f565b811461460f57600080fd5b50565b61461b8161417c565b811461462657600080fd5b50565b614632816141aa565b811461463d57600080fd5b50565b614649816141b4565b811461465457600080fd5b5056fea26469706673582212208a456513eda39187a016e4025bab6654dbbc50e26f766bfc98d983fc8d4c60f764736f6c63430008040033",
  "linkReferences": {},
  "deployedLinkReferences": {}
}