{
    "_format": "hh-sol-artifact-1",
    "contractName": "PoolMarket",
    "sourceName": "contracts/PoolMarket.sol",
    "abi": [
        {
            "inputs": [
                {
                    "internalType": "address",
                    "name": "_registryContractAddress",
                    "type": "address"
                },
                {
                    "internalType": "uint256",
                    "name": "_minAllowedPrice",
                    "type": "uint256"
                },
                {
                    "internalType": "uint256",
                    "name": "_maxAllowedPrice",
                    "type": "uint256"
                }
            ],
            "stateMutability": "nonpayable",
            "type": "constructor"
        },
        {
            "anonymous": false,
            "inputs": [
                {
                    "indexed": true,
                    "internalType": "uint256",
                    "name": "amount",
                    "type": "uint256"
                },
                {
                    "indexed": true,
                    "internalType": "uint256",
                    "name": "price",
                    "type": "uint256"
                },
                {
                    "indexed": false,
                    "internalType": "address",
                    "name": "sender",
                    "type": "address"
                }
            ],
            "name": "BidSubmitted",
            "type": "event"
        },
        {
            "anonymous": false,
            "inputs": [
                {
                    "indexed": true,
                    "internalType": "uint256",
                    "name": "amount",
                    "type": "uint256"
                },
                {
                    "indexed": true,
                    "internalType": "uint256",
                    "name": "price",
                    "type": "uint256"
                },
                {
                    "indexed": false,
                    "internalType": "address",
                    "name": "sender",
                    "type": "address"
                }
            ],
            "name": "OfferSubmitted",
            "type": "event"
        },
        {
            "anonymous": false,
            "inputs": [
                {
                    "indexed": true,
                    "internalType": "address",
                    "name": "previousOwner",
                    "type": "address"
                },
                {
                    "indexed": true,
                    "internalType": "address",
                    "name": "newOwner",
                    "type": "address"
                }
            ],
            "name": "OwnershipTransferred",
            "type": "event"
        },
        {
            "inputs": [
                {
                    "internalType": "uint256",
                    "name": "hour",
                    "type": "uint256"
                }
            ],
            "name": "calculatePoolPrice",
            "outputs": [],
            "stateMutability": "nonpayable",
            "type": "function"
        },
        {
            "inputs": [],
            "name": "calculateSMP",
            "outputs": [],
            "stateMutability": "nonpayable",
            "type": "function"
        },
        {
            "inputs": [
                {
                    "internalType": "bytes32",
                    "name": "",
                    "type": "bytes32"
                }
            ],
            "name": "energyOffers",
            "outputs": [
                {
                    "internalType": "uint256",
                    "name": "amount",
                    "type": "uint256"
                },
                {
                    "internalType": "uint256",
                    "name": "price",
                    "type": "uint256"
                },
                {
                    "internalType": "uint256",
                    "name": "submitMinute",
                    "type": "uint256"
                },
                {
                    "internalType": "address",
                    "name": "supplierAccount",
                    "type": "address"
                }
            ],
            "stateMutability": "view",
            "type": "function"
        },
        {
            "inputs": [],
            "name": "getBidHours",
            "outputs": [
                {
                    "internalType": "uint256[]",
                    "name": "",
                    "type": "uint256[]"
                }
            ],
            "stateMutability": "view",
            "type": "function"
        },
        {
            "inputs": [
                {
                    "internalType": "uint256",
                    "name": "hour",
                    "type": "uint256"
                }
            ],
            "name": "getDispatchedOffers",
            "outputs": [
                {
                    "components": [
                        {
                            "internalType": "address",
                            "name": "supplierAccount",
                            "type": "address"
                        },
                        {
                            "internalType": "uint256",
                            "name": "dispatchedAmount",
                            "type": "uint256"
                        },
                        {
                            "internalType": "uint256",
                            "name": "dispatchedAt",
                            "type": "uint256"
                        }
                    ],
                    "internalType": "struct IMarket.DispatchedOffer[]",
                    "name": "",
                    "type": "tuple[]"
                }
            ],
            "stateMutability": "view",
            "type": "function"
        },
        {
            "inputs": [
                {
                    "internalType": "uint256",
                    "name": "hour",
                    "type": "uint256"
                }
            ],
            "name": "getEnergyBids",
            "outputs": [
                {
                    "components": [
                        {
                            "internalType": "uint256",
                            "name": "amount",
                            "type": "uint256"
                        },
                        {
                            "internalType": "uint256",
                            "name": "price",
                            "type": "uint256"
                        },
                        {
                            "internalType": "uint256",
                            "name": "submitMinute",
                            "type": "uint256"
                        },
                        {
                            "internalType": "address",
                            "name": "consumerAccount",
                            "type": "address"
                        }
                    ],
                    "internalType": "struct PoolMarket.Bid[]",
                    "name": "",
                    "type": "tuple[]"
                }
            ],
            "stateMutability": "view",
            "type": "function"
        },
        {
            "inputs": [],
            "name": "getLatestTotalDemand",
            "outputs": [
                {
                    "internalType": "uint256",
                    "name": "",
                    "type": "uint256"
                }
            ],
            "stateMutability": "view",
            "type": "function"
        },
        {
            "inputs": [
                {
                    "internalType": "uint256",
                    "name": "minute",
                    "type": "uint256"
                }
            ],
            "name": "getMarginalOffer",
            "outputs": [
                {
                    "components": [
                        {
                            "internalType": "uint256",
                            "name": "amount",
                            "type": "uint256"
                        },
                        {
                            "internalType": "uint256",
                            "name": "price",
                            "type": "uint256"
                        },
                        {
                            "internalType": "uint256",
                            "name": "submitMinute",
                            "type": "uint256"
                        },
                        {
                            "internalType": "address",
                            "name": "supplierAccount",
                            "type": "address"
                        }
                    ],
                    "internalType": "struct PoolMarket.Offer",
                    "name": "",
                    "type": "tuple"
                }
            ],
            "stateMutability": "view",
            "type": "function"
        },
        {
            "inputs": [
                {
                    "internalType": "uint256",
                    "name": "hour",
                    "type": "uint256"
                }
            ],
            "name": "getPoolPrice",
            "outputs": [
                {
                    "internalType": "uint256",
                    "name": "",
                    "type": "uint256"
                }
            ],
            "stateMutability": "view",
            "type": "function"
        },
        {
            "inputs": [],
            "name": "getPoolpriceHours",
            "outputs": [
                {
                    "internalType": "uint256[]",
                    "name": "",
                    "type": "uint256[]"
                }
            ],
            "stateMutability": "view",
            "type": "function"
        },
        {
            "inputs": [
                {
                    "internalType": "uint256",
                    "name": "minute",
                    "type": "uint256"
                }
            ],
            "name": "getSMP",
            "outputs": [
                {
                    "internalType": "uint256",
                    "name": "",
                    "type": "uint256"
                }
            ],
            "stateMutability": "view",
            "type": "function"
        },
        {
            "inputs": [],
            "name": "getSystemMarginalMinutes",
            "outputs": [
                {
                    "internalType": "uint256[]",
                    "name": "",
                    "type": "uint256[]"
                }
            ],
            "stateMutability": "view",
            "type": "function"
        },
        {
            "inputs": [],
            "name": "getTotalDemandMinutes",
            "outputs": [
                {
                    "internalType": "uint256[]",
                    "name": "",
                    "type": "uint256[]"
                }
            ],
            "stateMutability": "view",
            "type": "function"
        },
        {
            "inputs": [],
            "name": "getValidOfferIDs",
            "outputs": [
                {
                    "internalType": "bytes32[]",
                    "name": "",
                    "type": "bytes32[]"
                }
            ],
            "stateMutability": "view",
            "type": "function"
        },
        {
            "inputs": [],
            "name": "maxAllowedPrice",
            "outputs": [
                {
                    "internalType": "uint256",
                    "name": "",
                    "type": "uint256"
                }
            ],
            "stateMutability": "view",
            "type": "function"
        },
        {
            "inputs": [],
            "name": "minAllowedPrice",
            "outputs": [
                {
                    "internalType": "uint256",
                    "name": "",
                    "type": "uint256"
                }
            ],
            "stateMutability": "view",
            "type": "function"
        },
        {
            "inputs": [],
            "name": "owner",
            "outputs": [
                {
                    "internalType": "address",
                    "name": "",
                    "type": "address"
                }
            ],
            "stateMutability": "view",
            "type": "function"
        },
        {
            "inputs": [],
            "name": "renounceOwnership",
            "outputs": [],
            "stateMutability": "nonpayable",
            "type": "function"
        },
        {
            "inputs": [
                {
                    "internalType": "uint256",
                    "name": "_amount",
                    "type": "uint256"
                },
                {
                    "internalType": "uint256",
                    "name": "_price",
                    "type": "uint256"
                }
            ],
            "name": "submitBid",
            "outputs": [],
            "stateMutability": "nonpayable",
            "type": "function"
        },
        {
            "inputs": [
                {
                    "internalType": "uint8",
                    "name": "blockNumber",
                    "type": "uint8"
                },
                {
                    "internalType": "uint256",
                    "name": "amount",
                    "type": "uint256"
                },
                {
                    "internalType": "uint256",
                    "name": "price",
                    "type": "uint256"
                }
            ],
            "name": "submitOffer",
            "outputs": [],
            "stateMutability": "nonpayable",
            "type": "function"
        },
        {
            "inputs": [
                {
                    "internalType": "uint256",
                    "name": "",
                    "type": "uint256"
                }
            ],
            "name": "systemMarginalOfferIDs",
            "outputs": [
                {
                    "internalType": "bytes32",
                    "name": "",
                    "type": "bytes32"
                }
            ],
            "stateMutability": "view",
            "type": "function"
        },
        {
            "inputs": [
                {
                    "internalType": "uint256",
                    "name": "",
                    "type": "uint256"
                }
            ],
            "name": "totalDemands",
            "outputs": [
                {
                    "internalType": "uint256",
                    "name": "",
                    "type": "uint256"
                }
            ],
            "stateMutability": "view",
            "type": "function"
        },
        {
            "inputs": [
                {
                    "internalType": "address",
                    "name": "newOwner",
                    "type": "address"
                }
            ],
            "name": "transferOwnership",
            "outputs": [],
            "stateMutability": "nonpayable",
            "type": "function"
        }
    ],
    "bytecode": "0x6080346100b957601f6119f938819003918201601f19168301916001600160401b038311848410176100be578084926060946040528339810103126100b95780516001600160a01b0391828216918290036100b957604060208201519101519160005460018060a01b0319903382821617600055604051953391167f8be0079c531659141344cd1fd0a4f28419497f9722a3daafe3b4186f6b6457e0600080a3600654161760065560075560085561192490816100d58239f35b600080fd5b634e487b7160e01b600052604160045260246000fdfe60406080815260048036101561001457600080fd5b600090813560e01c8062f049021461143757806314bacef7146113dd57806321dfca1714611122578063238a1cc314610ec057806325f8a08d14610e475780634c5140a514610e1e578063696e2c0f14610de9578063715018a614610da157806383f1444d14610d3a5780638da5cb5b14610d125780639af94f3014610ce9578063a133245b14610cca578063b2f1223814610ca1578063b5b66e1214610c25578063b821da1b146107cc578063cab0fb73146107ad578063d71a60c014610789578063e178854414610717578063ec6eaf62146106c3578063ef2d09f914610662578063f17e6a70146102c3578063f2fde38b1461020b5763f790825d1461011c57600080fd5b34610207576020908160031936011261020357809291923582528252828120908154610147816118cc565b9061015486519283611601565b8082528482018094845285842084915b8383106101c05750505050845193808501918186525180925285850193925b8281106101905785850386f35b835180516001600160a01b0316865280830151868401528701518786015260609094019392810192600101610183565b6003886001928b9a97989a516101d5816115b5565b848060a01b038654168152848601548382015260028601548d82015281520192019201919096949396610164565b8280fd5b5080fd5b508234610203576020366003190112610203576001600160a01b038235818116939192908490036102bf5761023e61155d565b831561026d57505082546001600160a01b0319811683178455166000805160206119048339815191528380a380f35b906020608492519162461bcd60e51b8352820152602660248201527f4f776e61626c653a206e6577206f776e657220697320746865207a65726f206160448201526564647265737360d01b6064820152fd5b8480fd5b508234610203576060918260031936011261065e5780359160ff831683036102bf5760065481516373b6f1d360e01b815233818501526044359560248035966020969094919390916001600160a01b03919082169088818781855afa908115610654578c91610627575b50156105ed578a85916008548c1115806105e1575b61034b90611641565b8851637f3804f960e11b8152338682015292839182905afa9081156105d7579084918c916104fa575b5061ffff925001511687116104c757845133831b87820190815260f89590951b6001600160f81b031916603482015260158152808601949092906001600160401b038611848710176104b5578587528351902093848b52600188526002878c20015415610463575b603c420492603c840293808504603c14901517156104525750509161044a939189869461042b7f60e344e47525731fddb78da0406d35494f63a1e7ebb282981fa22ca34f00168c9a99986115e6565b8a8652830152608082015260a033910152885260018452828820611745565b51338152a380f35b634e487b7160e01b8c52601190528afd5b600554600160401b8110156104a357600181018060055581101561049157859060058d52898d2001556103dc565b50634e487b7160e01b8b52603283528afd5b50634e487b7160e01b8b52604183528afd5b634e487b7160e01b8b5260418352848bfd5b845162461bcd60e51b8152908101869052600e818401526d125b9d985b1a5908185b5bdd5b9d60921b6044820152606490fd5b9150503d808c833e61050c8183611601565b81019188828403126105d35781516001600160401b03928382116105bd570160a0818503126105b95788519160a08301838110858211176105c1578a52815190811681036105bd578252898101518381116105bd578461056d91830161167d565b8a8301528881015160ff811681036105bd578983015261058e8682016116ed565b8683015260808101519283116105b95761ffff9386936105ae920161167d565b60808201528c610374565b8c80fd5b8d80fd5b634e487b7160e01b8f5260418752888ffd5b8b80fd5b87513d8d823e3d90fd5b506007548c1015610342565b865162461bcd60e51b8152808401899052601581870152742ab73932b3b4b9ba32b932b21039bab8383634b2b960591b6044820152606490fd5b6106479150893d8b1161064d575b61063f8183611601565b810190611624565b8c61032d565b503d610635565b88513d8e823e3d90fd5b8380fd5b50829034610203576020366003190112610203576106b882846106c1936080966060845161068f816115e6565b828152826020820152828682015201523581526009602052818120548152600160205220611891565b915180926114f6565bf35b5082903461020357602036600319011261020357608092829135815260016020522090815491600181015491600282015491600360018060a01b039101541692815194855260208501528301526060820152f35b828434610207578160031936011261020757338252602090600282528083209281518093808654928381520195835280832092905b8282106107725761076e8686610764828b0383611601565b5191829182611522565b0390f35b83548752958601956001938401939091019061074c565b8284346102075781600319360112610207576020906107a661184a565b9051908152f35b8284346102075781600319360112610207576020906008549051908152f35b50829034610203578160031936011261020357803592602491823560018060a01b039586600654168651809163b2a89e1560e01b82523386830152818860209485935afa908115610c1b578691610bfe575b5015610bc55760085483111580610bb9575b61083990611641565b610e109687420488810298818a041490151715610ba757603c4204603c810290808204603c1490151715610b9557863388526002845282882080548015159182610b6d575b505015610b055750888752600398898452828820549a6000199b8c81019081116108ce575b828a528b86526108b581868c206117ac565b508c0154821633146108e05780156108ce578c016108a3565b634e487b7160e01b8a52601189528a8afd5b9092969a899c50826108fd939599979b969a528952878c206117ac565b50545b8861090961184a565b848d5260038a52888d205415610afe575b01818110610ac5578591899103926006541688519283809263442c18f360e01b82525afa80156105d7578b90610a8b575b61ffff9150168111610a4b57848a52600d8752858a2055600e54600160401b919082811015610a39576001810180600e55811015610a27578590600e8c52888c2001558952600386528489208551946109a3866115e6565b888652898887015286860152336060860152805491821015610a1557906109cf916001820181556117ac565b929092610a055750507f2eef226398f000ec33af3b3be58878356d5c7b195bff89de5067bbfe7d2ee4a393929161044a91611745565b634e487b7160e01b895288905287fd5b634e487b7160e01b8a5260418452828afd5b634e487b7160e01b8b5260328552838bfd5b634e487b7160e01b8b5260418552838bfd5b855162461bcd60e51b8152808501889052601b818501527a44656d616e64206578636565647320746f74616c20737570706c7960281b6044820152606490fd5b508781813d8311610abe575b610aa18183611601565b81010312610aba57610ab561ffff916116ed565b61094b565b8a80fd5b503d610a97565b875162461bcd60e51b81528087018a90526014818701527327bb32b9333637bb9036b0bc103ab4b73a191a9b60611b6044820152606490fd5b508b61091a565b9990949891959397929699338b5260028852868b20805490600160401b821015610b5b57610b3d82610b54926001889501815561172d565b819391549060031b91821b91600019901b19161790565b9055610900565b634e487b7160e01b8d5260418752858dfd5b600019820192509082116108ce578b91610b869161172d565b90549060031b1c148c8061087e565b634e487b7160e01b8752601186528787fd5b634e487b7160e01b8652601185528686fd5b50600754831015610830565b836015876064938a519362461bcd60e51b8552840152820152742ab73932b3b4b9ba32b932b21031b7b739bab6b2b960591b6044820152fd5b610c159150823d841161064d5761063f8183611601565b8961081e565b88513d88823e3d90fd5b505034610c9e5780600319360112610c9e578151600c805480835290835260208083019492937fdf6966c971051c3d54ec59162606531493a51404a002842f56009d7e5cf4a8c792915b828210610c875761076e8686610764828b0383611601565b835487529586019560019384019390910190610c6f565b80fd5b50829034610203576020366003190112610203576020928291358152600d845220549051908152f35b8284346102075781600319360112610207576020906007549051908152f35b50829034610203576020366003190112610203576020928291358152600a845220549051908152f35b828434610207578160031936011261020757905490516001600160a01b039091168152602090f35b505034610c9e5780600319360112610c9e578151600e805480835290835260208083019492936000805160206118e483398151915292915b828210610d8a5761076e8686610764828b0383611601565b835487529586019560019384019390910190610d72565b8234610c9e5780600319360112610c9e57610dba61155d565b80546001600160a01b03198116825581906001600160a01b03166000805160206119048339815191528280a380f35b508290346102035760203660031901126102035781602093600192358152600985528181205481528285522001549051908152f35b508290346102035760203660031901126102035760209282913581526009845220549051908152f35b505034610c9e5780600319360112610c9e578151600b805480835290835260208083019492937f0175b7a638427703f0dbe7bb9bbf987a2551717b34e79f33b5b1008d1fa01db992915b828210610ea95761076e8686610764828b0383611601565b835487529586019560019384019390910190610e91565b508290346102035760208060031936011261065e57813592610ee061155d565b428410156110ed578485600b54905b818110610f58575050603c90858752600a84520490852055600c5491600160401b831015610f45576001830180600c55831015610f325750600c84528320015580f35b634e487b7160e01b855260329052602484fd5b634e487b7160e01b855260419052602484fd5b610f61816116fc565b9054600391821b1c88811015806110d9575b610f88575b5050610f83906117c8565b610eef565b8952600986528489205489526001808752858a208101549294919060001985018581116110c6578a90871080611083575b156110405750850180861161102d57603c91610fd7610ff2926116fc565b905490821b1c90610fe7886116fc565b9054911b1c90611789565b04915b82810292818404149015171561101a57610f8391611012916117eb565b929089610f78565b634e487b7160e01b895260118752602489fd5b634e487b7160e01b8b526011895260248bfd5b91905061106061104f876116fc565b939092603c94859454911b1c611789565b0481039081116110705791610ff5565b634e487b7160e01b8a526011885260248afd5b50508086018087116110c657611098906116fc565b9054610e108c0191841b1c818c116110b357908b9110610fb9565b634e487b7160e01b8d5260118b5260248dfd5b634e487b7160e01b8c5260118a5260248cfd5b50610e108901808a1161102d578110610f73565b5162461bcd60e51b8152918201526011602482015270121bdd5c881a5cc81b9bdd081d985b1a59607a1b604482015260649150fd5b50823461020357826003193601126102035761113c61155d565b610e10918242048381029381850414901517156113ca5782845260209060038252828520541515806113bf575b611171578480f35b849161117b61184a565b936111846117f8565b948551885b818110611310575050875b8651811015611303576111a781886117d7565b51895260018452828920600301546001600160a01b03969087166111cb838a6117d7565b518b52600186526111e0858c205480936117eb565b978a8c52878752858c20928651926111f7846115b5565b8352878301908152868301914283528454600160401b95868210156112ef57600182018082558210156112db57908f8b81600297969594600393522091020194511660018060a01b031985541617845551600184015551910155828710156112685750611263906117c8565b611194565b969750919293945050603c958642048781029781890414901517156112c857600991611293916117d7565b519286885252852055600b90815492831015610f45575081610b3d9160016112bd940190556116fc565b90555b818080808480f35b634e487b7160e01b885260118552602488fd5b50634e487b7160e01b8f5260328b5260248ffd5b50634e487b7160e01b8f5260418b5260248ffd5b50505050505050506112c0565b60018082018083116113ac575b89868d86841061133a575050505050611335906117c8565b611189565b8291859161134c8861137597966117d7565b518152828c5261136285848484200154956117d7565b518152828c522001541061137a576117c8565b61131d565b611384848c6117d7565b518b61139b8661139485846117d7565b51926117d7565b526113a6828d6117d7565b526117c8565b634e487b7160e01b8c526011885260248cfd5b506005541515611169565b634e487b7160e01b845260119052602483fd5b8284346102075781600319360112610207576113f76117f8565b815192839260208080860192818752855180945286019401925b82811061142057505050500390f35b835185528695509381019392810192600101611411565b508290346102035760208060031936011261065e57908035845260038252828420918254611464816118cc565b9261147186519485611601565b8184528284018095885283882088915b8483106114d05750505050508351938185019282865251809352840192945b8281106114ad5784840385f35b909192826080826114c16001948a516114f6565b019601910194929190946114a0565b83866001926114e3859d999a9b9d611891565b8152019201920191909896959498611481565b8051825260208082015190830152604080820151908301526060908101516001600160a01b0316910152565b6020908160408183019282815285518094520193019160005b828110611549575050505090565b83518552938101939281019260010161153b565b6000546001600160a01b0316330361157157565b606460405162461bcd60e51b815260206004820152602060248201527f4f776e61626c653a2063616c6c6572206973206e6f7420746865206f776e65726044820152fd5b606081019081106001600160401b038211176115d057604052565b634e487b7160e01b600052604160045260246000fd5b608081019081106001600160401b038211176115d057604052565b601f909101601f19168101906001600160401b038211908210176115d057604052565b9081602091031261163c5751801515810361163c5790565b600080fd5b1561164857565b60405162461bcd60e51b815260206004820152600d60248201526c496e76616c696420707269636560981b6044820152606490fd5b919080601f8401121561163c578251906001600160401b0382116115d057604051916020916116b5601f8301601f1916840185611601565b81845282828701011161163c5760005b8181106116da57508260009394955001015290565b85810183015184820184015282016116c5565b519061ffff8216820361163c57565b600b5481101561171757600b60005260206000200190600090565b634e487b7160e01b600052603260045260246000fd5b80548210156117175760005260206000200190600090565b81518155602082015160018201556040820151600282015560609091015160039190910180546001600160a01b0319166001600160a01b0392909216919091179055565b9190820391821161179657565b634e487b7160e01b600052601160045260246000fd5b80548210156117175760005260206000209060021b0190600090565b60001981146117965760010190565b80518210156117175760209160051b010190565b9190820180921161179657565b604051906005548083528260209182820190600560005283600020936000905b8282106118305750505061182e92500383611601565b565b855484526001958601958895509381019390910190611818565b600e54806118585750600090565b600019908082018181116117965781111561171757016000805160206118e483398151915201546000908152600d602052604090205490565b9060405161189e816115e6565b8254815260018301546020820152600283015460408201526003909201546001600160a01b03166060830152565b6001600160401b0381116115d05760051b6020019056febb7b4a454dc3493923482f07822329ed19e8244eff582cc204f8554c3620c3fd8be0079c531659141344cd1fd0a4f28419497f9722a3daafe3b4186f6b6457e0",
    "linkReferences": {},
    "deployedLinkReferences": {},
    "default": {
        "_format": "hh-sol-artifact-1",
        "contractName": "PoolMarket",
        "sourceName": "contracts/PoolMarket.sol",
        "abi": [
            {
                "inputs": [
                    {
                        "internalType": "address",
                        "name": "_registryContractAddress",
                        "type": "address"
                    },
                    {
                        "internalType": "uint256",
                        "name": "_minAllowedPrice",
                        "type": "uint256"
                    },
                    {
                        "internalType": "uint256",
                        "name": "_maxAllowedPrice",
                        "type": "uint256"
                    }
                ],
                "stateMutability": "nonpayable",
                "type": "constructor"
            },
            {
                "anonymous": false,
                "inputs": [
                    {
                        "indexed": true,
                        "internalType": "uint256",
                        "name": "amount",
                        "type": "uint256"
                    },
                    {
                        "indexed": true,
                        "internalType": "uint256",
                        "name": "price",
                        "type": "uint256"
                    },
                    {
                        "indexed": false,
                        "internalType": "address",
                        "name": "sender",
                        "type": "address"
                    }
                ],
                "name": "BidSubmitted",
                "type": "event"
            },
            {
                "anonymous": false,
                "inputs": [
                    {
                        "indexed": true,
                        "internalType": "uint256",
                        "name": "amount",
                        "type": "uint256"
                    },
                    {
                        "indexed": true,
                        "internalType": "uint256",
                        "name": "price",
                        "type": "uint256"
                    },
                    {
                        "indexed": false,
                        "internalType": "address",
                        "name": "sender",
                        "type": "address"
                    }
                ],
                "name": "OfferSubmitted",
                "type": "event"
            },
            {
                "anonymous": false,
                "inputs": [
                    {
                        "indexed": true,
                        "internalType": "address",
                        "name": "previousOwner",
                        "type": "address"
                    },
                    {
                        "indexed": true,
                        "internalType": "address",
                        "name": "newOwner",
                        "type": "address"
                    }
                ],
                "name": "OwnershipTransferred",
                "type": "event"
            },
            {
                "inputs": [
                    {
                        "internalType": "uint256",
                        "name": "hour",
                        "type": "uint256"
                    }
                ],
                "name": "calculatePoolPrice",
                "outputs": [],
                "stateMutability": "nonpayable",
                "type": "function"
            },
            {
                "inputs": [],
                "name": "calculateSMP",
                "outputs": [],
                "stateMutability": "nonpayable",
                "type": "function"
            },
            {
                "inputs": [
                    {
                        "internalType": "bytes32",
                        "name": "",
                        "type": "bytes32"
                    }
                ],
                "name": "energyOffers",
                "outputs": [
                    {
                        "internalType": "uint256",
                        "name": "amount",
                        "type": "uint256"
                    },
                    {
                        "internalType": "uint256",
                        "name": "price",
                        "type": "uint256"
                    },
                    {
                        "internalType": "uint256",
                        "name": "submitMinute",
                        "type": "uint256"
                    },
                    {
                        "internalType": "address",
                        "name": "supplierAccount",
                        "type": "address"
                    }
                ],
                "stateMutability": "view",
                "type": "function"
            },
            {
                "inputs": [],
                "name": "getBidHours",
                "outputs": [
                    {
                        "internalType": "uint256[]",
                        "name": "",
                        "type": "uint256[]"
                    }
                ],
                "stateMutability": "view",
                "type": "function"
            },
            {
                "inputs": [
                    {
                        "internalType": "uint256",
                        "name": "hour",
                        "type": "uint256"
                    }
                ],
                "name": "getDispatchedOffers",
                "outputs": [
                    {
                        "components": [
                            {
                                "internalType": "address",
                                "name": "supplierAccount",
                                "type": "address"
                            },
                            {
                                "internalType": "uint256",
                                "name": "dispatchedAmount",
                                "type": "uint256"
                            },
                            {
                                "internalType": "uint256",
                                "name": "dispatchedAt",
                                "type": "uint256"
                            }
                        ],
                        "internalType": "struct IMarket.DispatchedOffer[]",
                        "name": "",
                        "type": "tuple[]"
                    }
                ],
                "stateMutability": "view",
                "type": "function"
            },
            {
                "inputs": [
                    {
                        "internalType": "uint256",
                        "name": "hour",
                        "type": "uint256"
                    }
                ],
                "name": "getEnergyBids",
                "outputs": [
                    {
                        "components": [
                            {
                                "internalType": "uint256",
                                "name": "amount",
                                "type": "uint256"
                            },
                            {
                                "internalType": "uint256",
                                "name": "price",
                                "type": "uint256"
                            },
                            {
                                "internalType": "uint256",
                                "name": "submitMinute",
                                "type": "uint256"
                            },
                            {
                                "internalType": "address",
                                "name": "consumerAccount",
                                "type": "address"
                            }
                        ],
                        "internalType": "struct PoolMarket.Bid[]",
                        "name": "",
                        "type": "tuple[]"
                    }
                ],
                "stateMutability": "view",
                "type": "function"
            },
            {
                "inputs": [],
                "name": "getLatestTotalDemand",
                "outputs": [
                    {
                        "internalType": "uint256",
                        "name": "",
                        "type": "uint256"
                    }
                ],
                "stateMutability": "view",
                "type": "function"
            },
            {
                "inputs": [
                    {
                        "internalType": "uint256",
                        "name": "minute",
                        "type": "uint256"
                    }
                ],
                "name": "getMarginalOffer",
                "outputs": [
                    {
                        "components": [
                            {
                                "internalType": "uint256",
                                "name": "amount",
                                "type": "uint256"
                            },
                            {
                                "internalType": "uint256",
                                "name": "price",
                                "type": "uint256"
                            },
                            {
                                "internalType": "uint256",
                                "name": "submitMinute",
                                "type": "uint256"
                            },
                            {
                                "internalType": "address",
                                "name": "supplierAccount",
                                "type": "address"
                            }
                        ],
                        "internalType": "struct PoolMarket.Offer",
                        "name": "",
                        "type": "tuple"
                    }
                ],
                "stateMutability": "view",
                "type": "function"
            },
            {
                "inputs": [
                    {
                        "internalType": "uint256",
                        "name": "hour",
                        "type": "uint256"
                    }
                ],
                "name": "getPoolPrice",
                "outputs": [
                    {
                        "internalType": "uint256",
                        "name": "",
                        "type": "uint256"
                    }
                ],
                "stateMutability": "view",
                "type": "function"
            },
            {
                "inputs": [],
                "name": "getPoolpriceHours",
                "outputs": [
                    {
                        "internalType": "uint256[]",
                        "name": "",
                        "type": "uint256[]"
                    }
                ],
                "stateMutability": "view",
                "type": "function"
            },
            {
                "inputs": [
                    {
                        "internalType": "uint256",
                        "name": "minute",
                        "type": "uint256"
                    }
                ],
                "name": "getSMP",
                "outputs": [
                    {
                        "internalType": "uint256",
                        "name": "",
                        "type": "uint256"
                    }
                ],
                "stateMutability": "view",
                "type": "function"
            },
            {
                "inputs": [],
                "name": "getSystemMarginalMinutes",
                "outputs": [
                    {
                        "internalType": "uint256[]",
                        "name": "",
                        "type": "uint256[]"
                    }
                ],
                "stateMutability": "view",
                "type": "function"
            },
            {
                "inputs": [],
                "name": "getTotalDemandMinutes",
                "outputs": [
                    {
                        "internalType": "uint256[]",
                        "name": "",
                        "type": "uint256[]"
                    }
                ],
                "stateMutability": "view",
                "type": "function"
            },
            {
                "inputs": [],
                "name": "getValidOfferIDs",
                "outputs": [
                    {
                        "internalType": "bytes32[]",
                        "name": "",
                        "type": "bytes32[]"
                    }
                ],
                "stateMutability": "view",
                "type": "function"
            },
            {
                "inputs": [],
                "name": "maxAllowedPrice",
                "outputs": [
                    {
                        "internalType": "uint256",
                        "name": "",
                        "type": "uint256"
                    }
                ],
                "stateMutability": "view",
                "type": "function"
            },
            {
                "inputs": [],
                "name": "minAllowedPrice",
                "outputs": [
                    {
                        "internalType": "uint256",
                        "name": "",
                        "type": "uint256"
                    }
                ],
                "stateMutability": "view",
                "type": "function"
            },
            {
                "inputs": [],
                "name": "owner",
                "outputs": [
                    {
                        "internalType": "address",
                        "name": "",
                        "type": "address"
                    }
                ],
                "stateMutability": "view",
                "type": "function"
            },
            {
                "inputs": [],
                "name": "renounceOwnership",
                "outputs": [],
                "stateMutability": "nonpayable",
                "type": "function"
            },
            {
                "inputs": [
                    {
                        "internalType": "uint256",
                        "name": "_amount",
                        "type": "uint256"
                    },
                    {
                        "internalType": "uint256",
                        "name": "_price",
                        "type": "uint256"
                    }
                ],
                "name": "submitBid",
                "outputs": [],
                "stateMutability": "nonpayable",
                "type": "function"
            },
            {
                "inputs": [
                    {
                        "internalType": "uint8",
                        "name": "blockNumber",
                        "type": "uint8"
                    },
                    {
                        "internalType": "uint256",
                        "name": "amount",
                        "type": "uint256"
                    },
                    {
                        "internalType": "uint256",
                        "name": "price",
                        "type": "uint256"
                    }
                ],
                "name": "submitOffer",
                "outputs": [],
                "stateMutability": "nonpayable",
                "type": "function"
            },
            {
                "inputs": [
                    {
                        "internalType": "uint256",
                        "name": "",
                        "type": "uint256"
                    }
                ],
                "name": "systemMarginalOfferIDs",
                "outputs": [
                    {
                        "internalType": "bytes32",
                        "name": "",
                        "type": "bytes32"
                    }
                ],
                "stateMutability": "view",
                "type": "function"
            },
            {
                "inputs": [
                    {
                        "internalType": "uint256",
                        "name": "",
                        "type": "uint256"
                    }
                ],
                "name": "totalDemands",
                "outputs": [
                    {
                        "internalType": "uint256",
                        "name": "",
                        "type": "uint256"
                    }
                ],
                "stateMutability": "view",
                "type": "function"
            },
            {
                "inputs": [
                    {
                        "internalType": "address",
                        "name": "newOwner",
                        "type": "address"
                    }
                ],
                "name": "transferOwnership",
                "outputs": [],
                "stateMutability": "nonpayable",
                "type": "function"
            }
        ],
        "bytecode": "0x6080346100b957601f6119f938819003918201601f19168301916001600160401b038311848410176100be578084926060946040528339810103126100b95780516001600160a01b0391828216918290036100b957604060208201519101519160005460018060a01b0319903382821617600055604051953391167f8be0079c531659141344cd1fd0a4f28419497f9722a3daafe3b4186f6b6457e0600080a3600654161760065560075560085561192490816100d58239f35b600080fd5b634e487b7160e01b600052604160045260246000fdfe60406080815260048036101561001457600080fd5b600090813560e01c8062f049021461143757806314bacef7146113dd57806321dfca1714611122578063238a1cc314610ec057806325f8a08d14610e475780634c5140a514610e1e578063696e2c0f14610de9578063715018a614610da157806383f1444d14610d3a5780638da5cb5b14610d125780639af94f3014610ce9578063a133245b14610cca578063b2f1223814610ca1578063b5b66e1214610c25578063b821da1b146107cc578063cab0fb73146107ad578063d71a60c014610789578063e178854414610717578063ec6eaf62146106c3578063ef2d09f914610662578063f17e6a70146102c3578063f2fde38b1461020b5763f790825d1461011c57600080fd5b34610207576020908160031936011261020357809291923582528252828120908154610147816118cc565b9061015486519283611601565b8082528482018094845285842084915b8383106101c05750505050845193808501918186525180925285850193925b8281106101905785850386f35b835180516001600160a01b0316865280830151868401528701518786015260609094019392810192600101610183565b6003886001928b9a97989a516101d5816115b5565b848060a01b038654168152848601548382015260028601548d82015281520192019201919096949396610164565b8280fd5b5080fd5b508234610203576020366003190112610203576001600160a01b038235818116939192908490036102bf5761023e61155d565b831561026d57505082546001600160a01b0319811683178455166000805160206119048339815191528380a380f35b906020608492519162461bcd60e51b8352820152602660248201527f4f776e61626c653a206e6577206f776e657220697320746865207a65726f206160448201526564647265737360d01b6064820152fd5b8480fd5b508234610203576060918260031936011261065e5780359160ff831683036102bf5760065481516373b6f1d360e01b815233818501526044359560248035966020969094919390916001600160a01b03919082169088818781855afa908115610654578c91610627575b50156105ed578a85916008548c1115806105e1575b61034b90611641565b8851637f3804f960e11b8152338682015292839182905afa9081156105d7579084918c916104fa575b5061ffff925001511687116104c757845133831b87820190815260f89590951b6001600160f81b031916603482015260158152808601949092906001600160401b038611848710176104b5578587528351902093848b52600188526002878c20015415610463575b603c420492603c840293808504603c14901517156104525750509161044a939189869461042b7f60e344e47525731fddb78da0406d35494f63a1e7ebb282981fa22ca34f00168c9a99986115e6565b8a8652830152608082015260a033910152885260018452828820611745565b51338152a380f35b634e487b7160e01b8c52601190528afd5b600554600160401b8110156104a357600181018060055581101561049157859060058d52898d2001556103dc565b50634e487b7160e01b8b52603283528afd5b50634e487b7160e01b8b52604183528afd5b634e487b7160e01b8b5260418352848bfd5b845162461bcd60e51b8152908101869052600e818401526d125b9d985b1a5908185b5bdd5b9d60921b6044820152606490fd5b9150503d808c833e61050c8183611601565b81019188828403126105d35781516001600160401b03928382116105bd570160a0818503126105b95788519160a08301838110858211176105c1578a52815190811681036105bd578252898101518381116105bd578461056d91830161167d565b8a8301528881015160ff811681036105bd578983015261058e8682016116ed565b8683015260808101519283116105b95761ffff9386936105ae920161167d565b60808201528c610374565b8c80fd5b8d80fd5b634e487b7160e01b8f5260418752888ffd5b8b80fd5b87513d8d823e3d90fd5b506007548c1015610342565b865162461bcd60e51b8152808401899052601581870152742ab73932b3b4b9ba32b932b21039bab8383634b2b960591b6044820152606490fd5b6106479150893d8b1161064d575b61063f8183611601565b810190611624565b8c61032d565b503d610635565b88513d8e823e3d90fd5b8380fd5b50829034610203576020366003190112610203576106b882846106c1936080966060845161068f816115e6565b828152826020820152828682015201523581526009602052818120548152600160205220611891565b915180926114f6565bf35b5082903461020357602036600319011261020357608092829135815260016020522090815491600181015491600282015491600360018060a01b039101541692815194855260208501528301526060820152f35b828434610207578160031936011261020757338252602090600282528083209281518093808654928381520195835280832092905b8282106107725761076e8686610764828b0383611601565b5191829182611522565b0390f35b83548752958601956001938401939091019061074c565b8284346102075781600319360112610207576020906107a661184a565b9051908152f35b8284346102075781600319360112610207576020906008549051908152f35b50829034610203578160031936011261020357803592602491823560018060a01b039586600654168651809163b2a89e1560e01b82523386830152818860209485935afa908115610c1b578691610bfe575b5015610bc55760085483111580610bb9575b61083990611641565b610e109687420488810298818a041490151715610ba757603c4204603c810290808204603c1490151715610b9557863388526002845282882080548015159182610b6d575b505015610b055750888752600398898452828820549a6000199b8c81019081116108ce575b828a528b86526108b581868c206117ac565b508c0154821633146108e05780156108ce578c016108a3565b634e487b7160e01b8a52601189528a8afd5b9092969a899c50826108fd939599979b969a528952878c206117ac565b50545b8861090961184a565b848d5260038a52888d205415610afe575b01818110610ac5578591899103926006541688519283809263442c18f360e01b82525afa80156105d7578b90610a8b575b61ffff9150168111610a4b57848a52600d8752858a2055600e54600160401b919082811015610a39576001810180600e55811015610a27578590600e8c52888c2001558952600386528489208551946109a3866115e6565b888652898887015286860152336060860152805491821015610a1557906109cf916001820181556117ac565b929092610a055750507f2eef226398f000ec33af3b3be58878356d5c7b195bff89de5067bbfe7d2ee4a393929161044a91611745565b634e487b7160e01b895288905287fd5b634e487b7160e01b8a5260418452828afd5b634e487b7160e01b8b5260328552838bfd5b634e487b7160e01b8b5260418552838bfd5b855162461bcd60e51b8152808501889052601b818501527a44656d616e64206578636565647320746f74616c20737570706c7960281b6044820152606490fd5b508781813d8311610abe575b610aa18183611601565b81010312610aba57610ab561ffff916116ed565b61094b565b8a80fd5b503d610a97565b875162461bcd60e51b81528087018a90526014818701527327bb32b9333637bb9036b0bc103ab4b73a191a9b60611b6044820152606490fd5b508b61091a565b9990949891959397929699338b5260028852868b20805490600160401b821015610b5b57610b3d82610b54926001889501815561172d565b819391549060031b91821b91600019901b19161790565b9055610900565b634e487b7160e01b8d5260418752858dfd5b600019820192509082116108ce578b91610b869161172d565b90549060031b1c148c8061087e565b634e487b7160e01b8752601186528787fd5b634e487b7160e01b8652601185528686fd5b50600754831015610830565b836015876064938a519362461bcd60e51b8552840152820152742ab73932b3b4b9ba32b932b21031b7b739bab6b2b960591b6044820152fd5b610c159150823d841161064d5761063f8183611601565b8961081e565b88513d88823e3d90fd5b505034610c9e5780600319360112610c9e578151600c805480835290835260208083019492937fdf6966c971051c3d54ec59162606531493a51404a002842f56009d7e5cf4a8c792915b828210610c875761076e8686610764828b0383611601565b835487529586019560019384019390910190610c6f565b80fd5b50829034610203576020366003190112610203576020928291358152600d845220549051908152f35b8284346102075781600319360112610207576020906007549051908152f35b50829034610203576020366003190112610203576020928291358152600a845220549051908152f35b828434610207578160031936011261020757905490516001600160a01b039091168152602090f35b505034610c9e5780600319360112610c9e578151600e805480835290835260208083019492936000805160206118e483398151915292915b828210610d8a5761076e8686610764828b0383611601565b835487529586019560019384019390910190610d72565b8234610c9e5780600319360112610c9e57610dba61155d565b80546001600160a01b03198116825581906001600160a01b03166000805160206119048339815191528280a380f35b508290346102035760203660031901126102035781602093600192358152600985528181205481528285522001549051908152f35b508290346102035760203660031901126102035760209282913581526009845220549051908152f35b505034610c9e5780600319360112610c9e578151600b805480835290835260208083019492937f0175b7a638427703f0dbe7bb9bbf987a2551717b34e79f33b5b1008d1fa01db992915b828210610ea95761076e8686610764828b0383611601565b835487529586019560019384019390910190610e91565b508290346102035760208060031936011261065e57813592610ee061155d565b428410156110ed578485600b54905b818110610f58575050603c90858752600a84520490852055600c5491600160401b831015610f45576001830180600c55831015610f325750600c84528320015580f35b634e487b7160e01b855260329052602484fd5b634e487b7160e01b855260419052602484fd5b610f61816116fc565b9054600391821b1c88811015806110d9575b610f88575b5050610f83906117c8565b610eef565b8952600986528489205489526001808752858a208101549294919060001985018581116110c6578a90871080611083575b156110405750850180861161102d57603c91610fd7610ff2926116fc565b905490821b1c90610fe7886116fc565b9054911b1c90611789565b04915b82810292818404149015171561101a57610f8391611012916117eb565b929089610f78565b634e487b7160e01b895260118752602489fd5b634e487b7160e01b8b526011895260248bfd5b91905061106061104f876116fc565b939092603c94859454911b1c611789565b0481039081116110705791610ff5565b634e487b7160e01b8a526011885260248afd5b50508086018087116110c657611098906116fc565b9054610e108c0191841b1c818c116110b357908b9110610fb9565b634e487b7160e01b8d5260118b5260248dfd5b634e487b7160e01b8c5260118a5260248cfd5b50610e108901808a1161102d578110610f73565b5162461bcd60e51b8152918201526011602482015270121bdd5c881a5cc81b9bdd081d985b1a59607a1b604482015260649150fd5b50823461020357826003193601126102035761113c61155d565b610e10918242048381029381850414901517156113ca5782845260209060038252828520541515806113bf575b611171578480f35b849161117b61184a565b936111846117f8565b948551885b818110611310575050875b8651811015611303576111a781886117d7565b51895260018452828920600301546001600160a01b03969087166111cb838a6117d7565b518b52600186526111e0858c205480936117eb565b978a8c52878752858c20928651926111f7846115b5565b8352878301908152868301914283528454600160401b95868210156112ef57600182018082558210156112db57908f8b81600297969594600393522091020194511660018060a01b031985541617845551600184015551910155828710156112685750611263906117c8565b611194565b969750919293945050603c958642048781029781890414901517156112c857600991611293916117d7565b519286885252852055600b90815492831015610f45575081610b3d9160016112bd940190556116fc565b90555b818080808480f35b634e487b7160e01b885260118552602488fd5b50634e487b7160e01b8f5260328b5260248ffd5b50634e487b7160e01b8f5260418b5260248ffd5b50505050505050506112c0565b60018082018083116113ac575b89868d86841061133a575050505050611335906117c8565b611189565b8291859161134c8861137597966117d7565b518152828c5261136285848484200154956117d7565b518152828c522001541061137a576117c8565b61131d565b611384848c6117d7565b518b61139b8661139485846117d7565b51926117d7565b526113a6828d6117d7565b526117c8565b634e487b7160e01b8c526011885260248cfd5b506005541515611169565b634e487b7160e01b845260119052602483fd5b8284346102075781600319360112610207576113f76117f8565b815192839260208080860192818752855180945286019401925b82811061142057505050500390f35b835185528695509381019392810192600101611411565b508290346102035760208060031936011261065e57908035845260038252828420918254611464816118cc565b9261147186519485611601565b8184528284018095885283882088915b8483106114d05750505050508351938185019282865251809352840192945b8281106114ad5784840385f35b909192826080826114c16001948a516114f6565b019601910194929190946114a0565b83866001926114e3859d999a9b9d611891565b8152019201920191909896959498611481565b8051825260208082015190830152604080820151908301526060908101516001600160a01b0316910152565b6020908160408183019282815285518094520193019160005b828110611549575050505090565b83518552938101939281019260010161153b565b6000546001600160a01b0316330361157157565b606460405162461bcd60e51b815260206004820152602060248201527f4f776e61626c653a2063616c6c6572206973206e6f7420746865206f776e65726044820152fd5b606081019081106001600160401b038211176115d057604052565b634e487b7160e01b600052604160045260246000fd5b608081019081106001600160401b038211176115d057604052565b601f909101601f19168101906001600160401b038211908210176115d057604052565b9081602091031261163c5751801515810361163c5790565b600080fd5b1561164857565b60405162461bcd60e51b815260206004820152600d60248201526c496e76616c696420707269636560981b6044820152606490fd5b919080601f8401121561163c578251906001600160401b0382116115d057604051916020916116b5601f8301601f1916840185611601565b81845282828701011161163c5760005b8181106116da57508260009394955001015290565b85810183015184820184015282016116c5565b519061ffff8216820361163c57565b600b5481101561171757600b60005260206000200190600090565b634e487b7160e01b600052603260045260246000fd5b80548210156117175760005260206000200190600090565b81518155602082015160018201556040820151600282015560609091015160039190910180546001600160a01b0319166001600160a01b0392909216919091179055565b9190820391821161179657565b634e487b7160e01b600052601160045260246000fd5b80548210156117175760005260206000209060021b0190600090565b60001981146117965760010190565b80518210156117175760209160051b010190565b9190820180921161179657565b604051906005548083528260209182820190600560005283600020936000905b8282106118305750505061182e92500383611601565b565b855484526001958601958895509381019390910190611818565b600e54806118585750600090565b600019908082018181116117965781111561171757016000805160206118e483398151915201546000908152600d602052604090205490565b9060405161189e816115e6565b8254815260018301546020820152600283015460408201526003909201546001600160a01b03166060830152565b6001600160401b0381116115d05760051b6020019056febb7b4a454dc3493923482f07822329ed19e8244eff582cc204f8554c3620c3fd8be0079c531659141344cd1fd0a4f28419497f9722a3daafe3b4186f6b6457e0",
        "deployedBytecode": "0x60406080815260048036101561001457600080fd5b600090813560e01c8062f049021461143757806314bacef7146113dd57806321dfca1714611122578063238a1cc314610ec057806325f8a08d14610e475780634c5140a514610e1e578063696e2c0f14610de9578063715018a614610da157806383f1444d14610d3a5780638da5cb5b14610d125780639af94f3014610ce9578063a133245b14610cca578063b2f1223814610ca1578063b5b66e1214610c25578063b821da1b146107cc578063cab0fb73146107ad578063d71a60c014610789578063e178854414610717578063ec6eaf62146106c3578063ef2d09f914610662578063f17e6a70146102c3578063f2fde38b1461020b5763f790825d1461011c57600080fd5b34610207576020908160031936011261020357809291923582528252828120908154610147816118cc565b9061015486519283611601565b8082528482018094845285842084915b8383106101c05750505050845193808501918186525180925285850193925b8281106101905785850386f35b835180516001600160a01b0316865280830151868401528701518786015260609094019392810192600101610183565b6003886001928b9a97989a516101d5816115b5565b848060a01b038654168152848601548382015260028601548d82015281520192019201919096949396610164565b8280fd5b5080fd5b508234610203576020366003190112610203576001600160a01b038235818116939192908490036102bf5761023e61155d565b831561026d57505082546001600160a01b0319811683178455166000805160206119048339815191528380a380f35b906020608492519162461bcd60e51b8352820152602660248201527f4f776e61626c653a206e6577206f776e657220697320746865207a65726f206160448201526564647265737360d01b6064820152fd5b8480fd5b508234610203576060918260031936011261065e5780359160ff831683036102bf5760065481516373b6f1d360e01b815233818501526044359560248035966020969094919390916001600160a01b03919082169088818781855afa908115610654578c91610627575b50156105ed578a85916008548c1115806105e1575b61034b90611641565b8851637f3804f960e11b8152338682015292839182905afa9081156105d7579084918c916104fa575b5061ffff925001511687116104c757845133831b87820190815260f89590951b6001600160f81b031916603482015260158152808601949092906001600160401b038611848710176104b5578587528351902093848b52600188526002878c20015415610463575b603c420492603c840293808504603c14901517156104525750509161044a939189869461042b7f60e344e47525731fddb78da0406d35494f63a1e7ebb282981fa22ca34f00168c9a99986115e6565b8a8652830152608082015260a033910152885260018452828820611745565b51338152a380f35b634e487b7160e01b8c52601190528afd5b600554600160401b8110156104a357600181018060055581101561049157859060058d52898d2001556103dc565b50634e487b7160e01b8b52603283528afd5b50634e487b7160e01b8b52604183528afd5b634e487b7160e01b8b5260418352848bfd5b845162461bcd60e51b8152908101869052600e818401526d125b9d985b1a5908185b5bdd5b9d60921b6044820152606490fd5b9150503d808c833e61050c8183611601565b81019188828403126105d35781516001600160401b03928382116105bd570160a0818503126105b95788519160a08301838110858211176105c1578a52815190811681036105bd578252898101518381116105bd578461056d91830161167d565b8a8301528881015160ff811681036105bd578983015261058e8682016116ed565b8683015260808101519283116105b95761ffff9386936105ae920161167d565b60808201528c610374565b8c80fd5b8d80fd5b634e487b7160e01b8f5260418752888ffd5b8b80fd5b87513d8d823e3d90fd5b506007548c1015610342565b865162461bcd60e51b8152808401899052601581870152742ab73932b3b4b9ba32b932b21039bab8383634b2b960591b6044820152606490fd5b6106479150893d8b1161064d575b61063f8183611601565b810190611624565b8c61032d565b503d610635565b88513d8e823e3d90fd5b8380fd5b50829034610203576020366003190112610203576106b882846106c1936080966060845161068f816115e6565b828152826020820152828682015201523581526009602052818120548152600160205220611891565b915180926114f6565bf35b5082903461020357602036600319011261020357608092829135815260016020522090815491600181015491600282015491600360018060a01b039101541692815194855260208501528301526060820152f35b828434610207578160031936011261020757338252602090600282528083209281518093808654928381520195835280832092905b8282106107725761076e8686610764828b0383611601565b5191829182611522565b0390f35b83548752958601956001938401939091019061074c565b8284346102075781600319360112610207576020906107a661184a565b9051908152f35b8284346102075781600319360112610207576020906008549051908152f35b50829034610203578160031936011261020357803592602491823560018060a01b039586600654168651809163b2a89e1560e01b82523386830152818860209485935afa908115610c1b578691610bfe575b5015610bc55760085483111580610bb9575b61083990611641565b610e109687420488810298818a041490151715610ba757603c4204603c810290808204603c1490151715610b9557863388526002845282882080548015159182610b6d575b505015610b055750888752600398898452828820549a6000199b8c81019081116108ce575b828a528b86526108b581868c206117ac565b508c0154821633146108e05780156108ce578c016108a3565b634e487b7160e01b8a52601189528a8afd5b9092969a899c50826108fd939599979b969a528952878c206117ac565b50545b8861090961184a565b848d5260038a52888d205415610afe575b01818110610ac5578591899103926006541688519283809263442c18f360e01b82525afa80156105d7578b90610a8b575b61ffff9150168111610a4b57848a52600d8752858a2055600e54600160401b919082811015610a39576001810180600e55811015610a27578590600e8c52888c2001558952600386528489208551946109a3866115e6565b888652898887015286860152336060860152805491821015610a1557906109cf916001820181556117ac565b929092610a055750507f2eef226398f000ec33af3b3be58878356d5c7b195bff89de5067bbfe7d2ee4a393929161044a91611745565b634e487b7160e01b895288905287fd5b634e487b7160e01b8a5260418452828afd5b634e487b7160e01b8b5260328552838bfd5b634e487b7160e01b8b5260418552838bfd5b855162461bcd60e51b8152808501889052601b818501527a44656d616e64206578636565647320746f74616c20737570706c7960281b6044820152606490fd5b508781813d8311610abe575b610aa18183611601565b81010312610aba57610ab561ffff916116ed565b61094b565b8a80fd5b503d610a97565b875162461bcd60e51b81528087018a90526014818701527327bb32b9333637bb9036b0bc103ab4b73a191a9b60611b6044820152606490fd5b508b61091a565b9990949891959397929699338b5260028852868b20805490600160401b821015610b5b57610b3d82610b54926001889501815561172d565b819391549060031b91821b91600019901b19161790565b9055610900565b634e487b7160e01b8d5260418752858dfd5b600019820192509082116108ce578b91610b869161172d565b90549060031b1c148c8061087e565b634e487b7160e01b8752601186528787fd5b634e487b7160e01b8652601185528686fd5b50600754831015610830565b836015876064938a519362461bcd60e51b8552840152820152742ab73932b3b4b9ba32b932b21031b7b739bab6b2b960591b6044820152fd5b610c159150823d841161064d5761063f8183611601565b8961081e565b88513d88823e3d90fd5b505034610c9e5780600319360112610c9e578151600c805480835290835260208083019492937fdf6966c971051c3d54ec59162606531493a51404a002842f56009d7e5cf4a8c792915b828210610c875761076e8686610764828b0383611601565b835487529586019560019384019390910190610c6f565b80fd5b50829034610203576020366003190112610203576020928291358152600d845220549051908152f35b8284346102075781600319360112610207576020906007549051908152f35b50829034610203576020366003190112610203576020928291358152600a845220549051908152f35b828434610207578160031936011261020757905490516001600160a01b039091168152602090f35b505034610c9e5780600319360112610c9e578151600e805480835290835260208083019492936000805160206118e483398151915292915b828210610d8a5761076e8686610764828b0383611601565b835487529586019560019384019390910190610d72565b8234610c9e5780600319360112610c9e57610dba61155d565b80546001600160a01b03198116825581906001600160a01b03166000805160206119048339815191528280a380f35b508290346102035760203660031901126102035781602093600192358152600985528181205481528285522001549051908152f35b508290346102035760203660031901126102035760209282913581526009845220549051908152f35b505034610c9e5780600319360112610c9e578151600b805480835290835260208083019492937f0175b7a638427703f0dbe7bb9bbf987a2551717b34e79f33b5b1008d1fa01db992915b828210610ea95761076e8686610764828b0383611601565b835487529586019560019384019390910190610e91565b508290346102035760208060031936011261065e57813592610ee061155d565b428410156110ed578485600b54905b818110610f58575050603c90858752600a84520490852055600c5491600160401b831015610f45576001830180600c55831015610f325750600c84528320015580f35b634e487b7160e01b855260329052602484fd5b634e487b7160e01b855260419052602484fd5b610f61816116fc565b9054600391821b1c88811015806110d9575b610f88575b5050610f83906117c8565b610eef565b8952600986528489205489526001808752858a208101549294919060001985018581116110c6578a90871080611083575b156110405750850180861161102d57603c91610fd7610ff2926116fc565b905490821b1c90610fe7886116fc565b9054911b1c90611789565b04915b82810292818404149015171561101a57610f8391611012916117eb565b929089610f78565b634e487b7160e01b895260118752602489fd5b634e487b7160e01b8b526011895260248bfd5b91905061106061104f876116fc565b939092603c94859454911b1c611789565b0481039081116110705791610ff5565b634e487b7160e01b8a526011885260248afd5b50508086018087116110c657611098906116fc565b9054610e108c0191841b1c818c116110b357908b9110610fb9565b634e487b7160e01b8d5260118b5260248dfd5b634e487b7160e01b8c5260118a5260248cfd5b50610e108901808a1161102d578110610f73565b5162461bcd60e51b8152918201526011602482015270121bdd5c881a5cc81b9bdd081d985b1a59607a1b604482015260649150fd5b50823461020357826003193601126102035761113c61155d565b610e10918242048381029381850414901517156113ca5782845260209060038252828520541515806113bf575b611171578480f35b849161117b61184a565b936111846117f8565b948551885b818110611310575050875b8651811015611303576111a781886117d7565b51895260018452828920600301546001600160a01b03969087166111cb838a6117d7565b518b52600186526111e0858c205480936117eb565b978a8c52878752858c20928651926111f7846115b5565b8352878301908152868301914283528454600160401b95868210156112ef57600182018082558210156112db57908f8b81600297969594600393522091020194511660018060a01b031985541617845551600184015551910155828710156112685750611263906117c8565b611194565b969750919293945050603c958642048781029781890414901517156112c857600991611293916117d7565b519286885252852055600b90815492831015610f45575081610b3d9160016112bd940190556116fc565b90555b818080808480f35b634e487b7160e01b885260118552602488fd5b50634e487b7160e01b8f5260328b5260248ffd5b50634e487b7160e01b8f5260418b5260248ffd5b50505050505050506112c0565b60018082018083116113ac575b89868d86841061133a575050505050611335906117c8565b611189565b8291859161134c8861137597966117d7565b518152828c5261136285848484200154956117d7565b518152828c522001541061137a576117c8565b61131d565b611384848c6117d7565b518b61139b8661139485846117d7565b51926117d7565b526113a6828d6117d7565b526117c8565b634e487b7160e01b8c526011885260248cfd5b506005541515611169565b634e487b7160e01b845260119052602483fd5b8284346102075781600319360112610207576113f76117f8565b815192839260208080860192818752855180945286019401925b82811061142057505050500390f35b835185528695509381019392810192600101611411565b508290346102035760208060031936011261065e57908035845260038252828420918254611464816118cc565b9261147186519485611601565b8184528284018095885283882088915b8483106114d05750505050508351938185019282865251809352840192945b8281106114ad5784840385f35b909192826080826114c16001948a516114f6565b019601910194929190946114a0565b83866001926114e3859d999a9b9d611891565b8152019201920191909896959498611481565b8051825260208082015190830152604080820151908301526060908101516001600160a01b0316910152565b6020908160408183019282815285518094520193019160005b828110611549575050505090565b83518552938101939281019260010161153b565b6000546001600160a01b0316330361157157565b606460405162461bcd60e51b815260206004820152602060248201527f4f776e61626c653a2063616c6c6572206973206e6f7420746865206f776e65726044820152fd5b606081019081106001600160401b038211176115d057604052565b634e487b7160e01b600052604160045260246000fd5b608081019081106001600160401b038211176115d057604052565b601f909101601f19168101906001600160401b038211908210176115d057604052565b9081602091031261163c5751801515810361163c5790565b600080fd5b1561164857565b60405162461bcd60e51b815260206004820152600d60248201526c496e76616c696420707269636560981b6044820152606490fd5b919080601f8401121561163c578251906001600160401b0382116115d057604051916020916116b5601f8301601f1916840185611601565b81845282828701011161163c5760005b8181106116da57508260009394955001015290565b85810183015184820184015282016116c5565b519061ffff8216820361163c57565b600b5481101561171757600b60005260206000200190600090565b634e487b7160e01b600052603260045260246000fd5b80548210156117175760005260206000200190600090565b81518155602082015160018201556040820151600282015560609091015160039190910180546001600160a01b0319166001600160a01b0392909216919091179055565b9190820391821161179657565b634e487b7160e01b600052601160045260246000fd5b80548210156117175760005260206000209060021b0190600090565b60001981146117965760010190565b80518210156117175760209160051b010190565b9190820180921161179657565b604051906005548083528260209182820190600560005283600020936000905b8282106118305750505061182e92500383611601565b565b855484526001958601958895509381019390910190611818565b600e54806118585750600090565b600019908082018181116117965781111561171757016000805160206118e483398151915201546000908152600d602052604090205490565b9060405161189e816115e6565b8254815260018301546020820152600283015460408201526003909201546001600160a01b03166060830152565b6001600160401b0381116115d05760051b6020019056febb7b4a454dc3493923482f07822329ed19e8244eff582cc204f8554c3620c3fd8be0079c531659141344cd1fd0a4f28419497f9722a3daafe3b4186f6b6457e0",
        "linkReferences": {},
        "deployedLinkReferences": {}
    }
}