{
  "_format": "hh-sol-artifact-1",
  "contractName": "PoolMarket",
  "sourceName": "contracts/PoolMarket.sol",
  "abi": [
    {
      "inputs": [
        {
          "internalType": "address",
          "name": "_registryContractAddress",
          "type": "address"
        },
        {
          "internalType": "uint256",
          "name": "_minAllowedPrice",
          "type": "uint256"
        },
        {
          "internalType": "uint256",
          "name": "_maxAllowedPrice",
          "type": "uint256"
        }
      ],
      "stateMutability": "nonpayable",
      "type": "constructor"
    },
    {
      "anonymous": false,
      "inputs": [
        {
          "indexed": true,
          "internalType": "uint256",
          "name": "amount",
          "type": "uint256"
        },
        {
          "indexed": true,
          "internalType": "uint256",
          "name": "price",
          "type": "uint256"
        },
        {
          "indexed": false,
          "internalType": "address",
          "name": "sender",
          "type": "address"
        }
      ],
      "name": "BidSubmitted",
      "type": "event"
    },
    {
      "anonymous": false,
      "inputs": [
        {
          "indexed": true,
          "internalType": "uint256",
          "name": "oldTotalDemand",
          "type": "uint256"
        },
        {
          "indexed": true,
          "internalType": "uint256",
          "name": "newTotalDemand",
          "type": "uint256"
        }
      ],
      "name": "DemandChanged",
      "type": "event"
    },
    {
      "anonymous": false,
      "inputs": [
        {
          "indexed": false,
          "internalType": "bytes32",
          "name": "offerId",
          "type": "bytes32"
        }
      ],
      "name": "OfferDeleted",
      "type": "event"
    },
    {
      "anonymous": false,
      "inputs": [
        {
          "indexed": true,
          "internalType": "uint256",
          "name": "amount",
          "type": "uint256"
        },
        {
          "indexed": true,
          "internalType": "uint256",
          "name": "price",
          "type": "uint256"
        },
        {
          "indexed": false,
          "internalType": "address",
          "name": "sender",
          "type": "address"
        }
      ],
      "name": "OfferSubmitted",
      "type": "event"
    },
    {
      "anonymous": false,
      "inputs": [
        {
          "indexed": true,
          "internalType": "address",
          "name": "previousOwner",
          "type": "address"
        },
        {
          "indexed": true,
          "internalType": "address",
          "name": "newOwner",
          "type": "address"
        }
      ],
      "name": "OwnershipTransferred",
      "type": "event"
    },
    {
      "inputs": [
        {
          "internalType": "uint256",
          "name": "hour",
          "type": "uint256"
        }
      ],
      "name": "calculatePoolPrice",
      "outputs": [],
      "stateMutability": "nonpayable",
      "type": "function"
    },
    {
      "inputs": [
        {
          "internalType": "bool",
          "name": "bidUpdated",
          "type": "bool"
        }
      ],
      "name": "calculateSMP",
      "outputs": [],
      "stateMutability": "nonpayable",
      "type": "function"
    },
    {
      "inputs": [
        {
          "internalType": "string",
          "name": "_assetId",
          "type": "string"
        },
        {
          "internalType": "uint8",
          "name": "_blockNumber",
          "type": "uint8"
        }
      ],
      "name": "deleteOffer",
      "outputs": [],
      "stateMutability": "nonpayable",
      "type": "function"
    },
    {
      "inputs": [
        {
          "internalType": "uint256",
          "name": "",
          "type": "uint256"
        },
        {
          "internalType": "uint256",
          "name": "",
          "type": "uint256"
        }
      ],
      "name": "dispatchedOffers",
      "outputs": [
        {
          "internalType": "address",
          "name": "supplierAccount",
          "type": "address"
        },
        {
          "internalType": "uint256",
          "name": "dispatchedAmount",
          "type": "uint256"
        },
        {
          "internalType": "uint256",
          "name": "dispatchedAt",
          "type": "uint256"
        }
      ],
      "stateMutability": "view",
      "type": "function"
    },
    {
      "inputs": [
        {
          "internalType": "bytes32",
          "name": "",
          "type": "bytes32"
        }
      ],
      "name": "energyBids",
      "outputs": [
        {
          "internalType": "uint256",
          "name": "amount",
          "type": "uint256"
        },
        {
          "internalType": "uint256",
          "name": "price",
          "type": "uint256"
        },
        {
          "internalType": "uint256",
          "name": "submitMinute",
          "type": "uint256"
        },
        {
          "internalType": "address",
          "name": "consumerAccount",
          "type": "address"
        }
      ],
      "stateMutability": "view",
      "type": "function"
    },
    {
      "inputs": [
        {
          "internalType": "bytes32",
          "name": "",
          "type": "bytes32"
        }
      ],
      "name": "energyOffers",
      "outputs": [
        {
          "internalType": "uint256",
          "name": "amount",
          "type": "uint256"
        },
        {
          "internalType": "uint256",
          "name": "price",
          "type": "uint256"
        },
        {
          "internalType": "uint256",
          "name": "submitMinute",
          "type": "uint256"
        },
        {
          "internalType": "address",
          "name": "supplierAccount",
          "type": "address"
        },
        {
          "internalType": "bool",
          "name": "isValid",
          "type": "bool"
        }
      ],
      "stateMutability": "view",
      "type": "function"
    },
    {
      "inputs": [
        {
          "internalType": "uint256",
          "name": "hour",
          "type": "uint256"
        }
      ],
      "name": "getDispatchedOffers",
      "outputs": [
        {
          "components": [
            {
              "internalType": "address",
              "name": "supplierAccount",
              "type": "address"
            },
            {
              "internalType": "uint256",
              "name": "dispatchedAmount",
              "type": "uint256"
            },
            {
              "internalType": "uint256",
              "name": "dispatchedAt",
              "type": "uint256"
            }
          ],
          "internalType": "struct IPoolMarket.DispatchedOffer[]",
          "name": "",
          "type": "tuple[]"
        }
      ],
      "stateMutability": "view",
      "type": "function"
    },
    {
      "inputs": [
        {
          "internalType": "bytes32",
          "name": "bidId",
          "type": "bytes32"
        }
      ],
      "name": "getEnergyBid",
      "outputs": [
        {
          "components": [
            {
              "internalType": "uint256",
              "name": "amount",
              "type": "uint256"
            },
            {
              "internalType": "uint256",
              "name": "price",
              "type": "uint256"
            },
            {
              "internalType": "uint256",
              "name": "submitMinute",
              "type": "uint256"
            },
            {
              "internalType": "address",
              "name": "consumerAccount",
              "type": "address"
            }
          ],
          "internalType": "struct PoolMarket.Bid",
          "name": "",
          "type": "tuple"
        }
      ],
      "stateMutability": "view",
      "type": "function"
    },
    {
      "inputs": [
        {
          "internalType": "bytes32",
          "name": "offerId",
          "type": "bytes32"
        }
      ],
      "name": "getEnergyOffer",
      "outputs": [
        {
          "components": [
            {
              "internalType": "uint256",
              "name": "amount",
              "type": "uint256"
            },
            {
              "internalType": "uint256",
              "name": "price",
              "type": "uint256"
            },
            {
              "internalType": "uint256",
              "name": "submitMinute",
              "type": "uint256"
            },
            {
              "internalType": "address",
              "name": "supplierAccount",
              "type": "address"
            },
            {
              "internalType": "bool",
              "name": "isValid",
              "type": "bool"
            }
          ],
          "internalType": "struct PoolMarket.Offer",
          "name": "",
          "type": "tuple"
        }
      ],
      "stateMutability": "view",
      "type": "function"
    },
    {
      "inputs": [],
      "name": "getLatestTotalDemand",
      "outputs": [
        {
          "internalType": "uint256",
          "name": "",
          "type": "uint256"
        }
      ],
      "stateMutability": "view",
      "type": "function"
    },
    {
      "inputs": [
        {
          "internalType": "uint256",
          "name": "minute",
          "type": "uint256"
        }
      ],
      "name": "getMarginalOffer",
      "outputs": [
        {
          "components": [
            {
              "internalType": "uint256",
              "name": "amount",
              "type": "uint256"
            },
            {
              "internalType": "uint256",
              "name": "price",
              "type": "uint256"
            },
            {
              "internalType": "uint256",
              "name": "submitMinute",
              "type": "uint256"
            },
            {
              "internalType": "address",
              "name": "supplierAccount",
              "type": "address"
            },
            {
              "internalType": "bool",
              "name": "isValid",
              "type": "bool"
            }
          ],
          "internalType": "struct PoolMarket.Offer",
          "name": "",
          "type": "tuple"
        }
      ],
      "stateMutability": "view",
      "type": "function"
    },
    {
      "inputs": [
        {
          "internalType": "uint256",
          "name": "hour",
          "type": "uint256"
        }
      ],
      "name": "getPoolPrice",
      "outputs": [
        {
          "internalType": "uint256",
          "name": "",
          "type": "uint256"
        }
      ],
      "stateMutability": "view",
      "type": "function"
    },
    {
      "inputs": [],
      "name": "getPoolpriceHours",
      "outputs": [
        {
          "internalType": "uint256[]",
          "name": "",
          "type": "uint256[]"
        }
      ],
      "stateMutability": "view",
      "type": "function"
    },
    {
      "inputs": [],
      "name": "getRegisteredSupplierAssetId",
      "outputs": [
        {
          "internalType": "string",
          "name": "",
          "type": "string"
        }
      ],
      "stateMutability": "view",
      "type": "function"
    },
    {
      "inputs": [
        {
          "internalType": "uint256",
          "name": "minute",
          "type": "uint256"
        }
      ],
      "name": "getSMP",
      "outputs": [
        {
          "internalType": "uint256",
          "name": "",
          "type": "uint256"
        }
      ],
      "stateMutability": "view",
      "type": "function"
    },
    {
      "inputs": [],
      "name": "getSystemMarginalMinutes",
      "outputs": [
        {
          "internalType": "uint256[]",
          "name": "",
          "type": "uint256[]"
        }
      ],
      "stateMutability": "view",
      "type": "function"
    },
    {
      "inputs": [],
      "name": "getValidBidIDs",
      "outputs": [
        {
          "internalType": "bytes32[]",
          "name": "",
          "type": "bytes32[]"
        }
      ],
      "stateMutability": "view",
      "type": "function"
    },
    {
      "inputs": [],
      "name": "getValidOfferIDs",
      "outputs": [
        {
          "internalType": "bytes32[]",
          "name": "",
          "type": "bytes32[]"
        }
      ],
      "stateMutability": "view",
      "type": "function"
    },
    {
      "inputs": [],
      "name": "marketState",
      "outputs": [
        {
          "internalType": "enum PoolMarket.MarketState",
          "name": "",
          "type": "uint8"
        }
      ],
      "stateMutability": "view",
      "type": "function"
    },
    {
      "inputs": [],
      "name": "maxAllowedPrice",
      "outputs": [
        {
          "internalType": "uint256",
          "name": "",
          "type": "uint256"
        }
      ],
      "stateMutability": "view",
      "type": "function"
    },
    {
      "inputs": [],
      "name": "minAllowedPrice",
      "outputs": [
        {
          "internalType": "uint256",
          "name": "",
          "type": "uint256"
        }
      ],
      "stateMutability": "view",
      "type": "function"
    },
    {
      "inputs": [],
      "name": "owner",
      "outputs": [
        {
          "internalType": "address",
          "name": "",
          "type": "address"
        }
      ],
      "stateMutability": "view",
      "type": "function"
    },
    {
      "inputs": [
        {
          "internalType": "uint256",
          "name": "",
          "type": "uint256"
        }
      ],
      "name": "poolPriceHours",
      "outputs": [
        {
          "internalType": "uint256",
          "name": "",
          "type": "uint256"
        }
      ],
      "stateMutability": "view",
      "type": "function"
    },
    {
      "inputs": [
        {
          "internalType": "uint256",
          "name": "",
          "type": "uint256"
        }
      ],
      "name": "poolPrices",
      "outputs": [
        {
          "internalType": "uint256",
          "name": "",
          "type": "uint256"
        }
      ],
      "stateMutability": "view",
      "type": "function"
    },
    {
      "inputs": [],
      "name": "registryContract",
      "outputs": [
        {
          "internalType": "contract IRegistry",
          "name": "",
          "type": "address"
        }
      ],
      "stateMutability": "view",
      "type": "function"
    },
    {
      "inputs": [],
      "name": "renounceOwnership",
      "outputs": [],
      "stateMutability": "nonpayable",
      "type": "function"
    },
    {
      "inputs": [
        {
          "internalType": "uint256",
          "name": "_amount",
          "type": "uint256"
        },
        {
          "internalType": "uint256",
          "name": "_price",
          "type": "uint256"
        }
      ],
      "name": "submitBid",
      "outputs": [],
      "stateMutability": "nonpayable",
      "type": "function"
    },
    {
      "inputs": [
        {
          "internalType": "uint8",
          "name": "blockNumber",
          "type": "uint8"
        },
        {
          "internalType": "uint256",
          "name": "amount",
          "type": "uint256"
        },
        {
          "internalType": "uint256",
          "name": "price",
          "type": "uint256"
        }
      ],
      "name": "submitOffer",
      "outputs": [],
      "stateMutability": "nonpayable",
      "type": "function"
    },
    {
      "inputs": [
        {
          "internalType": "uint256",
          "name": "",
          "type": "uint256"
        }
      ],
      "name": "systemMarginalMinutes",
      "outputs": [
        {
          "internalType": "uint256",
          "name": "",
          "type": "uint256"
        }
      ],
      "stateMutability": "view",
      "type": "function"
    },
    {
      "inputs": [
        {
          "internalType": "uint256",
          "name": "",
          "type": "uint256"
        }
      ],
      "name": "systemMarginalOfferIDs",
      "outputs": [
        {
          "internalType": "bytes32",
          "name": "",
          "type": "bytes32"
        }
      ],
      "stateMutability": "view",
      "type": "function"
    },
    {
      "inputs": [
        {
          "internalType": "uint256",
          "name": "",
          "type": "uint256"
        }
      ],
      "name": "totalDemandMinutes",
      "outputs": [
        {
          "internalType": "uint256",
          "name": "",
          "type": "uint256"
        }
      ],
      "stateMutability": "view",
      "type": "function"
    },
    {
      "inputs": [
        {
          "internalType": "uint256",
          "name": "",
          "type": "uint256"
        }
      ],
      "name": "totalDemands",
      "outputs": [
        {
          "internalType": "uint256",
          "name": "",
          "type": "uint256"
        }
      ],
      "stateMutability": "view",
      "type": "function"
    },
    {
      "inputs": [
        {
          "internalType": "address",
          "name": "newOwner",
          "type": "address"
        }
      ],
      "name": "transferOwnership",
      "outputs": [],
      "stateMutability": "nonpayable",
      "type": "function"
    },
    {
      "inputs": [
        {
          "internalType": "uint256",
          "name": "",
          "type": "uint256"
        }
      ],
      "name": "validBidIDs",
      "outputs": [
        {
          "internalType": "bytes32",
          "name": "",
          "type": "bytes32"
        }
      ],
      "stateMutability": "view",
      "type": "function"
    },
    {
      "inputs": [
        {
          "internalType": "uint256",
          "name": "",
          "type": "uint256"
        }
      ],
      "name": "validOfferIDs",
      "outputs": [
        {
          "internalType": "bytes32",
          "name": "",
          "type": "bytes32"
        }
      ],
      "stateMutability": "view",
      "type": "function"
    }
  ],
  "bytecode": "0x60806040523480156200001157600080fd5b5060405162004be838038062004be88339818101604052810190620000379190620001fb565b620000576200004b6200010160201b60201c565b6200010960201b60201c565b82600660006101000a81548173ffffffffffffffffffffffffffffffffffffffff021916908373ffffffffffffffffffffffffffffffffffffffff16021790555081600781905550806008819055506001600060146101000a81548160ff02191690836001811115620000f3577f4e487b7100000000000000000000000000000000000000000000000000000000600052602160045260246000fd5b0217905550505050620002c3565b600033905090565b60008060009054906101000a900473ffffffffffffffffffffffffffffffffffffffff169050816000806101000a81548173ffffffffffffffffffffffffffffffffffffffff021916908373ffffffffffffffffffffffffffffffffffffffff1602179055508173ffffffffffffffffffffffffffffffffffffffff168173ffffffffffffffffffffffffffffffffffffffff167f8be0079c531659141344cd1fd0a4f28419497f9722a3daafe3b4186f6b6457e060405160405180910390a35050565b600081519050620001de816200028f565b92915050565b600081519050620001f581620002a9565b92915050565b6000806000606084860312156200021157600080fd5b60006200022186828701620001cd565b93505060206200023486828701620001e4565b92505060406200024786828701620001e4565b9150509250925092565b60006200025e8262000265565b9050919050565b600073ffffffffffffffffffffffffffffffffffffffff82169050919050565b6000819050919050565b6200029a8162000251565b8114620002a657600080fd5b50565b620002b48162000285565b8114620002c057600080fd5b50565b61491580620002d36000396000f3fe608060405234801561001057600080fd5b50600436106102115760003560e01c8063719af2cd11610125578063bff4b5bc116100ad578063ec6eaf621161007c578063ec6eaf621461067f578063ef2d09f9146106b3578063f17e6a70146106e3578063f2fde38b146106ff578063f790825d1461071b57610211565b8063bff4b5bc146105e3578063cab0fb7314610613578063d71a60c014610631578063ea05322a1461064f57610211565b80639af94f30116100f45780639af94f301461052b578063a133245b1461055b578063b2f1223814610579578063b5b66e12146105a9578063b821da1b146105c757610211565b8063719af2cd1461048d5780637317266e146104ab5780637910d52e146104dd5780638da5cb5b1461050d57610211565b8063512fe422116101a857806364a19f411161017757806364a19f41146103e9578063696e2c0f146104195780636d96b3d3146104495780636f34023e14610467578063715018a61461048357610211565b8063512fe42214610326578063516443941461035657806352d6ee0d1461038657806363660a27146103b657610211565b806325f8a08d116101e457806325f8a08d1461029e57806328c1f99b146102bc5780634c5140a5146102da5780635021b96d1461030a57610211565b806308fb1b771461021657806314bacef71461023457806318d1c2ae14610252578063238a1cc314610282575b600080fd5b61021e61074b565b60405161022b9190613f06565b60405180910390f35b61023c61075e565b6040516102499190613e6a565b60405180910390f35b61026c60048036038101906102679190613800565b6107b6565b60405161027991906140d9565b60405180910390f35b61029c60048036038101906102979190613800565b6107da565b005b6102a6610b74565b6040516102b39190613eae565b60405180910390f35b6102c4610bcc565b6040516102d19190613eeb565b60405180910390f35b6102f460048036038101906102ef9190613800565b610bf2565b6040516103019190613ed0565b60405180910390f35b610324600480360381019061031f91906136c7565b610c0a565b005b610340600480360381019061033b9190613800565b6115c2565b60405161034d91906140d9565b60405180910390f35b610370600480360381019061036b9190613719565b6115e6565b60405161037d91906140a3565b60405180910390f35b6103a0600480360381019061039b9190613800565b611687565b6040516103ad91906140d9565b60405180910390f35b6103d060048036038101906103cb9190613719565b6116ab565b6040516103e094939291906140f4565b60405180910390f35b61040360048036038101906103fe9190613800565b6116fb565b6040516104109190613ed0565b60405180910390f35b610433600480360381019061042e9190613800565b61171f565b60405161044091906140d9565b60405180910390f35b610451611752565b60405161045e9190613e6a565b60405180910390f35b610481600480360381019061047c9190613742565b6117aa565b005b61048b611cc5565b005b610495611d4d565b6040516104a29190613f21565b60405180910390f35b6104c560048036038101906104c09190613829565b611e08565b6040516104d493929190613e33565b60405180910390f35b6104f760048036038101906104f29190613800565b611e6f565b60405161050491906140d9565b60405180910390f35b610515611e87565b6040516105229190613e18565b60405180910390f35b61054560048036038101906105409190613800565b611eb0565b60405161055291906140d9565b60405180910390f35b610563611ecd565b60405161057091906140d9565b60405180910390f35b610593600480360381019061058e9190613800565b611ed3565b6040516105a091906140d9565b60405180910390f35b6105b1611eeb565b6040516105be9190613eae565b60405180910390f35b6105e160048036038101906105dc9190613829565b611f43565b005b6105fd60048036038101906105f89190613719565b612491565b60405161060a91906140be565b60405180910390f35b61061b61254d565b60405161062891906140d9565b60405180910390f35b610639612553565b60405161064691906140d9565b60405180910390f35b61066960048036038101906106649190613800565b6125e1565b6040516106769190613ed0565b60405180910390f35b61069960048036038101906106949190613719565b612605565b6040516106aa959493929190614139565b60405180910390f35b6106cd60048036038101906106c89190613800565b612668565b6040516106da91906140be565b60405180910390f35b6106fd60048036038101906106f89190613865565b612737565b005b6107196004803603810190610714919061369e565b612c43565b005b61073560048036038101906107309190613800565b612d3b565b6040516107429190613e8c565b60405180910390f35b600060149054906101000a900460ff1681565b606060048054806020026020016040519081016040528092919081815260200182805480156107ac57602002820191906000526020600020905b815481526020019060010190808311610798575b5050505050905090565b600b81815481106107c657600080fd5b906000526020600020016000915090505481565b6107e2612e17565b73ffffffffffffffffffffffffffffffffffffffff16610800611e87565b73ffffffffffffffffffffffffffffffffffffffff1614610856576040517f08c379a000000000000000000000000000000000000000000000000000000000815260040161084d90613fe3565b60405180910390fd5b428110610898576040517f08c379a000000000000000000000000000000000000000000000000000000000815260040161088f90614043565b60405180910390fd5b6108a26001610c0a565b60008060005b600b80549050811015610b1e576000600b82815481106108f1577f4e487b7100000000000000000000000000000000000000000000000000000000600052603260045260246000fd5b9060005260206000200154905084811015801561091a5750610e108561091791906142b4565b81105b15610b0a576000600160006009600085815260200190815260200160002054815260200190815260200160002060010154905060006001600b805490506109619190614395565b841080156109cb5750610e108761097891906142b4565b600b60018661098791906142b4565b815481106109be577f4e487b7100000000000000000000000000000000000000000000000000000000600052603260045260246000fd5b9060005260206000200154105b15610a8357603c600b8581548110610a0c577f4e487b7100000000000000000000000000000000000000000000000000000000600052603260045260246000fd5b9060005260206000200154600b600187610a2691906142b4565b81548110610a5d577f4e487b7100000000000000000000000000000000000000000000000000000000600052603260045260246000fd5b9060005260206000200154610a729190614395565b610a7c919061430a565b9050610aee565b603c87600b8681548110610ac0577f4e487b7100000000000000000000000000000000000000000000000000000000600052603260045260246000fd5b9060005260206000200154610ad59190614395565b610adf919061430a565b603c610aeb9190614395565b90505b8082610afa919061433b565b85610b0591906142b4565b945050505b508080610b16906144f2565b9150506108a8565b50603c81610b2c919061430a565b915081600a600085815260200190815260200160002081905550600c839080600181540180825580915050600190039060005260206000200160009091909190915055505050565b6060600b805480602002602001604051908101604052809291908181526020018280548015610bc257602002820191906000526020600020905b815481526020019060010190808311610bae575b5050505050905090565b600660009054906101000a900473ffffffffffffffffffffffffffffffffffffffff1681565b60096020528060005260406000206000915090505481565b610c12612e17565b73ffffffffffffffffffffffffffffffffffffffff16610c30611e87565b73ffffffffffffffffffffffffffffffffffffffff1614610c86576040517f08c379a0000000000000000000000000000000000000000000000000000000008152600401610c7d90613fe3565b60405180910390fd5b6000600580549050118015610ca057506000600480549050115b156115bf5760008060146101000a81548160ff02191690836001811115610cf0577f4e487b7100000000000000000000000000000000000000000000000000000000600052602160045260246000fd5b02179055508015610d0457610d03612e1f565b5b600080610d0f612553565b90506000610d1b61302d565b90506000610e108042610d2e919061430a565b610d38919061433b565b905060005b8251811015610fb557600060016000858481518110610d85577f4e487b7100000000000000000000000000000000000000000000000000000000600052603260045260246000fd5b6020026020010151815260200190815260200160002060030160009054906101000a900473ffffffffffffffffffffffffffffffffffffffff169050600060016000868581518110610e00577f4e487b7100000000000000000000000000000000000000000000000000000000600052603260045260246000fd5b602002602001015181526020019081526020016000206000015490508087610e2891906142b4565b96506003600085815260200190815260200160002060405180606001604052808473ffffffffffffffffffffffffffffffffffffffff16815260200183815260200142815250908060018154018082558091505060019003906000526020600020906003020160009091909190915060008201518160000160006101000a81548173ffffffffffffffffffffffffffffffffffffffff021916908373ffffffffffffffffffffffffffffffffffffffff16021790555060208201518160010155604082015181600201555050858710610fa0576000603c8042610f0b919061430a565b610f15919061433b565b9050858481518110610f50577f4e487b7100000000000000000000000000000000000000000000000000000000600052603260045260246000fd5b60200260200101516009600083815260200190815260200160002081905550600b819080600181540180825580915050600190039060005260206000200160009091909190915055505050610fb5565b50508080610fad906144f2565b915050610d3d565b5060005b6003600083815260200190815260200160002080549050811015611568576000600360008481526020019081526020016000208281548110611024577f4e487b7100000000000000000000000000000000000000000000000000000000600052603260045260246000fd5b906000526020600020906003020160000160009054906101000a900473ffffffffffffffffffffffffffffffffffffffff16905060006003600085815260200190815260200160002083815481106110a5577f4e487b7100000000000000000000000000000000000000000000000000000000600052603260045260246000fd5b90600052602060002090600302016001015490506000600360008681526020019081526020016000208481548110611106577f4e487b7100000000000000000000000000000000000000000000000000000000600052603260045260246000fd5b9060005260206000209060030201600201549050600060018561112991906142b4565b90505b6003600087815260200190815260200160002080549050811015611469578373ffffffffffffffffffffffffffffffffffffffff166003600088815260200190815260200160002082815481106111ac577f4e487b7100000000000000000000000000000000000000000000000000000000600052603260045260246000fd5b906000526020600020906003020160000160009054906101000a900473ffffffffffffffffffffffffffffffffffffffff1673ffffffffffffffffffffffffffffffffffffffff16141561145657600060036000888152602001908152602001600020805490509050600360008881526020019081526020016000208281548110611260577f4e487b7100000000000000000000000000000000000000000000000000000000600052603260045260246000fd5b9060005260206000209060030201600101548461127d91906142b4565b93506003600088815260200190815260200160002060018261129f9190614395565b815481106112d6577f4e487b7100000000000000000000000000000000000000000000000000000000600052603260045260246000fd5b906000526020600020906003020160036000898152602001908152602001600020838154811061132f577f4e487b7100000000000000000000000000000000000000000000000000000000600052603260045260246000fd5b90600052602060002090600302016000820160009054906101000a900473ffffffffffffffffffffffffffffffffffffffff168160000160006101000a81548173ffffffffffffffffffffffffffffffffffffffff021916908373ffffffffffffffffffffffffffffffffffffffff160217905550600182015481600101556002820154816002015590505060036000888152602001908152602001600020805480611404577f4e487b7100000000000000000000000000000000000000000000000000000000600052603160045260246000fd5b6001900381819060005260206000209060030201600080820160006101000a81549073ffffffffffffffffffffffffffffffffffffffff02191690556001820160009055600282016000905550509055505b8080611461906144f2565b91505061112c565b5060405180606001604052808473ffffffffffffffffffffffffffffffffffffffff168152602001838152602001828152506003600087815260200190815260200160002085815481106114e6577f4e487b7100000000000000000000000000000000000000000000000000000000600052603260045260246000fd5b906000526020600020906003020160008201518160000160006101000a81548173ffffffffffffffffffffffffffffffffffffffff021916908373ffffffffffffffffffffffffffffffffffffffff16021790555060208201518160010155604082015181600201559050505050508080611560906144f2565b915050610fb9565b506001600060146101000a81548160ff021916908360018111156115b5577f4e487b7100000000000000000000000000000000000000000000000000000000600052602160045260246000fd5b0217905550505050505b50565b600e81815481106115d257600080fd5b906000526020600020016000915090505481565b6115ee6133d4565b600260008381526020019081526020016000206040518060800160405290816000820154815260200160018201548152602001600282015481526020016003820160009054906101000a900473ffffffffffffffffffffffffffffffffffffffff1673ffffffffffffffffffffffffffffffffffffffff1673ffffffffffffffffffffffffffffffffffffffff16815250509050919050565b600c818154811061169757600080fd5b906000526020600020016000915090505481565b60026020528060005260406000206000915090508060000154908060010154908060020154908060030160009054906101000a900473ffffffffffffffffffffffffffffffffffffffff16905084565b6005818154811061170b57600080fd5b906000526020600020016000915090505481565b60006001600060096000858152602001908152602001600020548152602001908152602001600020600101549050919050565b606060058054806020026020016040519081016040528092919081815260200182805480156117a057602002820191906000526020600020905b81548152602001906001019080831161178c575b5050505050905090565b33600660009054906101000a900473ffffffffffffffffffffffffffffffffffffffff1673ffffffffffffffffffffffffffffffffffffffff166373b6f1d3826040518263ffffffff1660e01b81526004016118069190613e18565b60206040518083038186803b15801561181e57600080fd5b505afa158015611832573d6000803e3d6000fd5b505050506040513d601f19601f8201168201806040525081019061185691906136f0565b611895576040517f08c379a000000000000000000000000000000000000000000000000000000000815260040161188c90613fc3565b60405180910390fd5b6001808111156118ce577f4e487b7100000000000000000000000000000000000000000000000000000000600052602160045260246000fd5b600060149054906101000a900460ff166001811115611916577f4e487b7100000000000000000000000000000000000000000000000000000000600052602160045260246000fd5b14611956576040517f08c379a000000000000000000000000000000000000000000000000000000000815260040161194d90613f43565b60405180910390fd5b600660009054906101000a900473ffffffffffffffffffffffffffffffffffffffff1673ffffffffffffffffffffffffffffffffffffffff1663fe7009f2336040518263ffffffff1660e01b81526004016119b19190613e18565b60006040518083038186803b1580156119c957600080fd5b505afa1580156119dd573d6000803e3d6000fd5b505050506040513d6000823e3d601f19601f82011682018060405250810190611a069190613796565b60200151604051602001611a1a9190613f21565b6040516020818303038152906040528051906020012083604051602001611a419190613f21565b6040516020818303038152906040528051906020012014611a97576040517f08c379a0000000000000000000000000000000000000000000000000000000008152600401611a8e90614023565b60405180910390fd5b60008383604051602001611aac929190613df0565b6040516020818303038152906040528051906020012090506000603c8042611ad4919061430a565b611ade919061433b565b905080600160008481526020019081526020016000206002018190555060006001600084815260200190815260200160002060030160146101000a81548160ff02191690831515021790555060005b600480549050811015611c865760048181548110611b74577f4e487b7100000000000000000000000000000000000000000000000000000000600052603260045260246000fd5b9060005260206000200154831415611c735760046001600480549050611b9a9190614395565b81548110611bd1577f4e487b7100000000000000000000000000000000000000000000000000000000600052603260045260246000fd5b906000526020600020015460048281548110611c16577f4e487b7100000000000000000000000000000000000000000000000000000000600052603260045260246000fd5b90600052602060002001819055506004805480611c5c577f4e487b7100000000000000000000000000000000000000000000000000000000600052603160045260246000fd5b600190038181906000526020600020016000905590555b8080611c7e906144f2565b915050611b2d565b507f233d1d5c74ac8791f0673668c3df846ed7254243dc50ce621d05653f5c64b58782604051611cb69190613ed0565b60405180910390a15050505050565b611ccd612e17565b73ffffffffffffffffffffffffffffffffffffffff16611ceb611e87565b73ffffffffffffffffffffffffffffffffffffffff1614611d41576040517f08c379a0000000000000000000000000000000000000000000000000000000008152600401611d3890613fe3565b60405180910390fd5b611d4b6000613310565b565b6060600660009054906101000a900473ffffffffffffffffffffffffffffffffffffffff1673ffffffffffffffffffffffffffffffffffffffff1663fe7009f2336040518263ffffffff1660e01b8152600401611daa9190613e18565b60006040518083038186803b158015611dc257600080fd5b505afa158015611dd6573d6000803e3d6000fd5b505050506040513d6000823e3d601f19601f82011682018060405250810190611dff9190613796565b60200151905090565b60036020528160005260406000208181548110611e2457600080fd5b9060005260206000209060030201600091509150508060000160009054906101000a900473ffffffffffffffffffffffffffffffffffffffff16908060010154908060020154905083565b600a6020528060005260406000206000915090505481565b60008060009054906101000a900473ffffffffffffffffffffffffffffffffffffffff16905090565b6000600a6000838152602001908152602001600020549050919050565b60075481565b600d6020528060005260406000206000915090505481565b6060600c805480602002602001604051908101604052809291908181526020018280548015611f3957602002820191906000526020600020905b815481526020019060010190808311611f25575b5050505050905090565b33600660009054906101000a900473ffffffffffffffffffffffffffffffffffffffff1673ffffffffffffffffffffffffffffffffffffffff1663b2a89e15826040518263ffffffff1660e01b8152600401611f9f9190613e18565b60206040518083038186803b158015611fb757600080fd5b505afa158015611fcb573d6000803e3d6000fd5b505050506040513d601f19601f82011682018060405250810190611fef91906136f0565b61202e576040517f08c379a000000000000000000000000000000000000000000000000000000000815260040161202590614083565b60405180910390fd5b828233600854821115801561204557506007548210155b612084576040517f08c379a000000000000000000000000000000000000000000000000000000000815260040161207b90614063565b60405180910390fd5b6001808111156120bd577f4e487b7100000000000000000000000000000000000000000000000000000000600052602160045260246000fd5b600060149054906101000a900460ff166001811115612105577f4e487b7100000000000000000000000000000000000000000000000000000000600052602160045260246000fd5b14612145576040517f08c379a000000000000000000000000000000000000000000000000000000000815260040161213c90613f43565b60405180910390fd5b6000336040516020016121589190613e18565b6040516020818303038152906040528051906020012090506000805b60058054905081101561224257600581815481106121bb577f4e487b7100000000000000000000000000000000000000000000000000000000600052603260045260246000fd5b906000526020600020015483141561222f57600260006005838154811061220b577f4e487b7100000000000000000000000000000000000000000000000000000000600052603260045260246000fd5b90600052602060002001548152602001908152602001600020600001549150612242565b808061223a906144f2565b915050612174565b50600061224d612553565b9050600660009054906101000a900473ffffffffffffffffffffffffffffffffffffffff1673ffffffffffffffffffffffffffffffffffffffff1663442c18f36040518163ffffffff1660e01b815260040160206040518083038186803b1580156122b757600080fd5b505afa1580156122cb573d6000803e3d6000fd5b505050506040513d601f19601f820116820180604052508101906122ef91906137d7565b61ffff168983836123009190614395565b61230a91906142b4565b111561234b576040517f08c379a000000000000000000000000000000000000000000000000000000000815260040161234290613f63565b60405180910390fd5b600082141561237e5760058390806001815401808255809150506001900390600052602060002001600090919091909150555b6000603c804261238e919061430a565b612398919061433b565b905060405180608001604052808b81526020018a81526020018281526020013373ffffffffffffffffffffffffffffffffffffffff168152506002600086815260200190815260200160002060008201518160000155602082015181600101556040820151816002015560608201518160030160006101000a81548173ffffffffffffffffffffffffffffffffffffffff021916908373ffffffffffffffffffffffffffffffffffffffff160217905550905050888a7f2eef226398f000ec33af3b3be58878356d5c7b195bff89de5067bbfe7d2ee4a33360405161247d9190613e18565b60405180910390a350505050505050505050565b612499613412565b600160008381526020019081526020016000206040518060a00160405290816000820154815260200160018201548152602001600282015481526020016003820160009054906101000a900473ffffffffffffffffffffffffffffffffffffffff1673ffffffffffffffffffffffffffffffffffffffff1673ffffffffffffffffffffffffffffffffffffffff1681526020016003820160149054906101000a900460ff1615151515815250509050919050565b60085481565b600080600e80549050905060008111156125d857600d6000600e6001600e8054905061257f9190614395565b815481106125b6577f4e487b7100000000000000000000000000000000000000000000000000000000600052603260045260246000fd5b90600052602060002001548152602001908152602001600020549150506125de565b60009150505b90565b600481815481106125f157600080fd5b906000526020600020016000915090505481565b60016020528060005260406000206000915090508060000154908060010154908060020154908060030160009054906101000a900473ffffffffffffffffffffffffffffffffffffffff16908060030160149054906101000a900460ff16905085565b612670613412565b60016000600960008581526020019081526020016000205481526020019081526020016000206040518060a00160405290816000820154815260200160018201548152602001600282015481526020016003820160009054906101000a900473ffffffffffffffffffffffffffffffffffffffff1673ffffffffffffffffffffffffffffffffffffffff1673ffffffffffffffffffffffffffffffffffffffff1681526020016003820160149054906101000a900460ff1615151515815250509050919050565b33600660009054906101000a900473ffffffffffffffffffffffffffffffffffffffff1673ffffffffffffffffffffffffffffffffffffffff166373b6f1d3826040518263ffffffff1660e01b81526004016127939190613e18565b60206040518083038186803b1580156127ab57600080fd5b505afa1580156127bf573d6000803e3d6000fd5b505050506040513d601f19601f820116820180604052508101906127e391906136f0565b612822576040517f08c379a000000000000000000000000000000000000000000000000000000000815260040161281990613fc3565b60405180910390fd5b8282600854811115801561283857506007548110155b612877576040517f08c379a000000000000000000000000000000000000000000000000000000000815260040161286e90614063565b60405180910390fd5b6001808111156128b0577f4e487b7100000000000000000000000000000000000000000000000000000000600052602160045260246000fd5b600060149054906101000a900460ff1660018111156128f8577f4e487b7100000000000000000000000000000000000000000000000000000000600052602160045260246000fd5b14612938576040517f08c379a000000000000000000000000000000000000000000000000000000000815260040161292f90614003565b60405180910390fd5b600660009054906101000a900473ffffffffffffffffffffffffffffffffffffffff1673ffffffffffffffffffffffffffffffffffffffff1663fe7009f2336040518263ffffffff1660e01b81526004016129939190613e18565b60006040518083038186803b1580156129ab57600080fd5b505afa1580156129bf573d6000803e3d6000fd5b505050506040513d6000823e3d601f19601f820116820180604052508101906129e89190613796565b6060015161ffff16851115612a32576040517f08c379a0000000000000000000000000000000000000000000000000000000008152600401612a2990613fa3565b60405180910390fd5b60003387604051602001612a47929190613dc4565b6040516020818303038152906040528051906020012090506000603c8042612a6f919061430a565b612a79919061433b565b90506040518060a001604052808881526020018781526020018281526020013373ffffffffffffffffffffffffffffffffffffffff168152602001600115158152506001600084815260200190815260200160002060008201518160000155602082015181600101556040820151816002015560608201518160030160006101000a81548173ffffffffffffffffffffffffffffffffffffffff021916908373ffffffffffffffffffffffffffffffffffffffff16021790555060808201518160030160146101000a81548160ff0219169083151502179055509050506000805b600480549050811015612bcf5760048181548110612ba1577f4e487b7100000000000000000000000000000000000000000000000000000000600052603260045260246000fd5b9060005260206000200154841415612bbc5760019150612bcf565b8080612bc7906144f2565b915050612b5a565b5080612bff5760048390806001815401808255809150506001900390600052602060002001600090919091909150555b86887f60e344e47525731fddb78da0406d35494f63a1e7ebb282981fa22ca34f00168c33604051612c309190613e18565b60405180910390a3505050505050505050565b612c4b612e17565b73ffffffffffffffffffffffffffffffffffffffff16612c69611e87565b73ffffffffffffffffffffffffffffffffffffffff1614612cbf576040517f08c379a0000000000000000000000000000000000000000000000000000000008152600401612cb690613fe3565b60405180910390fd5b600073ffffffffffffffffffffffffffffffffffffffff168173ffffffffffffffffffffffffffffffffffffffff161415612d2f576040517f08c379a0000000000000000000000000000000000000000000000000000000008152600401612d2690613f83565b60405180910390fd5b612d3881613310565b50565b606060036000838152602001908152602001600020805480602002602001604051908101604052809291908181526020016000905b82821015612e0c57838290600052602060002090600302016040518060600160405290816000820160009054906101000a900473ffffffffffffffffffffffffffffffffffffffff1673ffffffffffffffffffffffffffffffffffffffff1673ffffffffffffffffffffffffffffffffffffffff1681526020016001820154815260200160028201548152505081526020019060010190612d70565b505050509050919050565b600033905090565b6000805b600580549050811015612eab576002600060058381548110612e6e577f4e487b7100000000000000000000000000000000000000000000000000000000600052603260045260246000fd5b906000526020600020015481526020019081526020016000206000015482612e9691906142b4565b91508080612ea3906144f2565b915050612e23565b50600660009054906101000a900473ffffffffffffffffffffffffffffffffffffffff1673ffffffffffffffffffffffffffffffffffffffff1663442c18f36040518163ffffffff1660e01b815260040160206040518083038186803b158015612f1457600080fd5b505afa158015612f28573d6000803e3d6000fd5b505050506040513d601f19601f82011682018060405250810190612f4c91906137d7565b61ffff168110612f91576040517f08c379a0000000000000000000000000000000000000000000000000000000008152600401612f8890613f63565b60405180910390fd5b6000603c8042612fa1919061430a565b612fab919061433b565b90506000612fb7612553565b905082817f80729185b9d0ece2639d0a570e4e48d0d0bd0afcec4797a8c302f7515b6192f660405160405180910390a382600d600084815260200190815260200160002081905550600e829080600181540180825580915050600190039060005260206000200160009091909190915055505050565b60606000600480548060200260200160405190810160405280929190818152602001828054801561307d57602002820191906000526020600020905b815481526020019060010190808311613069575b5050505050905060008151905060005b8181101561330757600160008483815181106130d2577f4e487b7100000000000000000000000000000000000000000000000000000000600052603260045260246000fd5b6020026020010151815260200190815260200160002060030160149054906101000a900460ff16156132f457600060018261310d91906142b4565b90505b828110156132f25760016000858381518110613155577f4e487b7100000000000000000000000000000000000000000000000000000000600052603260045260246000fd5b6020026020010151815260200190815260200160002060010154600160008685815181106131ac577f4e487b7100000000000000000000000000000000000000000000000000000000600052603260045260246000fd5b602002602001015181526020019081526020016000206001015411156132df576000848381518110613207577f4e487b7100000000000000000000000000000000000000000000000000000000600052603260045260246000fd5b6020026020010151905084828151811061324a577f4e487b7100000000000000000000000000000000000000000000000000000000600052603260045260246000fd5b602002602001015185848151811061328b577f4e487b7100000000000000000000000000000000000000000000000000000000600052603260045260246000fd5b602002602001018181525050808583815181106132d1577f4e487b7100000000000000000000000000000000000000000000000000000000600052603260045260246000fd5b602002602001018181525050505b80806132ea906144f2565b915050613110565b505b80806132ff906144f2565b91505061308d565b50819250505090565b60008060009054906101000a900473ffffffffffffffffffffffffffffffffffffffff169050816000806101000a81548173ffffffffffffffffffffffffffffffffffffffff021916908373ffffffffffffffffffffffffffffffffffffffff1602179055508173ffffffffffffffffffffffffffffffffffffffff168173ffffffffffffffffffffffffffffffffffffffff167f8be0079c531659141344cd1fd0a4f28419497f9722a3daafe3b4186f6b6457e060405160405180910390a35050565b6040518060800160405280600081526020016000815260200160008152602001600073ffffffffffffffffffffffffffffffffffffffff1681525090565b6040518060a00160405280600081526020016000815260200160008152602001600073ffffffffffffffffffffffffffffffffffffffff1681526020016000151581525090565b600061346c613467846141b1565b61418c565b90508281526020810184848401111561348457600080fd5b61348f84828561447f565b509392505050565b60006134aa6134a5846141b1565b61418c565b9050828152602081018484840111156134c257600080fd5b6134cd84828561448e565b509392505050565b6000813590506134e481614855565b92915050565b6000815190506134f981614855565b92915050565b60008135905061350e8161486c565b92915050565b6000815190506135238161486c565b92915050565b60008135905061353881614883565b92915050565b600082601f83011261354f57600080fd5b813561355f848260208601613459565b91505092915050565b600082601f83011261357957600080fd5b8151613589848260208601613497565b91505092915050565b600060a082840312156135a457600080fd5b6135ae60a061418c565b905060006135be848285016134ea565b600083015250602082015167ffffffffffffffff8111156135de57600080fd5b6135ea84828501613568565b60208301525060406135fe84828501613689565b60408301525060606136128482850161364a565b606083015250608082015167ffffffffffffffff81111561363257600080fd5b61363e84828501613568565b60808301525092915050565b6000815190506136598161489a565b92915050565b60008135905061366e816148b1565b92915050565b600081359050613683816148c8565b92915050565b600081519050613698816148c8565b92915050565b6000602082840312156136b057600080fd5b60006136be848285016134d5565b91505092915050565b6000602082840312156136d957600080fd5b60006136e7848285016134ff565b91505092915050565b60006020828403121561370257600080fd5b600061371084828501613514565b91505092915050565b60006020828403121561372b57600080fd5b600061373984828501613529565b91505092915050565b6000806040838503121561375557600080fd5b600083013567ffffffffffffffff81111561376f57600080fd5b61377b8582860161353e565b925050602061378c85828601613674565b9150509250929050565b6000602082840312156137a857600080fd5b600082015167ffffffffffffffff8111156137c257600080fd5b6137ce84828501613592565b91505092915050565b6000602082840312156137e957600080fd5b60006137f78482850161364a565b91505092915050565b60006020828403121561381257600080fd5b60006138208482850161365f565b91505092915050565b6000806040838503121561383c57600080fd5b600061384a8582860161365f565b925050602061385b8582860161365f565b9150509250929050565b60008060006060848603121561387a57600080fd5b600061388886828701613674565b93505060206138998682870161365f565b92505060406138aa8682870161365f565b9150509250925092565b60006138c08383613a69565b60208301905092915050565b60006138d88383613ce5565b60608301905092915050565b60006138f08383613d8f565b60208301905092915050565b613905816143c9565b82525050565b613914816143c9565b82525050565b61392b613926826143c9565b61453b565b82525050565b600061393c82614212565b6139468185614265565b9350613951836141e2565b8060005b8381101561398257815161396988826138b4565b97506139748361423e565b925050600181019050613955565b5085935050505092915050565b600061399a8261421d565b6139a48185614276565b93506139af836141f2565b8060005b838110156139e05781516139c788826138cc565b97506139d28361424b565b9250506001810190506139b3565b5085935050505092915050565b60006139f882614228565b613a028185614287565b9350613a0d83614202565b8060005b83811015613a3e578151613a2588826138e4565b9750613a3083614258565b925050600181019050613a11565b5085935050505092915050565b613a54816143db565b82525050565b613a63816143db565b82525050565b613a72816143e7565b82525050565b613a81816143e7565b82525050565b613a9081614449565b82525050565b613a9f8161446d565b82525050565b6000613ab082614233565b613aba8185614298565b9350613aca81856020860161448e565b613ad38161462d565b840191505092915050565b6000613ae982614233565b613af381856142a9565b9350613b0381856020860161448e565b80840191505092915050565b6000613b1c600e83614298565b9150613b2782614658565b602082019050919050565b6000613b3f601b83614298565b9150613b4a82614681565b602082019050919050565b6000613b62602683614298565b9150613b6d826146aa565b604082019050919050565b6000613b85601f83614298565b9150613b90826146f9565b602082019050919050565b6000613ba8601583614298565b9150613bb382614722565b602082019050919050565b6000613bcb602083614298565b9150613bd68261474b565b602082019050919050565b6000613bee600d83614298565b9150613bf982614774565b602082019050919050565b6000613c11601e83614298565b9150613c1c8261479d565b602082019050919050565b6000613c34601183614298565b9150613c3f826147c6565b602082019050919050565b6000613c57600d83614298565b9150613c62826147ef565b602082019050919050565b6000613c7a601583614298565b9150613c8582614818565b602082019050919050565b608082016000820151613ca66000850182613d8f565b506020820151613cb96020850182613d8f565b506040820151613ccc6040850182613d8f565b506060820151613cdf60608501826138fc565b50505050565b606082016000820151613cfb60008501826138fc565b506020820151613d0e6020850182613d8f565b506040820151613d216040850182613d8f565b50505050565b60a082016000820151613d3d6000850182613d8f565b506020820151613d506020850182613d8f565b506040820151613d636040850182613d8f565b506060820151613d7660608501826138fc565b506080820151613d896080850182613a4b565b50505050565b613d9881614432565b82525050565b613da781614432565b82525050565b613dbe613db98261443c565b61455f565b82525050565b6000613dd0828561391a565b601482019150613de08284613dad565b6001820191508190509392505050565b6000613dfc8285613ade565b9150613e088284613dad565b6001820191508190509392505050565b6000602082019050613e2d600083018461390b565b92915050565b6000606082019050613e48600083018661390b565b613e556020830185613d9e565b613e626040830184613d9e565b949350505050565b60006020820190508181036000830152613e848184613931565b905092915050565b60006020820190508181036000830152613ea6818461398f565b905092915050565b60006020820190508181036000830152613ec881846139ed565b905092915050565b6000602082019050613ee56000830184613a78565b92915050565b6000602082019050613f006000830184613a87565b92915050565b6000602082019050613f1b6000830184613a96565b92915050565b60006020820190508181036000830152613f3b8184613aa5565b905092915050565b60006020820190508181036000830152613f5c81613b0f565b9050919050565b60006020820190508181036000830152613f7c81613b32565b9050919050565b60006020820190508181036000830152613f9c81613b55565b9050919050565b60006020820190508181036000830152613fbc81613b78565b9050919050565b60006020820190508181036000830152613fdc81613b9b565b9050919050565b60006020820190508181036000830152613ffc81613bbe565b9050919050565b6000602082019050818103600083015261401c81613be1565b9050919050565b6000602082019050818103600083015261403c81613c04565b9050919050565b6000602082019050818103600083015261405c81613c27565b9050919050565b6000602082019050818103600083015261407c81613c4a565b9050919050565b6000602082019050818103600083015261409c81613c6d565b9050919050565b60006080820190506140b86000830184613c90565b92915050565b600060a0820190506140d36000830184613d27565b92915050565b60006020820190506140ee6000830184613d9e565b92915050565b60006080820190506141096000830187613d9e565b6141166020830186613d9e565b6141236040830185613d9e565b614130606083018461390b565b95945050505050565b600060a08201905061414e6000830188613d9e565b61415b6020830187613d9e565b6141686040830186613d9e565b614175606083018561390b565b6141826080830184613a5a565b9695505050505050565b60006141966141a7565b90506141a282826144c1565b919050565b6000604051905090565b600067ffffffffffffffff8211156141cc576141cb6145fe565b5b6141d58261462d565b9050602081019050919050565b6000819050602082019050919050565b6000819050602082019050919050565b6000819050602082019050919050565b600081519050919050565b600081519050919050565b600081519050919050565b600081519050919050565b6000602082019050919050565b6000602082019050919050565b6000602082019050919050565b600082825260208201905092915050565b600082825260208201905092915050565b600082825260208201905092915050565b600082825260208201905092915050565b600081905092915050565b60006142bf82614432565b91506142ca83614432565b9250827fffffffffffffffffffffffffffffffffffffffffffffffffffffffffffffffff038211156142ff576142fe614571565b5b828201905092915050565b600061431582614432565b915061432083614432565b9250826143305761432f6145a0565b5b828204905092915050565b600061434682614432565b915061435183614432565b9250817fffffffffffffffffffffffffffffffffffffffffffffffffffffffffffffffff048311821515161561438a57614389614571565b5b828202905092915050565b60006143a082614432565b91506143ab83614432565b9250828210156143be576143bd614571565b5b828203905092915050565b60006143d482614412565b9050919050565b60008115159050919050565b6000819050919050565b60008190506143ff82614841565b919050565b600061ffff82169050919050565b600073ffffffffffffffffffffffffffffffffffffffff82169050919050565b6000819050919050565b600060ff82169050919050565b60006144548261445b565b9050919050565b600061446682614412565b9050919050565b6000614478826143f1565b9050919050565b82818337600083830152505050565b60005b838110156144ac578082015181840152602081019050614491565b838111156144bb576000848401525b50505050565b6144ca8261462d565b810181811067ffffffffffffffff821117156144e9576144e86145fe565b5b80604052505050565b60006144fd82614432565b91507fffffffffffffffffffffffffffffffffffffffffffffffffffffffffffffffff8214156145305761452f614571565b5b600182019050919050565b60006145468261454d565b9050919050565b60006145588261464b565b9050919050565b600061456a8261463e565b9050919050565b7f4e487b7100000000000000000000000000000000000000000000000000000000600052601160045260246000fd5b7f4e487b7100000000000000000000000000000000000000000000000000000000600052601260045260246000fd5b7f4e487b7100000000000000000000000000000000000000000000000000000000600052602160045260246000fd5b7f4e487b7100000000000000000000000000000000000000000000000000000000600052604160045260246000fd5b6000601f19601f8301169050919050565b60008160f81b9050919050565b60008160601b9050919050565b7f42696464696e6720636c6f736564000000000000000000000000000000000000600082015250565b7f44656d616e64206578636565647320746f74616c20737570706c790000000000600082015250565b7f4f776e61626c653a206e6577206f776e657220697320746865207a65726f206160008201527f6464726573730000000000000000000000000000000000000000000000000000602082015250565b7f4f66666572656420616d6f756e74206578636565647320636170616369747900600082015250565b7f556e7265676973746572656420737570706c6965720000000000000000000000600082015250565b7f4f776e61626c653a2063616c6c6572206973206e6f7420746865206f776e6572600082015250565b7f4d61726b657420636c6f73656400000000000000000000000000000000000000600082015250565b7f43616e6e6f74207375626d6974206f6666657220666f72206f74686572730000600082015250565b7f486f7572206973206e6f742076616c6964000000000000000000000000000000600082015250565b7f496e76616c696420707269636500000000000000000000000000000000000000600082015250565b7f556e7265676973746572656420636f6e73756d65720000000000000000000000600082015250565b60028110614852576148516145cf565b5b50565b61485e816143c9565b811461486957600080fd5b50565b614875816143db565b811461488057600080fd5b50565b61488c816143e7565b811461489757600080fd5b50565b6148a381614404565b81146148ae57600080fd5b50565b6148ba81614432565b81146148c557600080fd5b50565b6148d18161443c565b81146148dc57600080fd5b5056fea26469706673582212201a2c8319a2342d3823d442dcdf8d75a9f15bf97e2690ece9baa7b4ac0405742764736f6c63430008040033",
  "linkReferences": {},
  "deployedLinkReferences": {}
}