{
    "_format": "hh-sol-artifact-1",
    "contractName": "PoolMarket",
    "sourceName": "contracts/PoolMarket.sol",
    "abi": [
        {
            "inputs": [
                {
                    "internalType": "address",
                    "name": "_registryContractAddress",
                    "type": "address"
                },
                {
                    "internalType": "uint256",
                    "name": "_minAllowedPrice",
                    "type": "uint256"
                },
                {
                    "internalType": "uint256",
                    "name": "_maxAllowedPrice",
                    "type": "uint256"
                }
            ],
            "stateMutability": "nonpayable",
            "type": "constructor"
        },
        {
            "anonymous": false,
            "inputs": [
                {
                    "indexed": true,
                    "internalType": "uint256",
                    "name": "amount",
                    "type": "uint256"
                },
                {
                    "indexed": true,
                    "internalType": "uint256",
                    "name": "price",
                    "type": "uint256"
                },
                {
                    "indexed": false,
                    "internalType": "address",
                    "name": "sender",
                    "type": "address"
                }
            ],
            "name": "BidSubmitted",
            "type": "event"
        },
        {
            "anonymous": false,
            "inputs": [
                {
                    "indexed": true,
                    "internalType": "uint256",
                    "name": "amount",
                    "type": "uint256"
                },
                {
                    "indexed": true,
                    "internalType": "uint256",
                    "name": "price",
                    "type": "uint256"
                },
                {
                    "indexed": false,
                    "internalType": "address",
                    "name": "sender",
                    "type": "address"
                }
            ],
            "name": "OfferSubmitted",
            "type": "event"
        },
        {
            "anonymous": false,
            "inputs": [
                {
                    "indexed": true,
                    "internalType": "address",
                    "name": "previousOwner",
                    "type": "address"
                },
                {
                    "indexed": true,
                    "internalType": "address",
                    "name": "newOwner",
                    "type": "address"
                }
            ],
            "name": "OwnershipTransferred",
            "type": "event"
        },
        {
            "inputs": [
                {
                    "internalType": "uint256",
                    "name": "hour",
                    "type": "uint256"
                }
            ],
            "name": "calculatePoolPrice",
            "outputs": [],
            "stateMutability": "nonpayable",
            "type": "function"
        },
        {
            "inputs": [],
            "name": "calculateSMP",
            "outputs": [],
            "stateMutability": "nonpayable",
            "type": "function"
        },
        {
            "inputs": [
                {
                    "internalType": "bytes32",
                    "name": "",
                    "type": "bytes32"
                }
            ],
            "name": "energyOffers",
            "outputs": [
                {
                    "internalType": "uint256",
                    "name": "amount",
                    "type": "uint256"
                },
                {
                    "internalType": "uint256",
                    "name": "price",
                    "type": "uint256"
                },
                {
                    "internalType": "uint256",
                    "name": "submitMinute",
                    "type": "uint256"
                },
                {
                    "internalType": "address",
                    "name": "supplierAccount",
                    "type": "address"
                }
            ],
            "stateMutability": "view",
            "type": "function"
        },
        {
            "inputs": [],
            "name": "getBidHours",
            "outputs": [
                {
                    "internalType": "uint256[]",
                    "name": "",
                    "type": "uint256[]"
                }
            ],
            "stateMutability": "view",
            "type": "function"
        },
        {
            "inputs": [
                {
                    "internalType": "uint256",
                    "name": "hour",
                    "type": "uint256"
                }
            ],
            "name": "getDispatchedOffers",
            "outputs": [
                {
                    "components": [
                        {
                            "internalType": "address",
                            "name": "supplierAccount",
                            "type": "address"
                        },
                        {
                            "internalType": "uint256",
                            "name": "dispatchedAmount",
                            "type": "uint256"
                        },
                        {
                            "internalType": "uint256",
                            "name": "dispatchedAt",
                            "type": "uint256"
                        }
                    ],
                    "internalType": "struct IMarket.DispatchedOffer[]",
                    "name": "",
                    "type": "tuple[]"
                }
            ],
            "stateMutability": "view",
            "type": "function"
        },
        {
            "inputs": [
                {
                    "internalType": "uint256",
                    "name": "hour",
                    "type": "uint256"
                }
            ],
            "name": "getEnergyBids",
            "outputs": [
                {
                    "components": [
                        {
                            "internalType": "uint256",
                            "name": "amount",
                            "type": "uint256"
                        },
                        {
                            "internalType": "uint256",
                            "name": "price",
                            "type": "uint256"
                        },
                        {
                            "internalType": "uint256",
                            "name": "submitMinute",
                            "type": "uint256"
                        },
                        {
                            "internalType": "address",
                            "name": "consumerAccount",
                            "type": "address"
                        }
                    ],
                    "internalType": "struct PoolMarket.Bid[]",
                    "name": "",
                    "type": "tuple[]"
                }
            ],
            "stateMutability": "view",
            "type": "function"
        },
        {
            "inputs": [],
            "name": "getLatestTotalDemand",
            "outputs": [
                {
                    "internalType": "uint256",
                    "name": "",
                    "type": "uint256"
                }
            ],
            "stateMutability": "view",
            "type": "function"
        },
        {
            "inputs": [
                {
                    "internalType": "uint256",
                    "name": "minute",
                    "type": "uint256"
                }
            ],
            "name": "getMarginalOffer",
            "outputs": [
                {
                    "components": [
                        {
                            "internalType": "uint256",
                            "name": "amount",
                            "type": "uint256"
                        },
                        {
                            "internalType": "uint256",
                            "name": "price",
                            "type": "uint256"
                        },
                        {
                            "internalType": "uint256",
                            "name": "submitMinute",
                            "type": "uint256"
                        },
                        {
                            "internalType": "address",
                            "name": "supplierAccount",
                            "type": "address"
                        }
                    ],
                    "internalType": "struct PoolMarket.Offer",
                    "name": "",
                    "type": "tuple"
                }
            ],
            "stateMutability": "view",
            "type": "function"
        },
        {
            "inputs": [
                {
                    "internalType": "uint256",
                    "name": "hour",
                    "type": "uint256"
                }
            ],
            "name": "getPoolPrice",
            "outputs": [
                {
                    "internalType": "uint256",
                    "name": "",
                    "type": "uint256"
                }
            ],
            "stateMutability": "view",
            "type": "function"
        },
        {
            "inputs": [],
            "name": "getPoolpriceHours",
            "outputs": [
                {
                    "internalType": "uint256[]",
                    "name": "",
                    "type": "uint256[]"
                }
            ],
            "stateMutability": "view",
            "type": "function"
        },
        {
            "inputs": [
                {
                    "internalType": "uint256",
                    "name": "minute",
                    "type": "uint256"
                }
            ],
            "name": "getSMP",
            "outputs": [
                {
                    "internalType": "uint256",
                    "name": "",
                    "type": "uint256"
                }
            ],
            "stateMutability": "view",
            "type": "function"
        },
        {
            "inputs": [],
            "name": "getSystemMarginalMinutes",
            "outputs": [
                {
                    "internalType": "uint256[]",
                    "name": "",
                    "type": "uint256[]"
                }
            ],
            "stateMutability": "view",
            "type": "function"
        },
        {
            "inputs": [],
            "name": "getTotalDemandMinutes",
            "outputs": [
                {
                    "internalType": "uint256[]",
                    "name": "",
                    "type": "uint256[]"
                }
            ],
            "stateMutability": "view",
            "type": "function"
        },
        {
            "inputs": [],
            "name": "getValidOfferIDs",
            "outputs": [
                {
                    "internalType": "bytes32[]",
                    "name": "",
                    "type": "bytes32[]"
                }
            ],
            "stateMutability": "view",
            "type": "function"
        },
        {
            "inputs": [],
            "name": "maxAllowedPrice",
            "outputs": [
                {
                    "internalType": "uint256",
                    "name": "",
                    "type": "uint256"
                }
            ],
            "stateMutability": "view",
            "type": "function"
        },
        {
            "inputs": [],
            "name": "minAllowedPrice",
            "outputs": [
                {
                    "internalType": "uint256",
                    "name": "",
                    "type": "uint256"
                }
            ],
            "stateMutability": "view",
            "type": "function"
        },
        {
            "inputs": [],
            "name": "owner",
            "outputs": [
                {
                    "internalType": "address",
                    "name": "",
                    "type": "address"
                }
            ],
            "stateMutability": "view",
            "type": "function"
        },
        {
            "inputs": [],
            "name": "renounceOwnership",
            "outputs": [],
            "stateMutability": "nonpayable",
            "type": "function"
        },
        {
            "inputs": [
                {
                    "internalType": "uint256",
                    "name": "_amount",
                    "type": "uint256"
                },
                {
                    "internalType": "uint256",
                    "name": "_price",
                    "type": "uint256"
                }
            ],
            "name": "submitBid",
            "outputs": [],
            "stateMutability": "nonpayable",
            "type": "function"
        },
        {
            "inputs": [
                {
                    "internalType": "uint8",
                    "name": "blockNumber",
                    "type": "uint8"
                },
                {
                    "internalType": "uint256",
                    "name": "amount",
                    "type": "uint256"
                },
                {
                    "internalType": "uint256",
                    "name": "price",
                    "type": "uint256"
                }
            ],
            "name": "submitOffer",
            "outputs": [],
            "stateMutability": "nonpayable",
            "type": "function"
        },
        {
            "inputs": [
                {
                    "internalType": "uint256",
                    "name": "",
                    "type": "uint256"
                }
            ],
            "name": "systemMarginalOfferIDs",
            "outputs": [
                {
                    "internalType": "bytes32",
                    "name": "",
                    "type": "bytes32"
                }
            ],
            "stateMutability": "view",
            "type": "function"
        },
        {
            "inputs": [
                {
                    "internalType": "uint256",
                    "name": "",
                    "type": "uint256"
                }
            ],
            "name": "totalDemands",
            "outputs": [
                {
                    "internalType": "uint256",
                    "name": "",
                    "type": "uint256"
                }
            ],
            "stateMutability": "view",
            "type": "function"
        },
        {
            "inputs": [
                {
                    "internalType": "address",
                    "name": "newOwner",
                    "type": "address"
                }
            ],
            "name": "transferOwnership",
            "outputs": [],
            "stateMutability": "nonpayable",
            "type": "function"
        }
    ],
    "bytecode": "0x6080346100b957601f611a3938819003918201601f19168301916001600160401b038311848410176100be578084926060946040528339810103126100b95780516001600160a01b0391828216918290036100b957604060208201519101519160005460018060a01b0319903382821617600055604051953391167f8be0079c531659141344cd1fd0a4f28419497f9722a3daafe3b4186f6b6457e0600080a3600654161760065560075560085561196490816100d58239f35b600080fd5b634e487b7160e01b600052604160045260246000fdfe60406080815260048036101561001457600080fd5b600090813560e01c8062f04902146114c957806314bacef71461141657806321dfca171461111f578063238a1cc314610ebd57806325f8a08d14610e445780634c5140a514610e1b578063696e2c0f14610de6578063715018a614610d9e57806383f1444d14610d375780638da5cb5b14610d0f5780639af94f3014610ce6578063a133245b14610cc7578063b2f1223814610c9e578063b5b66e1214610c25578063b821da1b146107cc578063cab0fb73146107ad578063d71a60c014610789578063e178854414610717578063ec6eaf62146106c3578063ef2d09f914610662578063f17e6a70146102c3578063f2fde38b1461020b5763f790825d1461011c57600080fd5b346102075760209081600319360112610203578092919235825282528281209081546101478161190c565b9061015486519283611693565b8082528482018094845285842084915b8383106101c05750505050845193808501918186525180925285850193925b8281106101905785850386f35b835180516001600160a01b0316865280830151868401528701518786015260609094019392810192600101610183565b6003886001928b9a97989a516101d581611647565b848060a01b038654168152848601548382015260028601548d82015281520192019201919096949396610164565b8280fd5b5080fd5b508234610203576020366003190112610203576001600160a01b038235818116939192908490036102bf5761023e6115ef565b831561026d57505082546001600160a01b0319811683178455166000805160206119448339815191528380a380f35b906020608492519162461bcd60e51b8352820152602660248201527f4f776e61626c653a206e6577206f776e657220697320746865207a65726f206160448201526564647265737360d01b6064820152fd5b8480fd5b508234610203576060918260031936011261065e5780359160ff831683036102bf5760065481516373b6f1d360e01b815233818501526044359560248035966020969094919390916001600160a01b03919082169088818781855afa908115610654578c91610627575b50156105ed578a85916008548c1115806105e1575b61034b906116d3565b8851637f3804f960e11b8152338682015292839182905afa9081156105d7579084918c916104fa575b5061ffff925001511687116104c757845133831b87820190815260f89590951b6001600160f81b031916603482015260158152808601949092906001600160401b038611848710176104b5578587528351902093848b52600188526002878c20015415610463575b603c420492603c840293808504603c14901517156104525750509161044a939189869461042b7f60e344e47525731fddb78da0406d35494f63a1e7ebb282981fa22ca34f00168c9a9998611678565b8a8652830152608082015260a0339101528852600184528288206117d7565b51338152a380f35b634e487b7160e01b8c52601190528afd5b600554600160401b8110156104a357600181018060055581101561049157859060058d52898d2001556103dc565b50634e487b7160e01b8b52603283528afd5b50634e487b7160e01b8b52604183528afd5b634e487b7160e01b8b5260418352848bfd5b845162461bcd60e51b8152908101869052600e818401526d125b9d985b1a5908185b5bdd5b9d60921b6044820152606490fd5b9150503d808c833e61050c8183611693565b81019188828403126105d35781516001600160401b03928382116105bd570160a0818503126105b95788519160a08301838110858211176105c1578a52815190811681036105bd578252898101518381116105bd578461056d91830161170f565b8a8301528881015160ff811681036105bd578983015261058e86820161177f565b8683015260808101519283116105b95761ffff9386936105ae920161170f565b60808201528c610374565b8c80fd5b8d80fd5b634e487b7160e01b8f5260418752888ffd5b8b80fd5b87513d8d823e3d90fd5b506007548c1015610342565b865162461bcd60e51b8152808401899052601581870152742ab73932b3b4b9ba32b932b21039bab8383634b2b960591b6044820152606490fd5b6106479150893d8b1161064d575b61063f8183611693565b8101906116b6565b8c61032d565b503d610635565b88513d8e823e3d90fd5b8380fd5b50829034610203576020366003190112610203576106b882846106c1936080966060845161068f81611678565b8281528260208201528286820152015235815260096020528181205481526001602052206118d1565b91518092611588565bf35b5082903461020357602036600319011261020357608092829135815260016020522090815491600181015491600282015491600360018060a01b039101541692815194855260208501528301526060820152f35b828434610207578160031936011261020757338252602090600282528083209281518093808654928381520195835280832092905b8282106107725761076e8686610764828b0383611693565b51918291826115b4565b0390f35b83548752958601956001938401939091019061074c565b8284346102075781600319360112610207576020906107a661188a565b9051908152f35b8284346102075781600319360112610207576020906008549051908152f35b509034610c225782600319360112610c2257600654835163b2a89e1560e01b815233818501526001600160a01b03946024803593863593602093929184908290849082908d165afa908115610c18578791610bfb575b5015610bc25760085485111580610bb6575b61083d906116d3565b610e109687420488810298818a041490151715610ba557603c420491603c830292808404603c1490151715610b9457873389526002865284892080548015159182610b6c575b505015610b045750888852600398898652848920549a6000199b8c8101908111610af2575b828b528b88526108ba81888d2061183e565b508c0154821633146108cd578c016108a8565b90929496989a8a9c50826108ea939597999b528952878c2061183e565b50545b886108f661188a565b848d5260038a52888d205415610aeb575b01818110610ab2578591899103926006541688519283809263442c18f360e01b82525afa80156105d7578b90610a78575b61ffff9150168111610a3857848a52600d8752858a2055600e54600160401b919082811015610a26576001810180600e55811015610a14578590600e8c52888c20015589526003865284892085519461099086611678565b888652898887015286860152336060860152805491821015610a0257906109bc9160018201815561183e565b9290926109f25750507f2eef226398f000ec33af3b3be58878356d5c7b195bff89de5067bbfe7d2ee4a393929161044a916117d7565b634e487b7160e01b895288905287fd5b634e487b7160e01b8a5260418452828afd5b634e487b7160e01b8b5260328552838bfd5b634e487b7160e01b8b5260418552838bfd5b855162461bcd60e51b8152808501889052601b818501527a44656d616e64206578636565647320746f74616c20737570706c7960281b6044820152606490fd5b508781813d8311610aab575b610a8e8183611693565b81010312610aa757610aa261ffff9161177f565b610938565b8a80fd5b503d610a84565b875162461bcd60e51b81528087018a90526014818701527327bb32b9333637bb9036b0bc103ab4b73a191a9b60611b6044820152606490fd5b508b610907565b634e487b7160e01b8b5260118552838bfd5b9990929496989193959799338b5260028852868b20805490600160401b821015610b5a57610b3c82610b5392600188950181556117bf565b819391549060031b91821b91600019901b19161790565b90556108ed565b634e487b7160e01b8d5260418752858dfd5b60001982019250908211610af2578b91610b85916117bf565b90549060031b1c143880610883565b634e487b7160e01b88526011825287fd5b634e487b7160e01b87526011905285fd5b50600754851015610834565b6015906064938893519362461bcd60e51b8552840152820152742ab73932b3b4b9ba32b932b21031b7b739bab6b2b960591b6044820152fd5b610c129150843d861161064d5761063f8183611693565b38610822565b83513d89823e3d90fd5b80fd5b505034610c225780600319360112610c22578151600c805480835290835260208083019492937fdf6966c971051c3d54ec59162606531493a51404a002842f56009d7e5cf4a8c792915b828210610c875761076e8686610764828b0383611693565b835487529586019560019384019390910190610c6f565b50829034610203576020366003190112610203576020928291358152600d845220549051908152f35b8284346102075781600319360112610207576020906007549051908152f35b50829034610203576020366003190112610203576020928291358152600a845220549051908152f35b828434610207578160031936011261020757905490516001600160a01b039091168152602090f35b505034610c225780600319360112610c22578151600e8054808352908352602080830194929360008051602061192483398151915292915b828210610d875761076e8686610764828b0383611693565b835487529586019560019384019390910190610d6f565b8234610c225780600319360112610c2257610db76115ef565b80546001600160a01b03198116825581906001600160a01b03166000805160206119448339815191528280a380f35b508290346102035760203660031901126102035781602093600192358152600985528181205481528285522001549051908152f35b508290346102035760203660031901126102035760209282913581526009845220549051908152f35b505034610c225780600319360112610c22578151600b805480835290835260208083019492937f0175b7a638427703f0dbe7bb9bbf987a2551717b34e79f33b5b1008d1fa01db992915b828210610ea65761076e8686610764828b0383611693565b835487529586019560019384019390910190610e8e565b508290346102035760208060031936011261065e57813592610edd6115ef565b428410156110ea578485600b54905b818110610f55575050603c90858752600a84520490852055600c5491600160401b831015610f42576001830180600c55831015610f2f5750600c84528320015580f35b634e487b7160e01b855260329052602484fd5b634e487b7160e01b855260419052602484fd5b610f5e8161178e565b9054600391821b1c88811015806110d6575b610f85575b5050610f809061185a565b610eec565b8952600986528489205489526001808752858a208101549294919060001985018581116110c3578a90871080611080575b1561103d5750850180861161102a57603c91610fd4610fef9261178e565b905490821b1c90610fe48861178e565b9054911b1c9061181b565b04915b82810292818404149015171561101757610f809161100f9161187d565b929089610f75565b634e487b7160e01b895260118752602489fd5b634e487b7160e01b8b526011895260248bfd5b91905061105d61104c8761178e565b939092603c94859454911b1c61181b565b04810390811161106d5791610ff2565b634e487b7160e01b8a526011885260248afd5b50508086018087116110c3576110959061178e565b9054610e108c0191841b1c818c116110b057908b9110610fb6565b634e487b7160e01b8d5260118b5260248dfd5b634e487b7160e01b8c5260118a5260248cfd5b50610e108901808a1161102a578110610f70565b5162461bcd60e51b8152918201526011602482015270121bdd5c881a5cc81b9bdd081d985b1a59607a1b604482015260649150fd5b5082346102035782600319360112610203576111396115ef565b610e10918242048381029381850414901517156114035782845260209060038252828520541515806113f8575b61116e578480f35b849161117861188a565b93805194858684600554928381520160058b52858b20928b5b878282106113e2575050506111a892500387611693565b8551885b818110611333575050875b8651811015611326576111ca8188611869565b51895260018452828920600301546001600160a01b03969087166111ee838a611869565b518b5260018652611203858c2054809361187d565b978a8c52878752858c209286519261121a84611647565b8352878301908152868301914283528454600160401b958682101561131257600182018082558210156112fe57908f8b81600297969594600393522091020194511660018060a01b0319855416178455516001840155519101558287101561128b57506112869061185a565b6111b7565b969750919293945050603c958642048781029781890414901517156112eb576009916112b691611869565b519286885252852055600b90815492831015610f42575081610b3c9160016112e09401905561178e565b90555b818080808480f35b634e487b7160e01b885260118552602488fd5b50634e487b7160e01b8f5260328b5260248ffd5b50634e487b7160e01b8f5260418b5260248ffd5b50505050505050506112e3565b60018082018083116113cf575b89868d86841061135d5750505050506113589061185a565b6111ac565b8291859161136f886113989796611869565b518152828c526113858584848420015495611869565b518152828c522001541061139d5761185a565b611340565b6113a7848c611869565b518b6113be866113b78584611869565b5192611869565b526113c9828d611869565b5261185a565b634e487b7160e01b8c526011885260248cfd5b855484526001958601958c955093019201611191565b506005541515611166565b634e487b7160e01b845260119052602483fd5b505034610c225780600319360112610c22578151600580548083529083526020939284830192909183907f036b6384b5eca791c62761152d0c79bb0604c104a5fb6f4eb0703f3154bb3db090845b8181106114b5575050508161147a910382611693565b83519485948186019282875251809352850193925b82811061149e57505050500390f35b83518552869550938101939281019260010161148f565b825484529288019260019283019201611464565b508290346102035760208060031936011261065e579080358452600382528284209182546114f68161190c565b9261150386519485611693565b8184528284018095885283882088915b8483106115625750505050508351938185019282865251809352840192945b82811061153f5784840385f35b909192826080826115536001948a51611588565b01960191019492919094611532565b8386600192611575859d999a9b9d6118d1565b8152019201920191909896959498611513565b8051825260208082015190830152604080820151908301526060908101516001600160a01b0316910152565b6020908160408183019282815285518094520193019160005b8281106115db575050505090565b8351855293810193928101926001016115cd565b6000546001600160a01b0316330361160357565b606460405162461bcd60e51b815260206004820152602060248201527f4f776e61626c653a2063616c6c6572206973206e6f7420746865206f776e65726044820152fd5b606081019081106001600160401b0382111761166257604052565b634e487b7160e01b600052604160045260246000fd5b608081019081106001600160401b0382111761166257604052565b601f909101601f19168101906001600160401b0382119082101761166257604052565b908160209103126116ce575180151581036116ce5790565b600080fd5b156116da57565b60405162461bcd60e51b815260206004820152600d60248201526c496e76616c696420707269636560981b6044820152606490fd5b919080601f840112156116ce578251906001600160401b0382116116625760405191602091611747601f8301601f1916840185611693565b8184528282870101116116ce5760005b81811061176c57508260009394955001015290565b8581018301518482018401528201611757565b519061ffff821682036116ce57565b600b548110156117a957600b60005260206000200190600090565b634e487b7160e01b600052603260045260246000fd5b80548210156117a95760005260206000200190600090565b81518155602082015160018201556040820151600282015560609091015160039190910180546001600160a01b0319166001600160a01b0392909216919091179055565b9190820391821161182857565b634e487b7160e01b600052601160045260246000fd5b80548210156117a95760005260206000209060021b0190600090565b60001981146118285760010190565b80518210156117a95760209160051b010190565b9190820180921161182857565b600e54806118985750600090565b60001990808201818111611828578111156117a9570160008051602061192483398151915201546000908152600d602052604090205490565b906040516118de81611678565b8254815260018301546020820152600283015460408201526003909201546001600160a01b03166060830152565b6001600160401b0381116116625760051b6020019056febb7b4a454dc3493923482f07822329ed19e8244eff582cc204f8554c3620c3fd8be0079c531659141344cd1fd0a4f28419497f9722a3daafe3b4186f6b6457e0",
    "linkReferences": {},
    "deployedLinkReferences": {},
    "default": {
        "_format": "hh-sol-artifact-1",
        "contractName": "PoolMarket",
        "sourceName": "contracts/PoolMarket.sol",
        "abi": [
            {
                "inputs": [
                    {
                        "internalType": "address",
                        "name": "_registryContractAddress",
                        "type": "address"
                    },
                    {
                        "internalType": "uint256",
                        "name": "_minAllowedPrice",
                        "type": "uint256"
                    },
                    {
                        "internalType": "uint256",
                        "name": "_maxAllowedPrice",
                        "type": "uint256"
                    }
                ],
                "stateMutability": "nonpayable",
                "type": "constructor"
            },
            {
                "anonymous": false,
                "inputs": [
                    {
                        "indexed": true,
                        "internalType": "uint256",
                        "name": "amount",
                        "type": "uint256"
                    },
                    {
                        "indexed": true,
                        "internalType": "uint256",
                        "name": "price",
                        "type": "uint256"
                    },
                    {
                        "indexed": false,
                        "internalType": "address",
                        "name": "sender",
                        "type": "address"
                    }
                ],
                "name": "BidSubmitted",
                "type": "event"
            },
            {
                "anonymous": false,
                "inputs": [
                    {
                        "indexed": true,
                        "internalType": "uint256",
                        "name": "amount",
                        "type": "uint256"
                    },
                    {
                        "indexed": true,
                        "internalType": "uint256",
                        "name": "price",
                        "type": "uint256"
                    },
                    {
                        "indexed": false,
                        "internalType": "address",
                        "name": "sender",
                        "type": "address"
                    }
                ],
                "name": "OfferSubmitted",
                "type": "event"
            },
            {
                "anonymous": false,
                "inputs": [
                    {
                        "indexed": true,
                        "internalType": "address",
                        "name": "previousOwner",
                        "type": "address"
                    },
                    {
                        "indexed": true,
                        "internalType": "address",
                        "name": "newOwner",
                        "type": "address"
                    }
                ],
                "name": "OwnershipTransferred",
                "type": "event"
            },
            {
                "inputs": [
                    {
                        "internalType": "uint256",
                        "name": "hour",
                        "type": "uint256"
                    }
                ],
                "name": "calculatePoolPrice",
                "outputs": [],
                "stateMutability": "nonpayable",
                "type": "function"
            },
            {
                "inputs": [],
                "name": "calculateSMP",
                "outputs": [],
                "stateMutability": "nonpayable",
                "type": "function"
            },
            {
                "inputs": [
                    {
                        "internalType": "bytes32",
                        "name": "",
                        "type": "bytes32"
                    }
                ],
                "name": "energyOffers",
                "outputs": [
                    {
                        "internalType": "uint256",
                        "name": "amount",
                        "type": "uint256"
                    },
                    {
                        "internalType": "uint256",
                        "name": "price",
                        "type": "uint256"
                    },
                    {
                        "internalType": "uint256",
                        "name": "submitMinute",
                        "type": "uint256"
                    },
                    {
                        "internalType": "address",
                        "name": "supplierAccount",
                        "type": "address"
                    }
                ],
                "stateMutability": "view",
                "type": "function"
            },
            {
                "inputs": [],
                "name": "getBidHours",
                "outputs": [
                    {
                        "internalType": "uint256[]",
                        "name": "",
                        "type": "uint256[]"
                    }
                ],
                "stateMutability": "view",
                "type": "function"
            },
            {
                "inputs": [
                    {
                        "internalType": "uint256",
                        "name": "hour",
                        "type": "uint256"
                    }
                ],
                "name": "getDispatchedOffers",
                "outputs": [
                    {
                        "components": [
                            {
                                "internalType": "address",
                                "name": "supplierAccount",
                                "type": "address"
                            },
                            {
                                "internalType": "uint256",
                                "name": "dispatchedAmount",
                                "type": "uint256"
                            },
                            {
                                "internalType": "uint256",
                                "name": "dispatchedAt",
                                "type": "uint256"
                            }
                        ],
                        "internalType": "struct IMarket.DispatchedOffer[]",
                        "name": "",
                        "type": "tuple[]"
                    }
                ],
                "stateMutability": "view",
                "type": "function"
            },
            {
                "inputs": [
                    {
                        "internalType": "uint256",
                        "name": "hour",
                        "type": "uint256"
                    }
                ],
                "name": "getEnergyBids",
                "outputs": [
                    {
                        "components": [
                            {
                                "internalType": "uint256",
                                "name": "amount",
                                "type": "uint256"
                            },
                            {
                                "internalType": "uint256",
                                "name": "price",
                                "type": "uint256"
                            },
                            {
                                "internalType": "uint256",
                                "name": "submitMinute",
                                "type": "uint256"
                            },
                            {
                                "internalType": "address",
                                "name": "consumerAccount",
                                "type": "address"
                            }
                        ],
                        "internalType": "struct PoolMarket.Bid[]",
                        "name": "",
                        "type": "tuple[]"
                    }
                ],
                "stateMutability": "view",
                "type": "function"
            },
            {
                "inputs": [],
                "name": "getLatestTotalDemand",
                "outputs": [
                    {
                        "internalType": "uint256",
                        "name": "",
                        "type": "uint256"
                    }
                ],
                "stateMutability": "view",
                "type": "function"
            },
            {
                "inputs": [
                    {
                        "internalType": "uint256",
                        "name": "minute",
                        "type": "uint256"
                    }
                ],
                "name": "getMarginalOffer",
                "outputs": [
                    {
                        "components": [
                            {
                                "internalType": "uint256",
                                "name": "amount",
                                "type": "uint256"
                            },
                            {
                                "internalType": "uint256",
                                "name": "price",
                                "type": "uint256"
                            },
                            {
                                "internalType": "uint256",
                                "name": "submitMinute",
                                "type": "uint256"
                            },
                            {
                                "internalType": "address",
                                "name": "supplierAccount",
                                "type": "address"
                            }
                        ],
                        "internalType": "struct PoolMarket.Offer",
                        "name": "",
                        "type": "tuple"
                    }
                ],
                "stateMutability": "view",
                "type": "function"
            },
            {
                "inputs": [
                    {
                        "internalType": "uint256",
                        "name": "hour",
                        "type": "uint256"
                    }
                ],
                "name": "getPoolPrice",
                "outputs": [
                    {
                        "internalType": "uint256",
                        "name": "",
                        "type": "uint256"
                    }
                ],
                "stateMutability": "view",
                "type": "function"
            },
            {
                "inputs": [],
                "name": "getPoolpriceHours",
                "outputs": [
                    {
                        "internalType": "uint256[]",
                        "name": "",
                        "type": "uint256[]"
                    }
                ],
                "stateMutability": "view",
                "type": "function"
            },
            {
                "inputs": [
                    {
                        "internalType": "uint256",
                        "name": "minute",
                        "type": "uint256"
                    }
                ],
                "name": "getSMP",
                "outputs": [
                    {
                        "internalType": "uint256",
                        "name": "",
                        "type": "uint256"
                    }
                ],
                "stateMutability": "view",
                "type": "function"
            },
            {
                "inputs": [],
                "name": "getSystemMarginalMinutes",
                "outputs": [
                    {
                        "internalType": "uint256[]",
                        "name": "",
                        "type": "uint256[]"
                    }
                ],
                "stateMutability": "view",
                "type": "function"
            },
            {
                "inputs": [],
                "name": "getTotalDemandMinutes",
                "outputs": [
                    {
                        "internalType": "uint256[]",
                        "name": "",
                        "type": "uint256[]"
                    }
                ],
                "stateMutability": "view",
                "type": "function"
            },
            {
                "inputs": [],
                "name": "getValidOfferIDs",
                "outputs": [
                    {
                        "internalType": "bytes32[]",
                        "name": "",
                        "type": "bytes32[]"
                    }
                ],
                "stateMutability": "view",
                "type": "function"
            },
            {
                "inputs": [],
                "name": "maxAllowedPrice",
                "outputs": [
                    {
                        "internalType": "uint256",
                        "name": "",
                        "type": "uint256"
                    }
                ],
                "stateMutability": "view",
                "type": "function"
            },
            {
                "inputs": [],
                "name": "minAllowedPrice",
                "outputs": [
                    {
                        "internalType": "uint256",
                        "name": "",
                        "type": "uint256"
                    }
                ],
                "stateMutability": "view",
                "type": "function"
            },
            {
                "inputs": [],
                "name": "owner",
                "outputs": [
                    {
                        "internalType": "address",
                        "name": "",
                        "type": "address"
                    }
                ],
                "stateMutability": "view",
                "type": "function"
            },
            {
                "inputs": [],
                "name": "renounceOwnership",
                "outputs": [],
                "stateMutability": "nonpayable",
                "type": "function"
            },
            {
                "inputs": [
                    {
                        "internalType": "uint256",
                        "name": "_amount",
                        "type": "uint256"
                    },
                    {
                        "internalType": "uint256",
                        "name": "_price",
                        "type": "uint256"
                    }
                ],
                "name": "submitBid",
                "outputs": [],
                "stateMutability": "nonpayable",
                "type": "function"
            },
            {
                "inputs": [
                    {
                        "internalType": "uint8",
                        "name": "blockNumber",
                        "type": "uint8"
                    },
                    {
                        "internalType": "uint256",
                        "name": "amount",
                        "type": "uint256"
                    },
                    {
                        "internalType": "uint256",
                        "name": "price",
                        "type": "uint256"
                    }
                ],
                "name": "submitOffer",
                "outputs": [],
                "stateMutability": "nonpayable",
                "type": "function"
            },
            {
                "inputs": [
                    {
                        "internalType": "uint256",
                        "name": "",
                        "type": "uint256"
                    }
                ],
                "name": "systemMarginalOfferIDs",
                "outputs": [
                    {
                        "internalType": "bytes32",
                        "name": "",
                        "type": "bytes32"
                    }
                ],
                "stateMutability": "view",
                "type": "function"
            },
            {
                "inputs": [
                    {
                        "internalType": "uint256",
                        "name": "",
                        "type": "uint256"
                    }
                ],
                "name": "totalDemands",
                "outputs": [
                    {
                        "internalType": "uint256",
                        "name": "",
                        "type": "uint256"
                    }
                ],
                "stateMutability": "view",
                "type": "function"
            },
            {
                "inputs": [
                    {
                        "internalType": "address",
                        "name": "newOwner",
                        "type": "address"
                    }
                ],
                "name": "transferOwnership",
                "outputs": [],
                "stateMutability": "nonpayable",
                "type": "function"
            }
        ],
        "bytecode": "0x6080346100b957601f611a3938819003918201601f19168301916001600160401b038311848410176100be578084926060946040528339810103126100b95780516001600160a01b0391828216918290036100b957604060208201519101519160005460018060a01b0319903382821617600055604051953391167f8be0079c531659141344cd1fd0a4f28419497f9722a3daafe3b4186f6b6457e0600080a3600654161760065560075560085561196490816100d58239f35b600080fd5b634e487b7160e01b600052604160045260246000fdfe60406080815260048036101561001457600080fd5b600090813560e01c8062f04902146114c957806314bacef71461141657806321dfca171461111f578063238a1cc314610ebd57806325f8a08d14610e445780634c5140a514610e1b578063696e2c0f14610de6578063715018a614610d9e57806383f1444d14610d375780638da5cb5b14610d0f5780639af94f3014610ce6578063a133245b14610cc7578063b2f1223814610c9e578063b5b66e1214610c25578063b821da1b146107cc578063cab0fb73146107ad578063d71a60c014610789578063e178854414610717578063ec6eaf62146106c3578063ef2d09f914610662578063f17e6a70146102c3578063f2fde38b1461020b5763f790825d1461011c57600080fd5b346102075760209081600319360112610203578092919235825282528281209081546101478161190c565b9061015486519283611693565b8082528482018094845285842084915b8383106101c05750505050845193808501918186525180925285850193925b8281106101905785850386f35b835180516001600160a01b0316865280830151868401528701518786015260609094019392810192600101610183565b6003886001928b9a97989a516101d581611647565b848060a01b038654168152848601548382015260028601548d82015281520192019201919096949396610164565b8280fd5b5080fd5b508234610203576020366003190112610203576001600160a01b038235818116939192908490036102bf5761023e6115ef565b831561026d57505082546001600160a01b0319811683178455166000805160206119448339815191528380a380f35b906020608492519162461bcd60e51b8352820152602660248201527f4f776e61626c653a206e6577206f776e657220697320746865207a65726f206160448201526564647265737360d01b6064820152fd5b8480fd5b508234610203576060918260031936011261065e5780359160ff831683036102bf5760065481516373b6f1d360e01b815233818501526044359560248035966020969094919390916001600160a01b03919082169088818781855afa908115610654578c91610627575b50156105ed578a85916008548c1115806105e1575b61034b906116d3565b8851637f3804f960e11b8152338682015292839182905afa9081156105d7579084918c916104fa575b5061ffff925001511687116104c757845133831b87820190815260f89590951b6001600160f81b031916603482015260158152808601949092906001600160401b038611848710176104b5578587528351902093848b52600188526002878c20015415610463575b603c420492603c840293808504603c14901517156104525750509161044a939189869461042b7f60e344e47525731fddb78da0406d35494f63a1e7ebb282981fa22ca34f00168c9a9998611678565b8a8652830152608082015260a0339101528852600184528288206117d7565b51338152a380f35b634e487b7160e01b8c52601190528afd5b600554600160401b8110156104a357600181018060055581101561049157859060058d52898d2001556103dc565b50634e487b7160e01b8b52603283528afd5b50634e487b7160e01b8b52604183528afd5b634e487b7160e01b8b5260418352848bfd5b845162461bcd60e51b8152908101869052600e818401526d125b9d985b1a5908185b5bdd5b9d60921b6044820152606490fd5b9150503d808c833e61050c8183611693565b81019188828403126105d35781516001600160401b03928382116105bd570160a0818503126105b95788519160a08301838110858211176105c1578a52815190811681036105bd578252898101518381116105bd578461056d91830161170f565b8a8301528881015160ff811681036105bd578983015261058e86820161177f565b8683015260808101519283116105b95761ffff9386936105ae920161170f565b60808201528c610374565b8c80fd5b8d80fd5b634e487b7160e01b8f5260418752888ffd5b8b80fd5b87513d8d823e3d90fd5b506007548c1015610342565b865162461bcd60e51b8152808401899052601581870152742ab73932b3b4b9ba32b932b21039bab8383634b2b960591b6044820152606490fd5b6106479150893d8b1161064d575b61063f8183611693565b8101906116b6565b8c61032d565b503d610635565b88513d8e823e3d90fd5b8380fd5b50829034610203576020366003190112610203576106b882846106c1936080966060845161068f81611678565b8281528260208201528286820152015235815260096020528181205481526001602052206118d1565b91518092611588565bf35b5082903461020357602036600319011261020357608092829135815260016020522090815491600181015491600282015491600360018060a01b039101541692815194855260208501528301526060820152f35b828434610207578160031936011261020757338252602090600282528083209281518093808654928381520195835280832092905b8282106107725761076e8686610764828b0383611693565b51918291826115b4565b0390f35b83548752958601956001938401939091019061074c565b8284346102075781600319360112610207576020906107a661188a565b9051908152f35b8284346102075781600319360112610207576020906008549051908152f35b509034610c225782600319360112610c2257600654835163b2a89e1560e01b815233818501526001600160a01b03946024803593863593602093929184908290849082908d165afa908115610c18578791610bfb575b5015610bc25760085485111580610bb6575b61083d906116d3565b610e109687420488810298818a041490151715610ba557603c420491603c830292808404603c1490151715610b9457873389526002865284892080548015159182610b6c575b505015610b045750888852600398898652848920549a6000199b8c8101908111610af2575b828b528b88526108ba81888d2061183e565b508c0154821633146108cd578c016108a8565b90929496989a8a9c50826108ea939597999b528952878c2061183e565b50545b886108f661188a565b848d5260038a52888d205415610aeb575b01818110610ab2578591899103926006541688519283809263442c18f360e01b82525afa80156105d7578b90610a78575b61ffff9150168111610a3857848a52600d8752858a2055600e54600160401b919082811015610a26576001810180600e55811015610a14578590600e8c52888c20015589526003865284892085519461099086611678565b888652898887015286860152336060860152805491821015610a0257906109bc9160018201815561183e565b9290926109f25750507f2eef226398f000ec33af3b3be58878356d5c7b195bff89de5067bbfe7d2ee4a393929161044a916117d7565b634e487b7160e01b895288905287fd5b634e487b7160e01b8a5260418452828afd5b634e487b7160e01b8b5260328552838bfd5b634e487b7160e01b8b5260418552838bfd5b855162461bcd60e51b8152808501889052601b818501527a44656d616e64206578636565647320746f74616c20737570706c7960281b6044820152606490fd5b508781813d8311610aab575b610a8e8183611693565b81010312610aa757610aa261ffff9161177f565b610938565b8a80fd5b503d610a84565b875162461bcd60e51b81528087018a90526014818701527327bb32b9333637bb9036b0bc103ab4b73a191a9b60611b6044820152606490fd5b508b610907565b634e487b7160e01b8b5260118552838bfd5b9990929496989193959799338b5260028852868b20805490600160401b821015610b5a57610b3c82610b5392600188950181556117bf565b819391549060031b91821b91600019901b19161790565b90556108ed565b634e487b7160e01b8d5260418752858dfd5b60001982019250908211610af2578b91610b85916117bf565b90549060031b1c143880610883565b634e487b7160e01b88526011825287fd5b634e487b7160e01b87526011905285fd5b50600754851015610834565b6015906064938893519362461bcd60e51b8552840152820152742ab73932b3b4b9ba32b932b21031b7b739bab6b2b960591b6044820152fd5b610c129150843d861161064d5761063f8183611693565b38610822565b83513d89823e3d90fd5b80fd5b505034610c225780600319360112610c22578151600c805480835290835260208083019492937fdf6966c971051c3d54ec59162606531493a51404a002842f56009d7e5cf4a8c792915b828210610c875761076e8686610764828b0383611693565b835487529586019560019384019390910190610c6f565b50829034610203576020366003190112610203576020928291358152600d845220549051908152f35b8284346102075781600319360112610207576020906007549051908152f35b50829034610203576020366003190112610203576020928291358152600a845220549051908152f35b828434610207578160031936011261020757905490516001600160a01b039091168152602090f35b505034610c225780600319360112610c22578151600e8054808352908352602080830194929360008051602061192483398151915292915b828210610d875761076e8686610764828b0383611693565b835487529586019560019384019390910190610d6f565b8234610c225780600319360112610c2257610db76115ef565b80546001600160a01b03198116825581906001600160a01b03166000805160206119448339815191528280a380f35b508290346102035760203660031901126102035781602093600192358152600985528181205481528285522001549051908152f35b508290346102035760203660031901126102035760209282913581526009845220549051908152f35b505034610c225780600319360112610c22578151600b805480835290835260208083019492937f0175b7a638427703f0dbe7bb9bbf987a2551717b34e79f33b5b1008d1fa01db992915b828210610ea65761076e8686610764828b0383611693565b835487529586019560019384019390910190610e8e565b508290346102035760208060031936011261065e57813592610edd6115ef565b428410156110ea578485600b54905b818110610f55575050603c90858752600a84520490852055600c5491600160401b831015610f42576001830180600c55831015610f2f5750600c84528320015580f35b634e487b7160e01b855260329052602484fd5b634e487b7160e01b855260419052602484fd5b610f5e8161178e565b9054600391821b1c88811015806110d6575b610f85575b5050610f809061185a565b610eec565b8952600986528489205489526001808752858a208101549294919060001985018581116110c3578a90871080611080575b1561103d5750850180861161102a57603c91610fd4610fef9261178e565b905490821b1c90610fe48861178e565b9054911b1c9061181b565b04915b82810292818404149015171561101757610f809161100f9161187d565b929089610f75565b634e487b7160e01b895260118752602489fd5b634e487b7160e01b8b526011895260248bfd5b91905061105d61104c8761178e565b939092603c94859454911b1c61181b565b04810390811161106d5791610ff2565b634e487b7160e01b8a526011885260248afd5b50508086018087116110c3576110959061178e565b9054610e108c0191841b1c818c116110b057908b9110610fb6565b634e487b7160e01b8d5260118b5260248dfd5b634e487b7160e01b8c5260118a5260248cfd5b50610e108901808a1161102a578110610f70565b5162461bcd60e51b8152918201526011602482015270121bdd5c881a5cc81b9bdd081d985b1a59607a1b604482015260649150fd5b5082346102035782600319360112610203576111396115ef565b610e10918242048381029381850414901517156114035782845260209060038252828520541515806113f8575b61116e578480f35b849161117861188a565b93805194858684600554928381520160058b52858b20928b5b878282106113e2575050506111a892500387611693565b8551885b818110611333575050875b8651811015611326576111ca8188611869565b51895260018452828920600301546001600160a01b03969087166111ee838a611869565b518b5260018652611203858c2054809361187d565b978a8c52878752858c209286519261121a84611647565b8352878301908152868301914283528454600160401b958682101561131257600182018082558210156112fe57908f8b81600297969594600393522091020194511660018060a01b0319855416178455516001840155519101558287101561128b57506112869061185a565b6111b7565b969750919293945050603c958642048781029781890414901517156112eb576009916112b691611869565b519286885252852055600b90815492831015610f42575081610b3c9160016112e09401905561178e565b90555b818080808480f35b634e487b7160e01b885260118552602488fd5b50634e487b7160e01b8f5260328b5260248ffd5b50634e487b7160e01b8f5260418b5260248ffd5b50505050505050506112e3565b60018082018083116113cf575b89868d86841061135d5750505050506113589061185a565b6111ac565b8291859161136f886113989796611869565b518152828c526113858584848420015495611869565b518152828c522001541061139d5761185a565b611340565b6113a7848c611869565b518b6113be866113b78584611869565b5192611869565b526113c9828d611869565b5261185a565b634e487b7160e01b8c526011885260248cfd5b855484526001958601958c955093019201611191565b506005541515611166565b634e487b7160e01b845260119052602483fd5b505034610c225780600319360112610c22578151600580548083529083526020939284830192909183907f036b6384b5eca791c62761152d0c79bb0604c104a5fb6f4eb0703f3154bb3db090845b8181106114b5575050508161147a910382611693565b83519485948186019282875251809352850193925b82811061149e57505050500390f35b83518552869550938101939281019260010161148f565b825484529288019260019283019201611464565b508290346102035760208060031936011261065e579080358452600382528284209182546114f68161190c565b9261150386519485611693565b8184528284018095885283882088915b8483106115625750505050508351938185019282865251809352840192945b82811061153f5784840385f35b909192826080826115536001948a51611588565b01960191019492919094611532565b8386600192611575859d999a9b9d6118d1565b8152019201920191909896959498611513565b8051825260208082015190830152604080820151908301526060908101516001600160a01b0316910152565b6020908160408183019282815285518094520193019160005b8281106115db575050505090565b8351855293810193928101926001016115cd565b6000546001600160a01b0316330361160357565b606460405162461bcd60e51b815260206004820152602060248201527f4f776e61626c653a2063616c6c6572206973206e6f7420746865206f776e65726044820152fd5b606081019081106001600160401b0382111761166257604052565b634e487b7160e01b600052604160045260246000fd5b608081019081106001600160401b0382111761166257604052565b601f909101601f19168101906001600160401b0382119082101761166257604052565b908160209103126116ce575180151581036116ce5790565b600080fd5b156116da57565b60405162461bcd60e51b815260206004820152600d60248201526c496e76616c696420707269636560981b6044820152606490fd5b919080601f840112156116ce578251906001600160401b0382116116625760405191602091611747601f8301601f1916840185611693565b8184528282870101116116ce5760005b81811061176c57508260009394955001015290565b8581018301518482018401528201611757565b519061ffff821682036116ce57565b600b548110156117a957600b60005260206000200190600090565b634e487b7160e01b600052603260045260246000fd5b80548210156117a95760005260206000200190600090565b81518155602082015160018201556040820151600282015560609091015160039190910180546001600160a01b0319166001600160a01b0392909216919091179055565b9190820391821161182857565b634e487b7160e01b600052601160045260246000fd5b80548210156117a95760005260206000209060021b0190600090565b60001981146118285760010190565b80518210156117a95760209160051b010190565b9190820180921161182857565b600e54806118985750600090565b60001990808201818111611828578111156117a9570160008051602061192483398151915201546000908152600d602052604090205490565b906040516118de81611678565b8254815260018301546020820152600283015460408201526003909201546001600160a01b03166060830152565b6001600160401b0381116116625760051b6020019056febb7b4a454dc3493923482f07822329ed19e8244eff582cc204f8554c3620c3fd8be0079c531659141344cd1fd0a4f28419497f9722a3daafe3b4186f6b6457e0",
        "deployedBytecode": "0x60406080815260048036101561001457600080fd5b600090813560e01c8062f04902146114c957806314bacef71461141657806321dfca171461111f578063238a1cc314610ebd57806325f8a08d14610e445780634c5140a514610e1b578063696e2c0f14610de6578063715018a614610d9e57806383f1444d14610d375780638da5cb5b14610d0f5780639af94f3014610ce6578063a133245b14610cc7578063b2f1223814610c9e578063b5b66e1214610c25578063b821da1b146107cc578063cab0fb73146107ad578063d71a60c014610789578063e178854414610717578063ec6eaf62146106c3578063ef2d09f914610662578063f17e6a70146102c3578063f2fde38b1461020b5763f790825d1461011c57600080fd5b346102075760209081600319360112610203578092919235825282528281209081546101478161190c565b9061015486519283611693565b8082528482018094845285842084915b8383106101c05750505050845193808501918186525180925285850193925b8281106101905785850386f35b835180516001600160a01b0316865280830151868401528701518786015260609094019392810192600101610183565b6003886001928b9a97989a516101d581611647565b848060a01b038654168152848601548382015260028601548d82015281520192019201919096949396610164565b8280fd5b5080fd5b508234610203576020366003190112610203576001600160a01b038235818116939192908490036102bf5761023e6115ef565b831561026d57505082546001600160a01b0319811683178455166000805160206119448339815191528380a380f35b906020608492519162461bcd60e51b8352820152602660248201527f4f776e61626c653a206e6577206f776e657220697320746865207a65726f206160448201526564647265737360d01b6064820152fd5b8480fd5b508234610203576060918260031936011261065e5780359160ff831683036102bf5760065481516373b6f1d360e01b815233818501526044359560248035966020969094919390916001600160a01b03919082169088818781855afa908115610654578c91610627575b50156105ed578a85916008548c1115806105e1575b61034b906116d3565b8851637f3804f960e11b8152338682015292839182905afa9081156105d7579084918c916104fa575b5061ffff925001511687116104c757845133831b87820190815260f89590951b6001600160f81b031916603482015260158152808601949092906001600160401b038611848710176104b5578587528351902093848b52600188526002878c20015415610463575b603c420492603c840293808504603c14901517156104525750509161044a939189869461042b7f60e344e47525731fddb78da0406d35494f63a1e7ebb282981fa22ca34f00168c9a9998611678565b8a8652830152608082015260a0339101528852600184528288206117d7565b51338152a380f35b634e487b7160e01b8c52601190528afd5b600554600160401b8110156104a357600181018060055581101561049157859060058d52898d2001556103dc565b50634e487b7160e01b8b52603283528afd5b50634e487b7160e01b8b52604183528afd5b634e487b7160e01b8b5260418352848bfd5b845162461bcd60e51b8152908101869052600e818401526d125b9d985b1a5908185b5bdd5b9d60921b6044820152606490fd5b9150503d808c833e61050c8183611693565b81019188828403126105d35781516001600160401b03928382116105bd570160a0818503126105b95788519160a08301838110858211176105c1578a52815190811681036105bd578252898101518381116105bd578461056d91830161170f565b8a8301528881015160ff811681036105bd578983015261058e86820161177f565b8683015260808101519283116105b95761ffff9386936105ae920161170f565b60808201528c610374565b8c80fd5b8d80fd5b634e487b7160e01b8f5260418752888ffd5b8b80fd5b87513d8d823e3d90fd5b506007548c1015610342565b865162461bcd60e51b8152808401899052601581870152742ab73932b3b4b9ba32b932b21039bab8383634b2b960591b6044820152606490fd5b6106479150893d8b1161064d575b61063f8183611693565b8101906116b6565b8c61032d565b503d610635565b88513d8e823e3d90fd5b8380fd5b50829034610203576020366003190112610203576106b882846106c1936080966060845161068f81611678565b8281528260208201528286820152015235815260096020528181205481526001602052206118d1565b91518092611588565bf35b5082903461020357602036600319011261020357608092829135815260016020522090815491600181015491600282015491600360018060a01b039101541692815194855260208501528301526060820152f35b828434610207578160031936011261020757338252602090600282528083209281518093808654928381520195835280832092905b8282106107725761076e8686610764828b0383611693565b51918291826115b4565b0390f35b83548752958601956001938401939091019061074c565b8284346102075781600319360112610207576020906107a661188a565b9051908152f35b8284346102075781600319360112610207576020906008549051908152f35b509034610c225782600319360112610c2257600654835163b2a89e1560e01b815233818501526001600160a01b03946024803593863593602093929184908290849082908d165afa908115610c18578791610bfb575b5015610bc25760085485111580610bb6575b61083d906116d3565b610e109687420488810298818a041490151715610ba557603c420491603c830292808404603c1490151715610b9457873389526002865284892080548015159182610b6c575b505015610b045750888852600398898652848920549a6000199b8c8101908111610af2575b828b528b88526108ba81888d2061183e565b508c0154821633146108cd578c016108a8565b90929496989a8a9c50826108ea939597999b528952878c2061183e565b50545b886108f661188a565b848d5260038a52888d205415610aeb575b01818110610ab2578591899103926006541688519283809263442c18f360e01b82525afa80156105d7578b90610a78575b61ffff9150168111610a3857848a52600d8752858a2055600e54600160401b919082811015610a26576001810180600e55811015610a14578590600e8c52888c20015589526003865284892085519461099086611678565b888652898887015286860152336060860152805491821015610a0257906109bc9160018201815561183e565b9290926109f25750507f2eef226398f000ec33af3b3be58878356d5c7b195bff89de5067bbfe7d2ee4a393929161044a916117d7565b634e487b7160e01b895288905287fd5b634e487b7160e01b8a5260418452828afd5b634e487b7160e01b8b5260328552838bfd5b634e487b7160e01b8b5260418552838bfd5b855162461bcd60e51b8152808501889052601b818501527a44656d616e64206578636565647320746f74616c20737570706c7960281b6044820152606490fd5b508781813d8311610aab575b610a8e8183611693565b81010312610aa757610aa261ffff9161177f565b610938565b8a80fd5b503d610a84565b875162461bcd60e51b81528087018a90526014818701527327bb32b9333637bb9036b0bc103ab4b73a191a9b60611b6044820152606490fd5b508b610907565b634e487b7160e01b8b5260118552838bfd5b9990929496989193959799338b5260028852868b20805490600160401b821015610b5a57610b3c82610b5392600188950181556117bf565b819391549060031b91821b91600019901b19161790565b90556108ed565b634e487b7160e01b8d5260418752858dfd5b60001982019250908211610af2578b91610b85916117bf565b90549060031b1c143880610883565b634e487b7160e01b88526011825287fd5b634e487b7160e01b87526011905285fd5b50600754851015610834565b6015906064938893519362461bcd60e51b8552840152820152742ab73932b3b4b9ba32b932b21031b7b739bab6b2b960591b6044820152fd5b610c129150843d861161064d5761063f8183611693565b38610822565b83513d89823e3d90fd5b80fd5b505034610c225780600319360112610c22578151600c805480835290835260208083019492937fdf6966c971051c3d54ec59162606531493a51404a002842f56009d7e5cf4a8c792915b828210610c875761076e8686610764828b0383611693565b835487529586019560019384019390910190610c6f565b50829034610203576020366003190112610203576020928291358152600d845220549051908152f35b8284346102075781600319360112610207576020906007549051908152f35b50829034610203576020366003190112610203576020928291358152600a845220549051908152f35b828434610207578160031936011261020757905490516001600160a01b039091168152602090f35b505034610c225780600319360112610c22578151600e8054808352908352602080830194929360008051602061192483398151915292915b828210610d875761076e8686610764828b0383611693565b835487529586019560019384019390910190610d6f565b8234610c225780600319360112610c2257610db76115ef565b80546001600160a01b03198116825581906001600160a01b03166000805160206119448339815191528280a380f35b508290346102035760203660031901126102035781602093600192358152600985528181205481528285522001549051908152f35b508290346102035760203660031901126102035760209282913581526009845220549051908152f35b505034610c225780600319360112610c22578151600b805480835290835260208083019492937f0175b7a638427703f0dbe7bb9bbf987a2551717b34e79f33b5b1008d1fa01db992915b828210610ea65761076e8686610764828b0383611693565b835487529586019560019384019390910190610e8e565b508290346102035760208060031936011261065e57813592610edd6115ef565b428410156110ea578485600b54905b818110610f55575050603c90858752600a84520490852055600c5491600160401b831015610f42576001830180600c55831015610f2f5750600c84528320015580f35b634e487b7160e01b855260329052602484fd5b634e487b7160e01b855260419052602484fd5b610f5e8161178e565b9054600391821b1c88811015806110d6575b610f85575b5050610f809061185a565b610eec565b8952600986528489205489526001808752858a208101549294919060001985018581116110c3578a90871080611080575b1561103d5750850180861161102a57603c91610fd4610fef9261178e565b905490821b1c90610fe48861178e565b9054911b1c9061181b565b04915b82810292818404149015171561101757610f809161100f9161187d565b929089610f75565b634e487b7160e01b895260118752602489fd5b634e487b7160e01b8b526011895260248bfd5b91905061105d61104c8761178e565b939092603c94859454911b1c61181b565b04810390811161106d5791610ff2565b634e487b7160e01b8a526011885260248afd5b50508086018087116110c3576110959061178e565b9054610e108c0191841b1c818c116110b057908b9110610fb6565b634e487b7160e01b8d5260118b5260248dfd5b634e487b7160e01b8c5260118a5260248cfd5b50610e108901808a1161102a578110610f70565b5162461bcd60e51b8152918201526011602482015270121bdd5c881a5cc81b9bdd081d985b1a59607a1b604482015260649150fd5b5082346102035782600319360112610203576111396115ef565b610e10918242048381029381850414901517156114035782845260209060038252828520541515806113f8575b61116e578480f35b849161117861188a565b93805194858684600554928381520160058b52858b20928b5b878282106113e2575050506111a892500387611693565b8551885b818110611333575050875b8651811015611326576111ca8188611869565b51895260018452828920600301546001600160a01b03969087166111ee838a611869565b518b5260018652611203858c2054809361187d565b978a8c52878752858c209286519261121a84611647565b8352878301908152868301914283528454600160401b958682101561131257600182018082558210156112fe57908f8b81600297969594600393522091020194511660018060a01b0319855416178455516001840155519101558287101561128b57506112869061185a565b6111b7565b969750919293945050603c958642048781029781890414901517156112eb576009916112b691611869565b519286885252852055600b90815492831015610f42575081610b3c9160016112e09401905561178e565b90555b818080808480f35b634e487b7160e01b885260118552602488fd5b50634e487b7160e01b8f5260328b5260248ffd5b50634e487b7160e01b8f5260418b5260248ffd5b50505050505050506112e3565b60018082018083116113cf575b89868d86841061135d5750505050506113589061185a565b6111ac565b8291859161136f886113989796611869565b518152828c526113858584848420015495611869565b518152828c522001541061139d5761185a565b611340565b6113a7848c611869565b518b6113be866113b78584611869565b5192611869565b526113c9828d611869565b5261185a565b634e487b7160e01b8c526011885260248cfd5b855484526001958601958c955093019201611191565b506005541515611166565b634e487b7160e01b845260119052602483fd5b505034610c225780600319360112610c22578151600580548083529083526020939284830192909183907f036b6384b5eca791c62761152d0c79bb0604c104a5fb6f4eb0703f3154bb3db090845b8181106114b5575050508161147a910382611693565b83519485948186019282875251809352850193925b82811061149e57505050500390f35b83518552869550938101939281019260010161148f565b825484529288019260019283019201611464565b508290346102035760208060031936011261065e579080358452600382528284209182546114f68161190c565b9261150386519485611693565b8184528284018095885283882088915b8483106115625750505050508351938185019282865251809352840192945b82811061153f5784840385f35b909192826080826115536001948a51611588565b01960191019492919094611532565b8386600192611575859d999a9b9d6118d1565b8152019201920191909896959498611513565b8051825260208082015190830152604080820151908301526060908101516001600160a01b0316910152565b6020908160408183019282815285518094520193019160005b8281106115db575050505090565b8351855293810193928101926001016115cd565b6000546001600160a01b0316330361160357565b606460405162461bcd60e51b815260206004820152602060248201527f4f776e61626c653a2063616c6c6572206973206e6f7420746865206f776e65726044820152fd5b606081019081106001600160401b0382111761166257604052565b634e487b7160e01b600052604160045260246000fd5b608081019081106001600160401b0382111761166257604052565b601f909101601f19168101906001600160401b0382119082101761166257604052565b908160209103126116ce575180151581036116ce5790565b600080fd5b156116da57565b60405162461bcd60e51b815260206004820152600d60248201526c496e76616c696420707269636560981b6044820152606490fd5b919080601f840112156116ce578251906001600160401b0382116116625760405191602091611747601f8301601f1916840185611693565b8184528282870101116116ce5760005b81811061176c57508260009394955001015290565b8581018301518482018401528201611757565b519061ffff821682036116ce57565b600b548110156117a957600b60005260206000200190600090565b634e487b7160e01b600052603260045260246000fd5b80548210156117a95760005260206000200190600090565b81518155602082015160018201556040820151600282015560609091015160039190910180546001600160a01b0319166001600160a01b0392909216919091179055565b9190820391821161182857565b634e487b7160e01b600052601160045260246000fd5b80548210156117a95760005260206000209060021b0190600090565b60001981146118285760010190565b80518210156117a95760209160051b010190565b9190820180921161182857565b600e54806118985750600090565b60001990808201818111611828578111156117a9570160008051602061192483398151915201546000908152600d602052604090205490565b906040516118de81611678565b8254815260018301546020820152600283015460408201526003909201546001600160a01b03166060830152565b6001600160401b0381116116625760051b6020019056febb7b4a454dc3493923482f07822329ed19e8244eff582cc204f8554c3620c3fd8be0079c531659141344cd1fd0a4f28419497f9722a3daafe3b4186f6b6457e0",
        "linkReferences": {},
        "deployedLinkReferences": {}
    }
}