{
    "_format": "hh-sol-artifact-1",
    "contractName": "PoolMarket",
    "sourceName": "contracts/PoolMarket.sol",
    "abi": [
        {
            "inputs": [
                {
                    "internalType": "address",
                    "name": "_registryContractAddress",
                    "type": "address"
                },
                {
                    "internalType": "uint256",
                    "name": "_minAllowedPrice",
                    "type": "uint256"
                },
                {
                    "internalType": "uint256",
                    "name": "_maxAllowedPrice",
                    "type": "uint256"
                }
            ],
            "stateMutability": "nonpayable",
            "type": "constructor"
        },
        {
            "anonymous": false,
            "inputs": [
                {
                    "indexed": true,
                    "internalType": "uint256",
                    "name": "amount",
                    "type": "uint256"
                },
                {
                    "indexed": true,
                    "internalType": "uint256",
                    "name": "price",
                    "type": "uint256"
                },
                {
                    "indexed": false,
                    "internalType": "address",
                    "name": "sender",
                    "type": "address"
                }
            ],
            "name": "BidSubmitted",
            "type": "event"
        },
        {
            "anonymous": false,
            "inputs": [
                {
                    "indexed": true,
                    "internalType": "uint256",
                    "name": "amount",
                    "type": "uint256"
                },
                {
                    "indexed": true,
                    "internalType": "uint256",
                    "name": "price",
                    "type": "uint256"
                },
                {
                    "indexed": false,
                    "internalType": "address",
                    "name": "sender",
                    "type": "address"
                }
            ],
            "name": "OfferSubmitted",
            "type": "event"
        },
        {
            "anonymous": false,
            "inputs": [
                {
                    "indexed": true,
                    "internalType": "address",
                    "name": "previousOwner",
                    "type": "address"
                },
                {
                    "indexed": true,
                    "internalType": "address",
                    "name": "newOwner",
                    "type": "address"
                }
            ],
            "name": "OwnershipTransferred",
            "type": "event"
        },
        {
            "inputs": [
                {
                    "internalType": "uint256",
                    "name": "hour",
                    "type": "uint256"
                }
            ],
            "name": "calculatePoolPrice",
            "outputs": [],
            "stateMutability": "nonpayable",
            "type": "function"
        },
        {
            "inputs": [],
            "name": "calculateSMP",
            "outputs": [],
            "stateMutability": "nonpayable",
            "type": "function"
        },
        {
            "inputs": [
                {
                    "internalType": "bytes32",
                    "name": "",
                    "type": "bytes32"
                }
            ],
            "name": "energyBids",
            "outputs": [
                {
                    "internalType": "uint256",
                    "name": "amount",
                    "type": "uint256"
                },
                {
                    "internalType": "uint256",
                    "name": "price",
                    "type": "uint256"
                },
                {
                    "internalType": "uint256",
                    "name": "submitMinute",
                    "type": "uint256"
                },
                {
                    "internalType": "address",
                    "name": "consumerAccount",
                    "type": "address"
                }
            ],
            "stateMutability": "view",
            "type": "function"
        },
        {
            "inputs": [
                {
                    "internalType": "bytes32",
                    "name": "",
                    "type": "bytes32"
                }
            ],
            "name": "energyOffers",
            "outputs": [
                {
                    "internalType": "uint256",
                    "name": "amount",
                    "type": "uint256"
                },
                {
                    "internalType": "uint256",
                    "name": "price",
                    "type": "uint256"
                },
                {
                    "internalType": "uint256",
                    "name": "submitMinute",
                    "type": "uint256"
                },
                {
                    "internalType": "address",
                    "name": "supplierAccount",
                    "type": "address"
                }
            ],
            "stateMutability": "view",
            "type": "function"
        },
        {
            "inputs": [
                {
                    "internalType": "uint256",
                    "name": "hour",
                    "type": "uint256"
                }
            ],
            "name": "getDispatchedOffers",
            "outputs": [
                {
                    "components": [
                        {
                            "internalType": "address",
                            "name": "supplierAccount",
                            "type": "address"
                        },
                        {
                            "internalType": "uint256",
                            "name": "dispatchedAmount",
                            "type": "uint256"
                        },
                        {
                            "internalType": "uint256",
                            "name": "dispatchedAt",
                            "type": "uint256"
                        }
                    ],
                    "internalType": "struct IPoolMarket.DispatchedOffer[]",
                    "name": "",
                    "type": "tuple[]"
                }
            ],
            "stateMutability": "view",
            "type": "function"
        },
        {
            "inputs": [],
            "name": "getLatestTotalDemand",
            "outputs": [
                {
                    "internalType": "uint256",
                    "name": "",
                    "type": "uint256"
                }
            ],
            "stateMutability": "view",
            "type": "function"
        },
        {
            "inputs": [
                {
                    "internalType": "uint256",
                    "name": "minute",
                    "type": "uint256"
                }
            ],
            "name": "getMarginalOffer",
            "outputs": [
                {
                    "components": [
                        {
                            "internalType": "uint256",
                            "name": "amount",
                            "type": "uint256"
                        },
                        {
                            "internalType": "uint256",
                            "name": "price",
                            "type": "uint256"
                        },
                        {
                            "internalType": "uint256",
                            "name": "submitMinute",
                            "type": "uint256"
                        },
                        {
                            "internalType": "address",
                            "name": "supplierAccount",
                            "type": "address"
                        }
                    ],
                    "internalType": "struct PoolMarket.Offer",
                    "name": "",
                    "type": "tuple"
                }
            ],
            "stateMutability": "view",
            "type": "function"
        },
        {
            "inputs": [
                {
                    "internalType": "uint256",
                    "name": "hour",
                    "type": "uint256"
                }
            ],
            "name": "getPoolPrice",
            "outputs": [
                {
                    "internalType": "uint256",
                    "name": "",
                    "type": "uint256"
                }
            ],
            "stateMutability": "view",
            "type": "function"
        },
        {
            "inputs": [],
            "name": "getPoolpriceHours",
            "outputs": [
                {
                    "internalType": "uint256[]",
                    "name": "",
                    "type": "uint256[]"
                }
            ],
            "stateMutability": "view",
            "type": "function"
        },
        {
            "inputs": [
                {
                    "internalType": "uint256",
                    "name": "minute",
                    "type": "uint256"
                }
            ],
            "name": "getSMP",
            "outputs": [
                {
                    "internalType": "uint256",
                    "name": "",
                    "type": "uint256"
                }
            ],
            "stateMutability": "view",
            "type": "function"
        },
        {
            "inputs": [],
            "name": "getSystemMarginalMinutes",
            "outputs": [
                {
                    "internalType": "uint256[]",
                    "name": "",
                    "type": "uint256[]"
                }
            ],
            "stateMutability": "view",
            "type": "function"
        },
        {
            "inputs": [],
            "name": "getTotalDemandMinutes",
            "outputs": [
                {
                    "internalType": "uint256[]",
                    "name": "",
                    "type": "uint256[]"
                }
            ],
            "stateMutability": "view",
            "type": "function"
        },
        {
            "inputs": [],
            "name": "getValidBidIDs",
            "outputs": [
                {
                    "internalType": "bytes32[]",
                    "name": "",
                    "type": "bytes32[]"
                }
            ],
            "stateMutability": "view",
            "type": "function"
        },
        {
            "inputs": [],
            "name": "getValidOfferIDs",
            "outputs": [
                {
                    "internalType": "bytes32[]",
                    "name": "",
                    "type": "bytes32[]"
                }
            ],
            "stateMutability": "view",
            "type": "function"
        },
        {
            "inputs": [],
            "name": "maxAllowedPrice",
            "outputs": [
                {
                    "internalType": "uint256",
                    "name": "",
                    "type": "uint256"
                }
            ],
            "stateMutability": "view",
            "type": "function"
        },
        {
            "inputs": [],
            "name": "minAllowedPrice",
            "outputs": [
                {
                    "internalType": "uint256",
                    "name": "",
                    "type": "uint256"
                }
            ],
            "stateMutability": "view",
            "type": "function"
        },
        {
            "inputs": [],
            "name": "owner",
            "outputs": [
                {
                    "internalType": "address",
                    "name": "",
                    "type": "address"
                }
            ],
            "stateMutability": "view",
            "type": "function"
        },
        {
            "inputs": [],
            "name": "renounceOwnership",
            "outputs": [],
            "stateMutability": "nonpayable",
            "type": "function"
        },
        {
            "inputs": [
                {
                    "internalType": "uint256",
                    "name": "_amount",
                    "type": "uint256"
                },
                {
                    "internalType": "uint256",
                    "name": "_price",
                    "type": "uint256"
                }
            ],
            "name": "submitBid",
            "outputs": [],
            "stateMutability": "nonpayable",
            "type": "function"
        },
        {
            "inputs": [
                {
                    "internalType": "uint8",
                    "name": "blockNumber",
                    "type": "uint8"
                },
                {
                    "internalType": "uint256",
                    "name": "amount",
                    "type": "uint256"
                },
                {
                    "internalType": "uint256",
                    "name": "price",
                    "type": "uint256"
                }
            ],
            "name": "submitOffer",
            "outputs": [],
            "stateMutability": "nonpayable",
            "type": "function"
        },
        {
            "inputs": [
                {
                    "internalType": "uint256",
                    "name": "",
                    "type": "uint256"
                }
            ],
            "name": "systemMarginalOfferIDs",
            "outputs": [
                {
                    "internalType": "bytes32",
                    "name": "",
                    "type": "bytes32"
                }
            ],
            "stateMutability": "view",
            "type": "function"
        },
        {
            "inputs": [
                {
                    "internalType": "uint256",
                    "name": "",
                    "type": "uint256"
                }
            ],
            "name": "totalDemands",
            "outputs": [
                {
                    "internalType": "uint256",
                    "name": "",
                    "type": "uint256"
                }
            ],
            "stateMutability": "view",
            "type": "function"
        },
        {
            "inputs": [
                {
                    "internalType": "address",
                    "name": "newOwner",
                    "type": "address"
                }
            ],
            "name": "transferOwnership",
            "outputs": [],
            "stateMutability": "nonpayable",
            "type": "function"
        }
    ],
    "bytecode": "0x6080346100b957601f611db238819003918201601f19168301916001600160401b038311848410176100be578084926060946040528339810103126100b95780516001600160a01b0391828216918290036100b957604060208201519101519160005460018060a01b0319903382821617600055604051953391167f8be0079c531659141344cd1fd0a4f28419497f9722a3daafe3b4186f6b6457e0600080a36006541617600655600755600855611cdd90816100d58239f35b600080fd5b634e487b7160e01b600052604160045260246000fdfe6080604052600436101561001257600080fd5b60003560e01c806314bacef7146118a857806321dfca17146114ed578063238a1cc314610e7d57806325f8a08d14610e045780634c5140a514610dd857806363660a2714610d8c578063696e2c0f14610d4f5780636d96b3d314610cd6578063715018a614610c8b57806383f1444d14610c245780638da5cb5b14610bfb5780639af94f3014610bcf578063a133245b14610bb1578063b2f1223814610b85578063b5b66e1214610b12578063b821da1b14610797578063cab0fb7314610779578063d71a60c014610756578063ec6eaf6214610706578063ef2d09f91461065a578063f17e6a70146102e0578063f2fde38b146102285763f790825d1461011957600080fd5b346102235760208060031936011261022357600435600052600390818152604060002091825460018060401b03811161020d576040519161015f848360051b01846119c4565b8183528383018095600052846000206000915b8483106101d157604080518881528751818a018190528a928201908a60005b82811061019e5784840385f35b855180516001600160a01b0316855280830151858401526040908101519085015294810194606090930192600101610191565b83876001926040516101e281611973565b848060a01b038654168152848601548382015260028601546040820152815201920192019190610172565b634e487b7160e01b600052604160045260246000fd5b600080fd5b34610223576020366003190112610223576004356001600160a01b03818116918290036102235760005490811690610261338314611928565b821561028c576001600160a01b03191682176000908155600080516020611cbd8339815191529080a3005b60405162461bcd60e51b815260206004820152602660248201527f4f776e61626c653a206e6577206f776e657220697320746865207a65726f206160448201526564647265737360d01b6064820152608490fd5b34610223576060806003193601126102235760043560ff81168103610223576006546040516373b6f1d360e01b8152336004820152604435936024803594602094919390916001600160a01b03919082169086818781855afa9081156105d95760009161062d575b50156105f157600085916008548a1115806105e5575b610367906119ff565b604051637f3804f960e11b815233600482015292839182905afa80156105d9578491600091610500575b5061ffff925001511685116104cb576040518481019133841b835260ff60f81b9060f81b166034820152601581526103c8816119a9565b51902090816000526001845260026040600020015415610471575b603c420492603c840293808504603c149015171561045d575091610454917f60e344e47525731fddb78da0406d35494f63a1e7ebb282981fa22ca34f00168c9493604051926104318461198e565b878452888685015260408401523390830152600052600183526040600020611ad5565b604051338152a3005b634e487b7160e01b60009081526011600452fd5b600454600160401b8110156104b65760018101806004558110156104a157829060046000528560002001556103e3565b83634e487b7160e01b60005260326004526000fd5b83634e487b7160e01b60005260416004526000fd5b60405162461bcd60e51b815260048101859052600e818501526d125b9d985b1a5908185b5bdd5b9d60921b6044820152606490fd5b9150503d806000833e61051381836119c4565b81019186828403126102235781516001600160401b0392838211610223570160a081850312610223576040519160a08301838110858211176105c45760405281519081168103610223578252878101518381116102235784610576918301611a3b565b88830152604081015160ff81168103610223576040830152610599868201611aab565b8683015260808101519283116102235761ffff9386936105b99201611a3b565b608082015289610391565b88634e487b7160e01b60005260416004526000fd5b6040513d6000823e3d90fd5b506007548a101561035e565b60405162461bcd60e51b815260048101879052601581870152742ab73932b3b4b9ba32b932b21039bab8383634b2b960591b6044820152606490fd5b61064d9150873d8911610653575b61064581836119c4565b8101906119e7565b89610348565b503d61063b565b3461022357602080600319360112610223576080906000606060405161067f8161198e565b82815282848201528260408201520152600435600052600981526040600020546000526001815260036040600020604051906106ba8261198e565b805493848352600182015481840190815260606002840154936040860194855260018060a01b039687910154169401938452604051958652519085015251604084015251166060820152f35b3461022357602036600319011261022357600435600052600160205260406000208054610752600183015492600281015490600360018060a01b039101541690604051948594856118ff565b0390f35b34610223576000366003190112610223576020610771611c35565b604051908152f35b34610223576000366003190112610223576020600854604051908152f35b34610223576040366003190112610223576004356024803560018060a01b03600654166040519163b2a89e1560e01b835233600484015260209283818681865afa9081156105d957600091610af5575b5015610ab95760085481111580610aad575b610802906119ff565b61080a611c35565b9160405184810190338252858152610821816119a9565b5190206000526004846108488861084360029788855260406000205490611b19565b611b26565b926040519283809263442c18f360e01b82525afa80156105d957600090610a77575b61ffff91501610610a35576040518381019033825284815261088b816119a9565b51902094856000528284528260406000200154156109db575b603c420495603c870296808804603c14901517156109c6576040516108f0916108cc8261198e565b83825284878301528860408301523360608301526000528486526040600020611ad5565b7f2eef226398f000ec33af3b3be58878356d5c7b195bff89de5067bbfe7d2ee4a384604051338152a36005805460009283925b828410610990575050505083600052600d8252604060002055600e5491600160401b83101561097c576001830180600e558310156109685750600e6000908152200155005b634e487b7160e01b60009081526032600452fd5b634e487b7160e01b60009081526041600452fd5b909192936109b86109be91836000528688600020015460005284885260406000205490611b26565b94611b33565b929190610923565b85634e487b7160e01b60005260116004526000fd5b600554600160401b811015610a20576001810180600555811015610a0b57869060056000528560002001556108a4565b85634e487b7160e01b60005260326004526000fd5b85634e487b7160e01b60005260416004526000fd5b60405162461bcd60e51b815260048101849052601b818601527a44656d616e64206578636565647320746f74616c20737570706c7960281b6044820152606490fd5b508481813d8311610aa6575b610a8d81836119c4565b8101031261022357610aa161ffff91611aab565b61086a565b503d610a83565b506007548110156107f9565b60405162461bcd60e51b815260048101849052601581860152742ab73932b3b4b9ba32b932b21031b7b739bab6b2b960591b6044820152606490fd5b610b0c9150843d86116106535761064581836119c4565b866107e7565b3461022357600036600319011261022357604051600c8054808352600091825260208084019392600080516020611c7d83398151915292915b828210610b6e5761075285610b62818903826119c4565b604051918291826118c4565b835486529485019460019384019390910190610b4b565b3461022357602036600319011261022357600435600052600d6020526020604060002054604051908152f35b34610223576000366003190112610223576020600754604051908152f35b3461022357602036600319011261022357600435600052600a6020526020604060002054604051908152f35b34610223576000366003190112610223576000546040516001600160a01b039091168152602090f35b3461022357600036600319011261022357604051600e8054808352600091825260208084019392600080516020611c9d83398151915292915b828210610c745761075285610b62818903826119c4565b835486529485019460019384019390910190610c5d565b3461022357600036600319011261022357600080546001600160a01b03811690610cb6338314611928565b6001600160a01b0319168255600080516020611cbd8339815191528280a3005b3461022357600036600319011261022357604051600580548083526000918252602080840193927f036b6384b5eca791c62761152d0c79bb0604c104a5fb6f4eb0703f3154bb3db092915b828210610d385761075285610b62818903826119c4565b835486529485019460019384019390910190610d21565b3461022357602036600319011261022357600435600052600960205260406000205460005260016020526020600160406000200154604051908152f35b3461022357602036600319011261022357600435600052600260205260406000208054610752600183015492600281015490600360018060a01b039101541690604051948594856118ff565b346102235760203660031901126102235760043560005260096020526020604060002054604051908152f35b3461022357600036600319011261022357604051600b80548083526000918252602080840193927f0175b7a638427703f0dbe7bb9bbf987a2551717b34e79f33b5b1008d1fa01db992915b828210610e665761075285610b62818903826119c4565b835486529485019460019384019390910190610e4f565b34610223576020366003190112610223576000546001600160a01b03163314610ea581611928565b4260043510156114b457610eb890611928565b6005541515806114a9575b611097575b600b546000805b828110610f3c57603c82600435600052600a60205204604060002055600c54600160401b81101561020d576001810180600c55811015610f2657600c600052600435600080516020611c7d83398151915290910155005b634e487b7160e01b600052603260045260246000fd5b610f4581611aba565b9054600391821b1c6004358110158061107f575b610f6e575b5050610f6990611b33565b610ecf565b6000939192935260096020526040600020546000526001918260205282604060002001549260001986018681116110075785108061104e575b1561101d57840180851161100757603c91610fc4610fdf92611aba565b905490821b1c90610fd487611aba565b9054911b1c90611b19565b04915b82810292818404149015171561100757610f6991610fff91611b26565b919084610f5e565b634e487b7160e01b600052601160045260246000fd5b5061103e61102a85611aba565b9190603c9384936004359254911b1c611b19565b0481039081116110075791610fe2565b508085018086116110075761106290611aba565b905490831b1c610e10600435019081600435116110075710610fa7565b50610e10600435018060043511611007578110610f59565b60006110a1611c35565b906110aa611be3565b805160005b81811061140d575050610e10908142049384838102048314851517156110075760005b8251811015611403576110e58184611b42565b5160005260018060205260039560018060a01b038760406000200154169061110d8487611b42565b51600052826020526111256040600020548092611b26565b918298888b026000526020526040600020916040519161114483611973565b82526020820152426040820152815493600160401b85101561020d578461117993611173928997018155611b56565b90611b72565b101561118d5761118890611b33565b6110d2565b92935050603c90814204828102928184041490151715611007576111c9926111b491611b42565b51816000526009602052604060002055611bac565b6000915b8181026000526003602052604060002080548410156113fa57836111f091611b56565b5060018060a01b0390541682820260005260036020526001611216856040600020611b56565b5001549083830260005260036020526002611235866040600020611b56565b50015460018601808711611007575b8585026000526003602052604060002080548210156113b057611268828592611b56565b50546001600160a01b031614611287575b61128290611b33565b611244565b85850260005260036020526112b260406000209460016112a984885498611b56565b50015490611b26565b9386860260005260036020526040600020906000198101908111611007576112d991611b56565b5086860260005260036020526112f3826040600020611b56565b91909161134d57808203611379575b5050858502600052600360205260406000209081548015611363576000190161132b8184611b56565b93909361134d5760006002858261128297558260018201550155559050611279565b634e487b7160e01b600052600060045260246000fd5b634e487b7160e01b600052603160045260246000fd5b805482546001600160a01b0319166001600160a01b0391909116178255600180820154908301556002908101549101558780611302565b5050906113ef916113f4949693604051926113ca84611973565b8352602083015260408201528486026000526003602052611173836040600020611b56565b611b33565b916111cd565b50505050610ec8565b50505090506111c9565b6001808201808311611007575b83811061143157505061142c90611b33565b6110af565b6114739061143f8487611b42565b516000528260205282604060002001546114598288611b42565b516000528360205283604060002001541061147857611b33565b61141a565b6114828487611b42565b5161148d8288611b42565b516114988689611b42565b526114a38288611b42565b52611b33565b506004541515610ec3565b60405162461bcd60e51b8152602060048201526011602482015270121bdd5c881a5cc81b9bdd081d985b1a59607a1b6044820152606490fd5b346102235760003660031901126102235761151360018060a01b03600054163314611928565b60055415158061189d575b61152457005b600061152e611c35565b611536611be3565b805160005b818110611832575050610e10908142049384838102048314851517156110075760005b8251811015611828576115718184611b42565b51600052600160209080825260039360018060a01b038560406000200154169061159b8588611b42565b516000528284526115b26040600020548092611b26565b918296898c026000528552604060002091604051916115d083611973565b825285820152426040820152815493600160401b85101561020d57846115fe93611173928d97018155611b56565b1015611613575061160e90611b33565b61155e565b915091929350603c918242048381029381850414901517156110075761163e60099161165095611b42565b51918360005252604060002055611bac565b6000905b808302600052600360205260406000208054831015611826578261167791611b56565b5060018060a01b03905416928181026000526003602052600161169e846040600020611b56565b50015493828202600052600360205260026116bd856040600020611b56565b50015460018501808611611007575b848402600052600360205260406000208054821015611805576116f0828592611b56565b50546001600160a01b03161461170f575b61170a90611b33565b6116cc565b95848402600052600360205261173260406000209160016112a98a855495611b56565b9685850260005260036020526040600020600019928381019081116110075761175a91611b56565b508686026000526003602052611774826040600020611b56565b91909161134d578082036117ce575b5050858502600052600360205260406000208054928315611363576117aa81850183611b56565b94909461134d5760006002868261170a985582600182015501550190559050611701565b805482546001600160a01b0319166001600160a01b0391909116178255600180820154908301556002908101549101558880611783565b5050906113ef9161182094959396604051926113ca84611973565b90611654565b005b5050509050611650565b6001808201808311611007575b83811061185657505061185190611b33565b61153b565b611898906118648487611b42565b51600052602083815283806040600020015491611881848a611b42565b516000525283604060002001541061147857611b33565b61183f565b50600454151561151e565b3461022357600036600319011261022357610752610b62611be3565b6020908160408183019282815285518094520193019160005b8281106118eb575050505090565b8351855293810193928101926001016118dd565b908152602081019190915260408101919091526001600160a01b03909116606082015260800190565b1561192f57565b606460405162461bcd60e51b815260206004820152602060248201527f4f776e61626c653a2063616c6c6572206973206e6f7420746865206f776e65726044820152fd5b606081019081106001600160401b0382111761020d57604052565b608081019081106001600160401b0382111761020d57604052565b604081019081106001600160401b0382111761020d57604052565b601f909101601f19168101906001600160401b0382119082101761020d57604052565b90816020910312610223575180151581036102235790565b15611a0657565b60405162461bcd60e51b815260206004820152600d60248201526c496e76616c696420707269636560981b6044820152606490fd5b919080601f84011215610223578251906001600160401b03821161020d5760405191602091611a73601f8301601f19168401856119c4565b8184528282870101116102235760005b818110611a9857508260009394955001015290565b8581018301518482018401528201611a83565b519061ffff8216820361022357565b600b54811015610f2657600b60005260206000200190600090565b81518155602082015160018201556040820151600282015560609091015160039190910180546001600160a01b0319166001600160a01b0392909216919091179055565b9190820391821161100757565b9190820180921161100757565b60001981146110075760010190565b8051821015610f265760209160051b010190565b8054821015610f26576000526003602060002091020190600090565b919061134d57805182546001600160a01b0319166001600160a01b0391909116178255602081015160018301556040015160029190910155565b600b54600160401b81101561020d57806001611bcb9201600b55611aba565b819291549060031b91821b91600019901b1916179055565b604051906004548083528260209182820190600460005283600020936000905b828210611c1b57505050611c19925003836119c4565b565b855484526001958601958895509381019390910190611c03565b600e5480611c435750600090565b6000199080820181811161100757811115610f265701600080516020611c9d83398151915201546000908152600d60205260409020549056fedf6966c971051c3d54ec59162606531493a51404a002842f56009d7e5cf4a8c7bb7b4a454dc3493923482f07822329ed19e8244eff582cc204f8554c3620c3fd8be0079c531659141344cd1fd0a4f28419497f9722a3daafe3b4186f6b6457e0",
    "linkReferences": {},
    "deployedLinkReferences": {},
    "default": {
        "_format": "hh-sol-artifact-1",
        "contractName": "PoolMarket",
        "sourceName": "contracts/PoolMarket.sol",
        "abi": [
            {
                "inputs": [
                    {
                        "internalType": "address",
                        "name": "_registryContractAddress",
                        "type": "address"
                    },
                    {
                        "internalType": "uint256",
                        "name": "_minAllowedPrice",
                        "type": "uint256"
                    },
                    {
                        "internalType": "uint256",
                        "name": "_maxAllowedPrice",
                        "type": "uint256"
                    }
                ],
                "stateMutability": "nonpayable",
                "type": "constructor"
            },
            {
                "anonymous": false,
                "inputs": [
                    {
                        "indexed": true,
                        "internalType": "uint256",
                        "name": "amount",
                        "type": "uint256"
                    },
                    {
                        "indexed": true,
                        "internalType": "uint256",
                        "name": "price",
                        "type": "uint256"
                    },
                    {
                        "indexed": false,
                        "internalType": "address",
                        "name": "sender",
                        "type": "address"
                    }
                ],
                "name": "BidSubmitted",
                "type": "event"
            },
            {
                "anonymous": false,
                "inputs": [
                    {
                        "indexed": true,
                        "internalType": "uint256",
                        "name": "amount",
                        "type": "uint256"
                    },
                    {
                        "indexed": true,
                        "internalType": "uint256",
                        "name": "price",
                        "type": "uint256"
                    },
                    {
                        "indexed": false,
                        "internalType": "address",
                        "name": "sender",
                        "type": "address"
                    }
                ],
                "name": "OfferSubmitted",
                "type": "event"
            },
            {
                "anonymous": false,
                "inputs": [
                    {
                        "indexed": true,
                        "internalType": "address",
                        "name": "previousOwner",
                        "type": "address"
                    },
                    {
                        "indexed": true,
                        "internalType": "address",
                        "name": "newOwner",
                        "type": "address"
                    }
                ],
                "name": "OwnershipTransferred",
                "type": "event"
            },
            {
                "inputs": [
                    {
                        "internalType": "uint256",
                        "name": "hour",
                        "type": "uint256"
                    }
                ],
                "name": "calculatePoolPrice",
                "outputs": [],
                "stateMutability": "nonpayable",
                "type": "function"
            },
            {
                "inputs": [],
                "name": "calculateSMP",
                "outputs": [],
                "stateMutability": "nonpayable",
                "type": "function"
            },
            {
                "inputs": [
                    {
                        "internalType": "bytes32",
                        "name": "",
                        "type": "bytes32"
                    }
                ],
                "name": "energyBids",
                "outputs": [
                    {
                        "internalType": "uint256",
                        "name": "amount",
                        "type": "uint256"
                    },
                    {
                        "internalType": "uint256",
                        "name": "price",
                        "type": "uint256"
                    },
                    {
                        "internalType": "uint256",
                        "name": "submitMinute",
                        "type": "uint256"
                    },
                    {
                        "internalType": "address",
                        "name": "consumerAccount",
                        "type": "address"
                    }
                ],
                "stateMutability": "view",
                "type": "function"
            },
            {
                "inputs": [
                    {
                        "internalType": "bytes32",
                        "name": "",
                        "type": "bytes32"
                    }
                ],
                "name": "energyOffers",
                "outputs": [
                    {
                        "internalType": "uint256",
                        "name": "amount",
                        "type": "uint256"
                    },
                    {
                        "internalType": "uint256",
                        "name": "price",
                        "type": "uint256"
                    },
                    {
                        "internalType": "uint256",
                        "name": "submitMinute",
                        "type": "uint256"
                    },
                    {
                        "internalType": "address",
                        "name": "supplierAccount",
                        "type": "address"
                    }
                ],
                "stateMutability": "view",
                "type": "function"
            },
            {
                "inputs": [
                    {
                        "internalType": "uint256",
                        "name": "hour",
                        "type": "uint256"
                    }
                ],
                "name": "getDispatchedOffers",
                "outputs": [
                    {
                        "components": [
                            {
                                "internalType": "address",
                                "name": "supplierAccount",
                                "type": "address"
                            },
                            {
                                "internalType": "uint256",
                                "name": "dispatchedAmount",
                                "type": "uint256"
                            },
                            {
                                "internalType": "uint256",
                                "name": "dispatchedAt",
                                "type": "uint256"
                            }
                        ],
                        "internalType": "struct IPoolMarket.DispatchedOffer[]",
                        "name": "",
                        "type": "tuple[]"
                    }
                ],
                "stateMutability": "view",
                "type": "function"
            },
            {
                "inputs": [],
                "name": "getLatestTotalDemand",
                "outputs": [
                    {
                        "internalType": "uint256",
                        "name": "",
                        "type": "uint256"
                    }
                ],
                "stateMutability": "view",
                "type": "function"
            },
            {
                "inputs": [
                    {
                        "internalType": "uint256",
                        "name": "minute",
                        "type": "uint256"
                    }
                ],
                "name": "getMarginalOffer",
                "outputs": [
                    {
                        "components": [
                            {
                                "internalType": "uint256",
                                "name": "amount",
                                "type": "uint256"
                            },
                            {
                                "internalType": "uint256",
                                "name": "price",
                                "type": "uint256"
                            },
                            {
                                "internalType": "uint256",
                                "name": "submitMinute",
                                "type": "uint256"
                            },
                            {
                                "internalType": "address",
                                "name": "supplierAccount",
                                "type": "address"
                            }
                        ],
                        "internalType": "struct PoolMarket.Offer",
                        "name": "",
                        "type": "tuple"
                    }
                ],
                "stateMutability": "view",
                "type": "function"
            },
            {
                "inputs": [
                    {
                        "internalType": "uint256",
                        "name": "hour",
                        "type": "uint256"
                    }
                ],
                "name": "getPoolPrice",
                "outputs": [
                    {
                        "internalType": "uint256",
                        "name": "",
                        "type": "uint256"
                    }
                ],
                "stateMutability": "view",
                "type": "function"
            },
            {
                "inputs": [],
                "name": "getPoolpriceHours",
                "outputs": [
                    {
                        "internalType": "uint256[]",
                        "name": "",
                        "type": "uint256[]"
                    }
                ],
                "stateMutability": "view",
                "type": "function"
            },
            {
                "inputs": [
                    {
                        "internalType": "uint256",
                        "name": "minute",
                        "type": "uint256"
                    }
                ],
                "name": "getSMP",
                "outputs": [
                    {
                        "internalType": "uint256",
                        "name": "",
                        "type": "uint256"
                    }
                ],
                "stateMutability": "view",
                "type": "function"
            },
            {
                "inputs": [],
                "name": "getSystemMarginalMinutes",
                "outputs": [
                    {
                        "internalType": "uint256[]",
                        "name": "",
                        "type": "uint256[]"
                    }
                ],
                "stateMutability": "view",
                "type": "function"
            },
            {
                "inputs": [],
                "name": "getTotalDemandMinutes",
                "outputs": [
                    {
                        "internalType": "uint256[]",
                        "name": "",
                        "type": "uint256[]"
                    }
                ],
                "stateMutability": "view",
                "type": "function"
            },
            {
                "inputs": [],
                "name": "getValidBidIDs",
                "outputs": [
                    {
                        "internalType": "bytes32[]",
                        "name": "",
                        "type": "bytes32[]"
                    }
                ],
                "stateMutability": "view",
                "type": "function"
            },
            {
                "inputs": [],
                "name": "getValidOfferIDs",
                "outputs": [
                    {
                        "internalType": "bytes32[]",
                        "name": "",
                        "type": "bytes32[]"
                    }
                ],
                "stateMutability": "view",
                "type": "function"
            },
            {
                "inputs": [],
                "name": "maxAllowedPrice",
                "outputs": [
                    {
                        "internalType": "uint256",
                        "name": "",
                        "type": "uint256"
                    }
                ],
                "stateMutability": "view",
                "type": "function"
            },
            {
                "inputs": [],
                "name": "minAllowedPrice",
                "outputs": [
                    {
                        "internalType": "uint256",
                        "name": "",
                        "type": "uint256"
                    }
                ],
                "stateMutability": "view",
                "type": "function"
            },
            {
                "inputs": [],
                "name": "owner",
                "outputs": [
                    {
                        "internalType": "address",
                        "name": "",
                        "type": "address"
                    }
                ],
                "stateMutability": "view",
                "type": "function"
            },
            {
                "inputs": [],
                "name": "renounceOwnership",
                "outputs": [],
                "stateMutability": "nonpayable",
                "type": "function"
            },
            {
                "inputs": [
                    {
                        "internalType": "uint256",
                        "name": "_amount",
                        "type": "uint256"
                    },
                    {
                        "internalType": "uint256",
                        "name": "_price",
                        "type": "uint256"
                    }
                ],
                "name": "submitBid",
                "outputs": [],
                "stateMutability": "nonpayable",
                "type": "function"
            },
            {
                "inputs": [
                    {
                        "internalType": "uint8",
                        "name": "blockNumber",
                        "type": "uint8"
                    },
                    {
                        "internalType": "uint256",
                        "name": "amount",
                        "type": "uint256"
                    },
                    {
                        "internalType": "uint256",
                        "name": "price",
                        "type": "uint256"
                    }
                ],
                "name": "submitOffer",
                "outputs": [],
                "stateMutability": "nonpayable",
                "type": "function"
            },
            {
                "inputs": [
                    {
                        "internalType": "uint256",
                        "name": "",
                        "type": "uint256"
                    }
                ],
                "name": "systemMarginalOfferIDs",
                "outputs": [
                    {
                        "internalType": "bytes32",
                        "name": "",
                        "type": "bytes32"
                    }
                ],
                "stateMutability": "view",
                "type": "function"
            },
            {
                "inputs": [
                    {
                        "internalType": "uint256",
                        "name": "",
                        "type": "uint256"
                    }
                ],
                "name": "totalDemands",
                "outputs": [
                    {
                        "internalType": "uint256",
                        "name": "",
                        "type": "uint256"
                    }
                ],
                "stateMutability": "view",
                "type": "function"
            },
            {
                "inputs": [
                    {
                        "internalType": "address",
                        "name": "newOwner",
                        "type": "address"
                    }
                ],
                "name": "transferOwnership",
                "outputs": [],
                "stateMutability": "nonpayable",
                "type": "function"
            }
        ],
        "bytecode": "0x6080346100b957601f611db238819003918201601f19168301916001600160401b038311848410176100be578084926060946040528339810103126100b95780516001600160a01b0391828216918290036100b957604060208201519101519160005460018060a01b0319903382821617600055604051953391167f8be0079c531659141344cd1fd0a4f28419497f9722a3daafe3b4186f6b6457e0600080a36006541617600655600755600855611cdd90816100d58239f35b600080fd5b634e487b7160e01b600052604160045260246000fdfe6080604052600436101561001257600080fd5b60003560e01c806314bacef7146118a857806321dfca17146114ed578063238a1cc314610e7d57806325f8a08d14610e045780634c5140a514610dd857806363660a2714610d8c578063696e2c0f14610d4f5780636d96b3d314610cd6578063715018a614610c8b57806383f1444d14610c245780638da5cb5b14610bfb5780639af94f3014610bcf578063a133245b14610bb1578063b2f1223814610b85578063b5b66e1214610b12578063b821da1b14610797578063cab0fb7314610779578063d71a60c014610756578063ec6eaf6214610706578063ef2d09f91461065a578063f17e6a70146102e0578063f2fde38b146102285763f790825d1461011957600080fd5b346102235760208060031936011261022357600435600052600390818152604060002091825460018060401b03811161020d576040519161015f848360051b01846119c4565b8183528383018095600052846000206000915b8483106101d157604080518881528751818a018190528a928201908a60005b82811061019e5784840385f35b855180516001600160a01b0316855280830151858401526040908101519085015294810194606090930192600101610191565b83876001926040516101e281611973565b848060a01b038654168152848601548382015260028601546040820152815201920192019190610172565b634e487b7160e01b600052604160045260246000fd5b600080fd5b34610223576020366003190112610223576004356001600160a01b03818116918290036102235760005490811690610261338314611928565b821561028c576001600160a01b03191682176000908155600080516020611cbd8339815191529080a3005b60405162461bcd60e51b815260206004820152602660248201527f4f776e61626c653a206e6577206f776e657220697320746865207a65726f206160448201526564647265737360d01b6064820152608490fd5b34610223576060806003193601126102235760043560ff81168103610223576006546040516373b6f1d360e01b8152336004820152604435936024803594602094919390916001600160a01b03919082169086818781855afa9081156105d95760009161062d575b50156105f157600085916008548a1115806105e5575b610367906119ff565b604051637f3804f960e11b815233600482015292839182905afa80156105d9578491600091610500575b5061ffff925001511685116104cb576040518481019133841b835260ff60f81b9060f81b166034820152601581526103c8816119a9565b51902090816000526001845260026040600020015415610471575b603c420492603c840293808504603c149015171561045d575091610454917f60e344e47525731fddb78da0406d35494f63a1e7ebb282981fa22ca34f00168c9493604051926104318461198e565b878452888685015260408401523390830152600052600183526040600020611ad5565b604051338152a3005b634e487b7160e01b60009081526011600452fd5b600454600160401b8110156104b65760018101806004558110156104a157829060046000528560002001556103e3565b83634e487b7160e01b60005260326004526000fd5b83634e487b7160e01b60005260416004526000fd5b60405162461bcd60e51b815260048101859052600e818501526d125b9d985b1a5908185b5bdd5b9d60921b6044820152606490fd5b9150503d806000833e61051381836119c4565b81019186828403126102235781516001600160401b0392838211610223570160a081850312610223576040519160a08301838110858211176105c45760405281519081168103610223578252878101518381116102235784610576918301611a3b565b88830152604081015160ff81168103610223576040830152610599868201611aab565b8683015260808101519283116102235761ffff9386936105b99201611a3b565b608082015289610391565b88634e487b7160e01b60005260416004526000fd5b6040513d6000823e3d90fd5b506007548a101561035e565b60405162461bcd60e51b815260048101879052601581870152742ab73932b3b4b9ba32b932b21039bab8383634b2b960591b6044820152606490fd5b61064d9150873d8911610653575b61064581836119c4565b8101906119e7565b89610348565b503d61063b565b3461022357602080600319360112610223576080906000606060405161067f8161198e565b82815282848201528260408201520152600435600052600981526040600020546000526001815260036040600020604051906106ba8261198e565b805493848352600182015481840190815260606002840154936040860194855260018060a01b039687910154169401938452604051958652519085015251604084015251166060820152f35b3461022357602036600319011261022357600435600052600160205260406000208054610752600183015492600281015490600360018060a01b039101541690604051948594856118ff565b0390f35b34610223576000366003190112610223576020610771611c35565b604051908152f35b34610223576000366003190112610223576020600854604051908152f35b34610223576040366003190112610223576004356024803560018060a01b03600654166040519163b2a89e1560e01b835233600484015260209283818681865afa9081156105d957600091610af5575b5015610ab95760085481111580610aad575b610802906119ff565b61080a611c35565b9160405184810190338252858152610821816119a9565b5190206000526004846108488861084360029788855260406000205490611b19565b611b26565b926040519283809263442c18f360e01b82525afa80156105d957600090610a77575b61ffff91501610610a35576040518381019033825284815261088b816119a9565b51902094856000528284528260406000200154156109db575b603c420495603c870296808804603c14901517156109c6576040516108f0916108cc8261198e565b83825284878301528860408301523360608301526000528486526040600020611ad5565b7f2eef226398f000ec33af3b3be58878356d5c7b195bff89de5067bbfe7d2ee4a384604051338152a36005805460009283925b828410610990575050505083600052600d8252604060002055600e5491600160401b83101561097c576001830180600e558310156109685750600e6000908152200155005b634e487b7160e01b60009081526032600452fd5b634e487b7160e01b60009081526041600452fd5b909192936109b86109be91836000528688600020015460005284885260406000205490611b26565b94611b33565b929190610923565b85634e487b7160e01b60005260116004526000fd5b600554600160401b811015610a20576001810180600555811015610a0b57869060056000528560002001556108a4565b85634e487b7160e01b60005260326004526000fd5b85634e487b7160e01b60005260416004526000fd5b60405162461bcd60e51b815260048101849052601b818601527a44656d616e64206578636565647320746f74616c20737570706c7960281b6044820152606490fd5b508481813d8311610aa6575b610a8d81836119c4565b8101031261022357610aa161ffff91611aab565b61086a565b503d610a83565b506007548110156107f9565b60405162461bcd60e51b815260048101849052601581860152742ab73932b3b4b9ba32b932b21031b7b739bab6b2b960591b6044820152606490fd5b610b0c9150843d86116106535761064581836119c4565b866107e7565b3461022357600036600319011261022357604051600c8054808352600091825260208084019392600080516020611c7d83398151915292915b828210610b6e5761075285610b62818903826119c4565b604051918291826118c4565b835486529485019460019384019390910190610b4b565b3461022357602036600319011261022357600435600052600d6020526020604060002054604051908152f35b34610223576000366003190112610223576020600754604051908152f35b3461022357602036600319011261022357600435600052600a6020526020604060002054604051908152f35b34610223576000366003190112610223576000546040516001600160a01b039091168152602090f35b3461022357600036600319011261022357604051600e8054808352600091825260208084019392600080516020611c9d83398151915292915b828210610c745761075285610b62818903826119c4565b835486529485019460019384019390910190610c5d565b3461022357600036600319011261022357600080546001600160a01b03811690610cb6338314611928565b6001600160a01b0319168255600080516020611cbd8339815191528280a3005b3461022357600036600319011261022357604051600580548083526000918252602080840193927f036b6384b5eca791c62761152d0c79bb0604c104a5fb6f4eb0703f3154bb3db092915b828210610d385761075285610b62818903826119c4565b835486529485019460019384019390910190610d21565b3461022357602036600319011261022357600435600052600960205260406000205460005260016020526020600160406000200154604051908152f35b3461022357602036600319011261022357600435600052600260205260406000208054610752600183015492600281015490600360018060a01b039101541690604051948594856118ff565b346102235760203660031901126102235760043560005260096020526020604060002054604051908152f35b3461022357600036600319011261022357604051600b80548083526000918252602080840193927f0175b7a638427703f0dbe7bb9bbf987a2551717b34e79f33b5b1008d1fa01db992915b828210610e665761075285610b62818903826119c4565b835486529485019460019384019390910190610e4f565b34610223576020366003190112610223576000546001600160a01b03163314610ea581611928565b4260043510156114b457610eb890611928565b6005541515806114a9575b611097575b600b546000805b828110610f3c57603c82600435600052600a60205204604060002055600c54600160401b81101561020d576001810180600c55811015610f2657600c600052600435600080516020611c7d83398151915290910155005b634e487b7160e01b600052603260045260246000fd5b610f4581611aba565b9054600391821b1c6004358110158061107f575b610f6e575b5050610f6990611b33565b610ecf565b6000939192935260096020526040600020546000526001918260205282604060002001549260001986018681116110075785108061104e575b1561101d57840180851161100757603c91610fc4610fdf92611aba565b905490821b1c90610fd487611aba565b9054911b1c90611b19565b04915b82810292818404149015171561100757610f6991610fff91611b26565b919084610f5e565b634e487b7160e01b600052601160045260246000fd5b5061103e61102a85611aba565b9190603c9384936004359254911b1c611b19565b0481039081116110075791610fe2565b508085018086116110075761106290611aba565b905490831b1c610e10600435019081600435116110075710610fa7565b50610e10600435018060043511611007578110610f59565b60006110a1611c35565b906110aa611be3565b805160005b81811061140d575050610e10908142049384838102048314851517156110075760005b8251811015611403576110e58184611b42565b5160005260018060205260039560018060a01b038760406000200154169061110d8487611b42565b51600052826020526111256040600020548092611b26565b918298888b026000526020526040600020916040519161114483611973565b82526020820152426040820152815493600160401b85101561020d578461117993611173928997018155611b56565b90611b72565b101561118d5761118890611b33565b6110d2565b92935050603c90814204828102928184041490151715611007576111c9926111b491611b42565b51816000526009602052604060002055611bac565b6000915b8181026000526003602052604060002080548410156113fa57836111f091611b56565b5060018060a01b0390541682820260005260036020526001611216856040600020611b56565b5001549083830260005260036020526002611235866040600020611b56565b50015460018601808711611007575b8585026000526003602052604060002080548210156113b057611268828592611b56565b50546001600160a01b031614611287575b61128290611b33565b611244565b85850260005260036020526112b260406000209460016112a984885498611b56565b50015490611b26565b9386860260005260036020526040600020906000198101908111611007576112d991611b56565b5086860260005260036020526112f3826040600020611b56565b91909161134d57808203611379575b5050858502600052600360205260406000209081548015611363576000190161132b8184611b56565b93909361134d5760006002858261128297558260018201550155559050611279565b634e487b7160e01b600052600060045260246000fd5b634e487b7160e01b600052603160045260246000fd5b805482546001600160a01b0319166001600160a01b0391909116178255600180820154908301556002908101549101558780611302565b5050906113ef916113f4949693604051926113ca84611973565b8352602083015260408201528486026000526003602052611173836040600020611b56565b611b33565b916111cd565b50505050610ec8565b50505090506111c9565b6001808201808311611007575b83811061143157505061142c90611b33565b6110af565b6114739061143f8487611b42565b516000528260205282604060002001546114598288611b42565b516000528360205283604060002001541061147857611b33565b61141a565b6114828487611b42565b5161148d8288611b42565b516114988689611b42565b526114a38288611b42565b52611b33565b506004541515610ec3565b60405162461bcd60e51b8152602060048201526011602482015270121bdd5c881a5cc81b9bdd081d985b1a59607a1b6044820152606490fd5b346102235760003660031901126102235761151360018060a01b03600054163314611928565b60055415158061189d575b61152457005b600061152e611c35565b611536611be3565b805160005b818110611832575050610e10908142049384838102048314851517156110075760005b8251811015611828576115718184611b42565b51600052600160209080825260039360018060a01b038560406000200154169061159b8588611b42565b516000528284526115b26040600020548092611b26565b918296898c026000528552604060002091604051916115d083611973565b825285820152426040820152815493600160401b85101561020d57846115fe93611173928d97018155611b56565b1015611613575061160e90611b33565b61155e565b915091929350603c918242048381029381850414901517156110075761163e60099161165095611b42565b51918360005252604060002055611bac565b6000905b808302600052600360205260406000208054831015611826578261167791611b56565b5060018060a01b03905416928181026000526003602052600161169e846040600020611b56565b50015493828202600052600360205260026116bd856040600020611b56565b50015460018501808611611007575b848402600052600360205260406000208054821015611805576116f0828592611b56565b50546001600160a01b03161461170f575b61170a90611b33565b6116cc565b95848402600052600360205261173260406000209160016112a98a855495611b56565b9685850260005260036020526040600020600019928381019081116110075761175a91611b56565b508686026000526003602052611774826040600020611b56565b91909161134d578082036117ce575b5050858502600052600360205260406000208054928315611363576117aa81850183611b56565b94909461134d5760006002868261170a985582600182015501550190559050611701565b805482546001600160a01b0319166001600160a01b0391909116178255600180820154908301556002908101549101558880611783565b5050906113ef9161182094959396604051926113ca84611973565b90611654565b005b5050509050611650565b6001808201808311611007575b83811061185657505061185190611b33565b61153b565b611898906118648487611b42565b51600052602083815283806040600020015491611881848a611b42565b516000525283604060002001541061147857611b33565b61183f565b50600454151561151e565b3461022357600036600319011261022357610752610b62611be3565b6020908160408183019282815285518094520193019160005b8281106118eb575050505090565b8351855293810193928101926001016118dd565b908152602081019190915260408101919091526001600160a01b03909116606082015260800190565b1561192f57565b606460405162461bcd60e51b815260206004820152602060248201527f4f776e61626c653a2063616c6c6572206973206e6f7420746865206f776e65726044820152fd5b606081019081106001600160401b0382111761020d57604052565b608081019081106001600160401b0382111761020d57604052565b604081019081106001600160401b0382111761020d57604052565b601f909101601f19168101906001600160401b0382119082101761020d57604052565b90816020910312610223575180151581036102235790565b15611a0657565b60405162461bcd60e51b815260206004820152600d60248201526c496e76616c696420707269636560981b6044820152606490fd5b919080601f84011215610223578251906001600160401b03821161020d5760405191602091611a73601f8301601f19168401856119c4565b8184528282870101116102235760005b818110611a9857508260009394955001015290565b8581018301518482018401528201611a83565b519061ffff8216820361022357565b600b54811015610f2657600b60005260206000200190600090565b81518155602082015160018201556040820151600282015560609091015160039190910180546001600160a01b0319166001600160a01b0392909216919091179055565b9190820391821161100757565b9190820180921161100757565b60001981146110075760010190565b8051821015610f265760209160051b010190565b8054821015610f26576000526003602060002091020190600090565b919061134d57805182546001600160a01b0319166001600160a01b0391909116178255602081015160018301556040015160029190910155565b600b54600160401b81101561020d57806001611bcb9201600b55611aba565b819291549060031b91821b91600019901b1916179055565b604051906004548083528260209182820190600460005283600020936000905b828210611c1b57505050611c19925003836119c4565b565b855484526001958601958895509381019390910190611c03565b600e5480611c435750600090565b6000199080820181811161100757811115610f265701600080516020611c9d83398151915201546000908152600d60205260409020549056fedf6966c971051c3d54ec59162606531493a51404a002842f56009d7e5cf4a8c7bb7b4a454dc3493923482f07822329ed19e8244eff582cc204f8554c3620c3fd8be0079c531659141344cd1fd0a4f28419497f9722a3daafe3b4186f6b6457e0",
        "deployedBytecode": "0x6080604052600436101561001257600080fd5b60003560e01c806314bacef7146118a857806321dfca17146114ed578063238a1cc314610e7d57806325f8a08d14610e045780634c5140a514610dd857806363660a2714610d8c578063696e2c0f14610d4f5780636d96b3d314610cd6578063715018a614610c8b57806383f1444d14610c245780638da5cb5b14610bfb5780639af94f3014610bcf578063a133245b14610bb1578063b2f1223814610b85578063b5b66e1214610b12578063b821da1b14610797578063cab0fb7314610779578063d71a60c014610756578063ec6eaf6214610706578063ef2d09f91461065a578063f17e6a70146102e0578063f2fde38b146102285763f790825d1461011957600080fd5b346102235760208060031936011261022357600435600052600390818152604060002091825460018060401b03811161020d576040519161015f848360051b01846119c4565b8183528383018095600052846000206000915b8483106101d157604080518881528751818a018190528a928201908a60005b82811061019e5784840385f35b855180516001600160a01b0316855280830151858401526040908101519085015294810194606090930192600101610191565b83876001926040516101e281611973565b848060a01b038654168152848601548382015260028601546040820152815201920192019190610172565b634e487b7160e01b600052604160045260246000fd5b600080fd5b34610223576020366003190112610223576004356001600160a01b03818116918290036102235760005490811690610261338314611928565b821561028c576001600160a01b03191682176000908155600080516020611cbd8339815191529080a3005b60405162461bcd60e51b815260206004820152602660248201527f4f776e61626c653a206e6577206f776e657220697320746865207a65726f206160448201526564647265737360d01b6064820152608490fd5b34610223576060806003193601126102235760043560ff81168103610223576006546040516373b6f1d360e01b8152336004820152604435936024803594602094919390916001600160a01b03919082169086818781855afa9081156105d95760009161062d575b50156105f157600085916008548a1115806105e5575b610367906119ff565b604051637f3804f960e11b815233600482015292839182905afa80156105d9578491600091610500575b5061ffff925001511685116104cb576040518481019133841b835260ff60f81b9060f81b166034820152601581526103c8816119a9565b51902090816000526001845260026040600020015415610471575b603c420492603c840293808504603c149015171561045d575091610454917f60e344e47525731fddb78da0406d35494f63a1e7ebb282981fa22ca34f00168c9493604051926104318461198e565b878452888685015260408401523390830152600052600183526040600020611ad5565b604051338152a3005b634e487b7160e01b60009081526011600452fd5b600454600160401b8110156104b65760018101806004558110156104a157829060046000528560002001556103e3565b83634e487b7160e01b60005260326004526000fd5b83634e487b7160e01b60005260416004526000fd5b60405162461bcd60e51b815260048101859052600e818501526d125b9d985b1a5908185b5bdd5b9d60921b6044820152606490fd5b9150503d806000833e61051381836119c4565b81019186828403126102235781516001600160401b0392838211610223570160a081850312610223576040519160a08301838110858211176105c45760405281519081168103610223578252878101518381116102235784610576918301611a3b565b88830152604081015160ff81168103610223576040830152610599868201611aab565b8683015260808101519283116102235761ffff9386936105b99201611a3b565b608082015289610391565b88634e487b7160e01b60005260416004526000fd5b6040513d6000823e3d90fd5b506007548a101561035e565b60405162461bcd60e51b815260048101879052601581870152742ab73932b3b4b9ba32b932b21039bab8383634b2b960591b6044820152606490fd5b61064d9150873d8911610653575b61064581836119c4565b8101906119e7565b89610348565b503d61063b565b3461022357602080600319360112610223576080906000606060405161067f8161198e565b82815282848201528260408201520152600435600052600981526040600020546000526001815260036040600020604051906106ba8261198e565b805493848352600182015481840190815260606002840154936040860194855260018060a01b039687910154169401938452604051958652519085015251604084015251166060820152f35b3461022357602036600319011261022357600435600052600160205260406000208054610752600183015492600281015490600360018060a01b039101541690604051948594856118ff565b0390f35b34610223576000366003190112610223576020610771611c35565b604051908152f35b34610223576000366003190112610223576020600854604051908152f35b34610223576040366003190112610223576004356024803560018060a01b03600654166040519163b2a89e1560e01b835233600484015260209283818681865afa9081156105d957600091610af5575b5015610ab95760085481111580610aad575b610802906119ff565b61080a611c35565b9160405184810190338252858152610821816119a9565b5190206000526004846108488861084360029788855260406000205490611b19565b611b26565b926040519283809263442c18f360e01b82525afa80156105d957600090610a77575b61ffff91501610610a35576040518381019033825284815261088b816119a9565b51902094856000528284528260406000200154156109db575b603c420495603c870296808804603c14901517156109c6576040516108f0916108cc8261198e565b83825284878301528860408301523360608301526000528486526040600020611ad5565b7f2eef226398f000ec33af3b3be58878356d5c7b195bff89de5067bbfe7d2ee4a384604051338152a36005805460009283925b828410610990575050505083600052600d8252604060002055600e5491600160401b83101561097c576001830180600e558310156109685750600e6000908152200155005b634e487b7160e01b60009081526032600452fd5b634e487b7160e01b60009081526041600452fd5b909192936109b86109be91836000528688600020015460005284885260406000205490611b26565b94611b33565b929190610923565b85634e487b7160e01b60005260116004526000fd5b600554600160401b811015610a20576001810180600555811015610a0b57869060056000528560002001556108a4565b85634e487b7160e01b60005260326004526000fd5b85634e487b7160e01b60005260416004526000fd5b60405162461bcd60e51b815260048101849052601b818601527a44656d616e64206578636565647320746f74616c20737570706c7960281b6044820152606490fd5b508481813d8311610aa6575b610a8d81836119c4565b8101031261022357610aa161ffff91611aab565b61086a565b503d610a83565b506007548110156107f9565b60405162461bcd60e51b815260048101849052601581860152742ab73932b3b4b9ba32b932b21031b7b739bab6b2b960591b6044820152606490fd5b610b0c9150843d86116106535761064581836119c4565b866107e7565b3461022357600036600319011261022357604051600c8054808352600091825260208084019392600080516020611c7d83398151915292915b828210610b6e5761075285610b62818903826119c4565b604051918291826118c4565b835486529485019460019384019390910190610b4b565b3461022357602036600319011261022357600435600052600d6020526020604060002054604051908152f35b34610223576000366003190112610223576020600754604051908152f35b3461022357602036600319011261022357600435600052600a6020526020604060002054604051908152f35b34610223576000366003190112610223576000546040516001600160a01b039091168152602090f35b3461022357600036600319011261022357604051600e8054808352600091825260208084019392600080516020611c9d83398151915292915b828210610c745761075285610b62818903826119c4565b835486529485019460019384019390910190610c5d565b3461022357600036600319011261022357600080546001600160a01b03811690610cb6338314611928565b6001600160a01b0319168255600080516020611cbd8339815191528280a3005b3461022357600036600319011261022357604051600580548083526000918252602080840193927f036b6384b5eca791c62761152d0c79bb0604c104a5fb6f4eb0703f3154bb3db092915b828210610d385761075285610b62818903826119c4565b835486529485019460019384019390910190610d21565b3461022357602036600319011261022357600435600052600960205260406000205460005260016020526020600160406000200154604051908152f35b3461022357602036600319011261022357600435600052600260205260406000208054610752600183015492600281015490600360018060a01b039101541690604051948594856118ff565b346102235760203660031901126102235760043560005260096020526020604060002054604051908152f35b3461022357600036600319011261022357604051600b80548083526000918252602080840193927f0175b7a638427703f0dbe7bb9bbf987a2551717b34e79f33b5b1008d1fa01db992915b828210610e665761075285610b62818903826119c4565b835486529485019460019384019390910190610e4f565b34610223576020366003190112610223576000546001600160a01b03163314610ea581611928565b4260043510156114b457610eb890611928565b6005541515806114a9575b611097575b600b546000805b828110610f3c57603c82600435600052600a60205204604060002055600c54600160401b81101561020d576001810180600c55811015610f2657600c600052600435600080516020611c7d83398151915290910155005b634e487b7160e01b600052603260045260246000fd5b610f4581611aba565b9054600391821b1c6004358110158061107f575b610f6e575b5050610f6990611b33565b610ecf565b6000939192935260096020526040600020546000526001918260205282604060002001549260001986018681116110075785108061104e575b1561101d57840180851161100757603c91610fc4610fdf92611aba565b905490821b1c90610fd487611aba565b9054911b1c90611b19565b04915b82810292818404149015171561100757610f6991610fff91611b26565b919084610f5e565b634e487b7160e01b600052601160045260246000fd5b5061103e61102a85611aba565b9190603c9384936004359254911b1c611b19565b0481039081116110075791610fe2565b508085018086116110075761106290611aba565b905490831b1c610e10600435019081600435116110075710610fa7565b50610e10600435018060043511611007578110610f59565b60006110a1611c35565b906110aa611be3565b805160005b81811061140d575050610e10908142049384838102048314851517156110075760005b8251811015611403576110e58184611b42565b5160005260018060205260039560018060a01b038760406000200154169061110d8487611b42565b51600052826020526111256040600020548092611b26565b918298888b026000526020526040600020916040519161114483611973565b82526020820152426040820152815493600160401b85101561020d578461117993611173928997018155611b56565b90611b72565b101561118d5761118890611b33565b6110d2565b92935050603c90814204828102928184041490151715611007576111c9926111b491611b42565b51816000526009602052604060002055611bac565b6000915b8181026000526003602052604060002080548410156113fa57836111f091611b56565b5060018060a01b0390541682820260005260036020526001611216856040600020611b56565b5001549083830260005260036020526002611235866040600020611b56565b50015460018601808711611007575b8585026000526003602052604060002080548210156113b057611268828592611b56565b50546001600160a01b031614611287575b61128290611b33565b611244565b85850260005260036020526112b260406000209460016112a984885498611b56565b50015490611b26565b9386860260005260036020526040600020906000198101908111611007576112d991611b56565b5086860260005260036020526112f3826040600020611b56565b91909161134d57808203611379575b5050858502600052600360205260406000209081548015611363576000190161132b8184611b56565b93909361134d5760006002858261128297558260018201550155559050611279565b634e487b7160e01b600052600060045260246000fd5b634e487b7160e01b600052603160045260246000fd5b805482546001600160a01b0319166001600160a01b0391909116178255600180820154908301556002908101549101558780611302565b5050906113ef916113f4949693604051926113ca84611973565b8352602083015260408201528486026000526003602052611173836040600020611b56565b611b33565b916111cd565b50505050610ec8565b50505090506111c9565b6001808201808311611007575b83811061143157505061142c90611b33565b6110af565b6114739061143f8487611b42565b516000528260205282604060002001546114598288611b42565b516000528360205283604060002001541061147857611b33565b61141a565b6114828487611b42565b5161148d8288611b42565b516114988689611b42565b526114a38288611b42565b52611b33565b506004541515610ec3565b60405162461bcd60e51b8152602060048201526011602482015270121bdd5c881a5cc81b9bdd081d985b1a59607a1b6044820152606490fd5b346102235760003660031901126102235761151360018060a01b03600054163314611928565b60055415158061189d575b61152457005b600061152e611c35565b611536611be3565b805160005b818110611832575050610e10908142049384838102048314851517156110075760005b8251811015611828576115718184611b42565b51600052600160209080825260039360018060a01b038560406000200154169061159b8588611b42565b516000528284526115b26040600020548092611b26565b918296898c026000528552604060002091604051916115d083611973565b825285820152426040820152815493600160401b85101561020d57846115fe93611173928d97018155611b56565b1015611613575061160e90611b33565b61155e565b915091929350603c918242048381029381850414901517156110075761163e60099161165095611b42565b51918360005252604060002055611bac565b6000905b808302600052600360205260406000208054831015611826578261167791611b56565b5060018060a01b03905416928181026000526003602052600161169e846040600020611b56565b50015493828202600052600360205260026116bd856040600020611b56565b50015460018501808611611007575b848402600052600360205260406000208054821015611805576116f0828592611b56565b50546001600160a01b03161461170f575b61170a90611b33565b6116cc565b95848402600052600360205261173260406000209160016112a98a855495611b56565b9685850260005260036020526040600020600019928381019081116110075761175a91611b56565b508686026000526003602052611774826040600020611b56565b91909161134d578082036117ce575b5050858502600052600360205260406000208054928315611363576117aa81850183611b56565b94909461134d5760006002868261170a985582600182015501550190559050611701565b805482546001600160a01b0319166001600160a01b0391909116178255600180820154908301556002908101549101558880611783565b5050906113ef9161182094959396604051926113ca84611973565b90611654565b005b5050509050611650565b6001808201808311611007575b83811061185657505061185190611b33565b61153b565b611898906118648487611b42565b51600052602083815283806040600020015491611881848a611b42565b516000525283604060002001541061147857611b33565b61183f565b50600454151561151e565b3461022357600036600319011261022357610752610b62611be3565b6020908160408183019282815285518094520193019160005b8281106118eb575050505090565b8351855293810193928101926001016118dd565b908152602081019190915260408101919091526001600160a01b03909116606082015260800190565b1561192f57565b606460405162461bcd60e51b815260206004820152602060248201527f4f776e61626c653a2063616c6c6572206973206e6f7420746865206f776e65726044820152fd5b606081019081106001600160401b0382111761020d57604052565b608081019081106001600160401b0382111761020d57604052565b604081019081106001600160401b0382111761020d57604052565b601f909101601f19168101906001600160401b0382119082101761020d57604052565b90816020910312610223575180151581036102235790565b15611a0657565b60405162461bcd60e51b815260206004820152600d60248201526c496e76616c696420707269636560981b6044820152606490fd5b919080601f84011215610223578251906001600160401b03821161020d5760405191602091611a73601f8301601f19168401856119c4565b8184528282870101116102235760005b818110611a9857508260009394955001015290565b8581018301518482018401528201611a83565b519061ffff8216820361022357565b600b54811015610f2657600b60005260206000200190600090565b81518155602082015160018201556040820151600282015560609091015160039190910180546001600160a01b0319166001600160a01b0392909216919091179055565b9190820391821161100757565b9190820180921161100757565b60001981146110075760010190565b8051821015610f265760209160051b010190565b8054821015610f26576000526003602060002091020190600090565b919061134d57805182546001600160a01b0319166001600160a01b0391909116178255602081015160018301556040015160029190910155565b600b54600160401b81101561020d57806001611bcb9201600b55611aba565b819291549060031b91821b91600019901b1916179055565b604051906004548083528260209182820190600460005283600020936000905b828210611c1b57505050611c19925003836119c4565b565b855484526001958601958895509381019390910190611c03565b600e5480611c435750600090565b6000199080820181811161100757811115610f265701600080516020611c9d83398151915201546000908152600d60205260409020549056fedf6966c971051c3d54ec59162606531493a51404a002842f56009d7e5cf4a8c7bb7b4a454dc3493923482f07822329ed19e8244eff582cc204f8554c3620c3fd8be0079c531659141344cd1fd0a4f28419497f9722a3daafe3b4186f6b6457e0",
        "linkReferences": {},
        "deployedLinkReferences": {}
    }
}