{
    "_format": "hh-sol-artifact-1",
    "contractName": "Payment",
    "sourceName": "contracts/Payment.sol",
    "abi": [
        {
            "inputs": [
                {
                    "internalType": "address",
                    "name": "_poolMarketAddress",
                    "type": "address"
                },
                {
                    "internalType": "address",
                    "name": "_etkContractAddress",
                    "type": "address"
                },
                {
                    "internalType": "address",
                    "name": "_registryContractAddress",
                    "type": "address"
                }
            ],
            "stateMutability": "nonpayable",
            "type": "constructor"
        },
        {
            "anonymous": false,
            "inputs": [
                {
                    "indexed": true,
                    "internalType": "address",
                    "name": "previousOwner",
                    "type": "address"
                },
                {
                    "indexed": true,
                    "internalType": "address",
                    "name": "newOwner",
                    "type": "address"
                }
            ],
            "name": "OwnershipTransferred",
            "type": "event"
        },
        {
            "inputs": [
                {
                    "internalType": "uint256",
                    "name": "_hour",
                    "type": "uint256"
                },
                {
                    "internalType": "uint256",
                    "name": "_meteredAmount",
                    "type": "uint256"
                }
            ],
            "name": "charge",
            "outputs": [],
            "stateMutability": "nonpayable",
            "type": "function"
        },
        {
            "inputs": [
                {
                    "internalType": "uint256",
                    "name": "_hour",
                    "type": "uint256"
                }
            ],
            "name": "enableCharge",
            "outputs": [],
            "stateMutability": "nonpayable",
            "type": "function"
        },
        {
            "inputs": [],
            "name": "owner",
            "outputs": [
                {
                    "internalType": "address",
                    "name": "",
                    "type": "address"
                }
            ],
            "stateMutability": "view",
            "type": "function"
        },
        {
            "inputs": [
                {
                    "internalType": "uint256",
                    "name": "_hour",
                    "type": "uint256"
                },
                {
                    "internalType": "uint256",
                    "name": "_meteredAmount",
                    "type": "uint256"
                }
            ],
            "name": "pay",
            "outputs": [],
            "stateMutability": "nonpayable",
            "type": "function"
        },
        {
            "inputs": [],
            "name": "renounceOwnership",
            "outputs": [],
            "stateMutability": "nonpayable",
            "type": "function"
        },
        {
            "inputs": [
                {
                    "internalType": "address",
                    "name": "newOwner",
                    "type": "address"
                }
            ],
            "name": "transferOwnership",
            "outputs": [],
            "stateMutability": "nonpayable",
            "type": "function"
        }
    ],
    "bytecode": "0x6080346100e657601f610a3338819003918201601f19168301916001600160401b038311848410176100eb578084926060946040528339810103126100e65761004781610101565b61005f604061005860208501610101565b9301610101565b600080546001600160a01b03198082163390811784556040519691956001600160a01b0395948694859391908416907f8be0079c531659141344cd1fd0a4f28419497f9722a3daafe3b4186f6b6457e09080a33387600154161760015516856003541617600355168360025416176002551690600454161760045561091d90816101168239f35b600080fd5b634e487b7160e01b600052604160045260246000fd5b51906001600160a01b03821682036100e65756fe608060408181526004908136101561001657600080fd5b600092833560e01c9081632cc5af881461057557508063715018a61461052a5780638da5cb5b14610502578063c37dda2d146102d7578063ef48eee6146101205763f2fde38b1461006657600080fd5b3461011c57602036600319011261011c576001600160a01b0382358181169391929084900361011857610097610708565b83156100c657505082546001600160a01b0319811683178455166000805160206108fd8339815191528380a380f35b906020608492519162461bcd60e51b8352820152602660248201527f4f776e61626c653a206e6577206f776e657220697320746865207a65726f206160448201526564647265737360d01b6064820152fd5b8480fd5b8280fd5b509190346102d357610131366106ed565b8254855163b2a89e1560e01b815233818601529195602094909390926001600160a01b039286908290602490829087165afa9081156102c95787916102ac575b50156102715785968583600398979854169260248751809581936309af94f360e41b8352898301525afa918215610267579087949392918792610230575b50956101cb6101e69760648560025416956001541694046108a0565b865163a9059cbb60e01b8152978895869485939184016108e1565b03925af190811561022757506101fa578280f35b8161021992903d10610220575b6102118183610760565b8101906108c9565b5038808280f35b503d610207565b513d85823e3d90fd5b8581969293503d8311610260575b6102488183610760565b8101031261025c57925186936101cb6101af565b8580fd5b503d61023e565b85513d88823e3d90fd5b835162461bcd60e51b815280840186905260156024820152742ab73932b3b4b9ba32b932b21031b7b739bab6b2b960591b6044820152606490fd5b6102c39150863d8811610220576102118183610760565b38610171565b85513d89823e3d90fd5b5080fd5b503461011c57602091826003193601126104fe576003805483516309af94f360e41b815283358185018190526024969395926001600160a01b0390811692909185828a81875afa9182156104f4578a926104c1575b5084518a818b8163f790825d60e01b98898252868d8301525afa9081156104b7578b9161049d575b5051978a5b898110610364578b80f35b8b8b84828c89875416938c519384928d845283015281855afa90811561047f578c8f8b8d958c61039f8a8d988b988991610489575b50610876565b5151169651958694859384528301525afa90811561047f57928b92836103d28f94889061040398869161045d5750610876565b5101519160646103e78b8d60025416956108a0565b04938d519687958694859363095ea7b360e01b855284016108e1565b03925af1801561045357610436575b50600019811461042457600101610359565b634e487b7160e01b8c52601189528a8cfd5b61044c90893d8b11610220576102118183610760565b5038610412565b88513d8f823e3d90fd5b61047991503d8088833e6104718183610760565b810190610799565b38610399565b8a513d85823e3d90fd5b61047991503d808b833e6104718183610760565b6104b191503d808d833e6104718183610760565b38610354565b86513d8d823e3d90fd5b9091508581813d83116104ed575b6104d98183610760565b810103126104e95751903861032c565b8980fd5b503d6104cf565b85513d8c823e3d90fd5b8380fd5b8382346102d357816003193601126102d357905490516001600160a01b039091168152602090f35b8334610572578060031936011261057257610543610708565b80546001600160a01b03198116825581906001600160a01b03166000805160206108fd8339815191528280a380f35b80fd5b92919050346104fe57610587366106ed565b83546373b6f1d360e01b865233868601526020956001600160a01b039592918790829060249082908a165afa9081156106e35788916106c6575b501561068b57908692918686600354169360248751809681936309af94f360e41b8352878301525afa928315610681579087939291859361064b575b50936106196064939495848960025416996001541696046108a0565b96865197889586946323b872dd60e01b865285015233602485015260448401525af190811561022757506101fa578280f35b8093508491943d831161067a575b6106638183610760565b810103126104fe57905186929091906106196105fd565b503d610659565b85513d86823e3d90fd5b835162461bcd60e51b815280830187905260156024820152742ab73932b3b4b9ba32b932b21039bab8383634b2b960591b6044820152606490fd5b6106dd9150873d8911610220576102118183610760565b386105c1565b85513d8a823e3d90fd5b6040906003190112610703576004359060243590565b600080fd5b6000546001600160a01b0316330361071c57565b606460405162461bcd60e51b815260206004820152602060248201527f4f776e61626c653a2063616c6c6572206973206e6f7420746865206f776e65726044820152fd5b601f909101601f19168101906001600160401b0382119082101761078357604052565b634e487b7160e01b600052604160045260246000fd5b90602080838303126107035782516001600160401b039384821161070357019082601f8301121561070357815192848411610783576040948551956107e3848760051b0188610760565b8587528387019284606080980287010195818711610703578501935b86851061081157505050505050505090565b878583031261070357825190888201828110868211176108615784528551906001600160a01b0382168203610703578288928b9452828801518382015285880151868201528152019401936107ff565b60246000634e487b7160e01b81526041600452fd5b805182101561088a5760209160051b010190565b634e487b7160e01b600052603260045260246000fd5b818102929181159184041417156108b357565b634e487b7160e01b600052601160045260246000fd5b90816020910312610703575180151581036107035790565b6001600160a01b03909116815260208101919091526040019056fe8be0079c531659141344cd1fd0a4f28419497f9722a3daafe3b4186f6b6457e0",
    "linkReferences": {},
    "deployedLinkReferences": {},
    "default": {
        "_format": "hh-sol-artifact-1",
        "contractName": "Payment",
        "sourceName": "contracts/Payment.sol",
        "abi": [
            {
                "inputs": [
                    {
                        "internalType": "address",
                        "name": "_poolMarketAddress",
                        "type": "address"
                    },
                    {
                        "internalType": "address",
                        "name": "_etkContractAddress",
                        "type": "address"
                    },
                    {
                        "internalType": "address",
                        "name": "_registryContractAddress",
                        "type": "address"
                    }
                ],
                "stateMutability": "nonpayable",
                "type": "constructor"
            },
            {
                "anonymous": false,
                "inputs": [
                    {
                        "indexed": true,
                        "internalType": "address",
                        "name": "previousOwner",
                        "type": "address"
                    },
                    {
                        "indexed": true,
                        "internalType": "address",
                        "name": "newOwner",
                        "type": "address"
                    }
                ],
                "name": "OwnershipTransferred",
                "type": "event"
            },
            {
                "inputs": [
                    {
                        "internalType": "uint256",
                        "name": "_hour",
                        "type": "uint256"
                    },
                    {
                        "internalType": "uint256",
                        "name": "_meteredAmount",
                        "type": "uint256"
                    }
                ],
                "name": "charge",
                "outputs": [],
                "stateMutability": "nonpayable",
                "type": "function"
            },
            {
                "inputs": [
                    {
                        "internalType": "uint256",
                        "name": "_hour",
                        "type": "uint256"
                    }
                ],
                "name": "enableCharge",
                "outputs": [],
                "stateMutability": "nonpayable",
                "type": "function"
            },
            {
                "inputs": [],
                "name": "owner",
                "outputs": [
                    {
                        "internalType": "address",
                        "name": "",
                        "type": "address"
                    }
                ],
                "stateMutability": "view",
                "type": "function"
            },
            {
                "inputs": [
                    {
                        "internalType": "uint256",
                        "name": "_hour",
                        "type": "uint256"
                    },
                    {
                        "internalType": "uint256",
                        "name": "_meteredAmount",
                        "type": "uint256"
                    }
                ],
                "name": "pay",
                "outputs": [],
                "stateMutability": "nonpayable",
                "type": "function"
            },
            {
                "inputs": [],
                "name": "renounceOwnership",
                "outputs": [],
                "stateMutability": "nonpayable",
                "type": "function"
            },
            {
                "inputs": [
                    {
                        "internalType": "address",
                        "name": "newOwner",
                        "type": "address"
                    }
                ],
                "name": "transferOwnership",
                "outputs": [],
                "stateMutability": "nonpayable",
                "type": "function"
            }
        ],
        "bytecode": "0x6080346100e657601f610a3338819003918201601f19168301916001600160401b038311848410176100eb578084926060946040528339810103126100e65761004781610101565b61005f604061005860208501610101565b9301610101565b600080546001600160a01b03198082163390811784556040519691956001600160a01b0395948694859391908416907f8be0079c531659141344cd1fd0a4f28419497f9722a3daafe3b4186f6b6457e09080a33387600154161760015516856003541617600355168360025416176002551690600454161760045561091d90816101168239f35b600080fd5b634e487b7160e01b600052604160045260246000fd5b51906001600160a01b03821682036100e65756fe608060408181526004908136101561001657600080fd5b600092833560e01c9081632cc5af881461057557508063715018a61461052a5780638da5cb5b14610502578063c37dda2d146102d7578063ef48eee6146101205763f2fde38b1461006657600080fd5b3461011c57602036600319011261011c576001600160a01b0382358181169391929084900361011857610097610708565b83156100c657505082546001600160a01b0319811683178455166000805160206108fd8339815191528380a380f35b906020608492519162461bcd60e51b8352820152602660248201527f4f776e61626c653a206e6577206f776e657220697320746865207a65726f206160448201526564647265737360d01b6064820152fd5b8480fd5b8280fd5b509190346102d357610131366106ed565b8254855163b2a89e1560e01b815233818601529195602094909390926001600160a01b039286908290602490829087165afa9081156102c95787916102ac575b50156102715785968583600398979854169260248751809581936309af94f360e41b8352898301525afa918215610267579087949392918792610230575b50956101cb6101e69760648560025416956001541694046108a0565b865163a9059cbb60e01b8152978895869485939184016108e1565b03925af190811561022757506101fa578280f35b8161021992903d10610220575b6102118183610760565b8101906108c9565b5038808280f35b503d610207565b513d85823e3d90fd5b8581969293503d8311610260575b6102488183610760565b8101031261025c57925186936101cb6101af565b8580fd5b503d61023e565b85513d88823e3d90fd5b835162461bcd60e51b815280840186905260156024820152742ab73932b3b4b9ba32b932b21031b7b739bab6b2b960591b6044820152606490fd5b6102c39150863d8811610220576102118183610760565b38610171565b85513d89823e3d90fd5b5080fd5b503461011c57602091826003193601126104fe576003805483516309af94f360e41b815283358185018190526024969395926001600160a01b0390811692909185828a81875afa9182156104f4578a926104c1575b5084518a818b8163f790825d60e01b98898252868d8301525afa9081156104b7578b9161049d575b5051978a5b898110610364578b80f35b8b8b84828c89875416938c519384928d845283015281855afa90811561047f578c8f8b8d958c61039f8a8d988b988991610489575b50610876565b5151169651958694859384528301525afa90811561047f57928b92836103d28f94889061040398869161045d5750610876565b5101519160646103e78b8d60025416956108a0565b04938d519687958694859363095ea7b360e01b855284016108e1565b03925af1801561045357610436575b50600019811461042457600101610359565b634e487b7160e01b8c52601189528a8cfd5b61044c90893d8b11610220576102118183610760565b5038610412565b88513d8f823e3d90fd5b61047991503d8088833e6104718183610760565b810190610799565b38610399565b8a513d85823e3d90fd5b61047991503d808b833e6104718183610760565b6104b191503d808d833e6104718183610760565b38610354565b86513d8d823e3d90fd5b9091508581813d83116104ed575b6104d98183610760565b810103126104e95751903861032c565b8980fd5b503d6104cf565b85513d8c823e3d90fd5b8380fd5b8382346102d357816003193601126102d357905490516001600160a01b039091168152602090f35b8334610572578060031936011261057257610543610708565b80546001600160a01b03198116825581906001600160a01b03166000805160206108fd8339815191528280a380f35b80fd5b92919050346104fe57610587366106ed565b83546373b6f1d360e01b865233868601526020956001600160a01b039592918790829060249082908a165afa9081156106e35788916106c6575b501561068b57908692918686600354169360248751809681936309af94f360e41b8352878301525afa928315610681579087939291859361064b575b50936106196064939495848960025416996001541696046108a0565b96865197889586946323b872dd60e01b865285015233602485015260448401525af190811561022757506101fa578280f35b8093508491943d831161067a575b6106638183610760565b810103126104fe57905186929091906106196105fd565b503d610659565b85513d86823e3d90fd5b835162461bcd60e51b815280830187905260156024820152742ab73932b3b4b9ba32b932b21039bab8383634b2b960591b6044820152606490fd5b6106dd9150873d8911610220576102118183610760565b386105c1565b85513d8a823e3d90fd5b6040906003190112610703576004359060243590565b600080fd5b6000546001600160a01b0316330361071c57565b606460405162461bcd60e51b815260206004820152602060248201527f4f776e61626c653a2063616c6c6572206973206e6f7420746865206f776e65726044820152fd5b601f909101601f19168101906001600160401b0382119082101761078357604052565b634e487b7160e01b600052604160045260246000fd5b90602080838303126107035782516001600160401b039384821161070357019082601f8301121561070357815192848411610783576040948551956107e3848760051b0188610760565b8587528387019284606080980287010195818711610703578501935b86851061081157505050505050505090565b878583031261070357825190888201828110868211176108615784528551906001600160a01b0382168203610703578288928b9452828801518382015285880151868201528152019401936107ff565b60246000634e487b7160e01b81526041600452fd5b805182101561088a5760209160051b010190565b634e487b7160e01b600052603260045260246000fd5b818102929181159184041417156108b357565b634e487b7160e01b600052601160045260246000fd5b90816020910312610703575180151581036107035790565b6001600160a01b03909116815260208101919091526040019056fe8be0079c531659141344cd1fd0a4f28419497f9722a3daafe3b4186f6b6457e0",
        "deployedBytecode": "0x608060408181526004908136101561001657600080fd5b600092833560e01c9081632cc5af881461057557508063715018a61461052a5780638da5cb5b14610502578063c37dda2d146102d7578063ef48eee6146101205763f2fde38b1461006657600080fd5b3461011c57602036600319011261011c576001600160a01b0382358181169391929084900361011857610097610708565b83156100c657505082546001600160a01b0319811683178455166000805160206108fd8339815191528380a380f35b906020608492519162461bcd60e51b8352820152602660248201527f4f776e61626c653a206e6577206f776e657220697320746865207a65726f206160448201526564647265737360d01b6064820152fd5b8480fd5b8280fd5b509190346102d357610131366106ed565b8254855163b2a89e1560e01b815233818601529195602094909390926001600160a01b039286908290602490829087165afa9081156102c95787916102ac575b50156102715785968583600398979854169260248751809581936309af94f360e41b8352898301525afa918215610267579087949392918792610230575b50956101cb6101e69760648560025416956001541694046108a0565b865163a9059cbb60e01b8152978895869485939184016108e1565b03925af190811561022757506101fa578280f35b8161021992903d10610220575b6102118183610760565b8101906108c9565b5038808280f35b503d610207565b513d85823e3d90fd5b8581969293503d8311610260575b6102488183610760565b8101031261025c57925186936101cb6101af565b8580fd5b503d61023e565b85513d88823e3d90fd5b835162461bcd60e51b815280840186905260156024820152742ab73932b3b4b9ba32b932b21031b7b739bab6b2b960591b6044820152606490fd5b6102c39150863d8811610220576102118183610760565b38610171565b85513d89823e3d90fd5b5080fd5b503461011c57602091826003193601126104fe576003805483516309af94f360e41b815283358185018190526024969395926001600160a01b0390811692909185828a81875afa9182156104f4578a926104c1575b5084518a818b8163f790825d60e01b98898252868d8301525afa9081156104b7578b9161049d575b5051978a5b898110610364578b80f35b8b8b84828c89875416938c519384928d845283015281855afa90811561047f578c8f8b8d958c61039f8a8d988b988991610489575b50610876565b5151169651958694859384528301525afa90811561047f57928b92836103d28f94889061040398869161045d5750610876565b5101519160646103e78b8d60025416956108a0565b04938d519687958694859363095ea7b360e01b855284016108e1565b03925af1801561045357610436575b50600019811461042457600101610359565b634e487b7160e01b8c52601189528a8cfd5b61044c90893d8b11610220576102118183610760565b5038610412565b88513d8f823e3d90fd5b61047991503d8088833e6104718183610760565b810190610799565b38610399565b8a513d85823e3d90fd5b61047991503d808b833e6104718183610760565b6104b191503d808d833e6104718183610760565b38610354565b86513d8d823e3d90fd5b9091508581813d83116104ed575b6104d98183610760565b810103126104e95751903861032c565b8980fd5b503d6104cf565b85513d8c823e3d90fd5b8380fd5b8382346102d357816003193601126102d357905490516001600160a01b039091168152602090f35b8334610572578060031936011261057257610543610708565b80546001600160a01b03198116825581906001600160a01b03166000805160206108fd8339815191528280a380f35b80fd5b92919050346104fe57610587366106ed565b83546373b6f1d360e01b865233868601526020956001600160a01b039592918790829060249082908a165afa9081156106e35788916106c6575b501561068b57908692918686600354169360248751809681936309af94f360e41b8352878301525afa928315610681579087939291859361064b575b50936106196064939495848960025416996001541696046108a0565b96865197889586946323b872dd60e01b865285015233602485015260448401525af190811561022757506101fa578280f35b8093508491943d831161067a575b6106638183610760565b810103126104fe57905186929091906106196105fd565b503d610659565b85513d86823e3d90fd5b835162461bcd60e51b815280830187905260156024820152742ab73932b3b4b9ba32b932b21039bab8383634b2b960591b6044820152606490fd5b6106dd9150873d8911610220576102118183610760565b386105c1565b85513d8a823e3d90fd5b6040906003190112610703576004359060243590565b600080fd5b6000546001600160a01b0316330361071c57565b606460405162461bcd60e51b815260206004820152602060248201527f4f776e61626c653a2063616c6c6572206973206e6f7420746865206f776e65726044820152fd5b601f909101601f19168101906001600160401b0382119082101761078357604052565b634e487b7160e01b600052604160045260246000fd5b90602080838303126107035782516001600160401b039384821161070357019082601f8301121561070357815192848411610783576040948551956107e3848760051b0188610760565b8587528387019284606080980287010195818711610703578501935b86851061081157505050505050505090565b878583031261070357825190888201828110868211176108615784528551906001600160a01b0382168203610703578288928b9452828801518382015285880151868201528152019401936107ff565b60246000634e487b7160e01b81526041600452fd5b805182101561088a5760209160051b010190565b634e487b7160e01b600052603260045260246000fd5b818102929181159184041417156108b357565b634e487b7160e01b600052601160045260246000fd5b90816020910312610703575180151581036107035790565b6001600160a01b03909116815260208101919091526040019056fe8be0079c531659141344cd1fd0a4f28419497f9722a3daafe3b4186f6b6457e0",
        "linkReferences": {},
        "deployedLinkReferences": {}
    }
}