{
  "_format": "hh-sol-artifact-1",
  "contractName": "Payment",
  "sourceName": "contracts/Payment.sol",
  "abi": [
    {
      "inputs": [
        {
          "internalType": "address",
          "name": "_poolMarketAddress",
          "type": "address"
        },
        {
          "internalType": "address",
          "name": "_etkContractAddress",
          "type": "address"
        },
        {
          "internalType": "address",
          "name": "_registryContractAddress",
          "type": "address"
        }
      ],
      "stateMutability": "nonpayable",
      "type": "constructor"
    },
    {
      "anonymous": false,
      "inputs": [
        {
          "indexed": true,
          "internalType": "address",
          "name": "previousOwner",
          "type": "address"
        },
        {
          "indexed": true,
          "internalType": "address",
          "name": "newOwner",
          "type": "address"
        }
      ],
      "name": "OwnershipTransferred",
      "type": "event"
    },
    {
      "inputs": [
        {
          "internalType": "uint256",
          "name": "_hour",
          "type": "uint256"
        },
        {
          "internalType": "uint256",
          "name": "_meteredAmount",
          "type": "uint256"
        }
      ],
      "name": "charge",
      "outputs": [],
      "stateMutability": "nonpayable",
      "type": "function"
    },
    {
      "inputs": [
        {
          "internalType": "uint256",
          "name": "_hour",
          "type": "uint256"
        }
      ],
      "name": "enableCharge",
      "outputs": [],
      "stateMutability": "nonpayable",
      "type": "function"
    },
    {
      "inputs": [],
      "name": "energyToken",
      "outputs": [
        {
          "internalType": "contract IEnergyToken",
          "name": "",
          "type": "address"
        }
      ],
      "stateMutability": "view",
      "type": "function"
    },
    {
      "inputs": [],
      "name": "owner",
      "outputs": [
        {
          "internalType": "address",
          "name": "",
          "type": "address"
        }
      ],
      "stateMutability": "view",
      "type": "function"
    },
    {
      "inputs": [
        {
          "internalType": "uint256",
          "name": "_hour",
          "type": "uint256"
        },
        {
          "internalType": "uint256",
          "name": "_meteredAmount",
          "type": "uint256"
        }
      ],
      "name": "pay",
      "outputs": [],
      "stateMutability": "nonpayable",
      "type": "function"
    },
    {
      "inputs": [],
      "name": "poolMarketContract",
      "outputs": [
        {
          "internalType": "contract IPoolMarket",
          "name": "",
          "type": "address"
        }
      ],
      "stateMutability": "view",
      "type": "function"
    },
    {
      "inputs": [],
      "name": "registryContract",
      "outputs": [
        {
          "internalType": "contract IRegistry",
          "name": "",
          "type": "address"
        }
      ],
      "stateMutability": "view",
      "type": "function"
    },
    {
      "inputs": [],
      "name": "renounceOwnership",
      "outputs": [],
      "stateMutability": "nonpayable",
      "type": "function"
    },
    {
      "inputs": [
        {
          "internalType": "address",
          "name": "newOwner",
          "type": "address"
        }
      ],
      "name": "transferOwnership",
      "outputs": [],
      "stateMutability": "nonpayable",
      "type": "function"
    }
  ],
  "bytecode": "0x60806040523480156200001157600080fd5b506040516200197538038062001975833981810160405281019062000037919062000247565b620000576200004b6200016460201b60201c565b6200016c60201b60201c565b33600160006101000a81548173ffffffffffffffffffffffffffffffffffffffff021916908373ffffffffffffffffffffffffffffffffffffffff16021790555082600360006101000a81548173ffffffffffffffffffffffffffffffffffffffff021916908373ffffffffffffffffffffffffffffffffffffffff16021790555081600260006101000a81548173ffffffffffffffffffffffffffffffffffffffff021916908373ffffffffffffffffffffffffffffffffffffffff16021790555080600460006101000a81548173ffffffffffffffffffffffffffffffffffffffff021916908373ffffffffffffffffffffffffffffffffffffffff160217905550505050620002eb565b600033905090565b60008060009054906101000a900473ffffffffffffffffffffffffffffffffffffffff169050816000806101000a81548173ffffffffffffffffffffffffffffffffffffffff021916908373ffffffffffffffffffffffffffffffffffffffff1602179055508173ffffffffffffffffffffffffffffffffffffffff168173ffffffffffffffffffffffffffffffffffffffff167f8be0079c531659141344cd1fd0a4f28419497f9722a3daafe3b4186f6b6457e060405160405180910390a35050565b6000815190506200024181620002d1565b92915050565b6000806000606084860312156200025d57600080fd5b60006200026d8682870162000230565b9350506020620002808682870162000230565b9250506040620002938682870162000230565b9150509250925092565b6000620002aa82620002b1565b9050919050565b600073ffffffffffffffffffffffffffffffffffffffff82169050919050565b620002dc816200029d565b8114620002e857600080fd5b50565b61167a80620002fb6000396000f3fe608060405234801561001057600080fd5b50600436106100935760003560e01c80638da5cb5b116100665780638da5cb5b146100fa578063b9c7f6ba14610118578063c37dda2d14610136578063ef48eee614610152578063f2fde38b1461016e57610093565b806328c1f99b146100985780632cc5af88146100b65780634ec7fb81146100d2578063715018a6146100f0575b600080fd5b6100a061018a565b6040516100ad9190611226565b60405180910390f35b6100d060048036038101906100cb9190611062565b6101b0565b005b6100da61042f565b6040516100e791906111f0565b60405180910390f35b6100f8610455565b005b6101026104dd565b60405161010f9190611175565b60405180910390f35b610120610506565b60405161012d919061120b565b60405180910390f35b610150600480360381019061014b9190611010565b61052c565b005b61016c60048036038101906101679190611062565b6109dd565b005b61018860048036038101906101839190610f7d565b610c5a565b005b600460009054906101000a900473ffffffffffffffffffffffffffffffffffffffff1681565b33600460009054906101000a900473ffffffffffffffffffffffffffffffffffffffff1673ffffffffffffffffffffffffffffffffffffffff166373b6f1d3826040518263ffffffff1660e01b815260040161020c9190611175565b60206040518083038186803b15801561022457600080fd5b505afa158015610238573d6000803e3d6000fd5b505050506040513d601f19601f8201168201806040525081019061025c9190610fe7565b61029b576040517f08c379a000000000000000000000000000000000000000000000000000000000815260040161029290611261565b60405180910390fd5b6000600360009054906101000a900473ffffffffffffffffffffffffffffffffffffffff1673ffffffffffffffffffffffffffffffffffffffff16639af94f30856040518263ffffffff1660e01b81526004016102f891906112c1565b60206040518083038186803b15801561031057600080fd5b505afa158015610324573d6000803e3d6000fd5b505050506040513d601f19601f820116820180604052508101906103489190611039565b9050600260009054906101000a900473ffffffffffffffffffffffffffffffffffffffff1673ffffffffffffffffffffffffffffffffffffffff166323b872dd600160009054906101000a900473ffffffffffffffffffffffffffffffffffffffff163386856103b8919061133e565b6040518463ffffffff1660e01b81526004016103d693929190611190565b602060405180830381600087803b1580156103f057600080fd5b505af1158015610404573d6000803e3d6000fd5b505050506040513d601f19601f820116820180604052508101906104289190610fe7565b5050505050565b600260009054906101000a900473ffffffffffffffffffffffffffffffffffffffff1681565b61045d610d52565b73ffffffffffffffffffffffffffffffffffffffff1661047b6104dd565b73ffffffffffffffffffffffffffffffffffffffff16146104d1576040517f08c379a00000000000000000000000000000000000000000000000000000000081526004016104c890611281565b60405180910390fd5b6104db6000610d5a565b565b60008060009054906101000a900473ffffffffffffffffffffffffffffffffffffffff16905090565b600360009054906101000a900473ffffffffffffffffffffffffffffffffffffffff1681565b610534610d52565b73ffffffffffffffffffffffffffffffffffffffff166105526104dd565b73ffffffffffffffffffffffffffffffffffffffff16146105a8576040517f08c379a000000000000000000000000000000000000000000000000000000000815260040161059f90611281565b60405180910390fd5b6000600360009054906101000a900473ffffffffffffffffffffffffffffffffffffffff1673ffffffffffffffffffffffffffffffffffffffff16639af94f30836040518263ffffffff1660e01b815260040161060591906112c1565b60206040518083038186803b15801561061d57600080fd5b505afa158015610631573d6000803e3d6000fd5b505050506040513d601f19601f820116820180604052508101906106559190611039565b90506000600360009054906101000a900473ffffffffffffffffffffffffffffffffffffffff1673ffffffffffffffffffffffffffffffffffffffff1663f790825d846040518263ffffffff1660e01b81526004016106b491906112c1565b60006040518083038186803b1580156106cc57600080fd5b505afa1580156106e0573d6000803e3d6000fd5b505050506040513d6000823e3d601f19601f820116820180604052508101906107099190610fa6565b51905060005b818110156109d7576000600360009054906101000a900473ffffffffffffffffffffffffffffffffffffffff1673ffffffffffffffffffffffffffffffffffffffff1663f790825d866040518263ffffffff1660e01b815260040161077491906112c1565b60006040518083038186803b15801561078c57600080fd5b505afa1580156107a0573d6000803e3d6000fd5b505050506040513d6000823e3d601f19601f820116820180604052508101906107c99190610fa6565b8281518110610801577f4e487b7100000000000000000000000000000000000000000000000000000000600052603260045260246000fd5b60200260200101516000015190506000600360009054906101000a900473ffffffffffffffffffffffffffffffffffffffff1673ffffffffffffffffffffffffffffffffffffffff1663f790825d876040518263ffffffff1660e01b815260040161086c91906112c1565b60006040518083038186803b15801561088457600080fd5b505afa158015610898573d6000803e3d6000fd5b505050506040513d6000823e3d601f19601f820116820180604052508101906108c19190610fa6565b83815181106108f9577f4e487b7100000000000000000000000000000000000000000000000000000000600052603260045260246000fd5b6020026020010151602001519050600260009054906101000a900473ffffffffffffffffffffffffffffffffffffffff1673ffffffffffffffffffffffffffffffffffffffff1663095ea7b3838784610952919061133e565b6040518363ffffffff1660e01b815260040161096f9291906111c7565b602060405180830381600087803b15801561098957600080fd5b505af115801561099d573d6000803e3d6000fd5b505050506040513d601f19601f820116820180604052508101906109c19190610fe7565b50505080806109cf9061147d565b91505061070f565b50505050565b33600460009054906101000a900473ffffffffffffffffffffffffffffffffffffffff1673ffffffffffffffffffffffffffffffffffffffff1663b2a89e15826040518263ffffffff1660e01b8152600401610a399190611175565b60206040518083038186803b158015610a5157600080fd5b505afa158015610a65573d6000803e3d6000fd5b505050506040513d601f19601f82011682018060405250810190610a899190610fe7565b610ac8576040517f08c379a0000000000000000000000000000000000000000000000000000000008152600401610abf906112a1565b60405180910390fd5b6000600360009054906101000a900473ffffffffffffffffffffffffffffffffffffffff1673ffffffffffffffffffffffffffffffffffffffff16639af94f30856040518263ffffffff1660e01b8152600401610b2591906112c1565b60206040518083038186803b158015610b3d57600080fd5b505afa158015610b51573d6000803e3d6000fd5b505050506040513d601f19601f82011682018060405250810190610b759190611039565b9050600260009054906101000a900473ffffffffffffffffffffffffffffffffffffffff1673ffffffffffffffffffffffffffffffffffffffff1663a9059cbb600160009054906101000a900473ffffffffffffffffffffffffffffffffffffffff168584610be4919061133e565b6040518363ffffffff1660e01b8152600401610c019291906111c7565b602060405180830381600087803b158015610c1b57600080fd5b505af1158015610c2f573d6000803e3d6000fd5b505050506040513d601f19601f82011682018060405250810190610c539190610fe7565b5050505050565b610c62610d52565b73ffffffffffffffffffffffffffffffffffffffff16610c806104dd565b73ffffffffffffffffffffffffffffffffffffffff1614610cd6576040517f08c379a0000000000000000000000000000000000000000000000000000000008152600401610ccd90611281565b60405180910390fd5b600073ffffffffffffffffffffffffffffffffffffffff168173ffffffffffffffffffffffffffffffffffffffff161415610d46576040517f08c379a0000000000000000000000000000000000000000000000000000000008152600401610d3d90611241565b60405180910390fd5b610d4f81610d5a565b50565b600033905090565b60008060009054906101000a900473ffffffffffffffffffffffffffffffffffffffff169050816000806101000a81548173ffffffffffffffffffffffffffffffffffffffff021916908373ffffffffffffffffffffffffffffffffffffffff1602179055508173ffffffffffffffffffffffffffffffffffffffff168173ffffffffffffffffffffffffffffffffffffffff167f8be0079c531659141344cd1fd0a4f28419497f9722a3daafe3b4186f6b6457e060405160405180910390a35050565b6000610e31610e2c84611301565b6112dc565b90508083825260208201905082856060860282011115610e5057600080fd5b60005b85811015610e805781610e668882610ef3565b845260208401935060608301925050600181019050610e53565b5050509392505050565b600081359050610e99816115ff565b92915050565b600081519050610eae816115ff565b92915050565b600082601f830112610ec557600080fd5b8151610ed5848260208601610e1e565b91505092915050565b600081519050610eed81611616565b92915050565b600060608284031215610f0557600080fd5b610f0f60606112dc565b90506000610f1f84828501610e9f565b6000830152506020610f3384828501610f68565b6020830152506040610f4784828501610f68565b60408301525092915050565b600081359050610f628161162d565b92915050565b600081519050610f778161162d565b92915050565b600060208284031215610f8f57600080fd5b6000610f9d84828501610e8a565b91505092915050565b600060208284031215610fb857600080fd5b600082015167ffffffffffffffff811115610fd257600080fd5b610fde84828501610eb4565b91505092915050565b600060208284031215610ff957600080fd5b600061100784828501610ede565b91505092915050565b60006020828403121561102257600080fd5b600061103084828501610f53565b91505092915050565b60006020828403121561104b57600080fd5b600061105984828501610f68565b91505092915050565b6000806040838503121561107557600080fd5b600061108385828601610f53565b925050602061109485828601610f53565b9150509250929050565b6110a781611398565b82525050565b6110b6816113e0565b82525050565b6110c581611404565b82525050565b6110d481611428565b82525050565b60006110e760268361132d565b91506110f282611535565b604082019050919050565b600061110a60158361132d565b915061111582611584565b602082019050919050565b600061112d60208361132d565b9150611138826115ad565b602082019050919050565b600061115060158361132d565b915061115b826115d6565b602082019050919050565b61116f816113d6565b82525050565b600060208201905061118a600083018461109e565b92915050565b60006060820190506111a5600083018661109e565b6111b2602083018561109e565b6111bf6040830184611166565b949350505050565b60006040820190506111dc600083018561109e565b6111e96020830184611166565b9392505050565b600060208201905061120560008301846110ad565b92915050565b600060208201905061122060008301846110bc565b92915050565b600060208201905061123b60008301846110cb565b92915050565b6000602082019050818103600083015261125a816110da565b9050919050565b6000602082019050818103600083015261127a816110fd565b9050919050565b6000602082019050818103600083015261129a81611120565b9050919050565b600060208201905081810360008301526112ba81611143565b9050919050565b60006020820190506112d66000830184611166565b92915050565b60006112e66112f7565b90506112f2828261144c565b919050565b6000604051905090565b600067ffffffffffffffff82111561131c5761131b6114f5565b5b602082029050602081019050919050565b600082825260208201905092915050565b6000611349826113d6565b9150611354836113d6565b9250817fffffffffffffffffffffffffffffffffffffffffffffffffffffffffffffffff048311821515161561138d5761138c6114c6565b5b828202905092915050565b60006113a3826113b6565b9050919050565b60008115159050919050565b600073ffffffffffffffffffffffffffffffffffffffff82169050919050565b6000819050919050565b60006113eb826113f2565b9050919050565b60006113fd826113b6565b9050919050565b600061140f82611416565b9050919050565b6000611421826113b6565b9050919050565b60006114338261143a565b9050919050565b6000611445826113b6565b9050919050565b61145582611524565b810181811067ffffffffffffffff82111715611474576114736114f5565b5b80604052505050565b6000611488826113d6565b91507fffffffffffffffffffffffffffffffffffffffffffffffffffffffffffffffff8214156114bb576114ba6114c6565b5b600182019050919050565b7f4e487b7100000000000000000000000000000000000000000000000000000000600052601160045260246000fd5b7f4e487b7100000000000000000000000000000000000000000000000000000000600052604160045260246000fd5b6000601f19601f8301169050919050565b7f4f776e61626c653a206e6577206f776e657220697320746865207a65726f206160008201527f6464726573730000000000000000000000000000000000000000000000000000602082015250565b7f556e7265676973746572656420737570706c6965720000000000000000000000600082015250565b7f4f776e61626c653a2063616c6c6572206973206e6f7420746865206f776e6572600082015250565b7f556e7265676973746572656420636f6e73756d65720000000000000000000000600082015250565b61160881611398565b811461161357600080fd5b50565b61161f816113aa565b811461162a57600080fd5b50565b611636816113d6565b811461164157600080fd5b5056fea264697066735822122019000f4490532dcbe87c0d51525ec8be32f085b30ff37334110bef75a62e1a0c64736f6c63430008040033",
  "linkReferences": {},
  "deployedLinkReferences": {}
}