{
    "_format": "hh-sol-artifact-1",
    "contractName": "Payment",
    "sourceName": "contracts/Payment.sol",
    "abi": [
        {
            "inputs": [
                {
                    "internalType": "address",
                    "name": "_poolMarketAddress",
                    "type": "address"
                },
                {
                    "internalType": "address",
                    "name": "_etkContractAddress",
                    "type": "address"
                },
                {
                    "internalType": "address",
                    "name": "_registryContractAddress",
                    "type": "address"
                }
            ],
            "stateMutability": "nonpayable",
            "type": "constructor"
        },
        {
            "anonymous": false,
            "inputs": [
                {
                    "indexed": true,
                    "internalType": "address",
                    "name": "previousOwner",
                    "type": "address"
                },
                {
                    "indexed": true,
                    "internalType": "address",
                    "name": "newOwner",
                    "type": "address"
                }
            ],
            "name": "OwnershipTransferred",
            "type": "event"
        },
        {
            "inputs": [
                {
                    "internalType": "uint256",
                    "name": "_hour",
                    "type": "uint256"
                },
                {
                    "internalType": "uint256",
                    "name": "_meteredAmount",
                    "type": "uint256"
                }
            ],
            "name": "charge",
            "outputs": [],
            "stateMutability": "nonpayable",
            "type": "function"
        },
        {
            "inputs": [
                {
                    "internalType": "uint256",
                    "name": "_hour",
                    "type": "uint256"
                }
            ],
            "name": "enableCharge",
            "outputs": [],
            "stateMutability": "nonpayable",
            "type": "function"
        },
        {
            "inputs": [],
            "name": "energyToken",
            "outputs": [
                {
                    "internalType": "contract IEnergyToken",
                    "name": "",
                    "type": "address"
                }
            ],
            "stateMutability": "view",
            "type": "function"
        },
        {
            "inputs": [],
            "name": "owner",
            "outputs": [
                {
                    "internalType": "address",
                    "name": "",
                    "type": "address"
                }
            ],
            "stateMutability": "view",
            "type": "function"
        },
        {
            "inputs": [
                {
                    "internalType": "uint256",
                    "name": "_hour",
                    "type": "uint256"
                },
                {
                    "internalType": "uint256",
                    "name": "_meteredAmount",
                    "type": "uint256"
                }
            ],
            "name": "pay",
            "outputs": [],
            "stateMutability": "nonpayable",
            "type": "function"
        },
        {
            "inputs": [],
            "name": "poolMarketContract",
            "outputs": [
                {
                    "internalType": "contract IPoolMarket",
                    "name": "",
                    "type": "address"
                }
            ],
            "stateMutability": "view",
            "type": "function"
        },
        {
            "inputs": [],
            "name": "registryContract",
            "outputs": [
                {
                    "internalType": "contract IRegistry",
                    "name": "",
                    "type": "address"
                }
            ],
            "stateMutability": "view",
            "type": "function"
        },
        {
            "inputs": [],
            "name": "renounceOwnership",
            "outputs": [],
            "stateMutability": "nonpayable",
            "type": "function"
        },
        {
            "inputs": [
                {
                    "internalType": "address",
                    "name": "newOwner",
                    "type": "address"
                }
            ],
            "name": "transferOwnership",
            "outputs": [],
            "stateMutability": "nonpayable",
            "type": "function"
        }
    ],
    "bytecode": "0x6080346100e657601f610ac438819003918201601f19168301916001600160401b038311848410176100eb578084926060946040528339810103126100e65761004781610101565b61005f604061005860208501610101565b9301610101565b600080546001600160a01b03198082163390811784556040519691956001600160a01b0395948694859391908416907f8be0079c531659141344cd1fd0a4f28419497f9722a3daafe3b4186f6b6457e09080a3338760015416176001551685600354161760035516836002541617600255169060045416176004556109ae90816101168239f35b600080fd5b634e487b7160e01b600052604160045260246000fd5b51906001600160a01b03821682036100e65756fe608060408181526004908136101561001657600080fd5b600092833560e01c90816328c1f99b14610766575080632cc5af88146105f25780634ec7fb81146105c9578063715018a61461057a5780638da5cb5b14610552578063b9c7f6ba14610529578063c37dda2d146102f8578063ef48eee6146101445763f2fde38b1461008757600080fd5b34610140576020366003190112610140576001600160a01b038235818116939084900361013c578454918216926100bf3385146107a6565b84156100ea5750506001600160a01b0319168217835560008051602061098e8339815191528380a380f35b906020608492519162461bcd60e51b8352820152602660248201527f4f776e61626c653a206e6577206f776e657220697320746865207a65726f206160448201526564647265737360d01b6064820152fd5b8480fd5b8280fd5b509190346102f4576101553661078b565b8254855163b2a89e1560e01b815233818601529195602094909390926001600160a01b039286908290602490829087165afa9081156102ea5787916102cd575b50156102925785968583600398979854169260248751809581936309af94f360e41b8352898301525afa918215610288579087949392918792610251575b50956101ec610207978460025416946001541693610931565b865163a9059cbb60e01b815297889586948593918401610972565b03925af1908115610248575061021b578280f35b8161023a92903d10610241575b61023281836107f1565b81019061095a565b5038808280f35b503d610228565b513d85823e3d90fd5b8581969293503d8311610281575b61026981836107f1565b8101031261027d57925186936101ec6101d3565b8580fd5b503d61025f565b85513d88823e3d90fd5b835162461bcd60e51b815280840186905260156024820152742ab73932b3b4b9ba32b932b21031b7b739bab6b2b960591b6044820152606490fd5b6102e49150863d88116102415761023281836107f1565b38610195565b85513d89823e3d90fd5b5080fd5b503461014057602091826003193601126105255780359260018060a01b03926103258487541633146107a6565b600393808554169082516309af94f360e41b8152878682015260249785828a81875afa91821561051b578a926104e8575b5084518a818b8163f790825d60e01b98898252868d8301525afa9081156104de578b916104c4575b5051978a5b89811061038e578b80f35b8b8b84828c89875416938c519384928d845283015281855afa9081156104a6578c8f8b8d958c6103c98a8d988b9889916104b0575b50610907565b5151169651958694859384528301525afa9081156104a657928b92836103fc8f94889061042a9886916104845750610907565b5101519161040f8a8c6002541694610931565b8d5163095ea7b360e01b815296879586948593918401610972565b03925af1801561047a5761045d575b50600019811461044b57600101610383565b634e487b7160e01b8c52601189528a8cfd5b61047390893d8b116102415761023281836107f1565b5038610439565b88513d8f823e3d90fd5b6104a091503d8088833e61049881836107f1565b81019061082a565b386103c3565b8a513d85823e3d90fd5b6104a091503d808b833e61049881836107f1565b6104d891503d808d833e61049881836107f1565b3861037e565b86513d8d823e3d90fd5b9091508581813d8311610514575b61050081836107f1565b8101031261051057519038610356565b8980fd5b503d6104f6565b85513d8c823e3d90fd5b8380fd5b8382346102f457816003193601126102f45760035490516001600160a01b039091168152602090f35b8382346102f457816003193601126102f457905490516001600160a01b039091168152602090f35b83346105c657806003193601126105c657805481906001600160a01b038116906105a53383146107a6565b6001600160a01b031916825560008051602061098e8339815191528280a380f35b80fd5b8382346102f457816003193601126102f45760025490516001600160a01b039091168152602090f35b509034610140576106023661078b565b929060018060a01b03928381541694835180966373b6f1d360e01b825233848301528160246020998a935afa90811561075c57889161073f575b501561070457908692918686600354169360248751809681936309af94f360e41b8352878301525afa9283156106fa57908793929185936106c4575b509361069260649394958860025416986001541695610931565b96865197889586946323b872dd60e01b865285015233602485015260448401525af1908115610248575061021b578280f35b8093508491943d83116106f3575b6106dc81836107f1565b810103126105255790518692909190610692610678565b503d6106d2565b85513d86823e3d90fd5b835162461bcd60e51b815280830187905260156024820152742ab73932b3b4b9ba32b932b21039bab8383634b2b960591b6044820152606490fd5b6107569150873d89116102415761023281836107f1565b3861063c565b85513d8a823e3d90fd5b84908434610140578260031936011261014057546001600160a01b0316815260209150f35b60409060031901126107a1576004359060243590565b600080fd5b156107ad57565b606460405162461bcd60e51b815260206004820152602060248201527f4f776e61626c653a2063616c6c6572206973206e6f7420746865206f776e65726044820152fd5b601f909101601f19168101906001600160401b0382119082101761081457604052565b634e487b7160e01b600052604160045260246000fd5b90602080838303126107a15782516001600160401b03938482116107a157019082601f830112156107a15781519284841161081457604094855195610874848760051b01886107f1565b85875283870192846060809802870101958187116107a1578501935b8685106108a257505050505050505090565b87858303126107a157825190888201828110868211176108f25784528551906001600160a01b03821682036107a1578288928b945282880151838201528588015186820152815201940193610890565b60246000634e487b7160e01b81526041600452fd5b805182101561091b5760209160051b010190565b634e487b7160e01b600052603260045260246000fd5b8181029291811591840414171561094457565b634e487b7160e01b600052601160045260246000fd5b908160209103126107a1575180151581036107a15790565b6001600160a01b03909116815260208101919091526040019056fe8be0079c531659141344cd1fd0a4f28419497f9722a3daafe3b4186f6b6457e0",
    "linkReferences": {},
    "deployedLinkReferences": {},
    "default": {
        "_format": "hh-sol-artifact-1",
        "contractName": "Payment",
        "sourceName": "contracts/Payment.sol",
        "abi": [
            {
                "inputs": [
                    {
                        "internalType": "address",
                        "name": "_poolMarketAddress",
                        "type": "address"
                    },
                    {
                        "internalType": "address",
                        "name": "_etkContractAddress",
                        "type": "address"
                    },
                    {
                        "internalType": "address",
                        "name": "_registryContractAddress",
                        "type": "address"
                    }
                ],
                "stateMutability": "nonpayable",
                "type": "constructor"
            },
            {
                "anonymous": false,
                "inputs": [
                    {
                        "indexed": true,
                        "internalType": "address",
                        "name": "previousOwner",
                        "type": "address"
                    },
                    {
                        "indexed": true,
                        "internalType": "address",
                        "name": "newOwner",
                        "type": "address"
                    }
                ],
                "name": "OwnershipTransferred",
                "type": "event"
            },
            {
                "inputs": [
                    {
                        "internalType": "uint256",
                        "name": "_hour",
                        "type": "uint256"
                    },
                    {
                        "internalType": "uint256",
                        "name": "_meteredAmount",
                        "type": "uint256"
                    }
                ],
                "name": "charge",
                "outputs": [],
                "stateMutability": "nonpayable",
                "type": "function"
            },
            {
                "inputs": [
                    {
                        "internalType": "uint256",
                        "name": "_hour",
                        "type": "uint256"
                    }
                ],
                "name": "enableCharge",
                "outputs": [],
                "stateMutability": "nonpayable",
                "type": "function"
            },
            {
                "inputs": [],
                "name": "energyToken",
                "outputs": [
                    {
                        "internalType": "contract IEnergyToken",
                        "name": "",
                        "type": "address"
                    }
                ],
                "stateMutability": "view",
                "type": "function"
            },
            {
                "inputs": [],
                "name": "owner",
                "outputs": [
                    {
                        "internalType": "address",
                        "name": "",
                        "type": "address"
                    }
                ],
                "stateMutability": "view",
                "type": "function"
            },
            {
                "inputs": [
                    {
                        "internalType": "uint256",
                        "name": "_hour",
                        "type": "uint256"
                    },
                    {
                        "internalType": "uint256",
                        "name": "_meteredAmount",
                        "type": "uint256"
                    }
                ],
                "name": "pay",
                "outputs": [],
                "stateMutability": "nonpayable",
                "type": "function"
            },
            {
                "inputs": [],
                "name": "poolMarketContract",
                "outputs": [
                    {
                        "internalType": "contract IPoolMarket",
                        "name": "",
                        "type": "address"
                    }
                ],
                "stateMutability": "view",
                "type": "function"
            },
            {
                "inputs": [],
                "name": "registryContract",
                "outputs": [
                    {
                        "internalType": "contract IRegistry",
                        "name": "",
                        "type": "address"
                    }
                ],
                "stateMutability": "view",
                "type": "function"
            },
            {
                "inputs": [],
                "name": "renounceOwnership",
                "outputs": [],
                "stateMutability": "nonpayable",
                "type": "function"
            },
            {
                "inputs": [
                    {
                        "internalType": "address",
                        "name": "newOwner",
                        "type": "address"
                    }
                ],
                "name": "transferOwnership",
                "outputs": [],
                "stateMutability": "nonpayable",
                "type": "function"
            }
        ],
        "bytecode": "0x6080346100e657601f610ac438819003918201601f19168301916001600160401b038311848410176100eb578084926060946040528339810103126100e65761004781610101565b61005f604061005860208501610101565b9301610101565b600080546001600160a01b03198082163390811784556040519691956001600160a01b0395948694859391908416907f8be0079c531659141344cd1fd0a4f28419497f9722a3daafe3b4186f6b6457e09080a3338760015416176001551685600354161760035516836002541617600255169060045416176004556109ae90816101168239f35b600080fd5b634e487b7160e01b600052604160045260246000fd5b51906001600160a01b03821682036100e65756fe608060408181526004908136101561001657600080fd5b600092833560e01c90816328c1f99b14610766575080632cc5af88146105f25780634ec7fb81146105c9578063715018a61461057a5780638da5cb5b14610552578063b9c7f6ba14610529578063c37dda2d146102f8578063ef48eee6146101445763f2fde38b1461008757600080fd5b34610140576020366003190112610140576001600160a01b038235818116939084900361013c578454918216926100bf3385146107a6565b84156100ea5750506001600160a01b0319168217835560008051602061098e8339815191528380a380f35b906020608492519162461bcd60e51b8352820152602660248201527f4f776e61626c653a206e6577206f776e657220697320746865207a65726f206160448201526564647265737360d01b6064820152fd5b8480fd5b8280fd5b509190346102f4576101553661078b565b8254855163b2a89e1560e01b815233818601529195602094909390926001600160a01b039286908290602490829087165afa9081156102ea5787916102cd575b50156102925785968583600398979854169260248751809581936309af94f360e41b8352898301525afa918215610288579087949392918792610251575b50956101ec610207978460025416946001541693610931565b865163a9059cbb60e01b815297889586948593918401610972565b03925af1908115610248575061021b578280f35b8161023a92903d10610241575b61023281836107f1565b81019061095a565b5038808280f35b503d610228565b513d85823e3d90fd5b8581969293503d8311610281575b61026981836107f1565b8101031261027d57925186936101ec6101d3565b8580fd5b503d61025f565b85513d88823e3d90fd5b835162461bcd60e51b815280840186905260156024820152742ab73932b3b4b9ba32b932b21031b7b739bab6b2b960591b6044820152606490fd5b6102e49150863d88116102415761023281836107f1565b38610195565b85513d89823e3d90fd5b5080fd5b503461014057602091826003193601126105255780359260018060a01b03926103258487541633146107a6565b600393808554169082516309af94f360e41b8152878682015260249785828a81875afa91821561051b578a926104e8575b5084518a818b8163f790825d60e01b98898252868d8301525afa9081156104de578b916104c4575b5051978a5b89811061038e578b80f35b8b8b84828c89875416938c519384928d845283015281855afa9081156104a6578c8f8b8d958c6103c98a8d988b9889916104b0575b50610907565b5151169651958694859384528301525afa9081156104a657928b92836103fc8f94889061042a9886916104845750610907565b5101519161040f8a8c6002541694610931565b8d5163095ea7b360e01b815296879586948593918401610972565b03925af1801561047a5761045d575b50600019811461044b57600101610383565b634e487b7160e01b8c52601189528a8cfd5b61047390893d8b116102415761023281836107f1565b5038610439565b88513d8f823e3d90fd5b6104a091503d8088833e61049881836107f1565b81019061082a565b386103c3565b8a513d85823e3d90fd5b6104a091503d808b833e61049881836107f1565b6104d891503d808d833e61049881836107f1565b3861037e565b86513d8d823e3d90fd5b9091508581813d8311610514575b61050081836107f1565b8101031261051057519038610356565b8980fd5b503d6104f6565b85513d8c823e3d90fd5b8380fd5b8382346102f457816003193601126102f45760035490516001600160a01b039091168152602090f35b8382346102f457816003193601126102f457905490516001600160a01b039091168152602090f35b83346105c657806003193601126105c657805481906001600160a01b038116906105a53383146107a6565b6001600160a01b031916825560008051602061098e8339815191528280a380f35b80fd5b8382346102f457816003193601126102f45760025490516001600160a01b039091168152602090f35b509034610140576106023661078b565b929060018060a01b03928381541694835180966373b6f1d360e01b825233848301528160246020998a935afa90811561075c57889161073f575b501561070457908692918686600354169360248751809681936309af94f360e41b8352878301525afa9283156106fa57908793929185936106c4575b509361069260649394958860025416986001541695610931565b96865197889586946323b872dd60e01b865285015233602485015260448401525af1908115610248575061021b578280f35b8093508491943d83116106f3575b6106dc81836107f1565b810103126105255790518692909190610692610678565b503d6106d2565b85513d86823e3d90fd5b835162461bcd60e51b815280830187905260156024820152742ab73932b3b4b9ba32b932b21039bab8383634b2b960591b6044820152606490fd5b6107569150873d89116102415761023281836107f1565b3861063c565b85513d8a823e3d90fd5b84908434610140578260031936011261014057546001600160a01b0316815260209150f35b60409060031901126107a1576004359060243590565b600080fd5b156107ad57565b606460405162461bcd60e51b815260206004820152602060248201527f4f776e61626c653a2063616c6c6572206973206e6f7420746865206f776e65726044820152fd5b601f909101601f19168101906001600160401b0382119082101761081457604052565b634e487b7160e01b600052604160045260246000fd5b90602080838303126107a15782516001600160401b03938482116107a157019082601f830112156107a15781519284841161081457604094855195610874848760051b01886107f1565b85875283870192846060809802870101958187116107a1578501935b8685106108a257505050505050505090565b87858303126107a157825190888201828110868211176108f25784528551906001600160a01b03821682036107a1578288928b945282880151838201528588015186820152815201940193610890565b60246000634e487b7160e01b81526041600452fd5b805182101561091b5760209160051b010190565b634e487b7160e01b600052603260045260246000fd5b8181029291811591840414171561094457565b634e487b7160e01b600052601160045260246000fd5b908160209103126107a1575180151581036107a15790565b6001600160a01b03909116815260208101919091526040019056fe8be0079c531659141344cd1fd0a4f28419497f9722a3daafe3b4186f6b6457e0",
        "deployedBytecode": "0x608060408181526004908136101561001657600080fd5b600092833560e01c90816328c1f99b14610766575080632cc5af88146105f25780634ec7fb81146105c9578063715018a61461057a5780638da5cb5b14610552578063b9c7f6ba14610529578063c37dda2d146102f8578063ef48eee6146101445763f2fde38b1461008757600080fd5b34610140576020366003190112610140576001600160a01b038235818116939084900361013c578454918216926100bf3385146107a6565b84156100ea5750506001600160a01b0319168217835560008051602061098e8339815191528380a380f35b906020608492519162461bcd60e51b8352820152602660248201527f4f776e61626c653a206e6577206f776e657220697320746865207a65726f206160448201526564647265737360d01b6064820152fd5b8480fd5b8280fd5b509190346102f4576101553661078b565b8254855163b2a89e1560e01b815233818601529195602094909390926001600160a01b039286908290602490829087165afa9081156102ea5787916102cd575b50156102925785968583600398979854169260248751809581936309af94f360e41b8352898301525afa918215610288579087949392918792610251575b50956101ec610207978460025416946001541693610931565b865163a9059cbb60e01b815297889586948593918401610972565b03925af1908115610248575061021b578280f35b8161023a92903d10610241575b61023281836107f1565b81019061095a565b5038808280f35b503d610228565b513d85823e3d90fd5b8581969293503d8311610281575b61026981836107f1565b8101031261027d57925186936101ec6101d3565b8580fd5b503d61025f565b85513d88823e3d90fd5b835162461bcd60e51b815280840186905260156024820152742ab73932b3b4b9ba32b932b21031b7b739bab6b2b960591b6044820152606490fd5b6102e49150863d88116102415761023281836107f1565b38610195565b85513d89823e3d90fd5b5080fd5b503461014057602091826003193601126105255780359260018060a01b03926103258487541633146107a6565b600393808554169082516309af94f360e41b8152878682015260249785828a81875afa91821561051b578a926104e8575b5084518a818b8163f790825d60e01b98898252868d8301525afa9081156104de578b916104c4575b5051978a5b89811061038e578b80f35b8b8b84828c89875416938c519384928d845283015281855afa9081156104a6578c8f8b8d958c6103c98a8d988b9889916104b0575b50610907565b5151169651958694859384528301525afa9081156104a657928b92836103fc8f94889061042a9886916104845750610907565b5101519161040f8a8c6002541694610931565b8d5163095ea7b360e01b815296879586948593918401610972565b03925af1801561047a5761045d575b50600019811461044b57600101610383565b634e487b7160e01b8c52601189528a8cfd5b61047390893d8b116102415761023281836107f1565b5038610439565b88513d8f823e3d90fd5b6104a091503d8088833e61049881836107f1565b81019061082a565b386103c3565b8a513d85823e3d90fd5b6104a091503d808b833e61049881836107f1565b6104d891503d808d833e61049881836107f1565b3861037e565b86513d8d823e3d90fd5b9091508581813d8311610514575b61050081836107f1565b8101031261051057519038610356565b8980fd5b503d6104f6565b85513d8c823e3d90fd5b8380fd5b8382346102f457816003193601126102f45760035490516001600160a01b039091168152602090f35b8382346102f457816003193601126102f457905490516001600160a01b039091168152602090f35b83346105c657806003193601126105c657805481906001600160a01b038116906105a53383146107a6565b6001600160a01b031916825560008051602061098e8339815191528280a380f35b80fd5b8382346102f457816003193601126102f45760025490516001600160a01b039091168152602090f35b509034610140576106023661078b565b929060018060a01b03928381541694835180966373b6f1d360e01b825233848301528160246020998a935afa90811561075c57889161073f575b501561070457908692918686600354169360248751809681936309af94f360e41b8352878301525afa9283156106fa57908793929185936106c4575b509361069260649394958860025416986001541695610931565b96865197889586946323b872dd60e01b865285015233602485015260448401525af1908115610248575061021b578280f35b8093508491943d83116106f3575b6106dc81836107f1565b810103126105255790518692909190610692610678565b503d6106d2565b85513d86823e3d90fd5b835162461bcd60e51b815280830187905260156024820152742ab73932b3b4b9ba32b932b21039bab8383634b2b960591b6044820152606490fd5b6107569150873d89116102415761023281836107f1565b3861063c565b85513d8a823e3d90fd5b84908434610140578260031936011261014057546001600160a01b0316815260209150f35b60409060031901126107a1576004359060243590565b600080fd5b156107ad57565b606460405162461bcd60e51b815260206004820152602060248201527f4f776e61626c653a2063616c6c6572206973206e6f7420746865206f776e65726044820152fd5b601f909101601f19168101906001600160401b0382119082101761081457604052565b634e487b7160e01b600052604160045260246000fd5b90602080838303126107a15782516001600160401b03938482116107a157019082601f830112156107a15781519284841161081457604094855195610874848760051b01886107f1565b85875283870192846060809802870101958187116107a1578501935b8685106108a257505050505050505090565b87858303126107a157825190888201828110868211176108f25784528551906001600160a01b03821682036107a1578288928b945282880151838201528588015186820152815201940193610890565b60246000634e487b7160e01b81526041600452fd5b805182101561091b5760209160051b010190565b634e487b7160e01b600052603260045260246000fd5b8181029291811591840414171561094457565b634e487b7160e01b600052601160045260246000fd5b908160209103126107a1575180151581036107a15790565b6001600160a01b03909116815260208101919091526040019056fe8be0079c531659141344cd1fd0a4f28419497f9722a3daafe3b4186f6b6457e0",
        "linkReferences": {},
        "deployedLinkReferences": {}
    }
}