{
  "_format": "hh-sol-artifact-1",
  "contractName": "Registry",
  "sourceName": "contracts/Registry.sol",
  "abi": [
    {
      "inputs": [],
      "stateMutability": "nonpayable",
      "type": "constructor"
    },
    {
      "anonymous": false,
      "inputs": [
        {
          "indexed": true,
          "internalType": "address",
          "name": "previousOwner",
          "type": "address"
        },
        {
          "indexed": true,
          "internalType": "address",
          "name": "newOwner",
          "type": "address"
        }
      ],
      "name": "OwnershipTransferred",
      "type": "event"
    },
    {
      "inputs": [],
      "name": "authorizedEntity",
      "outputs": [
        {
          "internalType": "address",
          "name": "",
          "type": "address"
        }
      ],
      "stateMutability": "view",
      "type": "function"
    },
    {
      "inputs": [
        {
          "internalType": "address",
          "name": "_accountToFindAndDelete",
          "type": "address"
        }
      ],
      "name": "deleteConsumer",
      "outputs": [],
      "stateMutability": "nonpayable",
      "type": "function"
    },
    {
      "inputs": [
        {
          "internalType": "address",
          "name": "_accountToFindAndDelete",
          "type": "address"
        }
      ],
      "name": "deleteSupplier",
      "outputs": [],
      "stateMutability": "nonpayable",
      "type": "function"
    },
    {
      "inputs": [],
      "name": "getAllConsumers",
      "outputs": [
        {
          "internalType": "address[]",
          "name": "",
          "type": "address[]"
        }
      ],
      "stateMutability": "view",
      "type": "function"
    },
    {
      "inputs": [],
      "name": "getAllSuppliers",
      "outputs": [
        {
          "internalType": "address[]",
          "name": "",
          "type": "address[]"
        }
      ],
      "stateMutability": "view",
      "type": "function"
    },
    {
      "inputs": [
        {
          "internalType": "address",
          "name": "consumerAddress",
          "type": "address"
        }
      ],
      "name": "getConsumer",
      "outputs": [
        {
          "components": [
            {
              "internalType": "address",
              "name": "account",
              "type": "address"
            },
            {
              "internalType": "string",
              "name": "assetId",
              "type": "string"
            },
            {
              "internalType": "uint16",
              "name": "load",
              "type": "uint16"
            },
            {
              "internalType": "string",
              "name": "offerControl",
              "type": "string"
            }
          ],
          "internalType": "struct IRegistry.Consumer",
          "name": "",
          "type": "tuple"
        }
      ],
      "stateMutability": "view",
      "type": "function"
    },
    {
      "inputs": [
        {
          "internalType": "address",
          "name": "supplierAddress",
          "type": "address"
        }
      ],
      "name": "getSupplier",
      "outputs": [
        {
          "components": [
            {
              "internalType": "address",
              "name": "account",
              "type": "address"
            },
            {
              "internalType": "string",
              "name": "assetId",
              "type": "string"
            },
            {
              "internalType": "uint8",
              "name": "blockAmount",
              "type": "uint8"
            },
            {
              "internalType": "uint16",
              "name": "capacity",
              "type": "uint16"
            },
            {
              "internalType": "string",
              "name": "offerControl",
              "type": "string"
            }
          ],
          "internalType": "struct IRegistry.Supplier",
          "name": "",
          "type": "tuple"
        }
      ],
      "stateMutability": "view",
      "type": "function"
    },
    {
      "inputs": [],
      "name": "getTotalCapacity",
      "outputs": [
        {
          "internalType": "uint16",
          "name": "",
          "type": "uint16"
        }
      ],
      "stateMutability": "view",
      "type": "function"
    },
    {
      "inputs": [
        {
          "internalType": "address",
          "name": "account",
          "type": "address"
        }
      ],
      "name": "isRegisteredConsumer",
      "outputs": [
        {
          "internalType": "bool",
          "name": "",
          "type": "bool"
        }
      ],
      "stateMutability": "view",
      "type": "function"
    },
    {
      "inputs": [
        {
          "internalType": "address",
          "name": "account",
          "type": "address"
        }
      ],
      "name": "isRegisteredSupplier",
      "outputs": [
        {
          "internalType": "bool",
          "name": "",
          "type": "bool"
        }
      ],
      "stateMutability": "view",
      "type": "function"
    },
    {
      "inputs": [],
      "name": "owner",
      "outputs": [
        {
          "internalType": "address",
          "name": "",
          "type": "address"
        }
      ],
      "stateMutability": "view",
      "type": "function"
    },
    {
      "inputs": [
        {
          "internalType": "address",
          "name": "_account",
          "type": "address"
        },
        {
          "internalType": "string",
          "name": "_assetId",
          "type": "string"
        },
        {
          "internalType": "uint16",
          "name": "_load",
          "type": "uint16"
        },
        {
          "internalType": "string",
          "name": "_offerControl",
          "type": "string"
        }
      ],
      "name": "registerConsumer",
      "outputs": [],
      "stateMutability": "payable",
      "type": "function"
    },
    {
      "inputs": [
        {
          "internalType": "address",
          "name": "_account",
          "type": "address"
        },
        {
          "internalType": "string",
          "name": "_assetId",
          "type": "string"
        },
        {
          "internalType": "uint8",
          "name": "_blockAmount",
          "type": "uint8"
        },
        {
          "internalType": "uint16",
          "name": "_capacity",
          "type": "uint16"
        },
        {
          "internalType": "string",
          "name": "_offerControl",
          "type": "string"
        }
      ],
      "name": "registerSupplier",
      "outputs": [],
      "stateMutability": "payable",
      "type": "function"
    },
    {
      "inputs": [
        {
          "internalType": "uint256",
          "name": "",
          "type": "uint256"
        }
      ],
      "name": "registeredConsumerAccounts",
      "outputs": [
        {
          "internalType": "address",
          "name": "",
          "type": "address"
        }
      ],
      "stateMutability": "view",
      "type": "function"
    },
    {
      "inputs": [
        {
          "internalType": "address",
          "name": "",
          "type": "address"
        }
      ],
      "name": "registeredConsumers",
      "outputs": [
        {
          "internalType": "address",
          "name": "account",
          "type": "address"
        },
        {
          "internalType": "string",
          "name": "assetId",
          "type": "string"
        },
        {
          "internalType": "uint16",
          "name": "load",
          "type": "uint16"
        },
        {
          "internalType": "string",
          "name": "offerControl",
          "type": "string"
        }
      ],
      "stateMutability": "view",
      "type": "function"
    },
    {
      "inputs": [
        {
          "internalType": "uint256",
          "name": "",
          "type": "uint256"
        }
      ],
      "name": "registeredSupplierAccounts",
      "outputs": [
        {
          "internalType": "address",
          "name": "",
          "type": "address"
        }
      ],
      "stateMutability": "view",
      "type": "function"
    },
    {
      "inputs": [
        {
          "internalType": "address",
          "name": "",
          "type": "address"
        }
      ],
      "name": "registeredSuppliers",
      "outputs": [
        {
          "internalType": "address",
          "name": "account",
          "type": "address"
        },
        {
          "internalType": "string",
          "name": "assetId",
          "type": "string"
        },
        {
          "internalType": "uint8",
          "name": "blockAmount",
          "type": "uint8"
        },
        {
          "internalType": "uint16",
          "name": "capacity",
          "type": "uint16"
        },
        {
          "internalType": "string",
          "name": "offerControl",
          "type": "string"
        }
      ],
      "stateMutability": "view",
      "type": "function"
    },
    {
      "inputs": [],
      "name": "renounceOwnership",
      "outputs": [],
      "stateMutability": "nonpayable",
      "type": "function"
    },
    {
      "inputs": [],
      "name": "totalCapacity",
      "outputs": [
        {
          "internalType": "uint16",
          "name": "",
          "type": "uint16"
        }
      ],
      "stateMutability": "view",
      "type": "function"
    },
    {
      "inputs": [
        {
          "internalType": "address",
          "name": "newOwner",
          "type": "address"
        }
      ],
      "name": "transferOwnership",
      "outputs": [],
      "stateMutability": "nonpayable",
      "type": "function"
    }
  ],
  "bytecode": "0x60806040523480156200001157600080fd5b5062000032620000266200007960201b60201c565b6200008160201b60201c565b33600160006101000a81548173ffffffffffffffffffffffffffffffffffffffff021916908373ffffffffffffffffffffffffffffffffffffffff16021790555062000145565b600033905090565b60008060009054906101000a900473ffffffffffffffffffffffffffffffffffffffff169050816000806101000a81548173ffffffffffffffffffffffffffffffffffffffff021916908373ffffffffffffffffffffffffffffffffffffffff1602179055508173ffffffffffffffffffffffffffffffffffffffff168173ffffffffffffffffffffffffffffffffffffffff167f8be0079c531659141344cd1fd0a4f28419497f9722a3daafe3b4186f6b6457e060405160405180910390a35050565b6129af80620001556000396000f3fe60806040526004361061011f5760003560e01c806376ffadcb116100a0578063d6176e8911610064578063d6176e89146103df578063e1fa43a414610420578063e309b0131461043c578063f2fde38b14610479578063fe7009f2146104a25761011f565b806376ffadcb146102e45780638da5cb5b1461030f578063993084e81461033a578063b2a89e1514610377578063b53305dc146103b45761011f565b806342c00ce9116100e757806342c00ce9146101ff578063442c18f31461022857806368a4778814610253578063715018a61461029057806373b6f1d3146102a75761011f565b806309c167291461012457806318e944151461014d5780631efe4b0c146101695780632f91f1f4146101a9578063364dfb74146101d4575b600080fd5b34801561013057600080fd5b5061014b60048036038101906101469190611f01565b6104df565b005b61016760048036038101906101629190611f2a565b610777565b005b34801561017557600080fd5b50610190600480360381019061018b9190611f01565b6109d9565b6040516101a0949392919061236c565b60405180910390f35b3480156101b557600080fd5b506101be610b47565b6040516101cb9190612521565b60405180910390f35b3480156101e057600080fd5b506101e9610b5b565b6040516101f69190612420565b60405180910390f35b34801561020b57600080fd5b5061022660048036038101906102219190611f01565b610c65565b005b34801561023457600080fd5b5061023d610f9a565b60405161024a9190612521565b60405180910390f35b34801561025f57600080fd5b5061027a60048036038101906102759190612064565b610fb1565b6040516102879190612351565b60405180910390f35b34801561029c57600080fd5b506102a5610ff0565b005b3480156102b357600080fd5b506102ce60048036038101906102c99190611f01565b611078565b6040516102db9190612442565b60405180910390f35b3480156102f057600080fd5b506102f96110d3565b6040516103069190612351565b60405180910390f35b34801561031b57600080fd5b506103246110f9565b6040516103319190612351565b60405180910390f35b34801561034657600080fd5b50610361600480360381019061035c9190611f01565b611122565b60405161036e91906124dd565b60405180910390f35b34801561038357600080fd5b5061039e60048036038101906103999190611f01565b611315565b6040516103ab9190612442565b60405180910390f35b3480156103c057600080fd5b506103c9611370565b6040516103d69190612420565b60405180910390f35b3480156103eb57600080fd5b5061040660048036038101906104019190611f01565b61147a565b6040516104179594939291906123bf565b60405180910390f35b61043a60048036038101906104359190611fbd565b6115fb565b005b34801561044857600080fd5b50610463600480360381019061045e9190612064565b6118c1565b6040516104709190612351565b60405180910390f35b34801561048557600080fd5b506104a0600480360381019061049b9190611f01565b611900565b005b3480156104ae57600080fd5b506104c960048036038101906104c49190611f01565b6119f8565b6040516104d691906124ff565b60405180910390f35b6104e7611c08565b73ffffffffffffffffffffffffffffffffffffffff166105056110f9565b73ffffffffffffffffffffffffffffffffffffffff161461055b576040517f08c379a00000000000000000000000000000000000000000000000000000000081526004016105529061249d565b60405180910390fd5b6000600360008373ffffffffffffffffffffffffffffffffffffffff1673ffffffffffffffffffffffffffffffffffffffff16815260200190815260200160002060010180546105aa90612709565b9050146107745760005b6005805490508110156106d4578173ffffffffffffffffffffffffffffffffffffffff1660058281548110610612577f4e487b7100000000000000000000000000000000000000000000000000000000600052603260045260246000fd5b9060005260206000200160009054906101000a900473ffffffffffffffffffffffffffffffffffffffff1673ffffffffffffffffffffffffffffffffffffffff1614156106c15760058181548110610693577f4e487b7100000000000000000000000000000000000000000000000000000000600052603260045260246000fd5b9060005260206000200160006101000a81549073ffffffffffffffffffffffffffffffffffffffff02191690555b80806106cc9061276c565b9150506105b4565b50600360008273ffffffffffffffffffffffffffffffffffffffff1673ffffffffffffffffffffffffffffffffffffffff168152602001908152602001600020600080820160006101000a81549073ffffffffffffffffffffffffffffffffffffffff021916905560018201600061074c9190611cd4565b6002820160006101000a81549061ffff02191690556003820160006107719190611cd4565b50505b50565b826000815114156107bd576040517f08c379a00000000000000000000000000000000000000000000000000000000081526004016107b49061245d565b60405180910390fd5b6000600360008773ffffffffffffffffffffffffffffffffffffffff1673ffffffffffffffffffffffffffffffffffffffff168152602001908152602001600020600101805461080c90612709565b90501461084e576040517f08c379a0000000000000000000000000000000000000000000000000000000008152600401610845906124bd565b60405180910390fd5b60405180608001604052808673ffffffffffffffffffffffffffffffffffffffff1681526020018581526020018461ffff16815260200183815250600360008773ffffffffffffffffffffffffffffffffffffffff1673ffffffffffffffffffffffffffffffffffffffff16815260200190815260200160002060008201518160000160006101000a81548173ffffffffffffffffffffffffffffffffffffffff021916908373ffffffffffffffffffffffffffffffffffffffff160217905550602082015181600101908051906020019061092b929190611d14565b5060408201518160020160006101000a81548161ffff021916908361ffff160217905550606082015181600301908051906020019061096b929190611d14565b509050506005859080600181540180825580915050600190039060005260206000200160009091909190916101000a81548173ffffffffffffffffffffffffffffffffffffffff021916908373ffffffffffffffffffffffffffffffffffffffff1602179055505050505050565b60036020528060005260406000206000915090508060000160009054906101000a900473ffffffffffffffffffffffffffffffffffffffff1690806001018054610a2290612709565b80601f0160208091040260200160405190810160405280929190818152602001828054610a4e90612709565b8015610a9b5780601f10610a7057610100808354040283529160200191610a9b565b820191906000526020600020905b815481529060010190602001808311610a7e57829003601f168201915b5050505050908060020160009054906101000a900461ffff1690806003018054610ac490612709565b80601f0160208091040260200160405190810160405280929190818152602001828054610af090612709565b8015610b3d5780601f10610b1257610100808354040283529160200191610b3d565b820191906000526020600020905b815481529060010190602001808311610b2057829003601f168201915b5050505050905084565b600060149054906101000a900461ffff1681565b6060610b65611c08565b73ffffffffffffffffffffffffffffffffffffffff16610b836110f9565b73ffffffffffffffffffffffffffffffffffffffff1614610bd9576040517f08c379a0000000000000000000000000000000000000000000000000000000008152600401610bd09061249d565b60405180910390fd5b6005805480602002602001604051908101604052809291908181526020018280548015610c5b57602002820191906000526020600020905b8160009054906101000a900473ffffffffffffffffffffffffffffffffffffffff1673ffffffffffffffffffffffffffffffffffffffff1681526020019060010190808311610c11575b5050505050905090565b610c6d611c08565b73ffffffffffffffffffffffffffffffffffffffff16610c8b6110f9565b73ffffffffffffffffffffffffffffffffffffffff1614610ce1576040517f08c379a0000000000000000000000000000000000000000000000000000000008152600401610cd89061249d565b60405180910390fd5b6000600260008373ffffffffffffffffffffffffffffffffffffffff1673ffffffffffffffffffffffffffffffffffffffff1681526020019081526020016000206001018054610d3090612709565b905014610f9757600260008273ffffffffffffffffffffffffffffffffffffffff1673ffffffffffffffffffffffffffffffffffffffff16815260200190815260200160002060020160019054906101000a900461ffff16600060148282829054906101000a900461ffff16610da69190612630565b92506101000a81548161ffff021916908361ffff16021790555060005b600480549050811015610ee3578173ffffffffffffffffffffffffffffffffffffffff1660048281548110610e21577f4e487b7100000000000000000000000000000000000000000000000000000000600052603260045260246000fd5b9060005260206000200160009054906101000a900473ffffffffffffffffffffffffffffffffffffffff1673ffffffffffffffffffffffffffffffffffffffff161415610ed05760048181548110610ea2577f4e487b7100000000000000000000000000000000000000000000000000000000600052603260045260246000fd5b9060005260206000200160006101000a81549073ffffffffffffffffffffffffffffffffffffffff02191690555b8080610edb9061276c565b915050610dc3565b50600260008273ffffffffffffffffffffffffffffffffffffffff1673ffffffffffffffffffffffffffffffffffffffff168152602001908152602001600020600080820160006101000a81549073ffffffffffffffffffffffffffffffffffffffff0219169055600182016000610f5b9190611cd4565b6002820160006101000a81549060ff02191690556002820160016101000a81549061ffff0219169055600382016000610f949190611cd4565b50505b50565b60008060149054906101000a900461ffff16905090565b60058181548110610fc157600080fd5b906000526020600020016000915054906101000a900473ffffffffffffffffffffffffffffffffffffffff1681565b610ff8611c08565b73ffffffffffffffffffffffffffffffffffffffff166110166110f9565b73ffffffffffffffffffffffffffffffffffffffff161461106c576040517f08c379a00000000000000000000000000000000000000000000000000000000081526004016110639061249d565b60405180910390fd5b6110766000611c10565b565b600080600260008473ffffffffffffffffffffffffffffffffffffffff1673ffffffffffffffffffffffffffffffffffffffff16815260200190815260200160002060010180546110c890612709565b905014159050919050565b600160009054906101000a900473ffffffffffffffffffffffffffffffffffffffff1681565b60008060009054906101000a900473ffffffffffffffffffffffffffffffffffffffff16905090565b61112a611d9a565b600360008373ffffffffffffffffffffffffffffffffffffffff1673ffffffffffffffffffffffffffffffffffffffff1681526020019081526020016000206040518060800160405290816000820160009054906101000a900473ffffffffffffffffffffffffffffffffffffffff1673ffffffffffffffffffffffffffffffffffffffff1673ffffffffffffffffffffffffffffffffffffffff1681526020016001820180546111da90612709565b80601f016020809104026020016040519081016040528092919081815260200182805461120690612709565b80156112535780601f1061122857610100808354040283529160200191611253565b820191906000526020600020905b81548152906001019060200180831161123657829003601f168201915b505050505081526020016002820160009054906101000a900461ffff1661ffff1661ffff16815260200160038201805461128c90612709565b80601f01602080910402602001604051908101604052809291908181526020018280546112b890612709565b80156113055780601f106112da57610100808354040283529160200191611305565b820191906000526020600020905b8154815290600101906020018083116112e857829003601f168201915b5050505050815250509050919050565b600080600360008473ffffffffffffffffffffffffffffffffffffffff1673ffffffffffffffffffffffffffffffffffffffff168152602001908152602001600020600101805461136590612709565b905014159050919050565b606061137a611c08565b73ffffffffffffffffffffffffffffffffffffffff166113986110f9565b73ffffffffffffffffffffffffffffffffffffffff16146113ee576040517f08c379a00000000000000000000000000000000000000000000000000000000081526004016113e59061249d565b60405180910390fd5b600480548060200260200160405190810160405280929190818152602001828054801561147057602002820191906000526020600020905b8160009054906101000a900473ffffffffffffffffffffffffffffffffffffffff1673ffffffffffffffffffffffffffffffffffffffff1681526020019060010190808311611426575b5050505050905090565b60026020528060005260406000206000915090508060000160009054906101000a900473ffffffffffffffffffffffffffffffffffffffff16908060010180546114c390612709565b80601f01602080910402602001604051908101604052809291908181526020018280546114ef90612709565b801561153c5780601f106115115761010080835404028352916020019161153c565b820191906000526020600020905b81548152906001019060200180831161151f57829003601f168201915b5050505050908060020160009054906101000a900460ff16908060020160019054906101000a900461ffff169080600301805461157890612709565b80601f01602080910402602001604051908101604052809291908181526020018280546115a490612709565b80156115f15780601f106115c6576101008083540402835291602001916115f1565b820191906000526020600020905b8154815290600101906020018083116115d457829003601f168201915b5050505050905085565b83600081511415611641576040517f08c379a00000000000000000000000000000000000000000000000000000000081526004016116389061245d565b60405180910390fd5b6000600260008873ffffffffffffffffffffffffffffffffffffffff1673ffffffffffffffffffffffffffffffffffffffff168152602001908152602001600020600101805461169090612709565b9050146116d2576040517f08c379a00000000000000000000000000000000000000000000000000000000081526004016116c9906124bd565b60405180910390fd5b6040518060a001604052808773ffffffffffffffffffffffffffffffffffffffff1681526020018681526020018560ff1681526020018461ffff16815260200183815250600260008873ffffffffffffffffffffffffffffffffffffffff1673ffffffffffffffffffffffffffffffffffffffff16815260200190815260200160002060008201518160000160006101000a81548173ffffffffffffffffffffffffffffffffffffffff021916908373ffffffffffffffffffffffffffffffffffffffff16021790555060208201518160010190805190602001906117b8929190611d14565b5060408201518160020160006101000a81548160ff021916908360ff16021790555060608201518160020160016101000a81548161ffff021916908361ffff1602179055506080820151816003019080519060200190611819929190611d14565b509050506004869080600181540180825580915050600190039060005260206000200160009091909190916101000a81548173ffffffffffffffffffffffffffffffffffffffff021916908373ffffffffffffffffffffffffffffffffffffffff16021790555082600060148282829054906101000a900461ffff1661189f91906125f8565b92506101000a81548161ffff021916908361ffff160217905550505050505050565b600481815481106118d157600080fd5b906000526020600020016000915054906101000a900473ffffffffffffffffffffffffffffffffffffffff1681565b611908611c08565b73ffffffffffffffffffffffffffffffffffffffff166119266110f9565b73ffffffffffffffffffffffffffffffffffffffff161461197c576040517f08c379a00000000000000000000000000000000000000000000000000000000081526004016119739061249d565b60405180910390fd5b600073ffffffffffffffffffffffffffffffffffffffff168173ffffffffffffffffffffffffffffffffffffffff1614156119ec576040517f08c379a00000000000000000000000000000000000000000000000000000000081526004016119e39061247d565b60405180910390fd5b6119f581611c10565b50565b611a00611ddc565b600260008373ffffffffffffffffffffffffffffffffffffffff1673ffffffffffffffffffffffffffffffffffffffff1681526020019081526020016000206040518060a00160405290816000820160009054906101000a900473ffffffffffffffffffffffffffffffffffffffff1673ffffffffffffffffffffffffffffffffffffffff1673ffffffffffffffffffffffffffffffffffffffff168152602001600182018054611ab090612709565b80601f0160208091040260200160405190810160405280929190818152602001828054611adc90612709565b8015611b295780601f10611afe57610100808354040283529160200191611b29565b820191906000526020600020905b815481529060010190602001808311611b0c57829003601f168201915b505050505081526020016002820160009054906101000a900460ff1660ff1660ff1681526020016002820160019054906101000a900461ffff1661ffff1661ffff168152602001600382018054611b7f90612709565b80601f0160208091040260200160405190810160405280929190818152602001828054611bab90612709565b8015611bf85780601f10611bcd57610100808354040283529160200191611bf8565b820191906000526020600020905b815481529060010190602001808311611bdb57829003601f168201915b5050505050815250509050919050565b600033905090565b60008060009054906101000a900473ffffffffffffffffffffffffffffffffffffffff169050816000806101000a81548173ffffffffffffffffffffffffffffffffffffffff021916908373ffffffffffffffffffffffffffffffffffffffff1602179055508173ffffffffffffffffffffffffffffffffffffffff168173ffffffffffffffffffffffffffffffffffffffff167f8be0079c531659141344cd1fd0a4f28419497f9722a3daafe3b4186f6b6457e060405160405180910390a35050565b508054611ce090612709565b6000825580601f10611cf25750611d11565b601f016020900490600052602060002090810190611d109190611e28565b5b50565b828054611d2090612709565b90600052602060002090601f016020900481019282611d425760008555611d89565b82601f10611d5b57805160ff1916838001178555611d89565b82800160010185558215611d89579182015b82811115611d88578251825591602001919060010190611d6d565b5b509050611d969190611e28565b5090565b6040518060800160405280600073ffffffffffffffffffffffffffffffffffffffff16815260200160608152602001600061ffff168152602001606081525090565b6040518060a00160405280600073ffffffffffffffffffffffffffffffffffffffff16815260200160608152602001600060ff168152602001600061ffff168152602001606081525090565b5b80821115611e41576000816000905550600101611e29565b5090565b6000611e58611e5384612561565b61253c565b905082815260208101848484011115611e7057600080fd5b611e7b8482856126c7565b509392505050565b600081359050611e928161291d565b92915050565b600082601f830112611ea957600080fd5b8135611eb9848260208601611e45565b91505092915050565b600081359050611ed181612934565b92915050565b600081359050611ee68161294b565b92915050565b600081359050611efb81612962565b92915050565b600060208284031215611f1357600080fd5b6000611f2184828501611e83565b91505092915050565b60008060008060808587031215611f4057600080fd5b6000611f4e87828801611e83565b945050602085013567ffffffffffffffff811115611f6b57600080fd5b611f7787828801611e98565b9350506040611f8887828801611ec2565b925050606085013567ffffffffffffffff811115611fa557600080fd5b611fb187828801611e98565b91505092959194509250565b600080600080600060a08688031215611fd557600080fd5b6000611fe388828901611e83565b955050602086013567ffffffffffffffff81111561200057600080fd5b61200c88828901611e98565b945050604061201d88828901611eec565b935050606061202e88828901611ec2565b925050608086013567ffffffffffffffff81111561204b57600080fd5b61205788828901611e98565b9150509295509295909350565b60006020828403121561207657600080fd5b600061208484828501611ed7565b91505092915050565b600061209983836120a5565b60208301905092915050565b6120ae81612664565b82525050565b6120bd81612664565b82525050565b60006120ce826125a2565b6120d881856125c5565b93506120e383612592565b8060005b838110156121145781516120fb888261208d565b9750612106836125b8565b9250506001810190506120e7565b5085935050505092915050565b61212a81612676565b82525050565b600061213b826125ad565b61214581856125d6565b93506121558185602086016126d6565b61215e81612842565b840191505092915050565b6000612174826125ad565b61217e81856125e7565b935061218e8185602086016126d6565b61219781612842565b840191505092915050565b60006121af600f836125e7565b91506121ba82612853565b602082019050919050565b60006121d26026836125e7565b91506121dd8261287c565b604082019050919050565b60006121f56020836125e7565b9150612200826128cb565b602082019050919050565b6000612218601e836125e7565b9150612223826128f4565b602082019050919050565b600060808301600083015161224660008601826120a5565b506020830151848203602086015261225e8282612130565b91505060408301516122736040860182612315565b506060830151848203606086015261228b8282612130565b9150508091505092915050565b600060a0830160008301516122b060008601826120a5565b50602083015184820360208601526122c88282612130565b91505060408301516122dd6040860182612333565b5060608301516122f06060860182612315565b50608083015184820360808601526123088282612130565b9150508091505092915050565b61231e81612682565b82525050565b61232d81612682565b82525050565b61233c816126ba565b82525050565b61234b816126ba565b82525050565b600060208201905061236660008301846120b4565b92915050565b600060808201905061238160008301876120b4565b81810360208301526123938186612169565b90506123a26040830185612324565b81810360608301526123b48184612169565b905095945050505050565b600060a0820190506123d460008301886120b4565b81810360208301526123e68187612169565b90506123f56040830186612342565b6124026060830185612324565b81810360808301526124148184612169565b90509695505050505050565b6000602082019050818103600083015261243a81846120c3565b905092915050565b60006020820190506124576000830184612121565b92915050565b60006020820190508181036000830152612476816121a2565b9050919050565b60006020820190508181036000830152612496816121c5565b9050919050565b600060208201905081810360008301526124b6816121e8565b9050919050565b600060208201905081810360008301526124d68161220b565b9050919050565b600060208201905081810360008301526124f7818461222e565b905092915050565b600060208201905081810360008301526125198184612298565b905092915050565b60006020820190506125366000830184612324565b92915050565b6000612546612557565b9050612552828261273b565b919050565b6000604051905090565b600067ffffffffffffffff82111561257c5761257b612813565b5b61258582612842565b9050602081019050919050565b6000819050602082019050919050565b600081519050919050565b600081519050919050565b6000602082019050919050565b600082825260208201905092915050565b600082825260208201905092915050565b600082825260208201905092915050565b600061260382612682565b915061260e83612682565b92508261ffff03821115612625576126246127b5565b5b828201905092915050565b600061263b82612682565b915061264683612682565b925082821015612659576126586127b5565b5b828203905092915050565b600061266f82612690565b9050919050565b60008115159050919050565b600061ffff82169050919050565b600073ffffffffffffffffffffffffffffffffffffffff82169050919050565b6000819050919050565b600060ff82169050919050565b82818337600083830152505050565b60005b838110156126f45780820151818401526020810190506126d9565b83811115612703576000848401525b50505050565b6000600282049050600182168061272157607f821691505b60208210811415612735576127346127e4565b5b50919050565b61274482612842565b810181811067ffffffffffffffff8211171561276357612762612813565b5b80604052505050565b6000612777826126b0565b91507fffffffffffffffffffffffffffffffffffffffffffffffffffffffffffffffff8214156127aa576127a96127b5565b5b600182019050919050565b7f4e487b7100000000000000000000000000000000000000000000000000000000600052601160045260246000fd5b7f4e487b7100000000000000000000000000000000000000000000000000000000600052602260045260246000fd5b7f4e487b7100000000000000000000000000000000000000000000000000000000600052604160045260246000fd5b6000601f19601f8301169050919050565b7f496e76616c696420617373657449640000000000000000000000000000000000600082015250565b7f4f776e61626c653a206e6577206f776e657220697320746865207a65726f206160008201527f6464726573730000000000000000000000000000000000000000000000000000602082015250565b7f4f776e61626c653a2063616c6c6572206973206e6f7420746865206f776e6572600082015250565b7f4163636f756e742068617320616c726561647920726567697374657265640000600082015250565b61292681612664565b811461293157600080fd5b50565b61293d81612682565b811461294857600080fd5b50565b612954816126b0565b811461295f57600080fd5b50565b61296b816126ba565b811461297657600080fd5b5056fea264697066735822122077750d158cb1a2aec0a60c11f64ab2281171f7e5d2ed5bf2ac9f4f496feaf3ed64736f6c63430008040033",
  "linkReferences": {},
  "deployedLinkReferences": {}
}