{
    "_format": "hh-sol-artifact-1",
    "contractName": "Registry",
    "sourceName": "contracts/Registry.sol",
    "abi": [
        {
            "inputs": [],
            "stateMutability": "nonpayable",
            "type": "constructor"
        },
        {
            "anonymous": false,
            "inputs": [
                {
                    "indexed": true,
                    "internalType": "address",
                    "name": "previousOwner",
                    "type": "address"
                },
                {
                    "indexed": true,
                    "internalType": "address",
                    "name": "newOwner",
                    "type": "address"
                }
            ],
            "name": "OwnershipTransferred",
            "type": "event"
        },
        {
            "inputs": [],
            "name": "authorizedEntity",
            "outputs": [
                {
                    "internalType": "address",
                    "name": "",
                    "type": "address"
                }
            ],
            "stateMutability": "view",
            "type": "function"
        },
        {
            "inputs": [
                {
                    "internalType": "address",
                    "name": "_accountToFindAndDelete",
                    "type": "address"
                }
            ],
            "name": "deleteConsumer",
            "outputs": [],
            "stateMutability": "nonpayable",
            "type": "function"
        },
        {
            "inputs": [
                {
                    "internalType": "address",
                    "name": "_accountToFindAndDelete",
                    "type": "address"
                }
            ],
            "name": "deleteSupplier",
            "outputs": [],
            "stateMutability": "nonpayable",
            "type": "function"
        },
        {
            "inputs": [],
            "name": "getAllConsumers",
            "outputs": [
                {
                    "internalType": "address[]",
                    "name": "",
                    "type": "address[]"
                }
            ],
            "stateMutability": "view",
            "type": "function"
        },
        {
            "inputs": [],
            "name": "getAllSuppliers",
            "outputs": [
                {
                    "internalType": "address[]",
                    "name": "",
                    "type": "address[]"
                }
            ],
            "stateMutability": "view",
            "type": "function"
        },
        {
            "inputs": [
                {
                    "internalType": "address",
                    "name": "consumerAddress",
                    "type": "address"
                }
            ],
            "name": "getConsumer",
            "outputs": [
                {
                    "components": [
                        {
                            "internalType": "address",
                            "name": "account",
                            "type": "address"
                        },
                        {
                            "internalType": "string",
                            "name": "assetId",
                            "type": "string"
                        },
                        {
                            "internalType": "uint16",
                            "name": "load",
                            "type": "uint16"
                        },
                        {
                            "internalType": "string",
                            "name": "offerControl",
                            "type": "string"
                        }
                    ],
                    "internalType": "struct IRegistry.Consumer",
                    "name": "",
                    "type": "tuple"
                }
            ],
            "stateMutability": "view",
            "type": "function"
        },
        {
            "inputs": [
                {
                    "internalType": "address",
                    "name": "supplierAddress",
                    "type": "address"
                }
            ],
            "name": "getSupplier",
            "outputs": [
                {
                    "components": [
                        {
                            "internalType": "address",
                            "name": "account",
                            "type": "address"
                        },
                        {
                            "internalType": "string",
                            "name": "assetId",
                            "type": "string"
                        },
                        {
                            "internalType": "uint8",
                            "name": "blockAmount",
                            "type": "uint8"
                        },
                        {
                            "internalType": "uint16",
                            "name": "capacity",
                            "type": "uint16"
                        },
                        {
                            "internalType": "string",
                            "name": "offerControl",
                            "type": "string"
                        }
                    ],
                    "internalType": "struct IRegistry.Supplier",
                    "name": "",
                    "type": "tuple"
                }
            ],
            "stateMutability": "view",
            "type": "function"
        },
        {
            "inputs": [],
            "name": "getTotalCapacity",
            "outputs": [
                {
                    "internalType": "uint16",
                    "name": "",
                    "type": "uint16"
                }
            ],
            "stateMutability": "view",
            "type": "function"
        },
        {
            "inputs": [
                {
                    "internalType": "address",
                    "name": "account",
                    "type": "address"
                }
            ],
            "name": "isRegisteredConsumer",
            "outputs": [
                {
                    "internalType": "bool",
                    "name": "",
                    "type": "bool"
                }
            ],
            "stateMutability": "view",
            "type": "function"
        },
        {
            "inputs": [
                {
                    "internalType": "address",
                    "name": "account",
                    "type": "address"
                }
            ],
            "name": "isRegisteredSupplier",
            "outputs": [
                {
                    "internalType": "bool",
                    "name": "",
                    "type": "bool"
                }
            ],
            "stateMutability": "view",
            "type": "function"
        },
        {
            "inputs": [],
            "name": "owner",
            "outputs": [
                {
                    "internalType": "address",
                    "name": "",
                    "type": "address"
                }
            ],
            "stateMutability": "view",
            "type": "function"
        },
        {
            "inputs": [
                {
                    "internalType": "address",
                    "name": "_account",
                    "type": "address"
                },
                {
                    "internalType": "string",
                    "name": "_assetId",
                    "type": "string"
                },
                {
                    "internalType": "uint16",
                    "name": "_load",
                    "type": "uint16"
                },
                {
                    "internalType": "string",
                    "name": "_offerControl",
                    "type": "string"
                }
            ],
            "name": "registerConsumer",
            "outputs": [],
            "stateMutability": "payable",
            "type": "function"
        },
        {
            "inputs": [
                {
                    "internalType": "address",
                    "name": "_account",
                    "type": "address"
                },
                {
                    "internalType": "string",
                    "name": "_assetId",
                    "type": "string"
                },
                {
                    "internalType": "uint8",
                    "name": "_blockAmount",
                    "type": "uint8"
                },
                {
                    "internalType": "uint16",
                    "name": "_capacity",
                    "type": "uint16"
                },
                {
                    "internalType": "string",
                    "name": "_offerControl",
                    "type": "string"
                }
            ],
            "name": "registerSupplier",
            "outputs": [],
            "stateMutability": "payable",
            "type": "function"
        },
        {
            "inputs": [
                {
                    "internalType": "uint256",
                    "name": "",
                    "type": "uint256"
                }
            ],
            "name": "registeredConsumerAccounts",
            "outputs": [
                {
                    "internalType": "address",
                    "name": "",
                    "type": "address"
                }
            ],
            "stateMutability": "view",
            "type": "function"
        },
        {
            "inputs": [
                {
                    "internalType": "address",
                    "name": "",
                    "type": "address"
                }
            ],
            "name": "registeredConsumers",
            "outputs": [
                {
                    "internalType": "address",
                    "name": "account",
                    "type": "address"
                },
                {
                    "internalType": "string",
                    "name": "assetId",
                    "type": "string"
                },
                {
                    "internalType": "uint16",
                    "name": "load",
                    "type": "uint16"
                },
                {
                    "internalType": "string",
                    "name": "offerControl",
                    "type": "string"
                }
            ],
            "stateMutability": "view",
            "type": "function"
        },
        {
            "inputs": [
                {
                    "internalType": "uint256",
                    "name": "",
                    "type": "uint256"
                }
            ],
            "name": "registeredSupplierAccounts",
            "outputs": [
                {
                    "internalType": "address",
                    "name": "",
                    "type": "address"
                }
            ],
            "stateMutability": "view",
            "type": "function"
        },
        {
            "inputs": [
                {
                    "internalType": "address",
                    "name": "",
                    "type": "address"
                }
            ],
            "name": "registeredSuppliers",
            "outputs": [
                {
                    "internalType": "address",
                    "name": "account",
                    "type": "address"
                },
                {
                    "internalType": "string",
                    "name": "assetId",
                    "type": "string"
                },
                {
                    "internalType": "uint8",
                    "name": "blockAmount",
                    "type": "uint8"
                },
                {
                    "internalType": "uint16",
                    "name": "capacity",
                    "type": "uint16"
                },
                {
                    "internalType": "string",
                    "name": "offerControl",
                    "type": "string"
                }
            ],
            "stateMutability": "view",
            "type": "function"
        },
        {
            "inputs": [],
            "name": "renounceOwnership",
            "outputs": [],
            "stateMutability": "nonpayable",
            "type": "function"
        },
        {
            "inputs": [],
            "name": "totalCapacity",
            "outputs": [
                {
                    "internalType": "uint16",
                    "name": "",
                    "type": "uint16"
                }
            ],
            "stateMutability": "view",
            "type": "function"
        },
        {
            "inputs": [
                {
                    "internalType": "address",
                    "name": "newOwner",
                    "type": "address"
                }
            ],
            "name": "transferOwnership",
            "outputs": [],
            "stateMutability": "nonpayable",
            "type": "function"
        }
    ],
    "bytecode": "0x608080604052346100665760008054336001600160a01b0319808316821784559290916001600160a01b0316907f8be0079c531659141344cd1fd0a4f28419497f9722a3daafe3b4186f6b6457e09080a333906001541617600155611464908161006c8239f35b600080fdfe60406080815260048036101561001457600080fd5b600090813560e01c90816309c1672914610f7c57816318e9441514610c475781631efe4b0c14610bbf5781632f91f1f4146109e9578163364dfb7414610b3557816342c00ce914610a0d578163442c18f3146109e957816368a47788146109bd578163715018a61461097557816373b6f1d31461093757816376ffadcb1461090e5781638da5cb5b146108e6578163993084e81461080f578163b2a89e15146107c8578163b53305dc14610754578163d6176e89146106bf578163e1fa43a4146102f1578163e309b013146102b1578163f2fde38b146101fb575063fe7009f2146100fe57600080fd5b346101f857602090816003193601126101f8576101f4908361011e611029565b9160606080835161012e81611075565b83815287810183905284810184905282810184905201526001600160a01b0392831681526002855220845194859161016583611075565b83815416835260ff6101d361017c60018401611143565b9388860194855260a06002850154958a838901998689168b5260806101b2600360608d019a61ffff809d60081c168c5201611143565b9a01998a5284519d8e9d8e525116908c015251918a015260c08901906111e9565b94511660608701525116608085015251838203601f190160a08501526111e9565b0390f35b80fd5b839150346102ad5760203660031901126102ad57610217611029565b906102206112b9565b6001600160a01b0391821692831561025b57505082546001600160a01b0319811683178455166000805160206114448339815191528380a380f35b906020608492519162461bcd60e51b8352820152602660248201527f4f776e61626c653a206e6577206f776e657220697320746865207a65726f206160448201526564647265737360d01b6064820152fd5b8280fd5b8383346101f85760203660031901126101f857823592548310156101f857506102db60209261129e565b905491519160018060a01b039160031b1c168152f35b83915060a03660031901126102ad57610308611029565b6001600160401b039190846024358481116106bb5761032a90369085016110b3565b936044359060ff82168092036102ad576064359661ffff968789168099036106b7576084358381116106b35761036390369089016110b3565b9361037082511515611311565b60018060a01b03908a82891692838952602095600287526001996103a161039b8c8484200154611109565b1561134f565b8151956103ad87611075565b80875288870197885282870195865260608701948552608087019a8b5281526002885220935184546001600160a01b031916911617835592518051909390888401908781116106a057908e9695949392916104088254611109565b97601f98898111610674575b5087908983116001146106035790600397836105f8575b505060001982881b1c1916908b1b1790555b60ff6002840192511662ffff008354925160081b169162ffffff1916171790550193519081519384116105e557908392918b6104798754611109565b828582116105af575b5050508092841160011461054c57508a92610541575b5050600019600383901b1c191690831b1790555b825490600160401b82101561052e57816104cd916104ec949301855561129e565b90919082549060031b9160018060a01b03809116831b921b1916179055565b835492828460a01c160191821161051b575061ffff60a01b1990911660a09190911b61ffff60a01b1617815580f35b634e487b7160e01b845260119052602483fd5b634e487b7160e01b875260418452602487fd5b015190508980610498565b9190869450601f198416868d52838d20938d905b828210610596575050841161057d575b505050811b0190556104ac565b015160001960f88460031b161c19169055898080610570565b8484015186558997909501949384019390810190610560565b82896105d49452208580880160051c8201928589106105dc575b0160051c019061139b565b8b8d82610482565b925081926105c9565b634e487b7160e01b8b526041885260248bfd5b01519050388061042b565b8c9291601f1983168583528a8320925b8b82821061064d575050988360039a10610635575b505050811b01905561043d565b0151600019838a1b60f8161c19169055388080610628565b9192958b9487849397999a9b9c9d015181550195019301908e949299989796959391610613565b61069a908483528983208b80860160051c8201928c87106105dc570160051c019061139b565b38610414565b634e487b7160e01b8f5260418c5260248ffd5b8580fd5b8480fd5b5080fd5b8284346106bb5760203660031901126106bb576001600160a01b03916101f4908290846106ea611029565b168152600260205220928354169161070460018501611143565b9361ffff610719600360028401549301611143565b916107358451978897885260a0602089015260a08801906111e9565b9360ff82169087015260081c16606085015283820360808501526111e9565b8284346106bb57816003193601126106bb5761076e6112b9565b80519182845490818152602080910195835280832092905b8282106107a8576101f4868661079e828b0383611090565b5191829182611229565b83546001600160a01b031687529586019560019384019390910190610786565b8284346106bb5760203660031901126106bb576020916108069060019083906001600160a01b036107f7611029565b16815260038652200154611109565b15159051908152f35b8284346106bb576020806003193601126102ad576101f49082610830611029565b94606080835161083f81611044565b83815281868201528385820152015260018060a01b03809616815260038352209083519361086c85611044565b8583541685526108cc61088160018501611143565b91838701928352608061ffff936108a760038660028a01541698858c01998a5201611143565b9560608a0196875283519a8b9a828c525116908a0152519188015260a08701906111e9565b925116606085015251838203601f190160808501526111e9565b8284346106bb57816003193601126106bb57905490516001600160a01b039091168152602090f35b8284346106bb57816003193601126106bb5760015490516001600160a01b039091168152602090f35b8284346106bb5760203660031901126106bb576020916108069060019083906001600160a01b03610966611029565b16815260028652200154611109565b82346101f857806003193601126101f85761098e6112b9565b80546001600160a01b03198116825581906001600160a01b03166000805160206114448339815191528280a380f35b839150346102ad5760203660031901126102ad5735916005548310156101f857506102db60209261126d565b8284346106bb57816003193601126106bb5761ffff6020925460a01c169051908152f35b905082346102ad5760203660031901126102ad57610a29611029565b610a316112b9565b60018060a01b03809116908185526002602052600193610a55858588200154611109565b610a5d578580f35b828652600260205261ffff806002868920015460081c1690875491818360a01c1603908111610b225761ffff60a01b1990911660a09190911b61ffff60a01b1617865585855b610ac7575b505050610abe9250835260026020528220611420565b81808080808580f35b8154811015610b1d57808484610adf610af19461129e565b90549060031b1c1614610af7576113b2565b85610aa3565b610b18610b038261129e565b81549060018060a01b039060031b1b19169055565b6113b2565b610aa8565b634e487b7160e01b885260118352602488fd5b5050346101f857806003193601126101f857610b4f6112b9565b81516005805480835290835260208083019492937f036b6384b5eca791c62761152d0c79bb0604c104a5fb6f4eb0703f3154bb3db092915b828210610b9f576101f4868661079e828b0383611090565b83546001600160a01b031687529586019560019384019390910190610b87565b8284346106bb5760203660031901126106bb576001600160a01b03916101f490829084610bea611029565b1681526003602052209283541691610c0460018501611143565b93610c1a600361ffff6002840154169201611143565b90610c36835196879687526080602088015260808701906111e9565b9285015283820360608501526111e9565b828460803660031901126106bb57610c5d611029565b906001600160401b036024358181116106b757610c7d90369087016110b3565b9060443561ffff92838216809203610f7857606435838111610f7457610ca7889136908b016110b3565b94610cb483511515611311565b60018060a01b03938489169182845260039589610ce061039b6020978a895260019d8e91200154611109565b805194610cec86611044565b808652868601978852818601948552606086019a8b528d528786528c20935184546001600160a01b03191691161783559351805190949089840190888111610f60579087949392918d610d3f8354611109565b98601f998a8111610f34575b5088918a8411600114610ec157919083610eb6575b505060001982881b1c1916908c1b1790555b6002830191511661ffff19825416179055019451908151948511610ea3579084939291610d9f8754611109565b838111610e77575b5080928511600114610e1157508893610e06575b505082851b92600019911b1c19161790555b60055490600160401b821015610df357816104cd91610df094930160055561126d565b80f35b634e487b7160e01b845260418552602484fd5b015191508880610dbb565b929190879550601f198516878b52848b20948b905b828210610e5e5750508511610e44575b50505050811b019055610dcd565b01519060f884600019921b161c1916905587808080610e36565b8484015187558a98909601959384019390810190610e26565b610e9d90888c52828c208580890160051c820192858a106105dc570160051c019061139b565b8b610da7565b634e487b7160e01b895260418a52602489fd5b015190503880610d60565b90918e9392601f1984168684528b8420935b8c828210610f095750508411610ef1575b505050811b019055610d72565b0151600019838a1b60f8161c19169055388080610ee4565b929484849395989297999a9b9c9d5086015181550195019301918f9492918d9a999897969492610ed3565b610f5a908584528a84208c80870160051c8201928d88106105dc570160051c019061139b565b38610d4b565b50634e487b7160e01b8c5260418d5260248cfd5b8780fd5b8680fd5b8284346106bb5760203660031901126106bb57610f97611029565b90610fa06112b9565b60018060a01b0380921680845260039081602052600193610fc5858588200154611109565b610fcd578580f35b85855b610fe8575b5050610abe935084526020528220611420565b600554811015611024578083836110016110129461126d565b905490881b1c1614611018576113b2565b85610fd0565b610b18610b038261126d565b610fd5565b600435906001600160a01b038216820361103f57565b600080fd5b608081019081106001600160401b0382111761105f57604052565b634e487b7160e01b600052604160045260246000fd5b60a081019081106001600160401b0382111761105f57604052565b601f909101601f19168101906001600160401b0382119082101761105f57604052565b81601f8201121561103f578035906001600160401b03821161105f57604051926110e7601f8401601f191660200185611090565b8284526020838301011161103f57816000926020809301838601378301015290565b90600182811c92168015611139575b602083101461112357565b634e487b7160e01b600052602260045260246000fd5b91607f1691611118565b906040519182600082549261115784611109565b9081845260019485811690816000146111c65750600114611183575b505061118192500383611090565b565b9093915060005260209081600020936000915b8183106111ae57505061118193508201013880611173565b85548884018501529485019487945091830191611196565b91505061118194506020925060ff191682840152151560051b8201013880611173565b919082519283825260005b848110611215575050826000602080949584010152601f8019910116010190565b6020818301810151848301820152016111f4565b6020908160408183019282815285518094520193019160005b828110611250575050505090565b83516001600160a01b031685529381019392810192600101611242565b60055481101561128857600560005260206000200190600090565b634e487b7160e01b600052603260045260246000fd5b60045481101561128857600460005260206000200190600090565b6000546001600160a01b031633036112cd57565b606460405162461bcd60e51b815260206004820152602060248201527f4f776e61626c653a2063616c6c6572206973206e6f7420746865206f776e65726044820152fd5b1561131857565b60405162461bcd60e51b815260206004820152600f60248201526e125b9d985b1a5908185cdcd95d1259608a1b6044820152606490fd5b1561135657565b60405162461bcd60e51b815260206004820152601e60248201527f4163636f756e742068617320616c7265616479207265676973746572656400006044820152606490fd5b8181106113a6575050565b6000815560010161139b565b60001981146113c15760010190565b634e487b7160e01b600052601160045260246000fd5b6113e18154611109565b90816113eb575050565b81601f600093116001146113fd575055565b90808391825261141c601f60208420940160051c84016001850161139b565b5555565b60036111819160008155611436600182016113d7565b60006002820155016113d756fe8be0079c531659141344cd1fd0a4f28419497f9722a3daafe3b4186f6b6457e0",
    "linkReferences": {},
    "deployedLinkReferences": {},
    "default": {
        "_format": "hh-sol-artifact-1",
        "contractName": "Registry",
        "sourceName": "contracts/Registry.sol",
        "abi": [
            {
                "inputs": [],
                "stateMutability": "nonpayable",
                "type": "constructor"
            },
            {
                "anonymous": false,
                "inputs": [
                    {
                        "indexed": true,
                        "internalType": "address",
                        "name": "previousOwner",
                        "type": "address"
                    },
                    {
                        "indexed": true,
                        "internalType": "address",
                        "name": "newOwner",
                        "type": "address"
                    }
                ],
                "name": "OwnershipTransferred",
                "type": "event"
            },
            {
                "inputs": [],
                "name": "authorizedEntity",
                "outputs": [
                    {
                        "internalType": "address",
                        "name": "",
                        "type": "address"
                    }
                ],
                "stateMutability": "view",
                "type": "function"
            },
            {
                "inputs": [
                    {
                        "internalType": "address",
                        "name": "_accountToFindAndDelete",
                        "type": "address"
                    }
                ],
                "name": "deleteConsumer",
                "outputs": [],
                "stateMutability": "nonpayable",
                "type": "function"
            },
            {
                "inputs": [
                    {
                        "internalType": "address",
                        "name": "_accountToFindAndDelete",
                        "type": "address"
                    }
                ],
                "name": "deleteSupplier",
                "outputs": [],
                "stateMutability": "nonpayable",
                "type": "function"
            },
            {
                "inputs": [],
                "name": "getAllConsumers",
                "outputs": [
                    {
                        "internalType": "address[]",
                        "name": "",
                        "type": "address[]"
                    }
                ],
                "stateMutability": "view",
                "type": "function"
            },
            {
                "inputs": [],
                "name": "getAllSuppliers",
                "outputs": [
                    {
                        "internalType": "address[]",
                        "name": "",
                        "type": "address[]"
                    }
                ],
                "stateMutability": "view",
                "type": "function"
            },
            {
                "inputs": [
                    {
                        "internalType": "address",
                        "name": "consumerAddress",
                        "type": "address"
                    }
                ],
                "name": "getConsumer",
                "outputs": [
                    {
                        "components": [
                            {
                                "internalType": "address",
                                "name": "account",
                                "type": "address"
                            },
                            {
                                "internalType": "string",
                                "name": "assetId",
                                "type": "string"
                            },
                            {
                                "internalType": "uint16",
                                "name": "load",
                                "type": "uint16"
                            },
                            {
                                "internalType": "string",
                                "name": "offerControl",
                                "type": "string"
                            }
                        ],
                        "internalType": "struct IRegistry.Consumer",
                        "name": "",
                        "type": "tuple"
                    }
                ],
                "stateMutability": "view",
                "type": "function"
            },
            {
                "inputs": [
                    {
                        "internalType": "address",
                        "name": "supplierAddress",
                        "type": "address"
                    }
                ],
                "name": "getSupplier",
                "outputs": [
                    {
                        "components": [
                            {
                                "internalType": "address",
                                "name": "account",
                                "type": "address"
                            },
                            {
                                "internalType": "string",
                                "name": "assetId",
                                "type": "string"
                            },
                            {
                                "internalType": "uint8",
                                "name": "blockAmount",
                                "type": "uint8"
                            },
                            {
                                "internalType": "uint16",
                                "name": "capacity",
                                "type": "uint16"
                            },
                            {
                                "internalType": "string",
                                "name": "offerControl",
                                "type": "string"
                            }
                        ],
                        "internalType": "struct IRegistry.Supplier",
                        "name": "",
                        "type": "tuple"
                    }
                ],
                "stateMutability": "view",
                "type": "function"
            },
            {
                "inputs": [],
                "name": "getTotalCapacity",
                "outputs": [
                    {
                        "internalType": "uint16",
                        "name": "",
                        "type": "uint16"
                    }
                ],
                "stateMutability": "view",
                "type": "function"
            },
            {
                "inputs": [
                    {
                        "internalType": "address",
                        "name": "account",
                        "type": "address"
                    }
                ],
                "name": "isRegisteredConsumer",
                "outputs": [
                    {
                        "internalType": "bool",
                        "name": "",
                        "type": "bool"
                    }
                ],
                "stateMutability": "view",
                "type": "function"
            },
            {
                "inputs": [
                    {
                        "internalType": "address",
                        "name": "account",
                        "type": "address"
                    }
                ],
                "name": "isRegisteredSupplier",
                "outputs": [
                    {
                        "internalType": "bool",
                        "name": "",
                        "type": "bool"
                    }
                ],
                "stateMutability": "view",
                "type": "function"
            },
            {
                "inputs": [],
                "name": "owner",
                "outputs": [
                    {
                        "internalType": "address",
                        "name": "",
                        "type": "address"
                    }
                ],
                "stateMutability": "view",
                "type": "function"
            },
            {
                "inputs": [
                    {
                        "internalType": "address",
                        "name": "_account",
                        "type": "address"
                    },
                    {
                        "internalType": "string",
                        "name": "_assetId",
                        "type": "string"
                    },
                    {
                        "internalType": "uint16",
                        "name": "_load",
                        "type": "uint16"
                    },
                    {
                        "internalType": "string",
                        "name": "_offerControl",
                        "type": "string"
                    }
                ],
                "name": "registerConsumer",
                "outputs": [],
                "stateMutability": "payable",
                "type": "function"
            },
            {
                "inputs": [
                    {
                        "internalType": "address",
                        "name": "_account",
                        "type": "address"
                    },
                    {
                        "internalType": "string",
                        "name": "_assetId",
                        "type": "string"
                    },
                    {
                        "internalType": "uint8",
                        "name": "_blockAmount",
                        "type": "uint8"
                    },
                    {
                        "internalType": "uint16",
                        "name": "_capacity",
                        "type": "uint16"
                    },
                    {
                        "internalType": "string",
                        "name": "_offerControl",
                        "type": "string"
                    }
                ],
                "name": "registerSupplier",
                "outputs": [],
                "stateMutability": "payable",
                "type": "function"
            },
            {
                "inputs": [
                    {
                        "internalType": "uint256",
                        "name": "",
                        "type": "uint256"
                    }
                ],
                "name": "registeredConsumerAccounts",
                "outputs": [
                    {
                        "internalType": "address",
                        "name": "",
                        "type": "address"
                    }
                ],
                "stateMutability": "view",
                "type": "function"
            },
            {
                "inputs": [
                    {
                        "internalType": "address",
                        "name": "",
                        "type": "address"
                    }
                ],
                "name": "registeredConsumers",
                "outputs": [
                    {
                        "internalType": "address",
                        "name": "account",
                        "type": "address"
                    },
                    {
                        "internalType": "string",
                        "name": "assetId",
                        "type": "string"
                    },
                    {
                        "internalType": "uint16",
                        "name": "load",
                        "type": "uint16"
                    },
                    {
                        "internalType": "string",
                        "name": "offerControl",
                        "type": "string"
                    }
                ],
                "stateMutability": "view",
                "type": "function"
            },
            {
                "inputs": [
                    {
                        "internalType": "uint256",
                        "name": "",
                        "type": "uint256"
                    }
                ],
                "name": "registeredSupplierAccounts",
                "outputs": [
                    {
                        "internalType": "address",
                        "name": "",
                        "type": "address"
                    }
                ],
                "stateMutability": "view",
                "type": "function"
            },
            {
                "inputs": [
                    {
                        "internalType": "address",
                        "name": "",
                        "type": "address"
                    }
                ],
                "name": "registeredSuppliers",
                "outputs": [
                    {
                        "internalType": "address",
                        "name": "account",
                        "type": "address"
                    },
                    {
                        "internalType": "string",
                        "name": "assetId",
                        "type": "string"
                    },
                    {
                        "internalType": "uint8",
                        "name": "blockAmount",
                        "type": "uint8"
                    },
                    {
                        "internalType": "uint16",
                        "name": "capacity",
                        "type": "uint16"
                    },
                    {
                        "internalType": "string",
                        "name": "offerControl",
                        "type": "string"
                    }
                ],
                "stateMutability": "view",
                "type": "function"
            },
            {
                "inputs": [],
                "name": "renounceOwnership",
                "outputs": [],
                "stateMutability": "nonpayable",
                "type": "function"
            },
            {
                "inputs": [],
                "name": "totalCapacity",
                "outputs": [
                    {
                        "internalType": "uint16",
                        "name": "",
                        "type": "uint16"
                    }
                ],
                "stateMutability": "view",
                "type": "function"
            },
            {
                "inputs": [
                    {
                        "internalType": "address",
                        "name": "newOwner",
                        "type": "address"
                    }
                ],
                "name": "transferOwnership",
                "outputs": [],
                "stateMutability": "nonpayable",
                "type": "function"
            }
        ],
        "bytecode": "0x608080604052346100665760008054336001600160a01b0319808316821784559290916001600160a01b0316907f8be0079c531659141344cd1fd0a4f28419497f9722a3daafe3b4186f6b6457e09080a333906001541617600155611464908161006c8239f35b600080fdfe60406080815260048036101561001457600080fd5b600090813560e01c90816309c1672914610f7c57816318e9441514610c475781631efe4b0c14610bbf5781632f91f1f4146109e9578163364dfb7414610b3557816342c00ce914610a0d578163442c18f3146109e957816368a47788146109bd578163715018a61461097557816373b6f1d31461093757816376ffadcb1461090e5781638da5cb5b146108e6578163993084e81461080f578163b2a89e15146107c8578163b53305dc14610754578163d6176e89146106bf578163e1fa43a4146102f1578163e309b013146102b1578163f2fde38b146101fb575063fe7009f2146100fe57600080fd5b346101f857602090816003193601126101f8576101f4908361011e611029565b9160606080835161012e81611075565b83815287810183905284810184905282810184905201526001600160a01b0392831681526002855220845194859161016583611075565b83815416835260ff6101d361017c60018401611143565b9388860194855260a06002850154958a838901998689168b5260806101b2600360608d019a61ffff809d60081c168c5201611143565b9a01998a5284519d8e9d8e525116908c015251918a015260c08901906111e9565b94511660608701525116608085015251838203601f190160a08501526111e9565b0390f35b80fd5b839150346102ad5760203660031901126102ad57610217611029565b906102206112b9565b6001600160a01b0391821692831561025b57505082546001600160a01b0319811683178455166000805160206114448339815191528380a380f35b906020608492519162461bcd60e51b8352820152602660248201527f4f776e61626c653a206e6577206f776e657220697320746865207a65726f206160448201526564647265737360d01b6064820152fd5b8280fd5b8383346101f85760203660031901126101f857823592548310156101f857506102db60209261129e565b905491519160018060a01b039160031b1c168152f35b83915060a03660031901126102ad57610308611029565b6001600160401b039190846024358481116106bb5761032a90369085016110b3565b936044359060ff82168092036102ad576064359661ffff968789168099036106b7576084358381116106b35761036390369089016110b3565b9361037082511515611311565b60018060a01b03908a82891692838952602095600287526001996103a161039b8c8484200154611109565b1561134f565b8151956103ad87611075565b80875288870197885282870195865260608701948552608087019a8b5281526002885220935184546001600160a01b031916911617835592518051909390888401908781116106a057908e9695949392916104088254611109565b97601f98898111610674575b5087908983116001146106035790600397836105f8575b505060001982881b1c1916908b1b1790555b60ff6002840192511662ffff008354925160081b169162ffffff1916171790550193519081519384116105e557908392918b6104798754611109565b828582116105af575b5050508092841160011461054c57508a92610541575b5050600019600383901b1c191690831b1790555b825490600160401b82101561052e57816104cd916104ec949301855561129e565b90919082549060031b9160018060a01b03809116831b921b1916179055565b835492828460a01c160191821161051b575061ffff60a01b1990911660a09190911b61ffff60a01b1617815580f35b634e487b7160e01b845260119052602483fd5b634e487b7160e01b875260418452602487fd5b015190508980610498565b9190869450601f198416868d52838d20938d905b828210610596575050841161057d575b505050811b0190556104ac565b015160001960f88460031b161c19169055898080610570565b8484015186558997909501949384019390810190610560565b82896105d49452208580880160051c8201928589106105dc575b0160051c019061139b565b8b8d82610482565b925081926105c9565b634e487b7160e01b8b526041885260248bfd5b01519050388061042b565b8c9291601f1983168583528a8320925b8b82821061064d575050988360039a10610635575b505050811b01905561043d565b0151600019838a1b60f8161c19169055388080610628565b9192958b9487849397999a9b9c9d015181550195019301908e949299989796959391610613565b61069a908483528983208b80860160051c8201928c87106105dc570160051c019061139b565b38610414565b634e487b7160e01b8f5260418c5260248ffd5b8580fd5b8480fd5b5080fd5b8284346106bb5760203660031901126106bb576001600160a01b03916101f4908290846106ea611029565b168152600260205220928354169161070460018501611143565b9361ffff610719600360028401549301611143565b916107358451978897885260a0602089015260a08801906111e9565b9360ff82169087015260081c16606085015283820360808501526111e9565b8284346106bb57816003193601126106bb5761076e6112b9565b80519182845490818152602080910195835280832092905b8282106107a8576101f4868661079e828b0383611090565b5191829182611229565b83546001600160a01b031687529586019560019384019390910190610786565b8284346106bb5760203660031901126106bb576020916108069060019083906001600160a01b036107f7611029565b16815260038652200154611109565b15159051908152f35b8284346106bb576020806003193601126102ad576101f49082610830611029565b94606080835161083f81611044565b83815281868201528385820152015260018060a01b03809616815260038352209083519361086c85611044565b8583541685526108cc61088160018501611143565b91838701928352608061ffff936108a760038660028a01541698858c01998a5201611143565b9560608a0196875283519a8b9a828c525116908a0152519188015260a08701906111e9565b925116606085015251838203601f190160808501526111e9565b8284346106bb57816003193601126106bb57905490516001600160a01b039091168152602090f35b8284346106bb57816003193601126106bb5760015490516001600160a01b039091168152602090f35b8284346106bb5760203660031901126106bb576020916108069060019083906001600160a01b03610966611029565b16815260028652200154611109565b82346101f857806003193601126101f85761098e6112b9565b80546001600160a01b03198116825581906001600160a01b03166000805160206114448339815191528280a380f35b839150346102ad5760203660031901126102ad5735916005548310156101f857506102db60209261126d565b8284346106bb57816003193601126106bb5761ffff6020925460a01c169051908152f35b905082346102ad5760203660031901126102ad57610a29611029565b610a316112b9565b60018060a01b03809116908185526002602052600193610a55858588200154611109565b610a5d578580f35b828652600260205261ffff806002868920015460081c1690875491818360a01c1603908111610b225761ffff60a01b1990911660a09190911b61ffff60a01b1617865585855b610ac7575b505050610abe9250835260026020528220611420565b81808080808580f35b8154811015610b1d57808484610adf610af19461129e565b90549060031b1c1614610af7576113b2565b85610aa3565b610b18610b038261129e565b81549060018060a01b039060031b1b19169055565b6113b2565b610aa8565b634e487b7160e01b885260118352602488fd5b5050346101f857806003193601126101f857610b4f6112b9565b81516005805480835290835260208083019492937f036b6384b5eca791c62761152d0c79bb0604c104a5fb6f4eb0703f3154bb3db092915b828210610b9f576101f4868661079e828b0383611090565b83546001600160a01b031687529586019560019384019390910190610b87565b8284346106bb5760203660031901126106bb576001600160a01b03916101f490829084610bea611029565b1681526003602052209283541691610c0460018501611143565b93610c1a600361ffff6002840154169201611143565b90610c36835196879687526080602088015260808701906111e9565b9285015283820360608501526111e9565b828460803660031901126106bb57610c5d611029565b906001600160401b036024358181116106b757610c7d90369087016110b3565b9060443561ffff92838216809203610f7857606435838111610f7457610ca7889136908b016110b3565b94610cb483511515611311565b60018060a01b03938489169182845260039589610ce061039b6020978a895260019d8e91200154611109565b805194610cec86611044565b808652868601978852818601948552606086019a8b528d528786528c20935184546001600160a01b03191691161783559351805190949089840190888111610f60579087949392918d610d3f8354611109565b98601f998a8111610f34575b5088918a8411600114610ec157919083610eb6575b505060001982881b1c1916908c1b1790555b6002830191511661ffff19825416179055019451908151948511610ea3579084939291610d9f8754611109565b838111610e77575b5080928511600114610e1157508893610e06575b505082851b92600019911b1c19161790555b60055490600160401b821015610df357816104cd91610df094930160055561126d565b80f35b634e487b7160e01b845260418552602484fd5b015191508880610dbb565b929190879550601f198516878b52848b20948b905b828210610e5e5750508511610e44575b50505050811b019055610dcd565b01519060f884600019921b161c1916905587808080610e36565b8484015187558a98909601959384019390810190610e26565b610e9d90888c52828c208580890160051c820192858a106105dc570160051c019061139b565b8b610da7565b634e487b7160e01b895260418a52602489fd5b015190503880610d60565b90918e9392601f1984168684528b8420935b8c828210610f095750508411610ef1575b505050811b019055610d72565b0151600019838a1b60f8161c19169055388080610ee4565b929484849395989297999a9b9c9d5086015181550195019301918f9492918d9a999897969492610ed3565b610f5a908584528a84208c80870160051c8201928d88106105dc570160051c019061139b565b38610d4b565b50634e487b7160e01b8c5260418d5260248cfd5b8780fd5b8680fd5b8284346106bb5760203660031901126106bb57610f97611029565b90610fa06112b9565b60018060a01b0380921680845260039081602052600193610fc5858588200154611109565b610fcd578580f35b85855b610fe8575b5050610abe935084526020528220611420565b600554811015611024578083836110016110129461126d565b905490881b1c1614611018576113b2565b85610fd0565b610b18610b038261126d565b610fd5565b600435906001600160a01b038216820361103f57565b600080fd5b608081019081106001600160401b0382111761105f57604052565b634e487b7160e01b600052604160045260246000fd5b60a081019081106001600160401b0382111761105f57604052565b601f909101601f19168101906001600160401b0382119082101761105f57604052565b81601f8201121561103f578035906001600160401b03821161105f57604051926110e7601f8401601f191660200185611090565b8284526020838301011161103f57816000926020809301838601378301015290565b90600182811c92168015611139575b602083101461112357565b634e487b7160e01b600052602260045260246000fd5b91607f1691611118565b906040519182600082549261115784611109565b9081845260019485811690816000146111c65750600114611183575b505061118192500383611090565b565b9093915060005260209081600020936000915b8183106111ae57505061118193508201013880611173565b85548884018501529485019487945091830191611196565b91505061118194506020925060ff191682840152151560051b8201013880611173565b919082519283825260005b848110611215575050826000602080949584010152601f8019910116010190565b6020818301810151848301820152016111f4565b6020908160408183019282815285518094520193019160005b828110611250575050505090565b83516001600160a01b031685529381019392810192600101611242565b60055481101561128857600560005260206000200190600090565b634e487b7160e01b600052603260045260246000fd5b60045481101561128857600460005260206000200190600090565b6000546001600160a01b031633036112cd57565b606460405162461bcd60e51b815260206004820152602060248201527f4f776e61626c653a2063616c6c6572206973206e6f7420746865206f776e65726044820152fd5b1561131857565b60405162461bcd60e51b815260206004820152600f60248201526e125b9d985b1a5908185cdcd95d1259608a1b6044820152606490fd5b1561135657565b60405162461bcd60e51b815260206004820152601e60248201527f4163636f756e742068617320616c7265616479207265676973746572656400006044820152606490fd5b8181106113a6575050565b6000815560010161139b565b60001981146113c15760010190565b634e487b7160e01b600052601160045260246000fd5b6113e18154611109565b90816113eb575050565b81601f600093116001146113fd575055565b90808391825261141c601f60208420940160051c84016001850161139b565b5555565b60036111819160008155611436600182016113d7565b60006002820155016113d756fe8be0079c531659141344cd1fd0a4f28419497f9722a3daafe3b4186f6b6457e0",
        "deployedBytecode": "0x60406080815260048036101561001457600080fd5b600090813560e01c90816309c1672914610f7c57816318e9441514610c475781631efe4b0c14610bbf5781632f91f1f4146109e9578163364dfb7414610b3557816342c00ce914610a0d578163442c18f3146109e957816368a47788146109bd578163715018a61461097557816373b6f1d31461093757816376ffadcb1461090e5781638da5cb5b146108e6578163993084e81461080f578163b2a89e15146107c8578163b53305dc14610754578163d6176e89146106bf578163e1fa43a4146102f1578163e309b013146102b1578163f2fde38b146101fb575063fe7009f2146100fe57600080fd5b346101f857602090816003193601126101f8576101f4908361011e611029565b9160606080835161012e81611075565b83815287810183905284810184905282810184905201526001600160a01b0392831681526002855220845194859161016583611075565b83815416835260ff6101d361017c60018401611143565b9388860194855260a06002850154958a838901998689168b5260806101b2600360608d019a61ffff809d60081c168c5201611143565b9a01998a5284519d8e9d8e525116908c015251918a015260c08901906111e9565b94511660608701525116608085015251838203601f190160a08501526111e9565b0390f35b80fd5b839150346102ad5760203660031901126102ad57610217611029565b906102206112b9565b6001600160a01b0391821692831561025b57505082546001600160a01b0319811683178455166000805160206114448339815191528380a380f35b906020608492519162461bcd60e51b8352820152602660248201527f4f776e61626c653a206e6577206f776e657220697320746865207a65726f206160448201526564647265737360d01b6064820152fd5b8280fd5b8383346101f85760203660031901126101f857823592548310156101f857506102db60209261129e565b905491519160018060a01b039160031b1c168152f35b83915060a03660031901126102ad57610308611029565b6001600160401b039190846024358481116106bb5761032a90369085016110b3565b936044359060ff82168092036102ad576064359661ffff968789168099036106b7576084358381116106b35761036390369089016110b3565b9361037082511515611311565b60018060a01b03908a82891692838952602095600287526001996103a161039b8c8484200154611109565b1561134f565b8151956103ad87611075565b80875288870197885282870195865260608701948552608087019a8b5281526002885220935184546001600160a01b031916911617835592518051909390888401908781116106a057908e9695949392916104088254611109565b97601f98898111610674575b5087908983116001146106035790600397836105f8575b505060001982881b1c1916908b1b1790555b60ff6002840192511662ffff008354925160081b169162ffffff1916171790550193519081519384116105e557908392918b6104798754611109565b828582116105af575b5050508092841160011461054c57508a92610541575b5050600019600383901b1c191690831b1790555b825490600160401b82101561052e57816104cd916104ec949301855561129e565b90919082549060031b9160018060a01b03809116831b921b1916179055565b835492828460a01c160191821161051b575061ffff60a01b1990911660a09190911b61ffff60a01b1617815580f35b634e487b7160e01b845260119052602483fd5b634e487b7160e01b875260418452602487fd5b015190508980610498565b9190869450601f198416868d52838d20938d905b828210610596575050841161057d575b505050811b0190556104ac565b015160001960f88460031b161c19169055898080610570565b8484015186558997909501949384019390810190610560565b82896105d49452208580880160051c8201928589106105dc575b0160051c019061139b565b8b8d82610482565b925081926105c9565b634e487b7160e01b8b526041885260248bfd5b01519050388061042b565b8c9291601f1983168583528a8320925b8b82821061064d575050988360039a10610635575b505050811b01905561043d565b0151600019838a1b60f8161c19169055388080610628565b9192958b9487849397999a9b9c9d015181550195019301908e949299989796959391610613565b61069a908483528983208b80860160051c8201928c87106105dc570160051c019061139b565b38610414565b634e487b7160e01b8f5260418c5260248ffd5b8580fd5b8480fd5b5080fd5b8284346106bb5760203660031901126106bb576001600160a01b03916101f4908290846106ea611029565b168152600260205220928354169161070460018501611143565b9361ffff610719600360028401549301611143565b916107358451978897885260a0602089015260a08801906111e9565b9360ff82169087015260081c16606085015283820360808501526111e9565b8284346106bb57816003193601126106bb5761076e6112b9565b80519182845490818152602080910195835280832092905b8282106107a8576101f4868661079e828b0383611090565b5191829182611229565b83546001600160a01b031687529586019560019384019390910190610786565b8284346106bb5760203660031901126106bb576020916108069060019083906001600160a01b036107f7611029565b16815260038652200154611109565b15159051908152f35b8284346106bb576020806003193601126102ad576101f49082610830611029565b94606080835161083f81611044565b83815281868201528385820152015260018060a01b03809616815260038352209083519361086c85611044565b8583541685526108cc61088160018501611143565b91838701928352608061ffff936108a760038660028a01541698858c01998a5201611143565b9560608a0196875283519a8b9a828c525116908a0152519188015260a08701906111e9565b925116606085015251838203601f190160808501526111e9565b8284346106bb57816003193601126106bb57905490516001600160a01b039091168152602090f35b8284346106bb57816003193601126106bb5760015490516001600160a01b039091168152602090f35b8284346106bb5760203660031901126106bb576020916108069060019083906001600160a01b03610966611029565b16815260028652200154611109565b82346101f857806003193601126101f85761098e6112b9565b80546001600160a01b03198116825581906001600160a01b03166000805160206114448339815191528280a380f35b839150346102ad5760203660031901126102ad5735916005548310156101f857506102db60209261126d565b8284346106bb57816003193601126106bb5761ffff6020925460a01c169051908152f35b905082346102ad5760203660031901126102ad57610a29611029565b610a316112b9565b60018060a01b03809116908185526002602052600193610a55858588200154611109565b610a5d578580f35b828652600260205261ffff806002868920015460081c1690875491818360a01c1603908111610b225761ffff60a01b1990911660a09190911b61ffff60a01b1617865585855b610ac7575b505050610abe9250835260026020528220611420565b81808080808580f35b8154811015610b1d57808484610adf610af19461129e565b90549060031b1c1614610af7576113b2565b85610aa3565b610b18610b038261129e565b81549060018060a01b039060031b1b19169055565b6113b2565b610aa8565b634e487b7160e01b885260118352602488fd5b5050346101f857806003193601126101f857610b4f6112b9565b81516005805480835290835260208083019492937f036b6384b5eca791c62761152d0c79bb0604c104a5fb6f4eb0703f3154bb3db092915b828210610b9f576101f4868661079e828b0383611090565b83546001600160a01b031687529586019560019384019390910190610b87565b8284346106bb5760203660031901126106bb576001600160a01b03916101f490829084610bea611029565b1681526003602052209283541691610c0460018501611143565b93610c1a600361ffff6002840154169201611143565b90610c36835196879687526080602088015260808701906111e9565b9285015283820360608501526111e9565b828460803660031901126106bb57610c5d611029565b906001600160401b036024358181116106b757610c7d90369087016110b3565b9060443561ffff92838216809203610f7857606435838111610f7457610ca7889136908b016110b3565b94610cb483511515611311565b60018060a01b03938489169182845260039589610ce061039b6020978a895260019d8e91200154611109565b805194610cec86611044565b808652868601978852818601948552606086019a8b528d528786528c20935184546001600160a01b03191691161783559351805190949089840190888111610f60579087949392918d610d3f8354611109565b98601f998a8111610f34575b5088918a8411600114610ec157919083610eb6575b505060001982881b1c1916908c1b1790555b6002830191511661ffff19825416179055019451908151948511610ea3579084939291610d9f8754611109565b838111610e77575b5080928511600114610e1157508893610e06575b505082851b92600019911b1c19161790555b60055490600160401b821015610df357816104cd91610df094930160055561126d565b80f35b634e487b7160e01b845260418552602484fd5b015191508880610dbb565b929190879550601f198516878b52848b20948b905b828210610e5e5750508511610e44575b50505050811b019055610dcd565b01519060f884600019921b161c1916905587808080610e36565b8484015187558a98909601959384019390810190610e26565b610e9d90888c52828c208580890160051c820192858a106105dc570160051c019061139b565b8b610da7565b634e487b7160e01b895260418a52602489fd5b015190503880610d60565b90918e9392601f1984168684528b8420935b8c828210610f095750508411610ef1575b505050811b019055610d72565b0151600019838a1b60f8161c19169055388080610ee4565b929484849395989297999a9b9c9d5086015181550195019301918f9492918d9a999897969492610ed3565b610f5a908584528a84208c80870160051c8201928d88106105dc570160051c019061139b565b38610d4b565b50634e487b7160e01b8c5260418d5260248cfd5b8780fd5b8680fd5b8284346106bb5760203660031901126106bb57610f97611029565b90610fa06112b9565b60018060a01b0380921680845260039081602052600193610fc5858588200154611109565b610fcd578580f35b85855b610fe8575b5050610abe935084526020528220611420565b600554811015611024578083836110016110129461126d565b905490881b1c1614611018576113b2565b85610fd0565b610b18610b038261126d565b610fd5565b600435906001600160a01b038216820361103f57565b600080fd5b608081019081106001600160401b0382111761105f57604052565b634e487b7160e01b600052604160045260246000fd5b60a081019081106001600160401b0382111761105f57604052565b601f909101601f19168101906001600160401b0382119082101761105f57604052565b81601f8201121561103f578035906001600160401b03821161105f57604051926110e7601f8401601f191660200185611090565b8284526020838301011161103f57816000926020809301838601378301015290565b90600182811c92168015611139575b602083101461112357565b634e487b7160e01b600052602260045260246000fd5b91607f1691611118565b906040519182600082549261115784611109565b9081845260019485811690816000146111c65750600114611183575b505061118192500383611090565b565b9093915060005260209081600020936000915b8183106111ae57505061118193508201013880611173565b85548884018501529485019487945091830191611196565b91505061118194506020925060ff191682840152151560051b8201013880611173565b919082519283825260005b848110611215575050826000602080949584010152601f8019910116010190565b6020818301810151848301820152016111f4565b6020908160408183019282815285518094520193019160005b828110611250575050505090565b83516001600160a01b031685529381019392810192600101611242565b60055481101561128857600560005260206000200190600090565b634e487b7160e01b600052603260045260246000fd5b60045481101561128857600460005260206000200190600090565b6000546001600160a01b031633036112cd57565b606460405162461bcd60e51b815260206004820152602060248201527f4f776e61626c653a2063616c6c6572206973206e6f7420746865206f776e65726044820152fd5b1561131857565b60405162461bcd60e51b815260206004820152600f60248201526e125b9d985b1a5908185cdcd95d1259608a1b6044820152606490fd5b1561135657565b60405162461bcd60e51b815260206004820152601e60248201527f4163636f756e742068617320616c7265616479207265676973746572656400006044820152606490fd5b8181106113a6575050565b6000815560010161139b565b60001981146113c15760010190565b634e487b7160e01b600052601160045260246000fd5b6113e18154611109565b90816113eb575050565b81601f600093116001146113fd575055565b90808391825261141c601f60208420940160051c84016001850161139b565b5555565b60036111819160008155611436600182016113d7565b60006002820155016113d756fe8be0079c531659141344cd1fd0a4f28419497f9722a3daafe3b4186f6b6457e0",
        "linkReferences": {},
        "deployedLinkReferences": {}
    }
}